:100000000C94FC000C9424010C9424010C94240105
:100010000C9424010C9424010C9424010C942401CC
:100020000C9424010C9424010C9424010C942401BC
:100030000C9424010C9424010C9424010C942401AC
:100040000C942C1C0C9424010C94FA1B0C94D41BBF
:100050000C9424010C9424010C9424010C9424018C
:100060000C94761C0C9424016572726F723A200015
:10007000504155534544005248204D41583A005292
:1000800048204D494E3A00434F32204D41583A00E6
:100090002052483A00430054656D703A007C3C3E63
:1000A0005E2B3D3F2F5B5D3B2C2A225C0000000055
:1000B0000800020100000304070000000000000027
:1000C0000054696D652C20436F322C2054656D708F
:1000D0002C2052482C2046616E4F6E2C2048756DA6
:1000E0004F6E2C20436F324D61782C2052484D6961
:1000F0006E2C2052484D61782C20467265654D6506
:100100006D0054696D652C20436F322C2054656D51
:10011000702C2052482C2046616E4F6E2C20487562
:100120006D4F6E2C20436F324D61782C2052484D1C
:10013000696E2C2052484D61782C20467265654DC1
:10014000656D0031363A31373A3138004A616E20F8
:1001500031352032303231004C6F6767696E67206D
:10016000746F3A20006361726420696E697469611A
:100170006C697A65642E00496E697469616C697A8C
:10018000696E6720534420636172642E2E2E00092D
:100190000900454F46006572726F72206F70656E80
:1001A000696E672066696C6500454F460000000077
:1001B00000250028002B0000000000240027002A52
:1001C0000004040404040404040202020202020300
:1001D000030303030301020408102040800102040A
:1001E0000810200102040810201F1C1F1E1F1E1FC4
:1001F0001F1E1F1EA41D352C11241FBECFEFD8E0DB
:10020000DEBFCDBF12E0A0E0B1E0E2E5FFE502C055
:1002100005900D92A432B107D9F726E0A4E2B2E02E
:1002200001C01D92AB36B207E1F710E0CBEFD0E092
:1002300004C02197FE010E948E2ECA3FD107C9F744
:100240000E94D01E0C949C2F0C94000091E090937F
:10025000100580930F0510920E0510920D0508955C
:100260009091C0048091BF042FEF3FEF981748F49E
:10027000E92FF0E0E951FB4F208130E09F5F909340
:10028000C004C90108959091C0048091BF042FEF6C
:100290003FEF981748F4E92FF0E0E951FB4F208138
:1002A00030E09F5F9093C004C901089590E0FC0185
:1002B000EB52FE4F24918F539E4FFC018491882373
:1002C00099F090E0880F991FFC01E954FE4FA59129
:1002D000B491FC01E355FE4F859194918FB7F8944A
:1002E000EC91E22BEC938FBF0895CF93DF93FC0149
:1002F0008281938190932206809321068481958147
:10030000A681B7818093230690932406A0932506A7
:10031000B093260680859185A285B38580932706B4
:1003200090932806A0932906B0932A06DF011C9615
:10033000CF014996CBE2D6E02D912993A817B907B2
:10034000D9F7818D928D90933906809338068FE18D
:1003500096E0DF91CF910895FC019081909528E07F
:1003600081E397FF03C0990F982701C0990F21508F
:10037000C1F78181892798E021E387FF03C0880FB7
:10038000822701C0880F9150C1F7089508950895FC
:100390000895DC01ED91FC910190F081E02D09942C
:1003A000EF92FF920F931F93CF93DF938C017B010A
:1003B000D0E0C0E0F701EC0FFD1F6491662361F00F
:1003C000D801ED91FC910190F081E02DC8010995D3
:1003D000892B11F02196EECFCE01DF91CF911F91A5
:1003E0000F91FF90EF900895AF92BF92CF92DF925E
:1003F000EF92FF920F931F93CF93DF936C017B01DA
:100400008B01040F151FEB015E01AE18BF08C0176A
:10041000D10759F06991D601ED91FC910190F081DD
:10042000E02DC6010995892B79F7C501DF91CF91A0
:100430001F910F91FF90EF90DF90CF90BF90AF9002
:100440000895FC01538D448D252F30E0842F90E0DA
:10045000821B930B541710F0CF96089501970895BF
:10046000FC01918D828D981761F0A28DAE0FBF2F88
:10047000B11D5D968C91928D9F5F9F73928F90E0DE
:1004800008958FEF9FEF0895FC01918D828D98174D
:1004900031F0828DE80FF11D858D90E008958FEF8A
:1004A0009FEF0895FC01918D228D892F90E0805C53
:1004B0009F4F821B91098F739927089581E195E0E1
:1004C0000E94520221E0892B09F420E0822F089536
:1004D00080E090E0892B29F00E945E0281110C944B
:1004E00000000895FC01A48DA80FB92FB11DA35AD7
:1004F000BF4F2C91848D90E001968F739927848F44
:10050000A689B7892C93A089B1898C918370806466
:100510008C93938D848D981306C00288F389E02D07
:1005200080818F7D80830895EF92FF920F931F93B8
:10053000CF93DF93EC0181E0888F9B8D8C8D981396
:100540001AC0E889F989808185FF15C09FB7F894A2
:10055000EE89FF896083E889F989808183708064EE
:1005600080839FBF81E090E0DF91CF911F910F9139
:10057000FF90EF900895F62E0B8D10E00F5F1F4F48
:100580000F731127E02E8C8D8E110CC00FB607FC57
:10059000FACFE889F989808185FFF5CFCE010E94E5
:1005A0007202F1CFEB8DEC0FFD2FF11DE35AFF4FDF
:1005B000F0829FB7F8940B8FEA89FB898081806273
:1005C000CFCFCF93DF93EC01888D8823B9F0AA8930
:1005D000BB89E889F9898C9185FD03C0808186FDFE
:1005E0000DC00FB607FCF7CF8C9185FFF2CF80814D
:1005F00085FFEDCFCE010E947202E9CFDF91CF914E
:10060000089590E0FC01E355FF4F2491FC01EB526B
:10061000FE4F3491FC01EF53FE4FE491EE23C9F0FD
:10062000222339F0233001F1A8F4213019F12230CE
:1006300029F1F0E0EE0FFF1FE355FE4FA591B491B5
:100640008FB7F894EC91611126C030953E233C930E
:100650008FBF08952730A9F02830C9F0243049F71A
:10066000809180008F7D03C0809180008F77809380
:100670008000DFCF84B58F7784BDDBCF84B58F7DDD
:10068000FBCF8091B0008F778093B000D2CF809164
:10069000B0008F7DF9CF3E2BDACF3FB7F894809131
:1006A000930290919402A0919502B091960226B582
:1006B000A89B05C02F3F19F00196A11DB11D3FBF9A
:1006C000BA2FA92F982F8827BC01CD01620F711D69
:1006D000811D911D42E0660F771F881F991F4A9563
:1006E000D1F708952FB7F89460918F02709190021E
:1006F00080919102909192022FBF08950F931F93C2
:100700000E9472036093190570931A0580931B056C
:1007100090931C0581E195E00E94300297FF1DC077
:100720000E9472030091190510911A0520911B0572
:1007300030911C05601B710B820B930B009115050A
:100740001091160520911705309118056017710753
:1007500082079307F8F28FEF9FEF1F910F91089593
:10076000DC01ED91FC910190F081E02D0994FC01F8
:10077000908190539A3008F090E0818180532AE074
:10078000929F800D1124089520916B02260F33272C
:10079000331F21323105ECF420910705FC0190E074
:1007A00080E0243069F082E00895A0916B022191ED
:1007B000AC01455B5D4FA40FB52FB11D2C93019685
:1007C000861798F380916B02680F60936B0280E04C
:1007D000089581E008951092070581E08093E60472
:1007E0001092E10461E082E10E94010361E083E193
:1007F0000E940103E9EBF0E080818E7F808380819D
:100800008D7F808388E48093B80085E48093BC006A
:1008100008951092C0041092BF0410920E05109219
:100820000D050E94EB0386EC91E09093BE0480934B
:10083000BD0487EC91E09093BC048093BB040895C1
:10084000CF93DF9391E0909398028823B9F0C09101
:10085000B800D091BA008091BC008A7B8093BC0024
:1008600060E082E10E94010360E083E10E940103F5
:100870000E94EB03D093BA00C093B800DF91CF91F0
:100880000895CF92DF92EF92FF920F931F93CF9331
:10089000DF93D82FC62F613208F098C00E944D0315
:1008A0006B017C018091070581116BC081E0809311
:1008B00007058093E6049FEF9093E5041092E4040B
:1008C0009C0F9093E3048093E2048091E204DD0F97
:1008D000D82BD093E2048091E104813009F078C0F4
:1008E0001092E1040E944D036B017C018091E204AF
:1008F0008093BB008091090590910A05A0910B059A
:10090000B0910C05892B8A2B8B2BA1F00E944D03F3
:100910000091090510910A0520910B0530910C05F5
:100920006C197D098E099F090617170728073907D3
:1009300008F448C08091BC0083FDD8CF85EC80933B
:10094000BC000E944D036B017C0180910705813042
:1009500009F440C08091E4048C1710F4C091E404C1
:10096000E1ECF4E0A7EEB4E080E08C1355C08C2FEE
:10097000DF91CF911F910F91FF90EF90DF90CF907B
:1009800008958091090590910A05A0910B05B091F9
:100990000C05892B8A2B8B2B09F484CF0E944D03E5
:1009A0000091090510910A0520910B0530910C0565
:1009B0006C197D098E099F09061717072807390743
:1009C00008F070CF809108050E942004C0E0CFCFCE
:1009D00085EEB5CF8091090590910A05A0910B0590
:1009E000B0910C05892B8A2B8B2B09F4AECF0E947A
:1009F0004D030091090510910A0520910B053091D6
:100A00000C056C197D098E099F0906171707280721
:100A1000390708F09ACFD6CF91919D938F5FA5CFDC
:100A20000895E091C0048091BF04E81730F4F0E02D
:100A3000E951FB4F808190E008958FEF9FEF08957B
:100A40008091BF049091C004891B990B0895CF92A7
:100A5000DF92EF92FF920F931F93CF93DF937C016E
:100A6000CB018A0120911005222389F0EB016B0153
:100A7000C40ED51ECC15DD0569F06991D701ED9145
:100A8000FC910190F081E02DC7010995F3CF642F0F
:100A90000E94C403C801DF91CF911F910F91FF9075
:100AA000EF90DF90CF900895CF93DF931F92CDB753
:100AB000DEB76983209110052223F9F020910D05FE
:100AC000203258F021E030E0FC013383228390E0B3
:100AD00080E00F90DF91CF91089580910E05E82F6F
:100AE000F0E0E55DFD4F998190838F5F80930E0567
:100AF00080930D0581E090E0ECCF61E0CE0101969E
:100B00000E94C403F7CF682F8EEA95E00C94540539
:100B1000CF92DF92EF92FF920F931F93CF93DF93C9
:100B2000D0910D0581E0D13208F09CC0C0910F0535
:100B30000E944D036B017C018091070581116CC0FF
:100B400082E08093070581E08093E6048FEF809335
:100B5000E5041092E404D093E304ABE2B2E0E1ECEC
:100B6000F4E080E0D8138DC01092E2048091E2049A
:100B7000CC0FC82BC093E2048091E104813009F0CE
:100B800084C01092E1040E944D036B017C018091AE
:100B9000E2048093BB008091090590910A05A09121
:100BA0000B05B0910C05892B8A2B8B2BA1F00E9491
:100BB0004D030091090510910A0520910B05309114
:100BC0000C056C197D098E099F0906171707280760
:100BD000390708F442C08091BC0083FDD8CF85EC72
:100BE0008093BC000E944D036B017C01809107053E
:100BF000823009F44CC08091E5048F3F09F469C04C
:100C00008091E504803209F466C08091E504803368
:100C100009F463C084E026C08091090590910A051B
:100C2000A0910B05B0910C05892B8A2B8B2B09F415
:100C300083CF0E944D030091090510910A05209170
:100C40000B0530910C056C197D098E099F0906175B
:100C500017072807390708F06FCF809108050E9411
:100C6000200485E010920E0510920D0510921005DB
:100C7000DF91CF911F910F91FF90EF90DF90CF9078
:100C800008959D9191938F5F6DCF85EEA9CF80914F
:100C9000090590910A05A0910B05B0910C05892BCF
:100CA0008A2B8B2B09F4A2CF0E944D0300910905DA
:100CB00010910A0520910B0530910C056C197D09E6
:100CC0008E099F09061717072807390708F08ECFE6
:100CD000C4CF80E0C7CF82E0C5CF83E0C3CFDF922F
:100CE000EF92FF920F931F93CF93DF9300D0CDB776
:100CF000DEB78C01F62ED72E19826A83CE010196BB
:100D00000E94AC01E82E81E60E942601612F70E06E
:100D100080913A0690913B060E94B003B801772774
:100D200080913A0690913B060E94B00370E060E02B
:100D300080913A0690913B060E94B0036F2D7D2D65
:100D400080913A0690913B060E94B00380913A064A
:100D500090913B06DC01ED91FC910190F081E02D3A
:100D60006E2D099580913A0690913B060E94880568
:100D700091E0811190E0892F0F900F90DF91CF913A
:100D80001F910F91FF90EF90DF900895CF93DF9325
:100D9000D62FC72FFC01808180620E94260182E14C
:100DA0000E9483058D2F0E9483058C2F0E9483054E
:100DB0008EEA95E0DF91CF910C94880590E080E079
:100DC00008958FB7F894809125028FBF089561E050
:100DD000FC0184810E940103809124028111109200
:100DE000240208958EBD00000DB407FEFDCF8EB520
:100DF00008958FEF0C94F2060F931F93CF93DF9318
:100E0000EC010E9472038B010E94F9068F3F69F08A
:100E10000E947203601B710B6C177D07A8F380E0C2
:100E2000DF91CF911F910F91089581E0F9CF8CBD93
:100E30009DBD0895CF93DF93EC0180912402811131
:100E400009C081E0809324028091BA059091BB058E
:100E50000E94170760E08C81DF91CF910C94010311
:100E60008F929F92AF92BF92FF920F931F93CF9357
:100E7000DF93EC01F62E49015A018E81882389F017
:100E80008F8198859C012F5F3F4F38872F83823059
:100E9000924018F40E94F906F3CFCE010E94E706B3
:100EA0001E82CE010E941A078CE291E00E94FC068D
:100EB0008F2D80640E94F20608E110E0D501C40184
:100EC000002E04C0B695A795979587950A94D2F7FA
:100ED0000E94F20608501109083F8FEF180771F7BA
:100EE00085E9FF2021F028E087E8F2128FEF0E94C9
:100EF000F20610E00E94F9068A8787FF04C01F3FB0
:100F000011F01F5FF7CFDF91CF911F910F91FF90ED
:100F1000BF90AF909F908F900895AF92BF92CF9265
:100F2000DF92EF92FF920F931F93CF93DF93EC0129
:100F30006901C801820F931F8130924050F58E8164
:100F4000882379F088819981AA81BB8184179507CC
:100F5000A607B70731F48F819885C816D90608F01F
:100F600042C0488359836A837B838B85833039F001
:100F700089E0440F551F661F771F8A95D1F79A01A4
:100F8000AB0161E1CE010E943007882389F083E044
:100F90008D83CE010E94E70680E0DF91CF911F9103
:100FA0000F91FF90EF90DF90CF90BF90AF9008959A
:100FB0000E9472035B010E94F9068A878F3F69F4E1
:100FC0000E9472036A197B096D327140A0F38FE0B1
:100FD0008D83CE010E94E706DCCF8E3F89F4188610
:100FE0001F8281E08E838F8198858C159D0550F43A
:100FF0000E94F9068F819885019698878F83F3CF99
:101000008DE0E6CF6701E00EF11E0E94F906F601C1
:1010100081936F01EE15FF05C1F78F819885080F49
:10102000191F18870F838985882319F0011512402D
:10103000A0F08E81882389F08F8198859C012F5F95
:101040003F4F38872F838230924018F40E94F90670
:10105000F3CFCE010E94E7061E8281E09ECFCF92A1
:10106000DF92EF92FF920F93CF93DF93EC01690130
:1010700082E1411551056105710599F08B85833039
:1010800039F089E0440F551F661F771F8A95D1F705
:101090009A01AB0168E1CE010E943007882319F064
:1010A00084E08D832DC08EEF0E94F20676018EEFD4
:1010B000D81AF70181917F010E94F206EC14FD0419
:1010C000C1F78FEF0E94F2068FEF0E94F2060E9496
:1010D000F9068A878F71853071F4011116C0CE012F
:1010E0000E94E70681E0DF91CF910F91FF90EF9092
:1010F000DF90CF90089581E18D83CE010E94E706B5
:10110000CE010E94E70680E0EECF88E592E00E94E3
:10111000FC06811102C085E1C4CF20E030E0A901C6
:101120006DE0CE010E943007882311F084E1B9CF31
:101130000E94F9068111FACFD2CF0F934091270276
:10114000509128026091290270912A02411551059F
:101150006105710599F0082F29EB32E08091B904FF
:101160009091BA040E942F08882349F01092270218
:10117000109228021092290210922A0281E00F9107
:1011800008950F93CF93C82F80912602811105C037
:10119000C1E08C2FCF910F910895409100015091A3
:1011A000010160910201709103010C2F29EB32E0E3
:1011B0008091B9049091BA040E942F08811102C055
:1011C000C0E0E7CFCC2321F381E00E949D08882373
:1011D000B9F310922602DDCF8F929F92AF92BF9209
:1011E000EF92FF920F931F93CF934B015C01C42F9B
:1011F0008091000190910101A0910201B091030141
:1012000088159905AA05BB0551F181E00E94C10826
:1012100081110BC080E0CF911F910F91FF90EF9053
:10122000BF90AF909F908F90089589EBE82E82E059
:10123000F82E00E012E030E020E0B501A40180913A
:10124000B9049091BA040E948D07882319F3809203
:10125000000190920101A0920201B092030140911D
:1012600026024C2B4093260281E0D5CF8F929F928D
:10127000AF92BF92CF92DF92EF92FF92CF932CEB7F
:1012800035E03093BA042093B904882309F46DC083
:1012900040E060E070E0CB010E94EC0881110BC0DF
:1012A00080E0CF91FF90EF90DF90CF90BF90AF9014
:1012B0009F908F900895809177048F7789F7809120
:1012C000830490918404A0918504B09186048436AF
:1012D0009105A105B10520F3C0907F04D090800452
:1012E000E0908104F0908204C114D104E104F1047F
:1012F000B9F240E0C701B6010E94EC08882381F2F0
:101300008091C4029091C5028115924049F6A09146
:10131000C902AA2329F26091C7027091C80261151F
:10132000710509F4BDCF2091C602222309F4B8CF7C
:10133000A093DA052093CC0590E080E030E0E1E076
:10134000F0E0C82FAF01082E02C0440F551F0A94C9
:10135000E2F72417350769F041E0480F019689301C
:10136000910579F74093D5059BCFC12CD12C7601FF
:10137000C0CF8093D5052091CF023091D00250E0AC
:1013800040E02115310541F42091DD023091DE026B
:101390004091DF025091E0022093CD053093CE05BD
:1013A0004093CF055093D00546015701860E971EF6
:1013B000A11CB11C8092DB059092DC05A092DD059A
:1013C000B092DE05E091CA02F091CB02F093E10504
:1013D000E093E005B0E00E94AD2DDC01CB01880D6B
:1013E000991DAA1DBB1D8093E2059093E305A09370
:1013F000E405B093E50525E0EE0FFF1F2A95E1F720
:10140000E150FE4FEF2FFF27E6958E0F9F1FA11D86
:10141000B11D8093D6059093D705A093D805B093BE
:10142000D9058090CC029090CD02B12CA12C8114D2
:10143000910441F48090D9029090DA02A090DB02EE
:10144000B090DC02C81AD90AEA0AFB0AC80CD91CF7
:10145000EA1CFB1C04C0F694E794D794C794CA9581
:10146000D2F7C092D105D092D205E092D305F09286
:10147000D40585EFC8168FE0D806E104F10428F4FE
:101480008CE08093DF0581E00CCF80E125EFC21670
:101490002FEFD206E104F104A0F38091E5029091D0
:1014A000E602A091E702B091E8028093E2059093F2
:1014B000E305A093E405B093E50580E2E2CF4F9207
:1014C0005F926F927F928F929F92AF92BF92CF92D4
:1014D000DF92EF92FF920F931F93CF93DF93EC0174
:1014E000423051056105710590F480E0DF91CF91A4
:1014F0001F910F91FF90EF90DF90CF90BF90AF9032
:101500009F908F907F906F905F904F900895898506
:101510009A85AB85BC850196A11DB11D84179507E1
:10152000A607B70710F3CB88DC88ED88FE888F8983
:10153000803109F042C0BB27A72F962F852F480185
:1015400059012A013B01C80ED91EEA1EFB1E8091DB
:10155000000190910101A0910201B0910301C81610
:10156000D906EA06FB0699F58F898031C1F5B301EA
:10157000A201552766277727440F551F47545D4F13
:10158000FA019182808280912602816080932602F6
:101590008A89823080F08D819E81AF81B8858C0DE3
:1015A0009D1DAE1DBF1D8093270290932802A0931E
:1015B0002902B0932A0281E099CFDB01CA01E7E05A
:1015C000B695A79597958795EA95D1F7B8CF40E05E
:1015D000C701B6010E94EC088111C6CF86CFB301C6
:1015E000A2014F77552766277727440F551F440FD1
:1015F000551F47545D4FFA0180829182A282B382C7
:10160000C2CF8F929F92AF92BF92CF92DF92EF9212
:10161000FF920F931F93CF93DF93FC0181859285F7
:10162000A385B4850196A11DB11D84179507A60752
:10163000B70770F480E0DF91CF911F910F91FF9079
:10164000EF90DF90CF90BF90AF909F908F900895D4
:1016500083889488A588B6888789803189F5BB27D7
:10166000A72F962F852FE9016A017B018F01BC010D
:10167000CD01680D791D8A1D9B1D80900001909001
:101680000101A0900201B090030186169706A806FA
:10169000B90601F5F8018789803111F5DD24EE24C2
:1016A000FF24F601EE0FFF1FE754FD4F808191816B
:1016B000B0E0A0E088839983AA83BB8381E0BBCF9D
:1016C000DB01CA01C7E0B695A79597958795CA959E
:1016D000D1F7C9CF40E00E94EC088111DBCFAACF3F
:1016E000E894C7F8DD24EE24FF24F601EE0FFF1F77
:1016F000EE0FFF1FE754FD4F80819181A281B381DE
:10170000BF70D8CF4F925F926F927F92AF92BF928D
:10171000CF92DF92EF92FF920F931F93CF93DF93BD
:1017200000D000D0CDB7DEB78C0149835A836B83DC
:101730007C835901C12CD12C7601412C82E0582E9A
:10174000612C712C49815A816B817C819E012F5FB4
:101750003F4FC8010E94010B882339F1F8018585AC
:10176000A301920104C0220F331F441F551F8A9505
:10177000D2F7DA01C901C80ED91EEA1EFB1E498143
:101780005A816B817C818789803111F188EF9FEFCD
:10179000AFEFBFE0481759076A077B0798F2F501DA
:1017A000C082D182E282F38281E00F900F900F908D
:1017B0000F90DF91CF911F910F91FF90EF90DF90ED
:1017C000CF90BF90AF907F906F905F904F900895B3
:1017D00088EF9FEFA0E0B0E0DDCFCF93DF93FC0177
:1017E0002581222321F080E0DF91CF910895EC0143
:1017F0008091DF05803159F582E08583178A108E4C
:10180000118E128E8091E0059091E105B0E0A0E08C
:1018100025E0880F991FAA1FBB1F2A95D1F7838B3C
:10182000948BA58BB68B88EC95E09C8F8B8F81E099
:101830008C831E821F82188619861A861B861C8638
:101840001D861E861F86188A198A1A8ACDCF803275
:1018500051F683E085834091E2055091E305609164
:10186000E4057091E505478B508F618F728F9F0162
:101870002D5E3F4F88EC95E00E94820B8111D3CF03
:10188000B2CF8F929F92AF92BF92CF92DF92EF92A0
:10189000FF920F931F93CF93DF93EC018D81811102
:1018A0000EC080E0DF91CF911F910F91FF90EF90DC
:1018B000DF90CF90BF90AF909F908F9008950B894D
:1018C0001C892D893E89041715072607370748F319
:1018D0004A015B01823031F48A869B86AC86BD86E4
:1018E00081E0E0CF81149104A104B10449F41E8287
:1018F0001F82188619861A861B861C861D86F0CFC5
:101900000A851B852C853D85EB8DFC8D858590E0BA
:101910000996B901A8014150510961097109082EC0
:1019200004C076956795579547950A94D2F7750147
:101930006401E1E0CE1AD108E108F10804C0F69490
:10194000E794D794C7948A95D2F7C416D506E606CD
:10195000F70620F0012B022B032B11F58F89988DB0
:10196000A98DBA8D8E839F83A887B9878E010A5F60
:101970001F4FC114D104E104F10409F4ADCF4E812D
:101980005F816885798598018B8D9C8D0E94010B04
:1019900091E0C91AD108E108F1088111EACF81CF9D
:1019A000C41AD50AE60AF70AE1CF3F924F925F9236
:1019B0006F927F928F929F92AF92BF92CF92DF925F
:1019C000EF92FF920F931F93CF93DF93CDB7DEB7C4
:1019D0002C970FB6F894DEBF0FBECDBF5C01DC01C3
:1019E0005B968D909C905C9716964D905D906D9057
:1019F0007C901997411451046104710409F468C082
:101A0000BFEF4B1A5B0A6B0A7B0A312CF40181850C
:101A10009285A385B4859C01AD012F5F3F4F4F4F49
:101A20005F4F29873A874B875C87730162011D826C
:101A30001E821F821886F40181859285A385B48554
:101A40002D813E814F815885281739074A075B074A
:101A500008F056C089859A85AB85BC858C159D0597
:101A6000AE05BF0550F482E0C82ED12CE12CF12C3C
:101A700092E0492E512C612C712C9E012F5F3F4F1B
:101A8000B701A601C4010E94010B8823C9F1898115
:101A90009A81AB81BC81892B8A2B8B2B09F1260182
:101AA00037019FEF491A590A690A790A2D813E8147
:101AB0004F8158852F5F3F4F4F4F5F4F2D833E83A0
:101AC0004F8358873FEFC31AD30AE30AF30AB3CF11
:101AD000F40140805180628073803324339496CF28
:101AE000C414D504E604F70409F70FEF1FEF2FEF36
:101AF0003FE0B701A601C4010E945F0A811119C02D
:101B000080E02C960FB6F894DEBF0FBECDBFDF91FC
:101B1000CF911F910F91FF90EF90DF90CF90BF90EA
:101B2000AF909F908F907F906F905F904F903F907D
:101B30000895D50116964D915D916D917C911997FF
:101B4000411551056105710539F097018601C40100
:101B50000E945F0A8823A1F2D5011696CD92DD92EC
:101B6000ED92FC921997332051F0D701C6010196EE
:101B7000A11DB11DF40180839183A283B383F5017C
:101B80008789908DA18DB28D892B8A2B8B2B39F46F
:101B90008481C78AD08EE18EF28E80688483F501BD
:101BA00084818062848381E0ACCF2F923F924F92F8
:101BB0005F926F927F928F929F92AF92BF92CF92DD
:101BC000DF92EF92FF920F931F93CF93DF93EC017D
:101BD0005B012A018D81811115C08FEF9FEFDF918D
:101BE000CF911F910F91FF90EF90DF90CF90BF901A
:101BF000AF909F908F907F906F905F904F903F90AD
:101C00002F9008958C8180FFE8CF0B891C892D8946
:101C10003E894A855B856C857D85C201B0E0A0E088
:101C200068017901C41AD50AE60AF70AC816D90666
:101C3000EA06FB0618F42801441A550A42011E015F
:101C400026E0220E311C8114910409F4B3C04A85A8
:101C50005B856C857D856A0181E0D8228B8D9C8DAA
:101C60008A019B01E9E03695279517950795EA9536
:101C7000D1F7ED81E230E1F5FC01628D738D848D49
:101C8000958D600F711F821F931F612C22E0722EB1
:101C90006C187D088614970408F434012C8126FD05
:101CA00004C06114F2E07F0671F40091000110910C
:101CB000010120910201309103010617170728073F
:101CC000390709F053C040E00E94EC08882309F46A
:101CD00084CFC60187549D4FD5019C01260D371D29
:101CE000FC012E173F0709F460C041914D93F9CFD5
:101CF000FC0174807A947022C114D10471F47110C3
:101D00000CC0452B462B472B39F58F89988DA98D13
:101D1000BA8D8E839F83A887B987EB8DFC8D6E81EA
:101D20007F8188859985625071098109910925858E
:101D300004C0660F771F881F991F2A95D2F7068562
:101D4000178520893189600F711F821F931F670DCE
:101D5000711D811D911D99CF4E815F8168857985A7
:101D600091010E94010B8111D8CF37CF75018301FA
:101D70009601AB01BC018091B9049091BA040E9414
:101D80008D07882309F429CFA60CB71C8A859B856B
:101D9000AC85BD85860D971DA11DB11D8A879B87CA
:101DA000AC87BD87861897084ECF281B390BA20E2B
:101DB000B31EECCFC20113CF1F93CF93DF93FC016F
:101DC00025812223D1F1162FEC01848187FF2AC0BF
:101DD000668577858089918941E00E94EC08882397
:101DE00061F1EA8980E2E89FF0011124E754FD4F98
:101DF000309719F18D81823040F48B899C89AD89AF
:101E0000BE89848F958FA68FB78F8F89988D938F7A
:101E1000828F8F89988DA98DBA8DB58BA48B8C817B
:101E20008F778C83111103C08C818F7E8C83812FDF
:101E3000DF91CF911F910C94C10880E0DF91CF9189
:101E40001F910895FF920F931F93CF93DF93EC019F
:101E50008D81813041F090E080E0DF91CF911F9142
:101E60000F91FF9008958C8181FFF5CF82FD1BC0FB
:101E70000091B9041091BA04C8010E941A070E9487
:101E8000F906F82EC8010E94E7068FEFF812E3CF9B
:101E90008C8185FF1BC060E0CE010E94DC0E8C812E
:101EA0008F7D8C83D8CF4B895C896D897E898A85AB
:101EB0009B85AC85BD8584179507A607B707C1F23A
:101EC000CE010E94410C8111D3CFC5CF4091270292
:101ED000509128026091290270912A02452B462BCD
:101EE000472B21F080E00E949D08B5CF80618C8354
:101EF0002A853B85317080E092E0821B930BADCF49
:101F0000CF93DF93EC0161E00E94DC0E882311F097
:101F10001D8281E0DF91CF9108952F923F924F92E1
:101F20005F926F927F928F929F92AF92BF92CF9269
:101F3000DF92EF92FF920F931F93CF93DF9300D026
:101F400000D01F92CDB7DEB77C015B01342E5D83DC
:101F5000DC0115968C911597813009F0CEC014964E
:101F60002C9021FECAC022FCB4C0C32CDD80229478
:101F70007FE027222094B22DB1702B2ED7011A9624
:101F80004D915D916D917C911D97C114D10409F41F
:101F900028C15B968D919C915C97FC0174807A942A
:101FA0008A019B0169E036952795179507956A95F3
:101FB000D1F770228A011170711020C0011511052E
:101FC000E9F416964D915D916D917C9119974115AB
:101FD00051056105710509F099C057968D919D9144
:101FE0000D90BC91A02D0097A105B10509F0B0C0DE
:101FF000C7010E94D50C882309F47FC080E092E0DD
:10200000801B910B46018C159D0508F44C01D701EE
:102010005B964D915C915C9716968D919D910D907C
:10202000BC91A02D0297A109B109FA01258504C030
:10203000880F991FAA1FBB1F2A95D2F7468557857F
:1020400060897189840F951FA61FB71F9C01AD0180
:10205000270D311D411D511D29013A01811432E026
:10206000930609F07BC08091000190910101A0913D
:102070000201B091030184159505A605B70559F431
:102080008FEF9FEFDC018093000190930101A093FB
:102090000201B0930301022D9501B301A2018091C9
:1020A000B9049091BA040E942F08882331F19EEF61
:1020B000B91AC818D908F70182859385A485B58512
:1020C000880D991DA11DB11D82879387A487B587AF
:1020D00055CFF7014389548965897689828593852F
:1020E000A485B585481759076A077B0709F43DCFD2
:1020F000C7010E94410C811138CF81E090E0D701E7
:1021000013969C938E93129780E007C09E012F5FD9
:102110003F4F0E94010B811102C090E079C089817C
:102120009A81AB81BC81F701238D348DF901278918
:1021300048EF5FEF60E070E0203121F048EF5FEFA3
:102140006FEF7FE084179507A607B70708F050CF19
:10215000F70186839783A087B18750CF01151105BA
:1021600099F5D7011A964D915D916D917C911D97CE
:1021700053968D919D910D90BC91A02D48175907B4
:102180006A077B0708F181E00E94C108882309F4EF
:10219000B4CF40920001509201016092020170920E
:1021A000030180912602816080932602C801875432
:1021B0009D4FD5019C01280D391DFC012E173F07AD
:1021C00059F04D914193FACF41E0C301B2010E9411
:1021D000EC088111EBCF91CF281B390BA20EB31E57
:1021E00068CFF70183899489A589B68984179507F3
:1021F000A607B70738F48481438B548B658B768BA5
:1022000080688483F701848183FD1AC0832D9D81BA
:102210000F900F900F900F900F90DF91CF911F9123
:102220000F91FF90EF90DF90CF90BF90AF909F9075
:102230008F907F906F905F904F903F902F90089578
:1022400061E0C7010E94DC0E882309F456CFDECF7F
:10225000CF93DF931F92CDB7DEB7698341E050E0A3
:10226000BE016F5F7F4F0E948D0F0F90DF91CF9166
:102270000895FC01DB0112968D919C911397938335
:1022800082838BE491E09183808314968C911497E0
:10229000848315968C911597858316964D915D9143
:1022A0006D917C91199746835783608771871A9641
:1022B0004D915D916D917C911D9742875387648705
:1022C00075871E964D915D916D917C9151974687D2
:1022D0005787608B718B52968C915297828B539655
:1022E0004D915D916D917C915697438B548B658B8D
:1022F000768B57964D915D916D917C915A97478B56
:10230000508F618F728F5B968D919C91948F838F8C
:102310000895FC01818D928D009719F061E00C9475
:10232000DC0E0895DC015996ED91FC913097B9F0DF
:1023300083899489A589B689428553856485758585
:10234000841B950BA60BB70B811520E89207A105FE
:10235000B10538F08FEF9FE7A0E0B0E0089590E07E
:1023600080E00895DC0159968D919C91009739F099
:10237000DC01ED91FC910480F581E02D099490E061
:1023800080E00895CF93DF93EC01E98DFA8D3097CB
:1023900049F481E090E09B838A8390E080E0DF91C4
:1023A000CF91089513821282898D9A8D0E948D0F8C
:1023B000E98DFA8D22813381232B59F7F0CFCF930A
:1023C000DF931F92CDB7DEB76983DC01ED91FC91FD
:1023D0000280F381E02D41E050E0BE016F5F7F4F4E
:1023E00009950F90DF91CF910895CF93DF931F92BE
:1023F000CDB7DEB741E050E0BE016F5F7F4F0E9476
:10240000D50D019731F4898190E00F90DF91CF9144
:1024100008958FEF9FEFF9CFFC01818D928D00978A
:1024200011F00C94F5118FEF9FEF08950F931F9308
:10243000CF93DF93EC01898D9A8D10E000E0009737
:1024400099F00E94F5118C010F3F100769F0898DFA
:102450009A8DFC01428553856485758541505109EB
:10246000610971090E94410CC801DF91CF911F9150
:102470000F9108950E9441041092C0048093BF04FC
:102480000895EF92FF920F931F93CF93DF938C01E8
:10249000C62FE42E84E1F82ED2E1683020F0C85037
:1024A00095E1F92ED3E1F801808180620E94260136
:1024B0008F2D0E9483058EEA95E00E948805F80121
:1024C0008081806261E070E090E00E943A120E9498
:1024D000430121E030E001C0220FCA95EAF7F1E0A4
:1024E000C82FC22BEF1619F02095C22FC823F80170
:1024F000808180620E9426018D2F0E9483058C2F8F
:102500000E9483058EEA95E0DF91CF911F910F9194
:10251000FF90EF900C948805FC01962F828D8F3FE1
:1025200031F0603140F4CF014B960C944112642F8E
:10253000892F0C9401030895CF93DF93C82FD1E026
:1025400082FB442740F94D2768E086E696E00E942A
:102550004112C1FB442740F94D2767E086E696E02B
:102560000E9441124C2F4095417066E086E696E04D
:10257000DF91CF910C944112FF920F931F93CF9351
:10258000DF938C01C62FF42ED0E0683010F0C850D5
:10259000D1E0F801808180620E9426018D2F0E9487
:1025A00083058EEA95E00E948805F80180818062AB
:1025B00061E070E090E00E943A120E94430121E045
:1025C00030E001C0220FCA95EAF7C82FC22BFF20C6
:1025D00019F02095C22FC823F801808180620E94E3
:1025E00026018D2F0E9483058C2F0E9483058EEA81
:1025F00095E0DF91CF911F910F91FF900C9488058A
:10260000603110F40C94BC120895CF9381E60E94BF
:10261000260162E070E080913A0690913B060E94AC
:10262000B00362E070E080913A0690913B060E9410
:10263000B00380913A0690913B060E94880588235A
:1026400021F090E080E0CF91089562E081E60E9461
:1026500041041092C0048093BF0480913A06909187
:102660003B06DC01ED91FC910084F185E02D09959C
:10267000892B39F380913A0690913B06DC01ED916C
:10268000FC910284F385E02D0995C82F80913A06CC
:1026900090913B06DC01ED91FC910284F385E02DE5
:1026A000099520E03C2FA901482BCA01CCCF2F92DD
:1026B0003F924F925F926F927F928F929F92AF92D2
:1026C000BF92CF92DF92EF92FF920F931F93CF931F
:1026D000DF9300D0CDB7DEB70E9405130197B1F0AC
:1026E00080E00F900F90DF91CF911F910F91FF909D
:1026F000EF90DF90CF90BF90AF909F908F907F90A2
:102700006F905F904F903F902F90089581E60E94C8
:10271000260180913A0690913B06DC01ED91FC91F7
:102720000190F081E02D63E0099580913A06909147
:102730003B06DC01ED91FC910190F081E02D60E021
:10274000099580913A0690913B060E948805811177
:10275000C7CF62E181E60E9441041092C0048093D9
:10276000BF0480913A0690913B06DC01ED91FC910B
:102770000084F185E02D0995892B09F4B1CF212C36
:10278000C12CD12C7601812C912C5401412C512C3F
:10279000320110E033E0332E80913A0690913B06EF
:1027A000DC01ED91FC910284F385E02D0995082F61
:1027B000113108F059C0E12FF0E0EF51FC4E0C94BC
:1027C0008E2EF213F2133414F213F213341428146D
:1027D000281434142814281434142E142E143414E9
:1027E0002E142E14762C652C542C4424482A812F28
:1027F000632D0E942D2EE1E0F0E0EC0FFD1FE90FAC
:10280000F11D00831F5F123109F0C6CF211068CF80
:1028100040923C0650923D0660923E0670923F0602
:102820008092400690924106A0924206B0924306E2
:10283000C0924406D0924506E0924606F0924706C2
:10284000109248061092490610924A0681E049CF3C
:10285000BA2CA92C982C8824802AC9CFFE2CED2CC8
:10286000DC2CCC24C02AC3CFCE0101960E94AC013F
:10287000081741F222242394C5CFCF93C82F88E6AE
:102880000E9426016C2F8EEA95E00E9454058EEA84
:1028900095E00E94880561E088E60E94410410925C
:1028A000C0048093BF040E944301CF910895CF9349
:1028B000DF93EC0140E06E810E948C1241E06E815A
:1028C000CE010E948C1240E06E81CE010E948C12DB
:1028D0008BE891E00197F1F7DF91CF910895AF92E6
:1028E000BF92CF92DF92EF92FF920F931F93CF93FD
:1028F000DF93EC018A8D8E01095F1F4FC62ED12C0C
:102900008F3F09F47EC07E018BE1E80EF11C8B8DB8
:1029100080620E94260182E10E9483058EEA95E092
:102920000E9488058B8D806262E070E090E00E94DA
:102930003A120E944301B82E0E94430160E0782FB2
:10294000CB018B29F80130E020E001E010E041915B
:10295000B801042E02C0660F771F0A94E2F7609553
:10296000709586239723B601022E02C07595679550
:102970000A94E2F76170772702C0660F771F4A95C5
:10298000E2F7862B972B2F5F3F4F24303105F9F666
:102990002E81680102C0CC0CDD1C2A95E2F7C094A0
:1029A000D094C822D922B601C7010E94C6068E81E2
:1029B000B80102C0660F771F8A95E2F7C62AD72AA8
:1029C000B601C7010E94C6068E81B80102C0660F1B
:1029D000771F8A95E2F7609570956C217D21C7017C
:1029E0000E94C6068BE891E00197F1F7DF91CF9145
:1029F0001F910F91FF90EF90DF90CF90BF90AF901D
:102A00000895F12CE12C5E01EBE1AE0EB11CF80152
:102A100081918F019A8D9F3F39F141E0682FC50167
:102A20000E940013A6010E2C02C0559547950A94EA
:102A3000E2F74170F80131976081CE010E948C125B
:102A4000FFEFEF1AFF0A84E0E816F10401F7CE0168
:102A5000DF91CF911F910F91FF90EF90DF90CF907A
:102A6000BF90AF900C9457140E945601DBCFAF92E9
:102A7000BF92CF92DF92EF92FF920F931F93CF936B
:102A8000DF93EC01F62E6C810E948C126D816F3FFA
:102A900021F040E0CE010E948C120F2D10E08C89B5
:102AA00084FF3AC06E0187E0C80ED11CF12CE12CE6
:102AB0005E01EBE1AE0EB11CF60181916F019A8DC2
:102AC0009F3F39F141E0682FC5010E940013A80122
:102AD0000E2C02C0559547950A94E2F74170F60115
:102AE00031976081CE010E948C12FFEFEF1AFF0A2E
:102AF00088E0E816F10401F7CE01DF91CF911F9134
:102B00000F91FF90EF90DF90CF90BF90AF900C941B
:102B100057140E945601DBCFB80184E07595679584
:102B20008A95E1F7CE010E946F146F2DCE01DF91DF
:102B3000CF911F910F91FF90EF90DF90CF90BF90BA
:102B4000AF900C946F1440E0682F8BE496E00C94E7
:102B5000371581E00E94A3158BE39FE10197F1F700
:102B60000895CF93DF93CDB7DEB728970FB6F894CB
:102B7000DEBF0FBECDBF88E0EBE1F1E0DE011196D4
:102B800001900D928A95E1F780916306811117C03B
:102B90008FEF90E0880F991F21E030E02C0F3D1F50
:102BA000820F931FFC018081806828960FB6F894ED
:102BB000DEBF0FBECDBFDF91CF910C94A31581E096
:102BC000E8CF41E00E94371581E090E00895CF9270
:102BD000DF92EF92FF921F93CF93DF93EC0180E29D
:102BE000689FF0011124E754FD4F9385917161F0C6
:102BF000842F827449F080E0DF91CF911F91FF9084
:102C0000EF90DF90CF900895142F6A8B8091000190
:102C100090910101A0910201B09103018E879F87DD
:102C2000A88BB98BC488D588F12CE12C7601DD24E2
:102C3000CC24CF8AD88EE98EFA8E828D938DB0E027
:102C4000A0E0AC01BD014C295D296E297F294F8B85
:102C5000588F698F7A8F83858871B1F4848D958DB3
:102C6000A68DB78D8B8B9C8BAD8BBE8B81E08D83BE
:102C70001F701C831E821F82188619861A861B8667
:102C80001C861D8681E0B8CF803109F0B4CF9E014B
:102C90002D5E3F4F8B8D9C8D0E94820B882309F403
:102CA000AACF84E0E4CFCF93DF93EC0184E090E0FF
:102CB0000E94562CFC0113821282009729F1D183C5
:102CC000C08320911706309118062F5F3F4F409127
:102CD0000F0650911006452B81F4909310068093B7
:102CE0000F069093120680931106309318062093D6
:102CF000170681E0DF91CF910895E0911106F091E0
:102D0000120693838283EDCF80E0F4CFCF93C82F58
:102D100083E090E00E94562CFC0112821182009701
:102D200019F1C08320910D0630910E062F5F3F4FA1
:102D30004091050650910606452B79F490930606BE
:102D400080930506909308068093070630930E063D
:102D500020930D0681E0CF910895E0910706F09150
:102D6000080692838183EECF80E0F5CFFB010190CE
:102D70000020E9F73197AF01461B570BDC01ED91BD
:102D8000FC910280F381E02D09948F929F92AF9283
:102D9000BF92EF92FF920F931F93CF93DF93CDB724
:102DA000DEB7A1970FB6F894DEBF0FBECDBF7C0192
:102DB000FA01CB0119A2223008F42AE08E010F5D3E
:102DC0001F4F822E912CB12CA12CBF01A501940183
:102DD0000E944D2EF901CA016A300CF5605DD801E0
:102DE0006E938D01232B242B252B79F790E080E027
:102DF000109721F0BD01C7010E94B616A1960FB62B
:102E0000F894DEBF0FBECDBFDF91CF911F910F9120
:102E1000FF90EF90BF90AF909F908F900895695C66
:102E2000DECF462F50E070E060E02AE00C94C5163B
:102E3000CF92DF92EF92FF920F931F93CF93DF9386
:102E40006B01770FEE08FF08F7FE1BC0EC016DE287
:102E50000E94C9018C0144275527BA014C195D090C
:102E60006E097F092AE0CE010E94C516800F911FCE
:102E7000DF91CF911F910F91FF90EF90DF90CF9056
:102E800008952AE0B701A601DF91CF911F910F911C
:102E9000FF90EF90DF90CF900C94C51661E771E042
:102EA0000C94B616CF93DF93BC0181E195E00E94AC
:102EB000B616EC0181E195E00E944E178C0F9D1F24
:102EC000DF91CF9108950F931F93CF93DF93EC0180
:102ED0000E94D0018C01CE010E944E17800F911FDD
:102EE000DF91CF911F910F9108956115710511F038
:102EF0000C94B61690E080E00895CF93DF93EC0138
:102F000064E771E081E195E00E947517BE0181E1FF
:102F100095E00E94181781E195E00E944E172097D6
:102F2000F1F50E94A9156FE771E08BE496E00E942D
:102F300075176091B3027091B4028BE496E00E9421
:102F4000181765E871E08BE496E00E9475170E94FF
:102F5000B11567E970E08BE496E00E94D0016091C2
:102F6000A9028BE496E00E94111765E970E08BE4FA
:102F700096E00E94D00160E970E08BE496E00E9448
:102F8000D0016091B2028BE496E00E94111769E8CB
:102F900071E08BE496E0DF91CF910C947517C1300E
:102FA000D105A1F40E94A91567E870E08BE496E0D2
:102FB0000E94D0010E94B115609106017091070135
:102FC0008BE496E0DF91CF910C941817C230D105B5
:102FD00091F40E94A9156FE770E08BE496E00E94DF
:102FE000D0010E94B115609105018BE496E0DF915C
:102FF000CF910C941117C330D10569F40E94A91523
:1030000067E770E08BE496E00E94D0010E94B11562
:1030100060910401EACF249751F40E94A91560E75A
:1030200070E08BE496E0DF91CF910C94D001DF91BA
:10303000CF910895FC0180819181009711F00C944B
:10304000F22C0895CF93DF93EC01898D9A8D009730
:1030500041F00E94800F898D9A8D0E94F22C1A8E69
:10306000198EDF91CF9108950F931F93CF93DF9324
:10307000EC0188819981009759F02A813B812617BC
:10308000370730F081E0DF91CF911F910F910895C4
:103090008B016F5F7F4F0E94A82E009759F0998394
:1030A00088831B830A832C813D81232B59F7FC01E4
:1030B0001082E8CF80E0E7CFEF92FF920F931F934B
:1030C000CF93DF9300D0CDB7DEB78C01FC01118226
:1030D0001082138212821582148270E060E00E94D6
:1030E0003418F8012081318181112FC0211531055B
:1030F00019F0C9010E94F22CF80111821082158288
:103100001482138212820E947E0397FD26C0898357
:103110001A82F801E480F580FFEFEF1AFF0AB70189
:10312000C8010E943418882371F3F801208131818D
:1031300084819581BE016F5F7F4F820F931F0E9434
:10314000862FF801F582E482DECF1582148263E7D0
:1031500071E0C9010E94862FD6CFC8010F900F9051
:10316000DF91CF911F910F91FF90EF90089585ED22
:103170008093BC008091090590910A05A0910B05F0
:10318000B0910C050796A11DB11D23E0B695A7953A
:10319000979587952A95D1F72091BC0024FD03C00F
:1031A0001092070508954091090550910A05609114
:1031B0000B0570910C05452B462B472B69F30097A7
:1031C000A105B10541F025E32A95F1F7000001972B
:1031D000A109B109E1CF809108050C9420043F9228
:1031E0004F925F926F927F928F929F92AF92BF9217
:1031F000CF92DF92EF92FF920F931F93CF93DF93C3
:10320000CDB7DEB72B970FB6F894DEBF0FBECDBF9C
:103210007C01DC0115968C91811115C0FE0131965F
:10322000CE010C966F0130E23193E817F907E1F710
:10323000DA0130E087E09D91B92E992329F19E3281
:1032400039F48A3011F480E0E4C038E08AE0F3CF4A
:10325000EDE9F0E04491442321F031969413FACF44
:10326000F2CF831780F34FED490F4E3560F74FE9EA
:10327000490F4A3118F440EEB42EB90EF601E30FAF
:10328000F11DB0823F5FD7CF89818032E1F2322ECB
:103290008B01FB01838D948DD7015C969C938E935B
:1032A0005B97168217821086118612861386148603
:1032B0001586F80182859385A485B585438954894F
:1032C0006589768984179507A607B70708F04DC06A
:1032D00025E0B695A795979587952A95D1F7F82F6C
:1032E000FF70AF2ED80115968C91823008F4ABCFC9
:1032F000C8010E94F51197FDA6CFF801828593853C
:10330000A485B5854F96A11DB11D82879387A4879B
:10331000B587F0E2AF9EB001112467547D4F61156F
:10332000710509F490CFDB018C91882341F0853E33
:1033300009F062C0BB2029F0BB24B394BACFB1100E
:103340000EC0F701A28A8091000190910101A09125
:103350000201B091030186879787A08BB18BDB01B7
:103360008C918111E9CFBB24B394832D827182317A
:1033700009F069CFBB2009F464C0F7016685778541
:103380008089918941E00E94EC08882309F45BCF91
:10339000D70152968C91B0E28B9FC00111248754C3
:1033A0009D4F009709F44FCFFC013A9626E1DF01CB
:1033B0001D922A95E9F72BE0F601DC0101900D92B0
:1033C0002A95E1F721E238E2FC01318B208B40E0C5
:1033D00058E057874687338B228B318F208F578B4E
:1033E000468B81E00E94C108882309F42CCF432D2D
:1033F000D70152966C910AC04BE050E0C6010E9482
:10340000652F892B09F055CF432D6A2DC7010E94E6
:10341000E7152B960FB6F894DEBF0FBECDBFDF9138
:10342000CF911F910F91FF90EF90DF90CF90BF90C1
:10343000AF909F908F907F906F905F904F903F9054
:103440000895F8018581823009F4FDCEC8010E94FB
:10345000D50C882309F4F7CED8015B96ED91FC9149
:103460005C9716968D909D90AD90BC901997B2E0A8
:103470008B1A9108A108B108858504C0880C991C95
:10348000AA1CBB1C8A95D2F786859785A089B1892D
:10349000880E991EAA1EBB1E848124013501480E88
:1034A000511C611C711C84149504A604B70409F115
:1034B000E1E04E1A51086108710881E00E94C108DC
:1034C000882309F4C0CEE9EBF2E0119289EB94E095
:1034D0008E179F07D1F74092000150920101609230
:1034E000020170920301809126028160809326027E
:1034F000DACFD8015B96ED91FC91258580E092E0D2
:10350000A0E0B0E004C0880F991FAA1FBB1F2A9536
:10351000D2F7F8014389548965897689840F951F0C
:10352000A61FB71F838B948BA58BB68BD7015296A2
:103530001C9289EB92E038CFEF92FF920F931F938A
:10354000CF93DF93EC017B018A011B821A8288EE04
:1035500093E0A0E0B0E08C839D83AE83BF8387E5DA
:1035600091E0998388838DE190E00E94562C9A8F98
:10357000898F009779F02DE1F701DC0101900D9220
:103580002A95E1F74CE050E0B801CE010C960E947C
:103590008D2F188EDF91CF911F910F91FF90EF909B
:1035A00008952F923F924F925F926F927F928F92E7
:1035B0009F92AF92BF92CF92DF92EF92FF920F93C2
:1035C0001F93CF93DF93CDB7DEB7C756D1090FB6A0
:1035D000F894DEBF0FBECDBF5C013B01A6964FAF96
:1035E000A69719A218A28BE491E09F8F8E8F1BA241
:1035F0001C821B829A8389831E824E018EE1880E73
:10360000911CC4010E94ED0B63018E010F5F1F4FDF
:10361000240118016FE270E0C6010E947B2F009721
:1036200009F459C0F60120812F3271F4FFEFCF1A4F
:10363000DF0A902F812F8201492E582E942D852D3F
:103640002801092F182FE6CF8C198D3008F08CE057
:10365000E82EF12CA701B601CE01885A9F4F0E9497
:103660008D2FE8E5F0E0EC0FFD1FEE0DFF1D108241
:10367000C8010E94800F21E0AE01485A5F4FB2019D
:10368000C8010E94EF18811120C01EAE1DAE8BE450
:1036900091E09CAF8BAF21961FAE2197A896EEAD1F
:1036A000FFADA8976E0E7F1EF3018081811120C0AF
:1036B000BE01655C7F4FC1010E9439114BE851E0AA
:1036C000B101C5010E949C1A31C0CE0CDF1CC201A1
:1036D0000E94800FB3CFC60186199709A8969FAFA5
:1036E0008EAFA897B201CE01CB960E943911D6CFEA
:1036F00019A218A28BE491E09F8F8E8F1BA22196B6
:103700008FAD219781112DC0F5011382128288EEB1
:1037100093E0A0E0B0E084839583A683B78387E538
:1037200091E091838083128E118E1486C501C95950
:10373000DF4F0FB6F894DEBF0FBECDBFDF91CF9144
:103740001F910F91FF90EF90DF90CF90BF90AF90BF
:103750009F908F907F906F905F904F903F902F90B1
:103760000895A6962FADA697A301BE01655C7F4F75
:10377000C4010E94EF18882339F2CE01CB960E9433
:10378000800FA6968FADA6978670863039F449A92A
:103790005AA96BA97CA9C4010E94410CB401C101C2
:1037A0000E943911A3018CCF1F920F920FB60F9276
:1037B00011242F933F934F935F936F937F938F9336
:1037C0009F93AF93BF93EF93FF9381E195E00E94A6
:1037D0007202FF91EF91BF91AF919F918F917F9175
:1037E0006F915F914F913F912F910F900FBE0F906E
:1037F0001F9018951F920F920FB60F9211242F93BE
:103800008F939F93EF93FF93E0912105F091220511
:103810008081E0912705F091280582FD1BC09081F1
:1038200080912A058F5F8F7320912B05821741F0BD
:10383000E0912A05F0E0EF5EFA4F958F80932A051C
:10384000FF91EF919F918F912F910F900FBE0F904D
:103850001F9018958081F4CF1F920F920FB60F9290
:1038600011242F933F938F939F93AF93BF93809196
:103870008F0290919002A0919102B09192023091AA
:103880008E0223E0230F2D3758F50196A11DB11D9F
:1038900020938E0280938F0290939002A0939102C6
:1038A000B09392028091930290919402A09195021C
:1038B000B09196020196A11DB11D80939302909341
:1038C0009402A0939502B0939602BF91AF919F91FD
:1038D0008F913F912F910F900FBE0F901F901895D1
:1038E00026E8230F0296A11DB11DD2CF1F920F9281
:1038F0000FB60F9211242F933F934F935F936F93C3
:103900007F938F939F93AF93BF93EF93FF93809198
:10391000B900887F803609F44AC0F0F5883209F48E
:10392000A7C018F5803109F49BC0B8F4882309F4C6
:10393000F9C0883009F494C0FF91EF91BF91AF9125
:103940009F918F917F916F915F914F913F912F91B7
:103950000F900FBE0F901F901895883109F488C002
:10396000803251F78093E50414C0803409F49DC07F
:1039700040F48033B9F38833F9F68093E50485EC9D
:10398000B0C0803509F485C0883509F496C0883404
:1039900099F60E94B718D0CF883909F48CC038F551
:1039A000883729F050F4883611F0803729F683E003
:1039B0008093070510928D0257C0883809F47BC0A8
:1039C000803919F0803809F0B7CF80918D028032AC
:1039D00008F071C0E0918D0281E08E0F80938D021E
:1039E0008091BB00F0E0E359FD4F80833DC0803BF8
:1039F00039F0E0F4803A09F479C0883A09F09CCFB4
:103A000084E08093070510926C0210926B02E091A3
:103A1000BD04F091BE04099580916B0281110FC025
:103A200081E080936B0210924B0209C0803C09F444
:103A3000A6CF883C09F4A3CF883B09F07DCFE09165
:103A40006C0281E08E0F80936C02F0E0E55BFD4F2D
:103A500080818093BB0090916C0280916B0229C0A1
:103A60008091E2048093BB0085EC8093BC0064CF1E
:103A70009091E4048091E304981758F5E091E404F0
:103A800081E08E0F8093E404F0E0EF53FB4F8081E0
:103A9000E9CFE091E40481E08E0F8093E40480910B
:103AA000BB00F0E0EF53FB4F80839091E4048091E2
:103AB000E3049817C8F285E8D8CFE091E40481E0E8
:103AC0008E0F8093E4048091BB00F0E0EF53FB4F36
:103AD00080838091E60481115CCF81E08093E104D2
:103AE00084EA8093BC001092070526CF85EC809372
:103AF000BC001092070580918D02803230F4E09175
:103B00008D02F0E0E359FD4F108260918D0270E06C
:103B1000E091BB04F091BC048DE692E0099510920F
:103B20008D020ACF1092E50434CFEC0168E670E014
:103B300081E195E00E94D001CE010E94521761E020
:103B400085E00E940103FFCF109214051092130527
:103B500048EE53E060E070E0409315055093160581
:103B6000609317057093180587E291E09093120512
:103B70008093110585EC90E090931E0580931D05C0
:103B800084EC90E09093200580931F0580EC90E0FA
:103B9000909322058093210581EC90E09093240579
:103BA0008093230582EC90E0909326058093250571
:103BB00086EC90E0909328058093270510922A05C3
:103BC00010922B0510922C0510922D051092B10524
:103BD0001092B0054093B2055093B3056093B405BD
:103BE0007093B50589E391E09093AF058093AE059E
:103BF00080E58093BA051092BB051092C105109222
:103C0000C2051092C5051092C70582E090E0A0E0C1
:103C1000B0E08093C8059093C905A093CA05B093FE
:103C2000CB051092DF051092E9051092E8058BE4B0
:103C300091E09093E7058093E6051092EB051092D2
:103C40004E0610924D0689E691E090934C068093C3
:103C50004B061092650610925F068FE080934F0628
:103C60008EE0809350068DE0809351068CE0809327
:103C700052068BE0809353068AE08093540689E0D5
:103C80008093550610925A0681E080935B0692E07D
:103C900090935C0693E090935D0694E090935E06AB
:103CA00010923C0610923D0610923E0610923F067E
:103CB000109240061092410610924206109243065E
:103CC000109244061092450610924606109247063E
:103CD000809348068093490680934A0610922206F4
:103CE00010922106409323065093240660932506E4
:103CF0007093260687E591E09093200680931F0637
:103D0000109239061092380610922B0610921E0659
:103D100010921D0610921C0610921906E9EEF1E0B1
:103D200081E08C3049F09491823009F49F5F21E06A
:103D3000280F3196992391F180931A0681E08093A0
:103D40001B061092100610920F0610921206109287
:103D5000110610921806109217062FEF3FEF3093BE
:103D60001606209315068CE090E09093140680933D
:103D7000130610920606109205061092080610927D
:103D8000070610920E0610920D0630930C06209333
:103D90000B0690930A06809309060895822FC1CFDF
:103DA000CF93DF93CDB7DEB7C15BD1090FB6F894DF
:103DB000DEBF0FBECDBF789484B5826084BD84B56C
:103DC000816084BD85B5826085BD85B5816085BD16
:103DD00080916E00816080936E00109281008091CE
:103DE0008100826080938100809181008160809356
:103DF0008100809180008160809380008091B1007B
:103E000084608093B1008091B00081608093B000A5
:103E100080917A00846080937A0080917A00826039
:103E200080937A0080917A00816080937A008091FB
:103E30007A00806880937A001092C100E091210599
:103E4000F091220582E08083E0911D05F0911E052E
:103E50001082E0911F05F09120058FEC8083109275
:103E60002905E0912505F091260586E08083E09103
:103E70002305F0912405808180618083E0912305F2
:103E8000F0912405808188608083E0912305F09182
:103E90002405808180688083E0912305F0912405CA
:103EA00080818F7D808385E00E94560186E00E949C
:103EB000560182E00E94560183E00E94560184E090
:103EC0000E94560161E084E00E94010367E771E00F
:103ED00081E195E00E94D0018AE00E945601809124
:103EE000EB05882321F086EE95E00E94800F10926A
:103EF000C7051092C5051092C2051092C1058AE04F
:103F00008093C0050E9472038B018091C0050E94BE
:103F1000560161E08091C0050E940103FFB6F8944C
:103F200080919702811124C0EBECF1E08491EFEDD8
:103F3000F1E09491E82FF0E0EE0FFF1FE954FE4FFF
:103F4000A591B491EC91E92321F461E08AE00E940B
:103F500001038AE00E9456018CB580618CBD8CB54E
:103F600080648CBD8DE00E9456018BE00E9456015A
:103F7000809197028F5F80939702FFBE82E58093C6
:103F8000BA051092BB058091BA059091BB050E94BD
:103F90001707AAE0FA2E8FEF0E94F206FA94F110AA
:103FA000FACF8CEB95E00E941A0720E030E0A901DF
:103FB00060E08CEB95E00E943007F82E8093C605F8
:103FC00021E0821791F00E947203601B710B613D2A
:103FD000774058F381E08093C1058CEB95E00E9417
:103FE000E7068DE891E00E94951D2AEA31E040E065
:103FF00050E068E08CEB95E00E94300782FF2BC018
:10400000F092C7058091C705812C912CA12CE0E48A
:10401000BE2E823019F0812C912C540120E030E02A
:10402000A90167E38CEB95E00E943007A50194019C
:1040300069E28CEB95E00E943007E82E8093C6057C
:104040008823D1F00E947203601B710B613D7740A1
:1040500028F388E0C0CFF4E0EF2E0E94F9068093A9
:10406000C605EA94E110F9CF8A3A11F082E0B3CFA5
:1040700082E08093C705C6CF8091C7058230D1F416
:1040800020E030E0A9016AE38CEB95E00E94300764
:10409000882311F086E09FCF0E94F906807C803C47
:1040A00019F483E08093C7050E94F9060E94F9067F
:1040B0000E94F9068CEB95E00E94E70680E580936C
:1040C000BA051092BB0581E00E943609882309F4E5
:1040D00091C086EE95E00E94ED0B882309F481CF14
:1040E00065E671E081E195E00E9463177BE4A72E0D
:1040F00071E0B72E3E019EE3690E711C8E010F5FC9
:104100001F4F8E2D6AE00E942D2E805D80930E0140
:10411000905D90930F0122961FAE1EAE2297BFAE08
:10412000AEAE24961FAE24971CA21BA2BAA2A9A2CF
:104130001EA2212C312C562C472C66EEC62E65E093
:10414000D62EC101F101E85FFE4F20812F3209F424
:104150000196DC01A85FBE4FFE01E55AFF4F30E03B
:1041600020E04F014D914F3249F0442339F0019640
:104170002F5F3F4F41932C303105A1F7280D391D9A
:10418000F9011082FC01E85FFE4F20812F3209F413
:1041900001961C01885F9E4FDC01BC91CF54DF4F1C
:1041A000B883C15BD0401C821B82BA82A9821E8266
:1041B00021E0A401B601C8010E94EF18882311F480
:1041C0000C940A2CC8010E94800FCF54DF4FE88165
:1041D000C15BD040E11115C026EEC21625E0D20623
:1041E00019F0C6010E94800FE39434E6E31289CFF0
:1041F0000C941B2C80E00E943609882309F4F1CE30
:1042000068CF21E0A401B601852D942D0E94EF18FE
:10421000982EF6EECF16F5E0DF0611F40C94292C5B
:10422000C6010E94800F91100C942E2C0C94122C1D
:1042300068E571E081E195E00E94D00188E091E0BD
:104240000E9452170E9409040E94090488E60E94F5
:1042500026018EEA95E00E948805882319F08EECED
:1042600091E0C1CE88E60E94260162E08EEA95E0E8
:104270000E9454058EEA95E00E94880561E070E096
:1042800088E690E00E943A120E944301807E9927BE
:10429000803E910509F02FC089ED91E00E945217F0
:1042A0004BE050E06CE471E0C8010E947B2DCE0130
:1042B0000A960E94B703E82EE981E154E33108F041
:1042C00098C20E2E000CFF0BE859FE4D0C948E2E5A
:1042D0008624F923F923A124F923A424F923F9231B
:1042E000F923EF23F923F9238F249E249B24F92318
:1042F000F923F923982483E00E943D1490E0880F6D
:10430000892F881F990B892B09F0C6CF80E00E9466
:104310003D14F82E85FF12C088E60E94260160E059
:104320008EEA95E00E9454056F2D6F7D8EEA95E030
:104330000E9454058EEA95E00E94880562E071E0D3
:104340008FE196E00E94631761EC70E081E195E0F7
:104350000E946317809165068F3F09F4B4C00E94E4
:104360000904109266060E94090480916606806224
:104370000E94260180E00E9483058FEF0E94830542
:104380008EEA95E00E9488058091660680620E9410
:10439000260181E00E9483058FEF0E9483058EEA4B
:1043A00095E00E94880541E068E086E696E00E947C
:1043B000BC1241E066E086E696E00E94BC1241E055
:1043C00067E086E696E00E94BC1287E00E949C129D
:1043D00060915006662329F041E086E696E00E944F
:1043E000001341E060914F0686E696E00E940013BC
:1043F00041E06091510686E696E00E94001322E5B6
:10440000C22E26E0D22E3BE4E32E36E0F32E46E524
:10441000A42E46E0B42ED6016D916D0141E086E6F2
:1044200096E00E940013AC14BD04A9F790E5A92EF4
:1044300096E0B92E40E0F701678586E696E00E9497
:104440000013D7011F96DC90BFE0BD15A8F1E7E08F
:10445000BCE0CB2EED1520F4F8EFDF0E8DE0C82E7A
:104460008091660680620E9426018C2D0E94830541
:104470008EEA95E00E94880580916606806261E080
:1044800070E090E00E943A120E944301982E8091C1
:10449000660680620E9426018C2D0E94830581E0C1
:1044A00090E001C0880FDA94EAF789290E94830519
:1044B0008EEA95E00E9488052FEFE21AF20AAE1408
:1044C000BF0409F0B7CF80915F06886080935F06D4
:1044D00082E080936306109264068BE39DE001976F
:1044E000F1F740E060914F068BE496E00E948C1259
:1044F00040E0609151068BE496E00E948C1260913E
:1045000050066F3F29F040E08BE496E00E948C1249
:1045100080915F0684FD1BC263E08BE496E00E94FD
:104520006F14ABE4EA2EA6E4FA2EC7010197F1F767
:1045300063E08BE496E00E946F14C7010197F1F7E6
:1045400063E08BE496E00E946F1483E592E00197AC
:10455000F1F762E08BE496E00E946F1480915F06B1
:1045600080620E94A31584E0809360068CE00E9424
:10457000A3150E94A91582E08093610686E00E943F
:10458000A31580E00E949C128EEA95E090933B0672
:1045900080933A0670E060E080E190E00E946F0650
:1045A000882309F4EAC162E070E080E096E40E94AA
:1045B0006F0670E060E086E093E50E946F0610925F
:1045C000980288EB9BE0A0E0B0E08093090590930F
:1045D0000A05A0930B05B0930C0581E080930805B4
:1045E0000E9405130197E1F78091490681110E940D
:1045F000571381E080934906609144067091450607
:1046000080914606909147060E94FE2D762E80915D
:10461000480681110E94571381E0809348066091FB
:104620003C0670913D0680913E0690913F060E94A7
:10463000FE2D4B016B01FCE0EF2EF12C20910D06BD
:1046400030910E068091090690910A0628173907C5
:1046500019F0872D0E9486162091170630911806B2
:1046600080911306909114062817390719F0C60196
:104670000E94531631E0E31AF10801F72CE0729E14
:10468000C001112490939F0280939E02289DC00137
:10469000299D900D1124092E000CAA0BBB0B8093B1
:1046A0009A0290939B02A0939C02B0939D027092F9
:1046B000B2029092B4028092B30280914A068111B4
:1046C0000E94571381E080934A06609140067091E2
:1046D000410680914206909143060E94FE2D609310
:1046E000A9028091AC0290E00E947D1778EE472EDF
:1046F00073E0572E612C712CEBE52E2E312C2C0EF5
:104700003D1E8CE0280E311C81E195E00E94520292
:10471000181619060CF01EC28FE196E00E942218AE
:1047200081E195E00E943002F82E682F81E195E04A
:104730000E94C90181E195E00E944E178DE0E7E1FA
:10474000F2E0DE01A256BF4F01900D928A95E1F78B
:10475000C555DF4F19821882CB5AD040C355DF4F61
:1047600019821882CD5AD040C155DF4F1982188264
:10477000CF5AD04070E060E0CE0185559F4F0E9437
:104780003418C555DF4F28813981CB5AD04081116B
:10479000F7C02115310519F0C9010E94F22CC55549
:1047A000DF4F19821882CB5AD040C155DF4F198292
:1047B0001882CF5AD040C355DF4F19821882CD5A84
:1047C000D04081E195E00E945202892B09F4E4C0B7
:1047D000C8010E945C18C8010E941A18F2CF8A8191
:1047E000813639F08B8146E0F42E8E3611F037E0B9
:1047F000F32ECE0105960E94B703C82E48E050E084
:1048000063E471E0C8010E947B2DC8010E94B703D8
:10481000B82ECE0104960E94B703A82ECE010796AB
:104820000E94B703982E88E60E94260163E08EEA74
:1048300095E00E9454055AE0D52E892D6D2D0E94D9
:104840002D2E682F660F680F660F690D8EEA95E0B2
:104850000E9454058A2D6D2D0E942D2E682F660F03
:10486000680F660F6A0D8EEA95E00E9454058B2D45
:104870006D2D0E942D2E682F660F680F660F6B0D31
:104880008EEA95E00E9454058C2D6D2D0E942D2EF0
:10489000682F660F680F660F6C0D8EEA95E00E9418
:1048A000540560E08EEA95E00E9454058F2D6D2D31
:1048B0000E942D2E682F660F680F660F6F0D8EEA0F
:1048C00095E00E9454058E2D6D2D0E942D2E682F8F
:1048D000660F680F660F6E0D8EEA95E00E94540514
:1048E0008EEA95E00E94880588E60E94260162E033
:1048F0008EEA95E00E94540560E08EEA95E00E9401
:1049000054058EEA95E00E94880500CD8B8124E055
:10491000F22E823709F46DCF98E0F92E6ACF8B81A1
:10492000B5E0FB2E823709F064CF83E0F82E61CF2B
:10493000A9E0FA2E5ECFFAE0FF2E5BCFEBE0FE2E71
:1049400058CF7CE0F72E55CF62E0F62E52CF806232
:104950000E94A3158BE496E40197F1F780915F061E
:1049600080620E94A31583E592E00197F1F78091A0
:104970005F0680620E94A315F1CD85E092E033CB03
:10498000C155DF4F19821882CF5AD04063E771E0DA
:10499000C9010E94862F15CF9FE6F91609F410C6AB
:1049A000A2E7FA12C9C041E06BE871E0CE018A5873
:1049B0009F4F0E94D11AC157DF4FE881F981CF582C
:1049C000D040309709F4A9C08581882309F4A5C097
:1049D000823040F016821782108611861286138666
:1049E0001486158657E5C52E51E0D52E6BE4A62E0C
:1049F00061E0B62EC157DF4FE880F980CF58D04034
:104A0000F7018581823008F49EC582859385A4854F
:104A1000B5858F719927AA27BB27892B8A2B8B2BCA
:104A200009F091C540E250E0BE016F5F7F4FC701C2
:104A30000E94D50D803209F086C58981882309F44A
:104A400082C5853E79F38E3269F38C8583FDEACF8A
:104A500022961FAE1EAE2297BFAEAEAE24961FAEFC
:104A60002497BE016F5F7F4FE0E080E04EE2DB0104
:104A70009D91BD019032A1F0883049F421E930E0E8
:104A80002C0F3D1F2E0F311DD9014C93EF5F21E9F3
:104A900030E02C0F3D1F2E0F311DD9019C93EF5F8D
:104AA0008F5F8B3021F721E930E02C0F3D1F2E0F57
:104AB000311DF9011082C157DF4F68817981CF58CC
:104AC000D04021E0AE014F565F4FCE01CE960E94FE
:104AD000EF18882309F437C5BE01625C7F4FCE0111
:104AE00081960E943911AE014F565F4FBE016F5D36
:104AF0007F4FCE01855A9F4F0E949C1AE696EEADDD
:104B0000FFADE697309719F08581811132C562E9D2
:104B100071E081E195E00E946317CE018A589F4FB2
:104B20000E94221881E195E00E945202892B21F017
:104B300081E195E00E94300247E168E071E0C80140
:104B40000E94D11AC8010E947501CE0185559F4F60
:104B50000E941A180E947203C090B502D090B6024B
:104B6000E090B702F090B8026C197D098E099F0998
:104B700068397A438105910508F4DFC288E60E940E
:104B8000260163E08EEA95E00E9454058EEA95E0E6
:104B90000E94880567E070E088E690E00E943A1283
:104BA0000E9443018F77282F30E0E4E03595279568
:104BB000EA95E1F7922F990F990FF22EF91AFF0C4F
:104BC000F80E0E9443019C01F4E035952795FA9573
:104BD000E1F72F703327922F990F990FE22EE91AE0
:104BE000EE0CE80E0E9443019C01A4E03595279548
:104BF000AA95E1F72F703327922F990F990FD22E94
:104C0000D91ADD0CD80E0E9443019C01B4E0359501
:104C10002795BA95E1F72F703327922F990F990FA7
:104C2000C22EC91ACC0CC80E0E9443010E94430137
:104C30009C0194E0359527959A95E1F72F703327DD
:104C4000922F990F990FB22EB91ABB0CB80E0E9471
:104C500043019C0144E0359527954A95E1F72F7073
:104C60003327922F990F990F291B220F820F8093C0
:104C70001906B0921A06C0921B06D0921C06E0924A
:104C80001D06F0921E060E940513019709F0ECC064
:104C900061E086E00E9401038091480681110E9434
:104CA000571381E08093480660913C0670913D0661
:104CB00080913E0690913F060E94FE2D4B0180910F
:104CC000170690911806892B09F442C580910F06AA
:104CD00090911006009709F43BC5DC0112962D91C6
:104CE0003C9113973093100620930F06ED90FC90A3
:104CF0000E94F22C80910F0690911006892B21F4CE
:104D000010921206109211068091170690911806C3
:104D100001979093180680931706C701FF0CAA0B02
:104D2000BB0BC0909A02D0909B02E0909C02F09046
:104D30009D02C81AD90AEA0AFB0AC0929A02D092C6
:104D40009B02E0929C02F0929D0220911706309106
:104D5000180680911306909114062817390719F048
:104D6000C4010E945316092C000CAA08BB08C501F7
:104D7000B4016C0D7D1D8E1D9F1D60939A02709372
:104D80009B0280939C0290939D022CE030E040E0D7
:104D900050E00E946F2E3093B4022093B3028091B2
:104DA000490681110E94571381E080934906609162
:104DB00044067091450680914606909147060E94F0
:104DC000FE2DD62E80910D0690910E06892B09F4AA
:104DD000C2C48091050690910606009709F4BBC4F1
:104DE000FC01218132813093060620930506F08074
:104DF0000E94F22C8091050690910606892B21F4E1
:104E0000109208061092070680910D0690910E06EA
:104E1000019790930E0680930D0680919E029091CB
:104E20009F029C012F193109790130939F02209331
:104E30009E0220910D0630910E06809109069091F8
:104E40000A062817390719F08D2D0E948616C7010A
:104E50008D0D911D90939F0280939E026CE070E0F7
:104E60000E94392E6093B2028091B102882301F131
:104E70000E947203C090AD02D090AE02E090AF02EB
:104E8000F090B0026C197D098E099F09603E73494C
:104E90008440910508F47AC01092B1021092AC02DD
:104EA00090E080E00E947D178091B10281116EC078
:104EB0008091AB02811118C02091B3023091B402ED
:104EC00080910601909107018217930734F0909129
:104ED000B20280910501981738F481E08093AB020B
:104EE00060E082E00E9401038091AB02882329F1F7
:104EF000809106019091070180579E4F97FD019682
:104F0000959587952091B3023091B40228173907FF
:104F1000A4F42091B2028091050190910401890FBF
:104F20009927991F959587952817190634F010929F
:104F3000AB0261E082E00E9401038091AA0281112C
:104F40000DC09091B20280910501981738F481E06C
:104F50008093AA0260E083E00E9401038091AA028C
:104F60008823A1F02091B202809105019091040163
:104F7000890F9927991F959587952817190634F059
:104F80001092AA0261E083E00E94010362E281E1E3
:104F900095E00E94C9014091190650E04053584FD6
:104FA00070E060E02AE081E195E00E94C5166BE8C0
:104FB00071E081E195E00E94751760911A0681E128
:104FC00095E00E9411176BE871E081E195E00E9485
:104FD000751760911B0681E195E00E94111765E14C
:104FE00072E081E195E00E94751760911C0681E1F5
:104FF00095E00E94111762E172E081E195E00E9464
:10500000751760911D0681E195E00E94111762E11C
:1050100072E081E195E00E94751760911E0681E1C2
:1050200095E00E94111762E281E195E00E94C901BA
:1050300064E172E081E195E00E9475176091B3022E
:105040007091B40281E195E00E94181764E172E06A
:1050500081E195E00E9475176091A90281E195E0D8
:105060000E94111764E172E081E195E00E947517DA
:105070006091B20281E195E00E94111764E172E053
:1050800081E195E00E9475176091AB0270E081E1CB
:1050900095E00E94181764E172E081E195E00E94BA
:1050A00075176091AA0270E081E195E00E941817DF
:1050B00064E172E081E195E00E947517609106015C
:1050C0007091070181E195E00E94181764E172E098
:1050D00081E195E00E9475176091050181E195E0FD
:1050E0000E94111764E172E081E195E00E9475175A
:1050F0006091040181E195E00E94111764E172E082
:1051000081E195E00E94751780916706909168068D
:10511000B801681B790B81E195E00E94181781E1C5
:1051200095E00E944E170E9472036093B50270933F
:10513000B6028093B7029093B8020E947203C090A7
:10514000A502D090A602E090A702F090A8026C19E8
:105150007D098E099F09603E73498440910508F4DA
:10516000DBC00E9472036093A5027093A602809335
:10517000A7029093A80262E28FE196E00E94C90123
:105180004091190650E04053584F70E060E02AE02B
:105190008FE196E00E94C5166BE871E08FE196E022
:1051A0000E94751760911A068FE196E00E94111710
:1051B0006BE871E08FE196E00E94751760911B0625
:1051C0008FE196E00E94111765E172E08FE196E0B1
:1051D0000E94751760911C068FE196E00E941117DE
:1051E00062E172E08FE196E00E94751760911D0602
:1051F0008FE196E00E94111762E172E08FE196E084
:105200000E94751760911E068FE196E00E941117AB
:1052100062E28FE196E00E94C90164E172E08FE1F1
:1052200096E00E9475176091B3027091B4028FE10D
:1052300096E00E94181764E172E08FE196E00E9408
:1052400075176091A9028FE196E00E94111764E141
:1052500072E08FE196E00E9475176091B2028FE1D3
:1052600096E00E94111764E172E08FE196E00E94DF
:1052700075176091AB0270E08FE196E00E941817FD
:1052800064E172E08FE196E00E9475176091AA02D6
:1052900070E08FE196E00E94181764E172E08FE100
:1052A00096E00E94751760910601709107018FE1E9
:1052B00096E00E94181764E172E08FE196E00E9488
:1052C0007517609105018FE196E00E94111764E166
:1052D00072E08FE196E00E947517609104018FE102
:1052E00096E00E94111764E172E08FE196E00E945F
:1052F00075178091670690916806B801681B790B55
:105300008FE196E00E9418178FE196E00E944E17F9
:1053100060E086E00E9401033AE5E32E36E0F32EDA
:10532000D12CC12C4FE1B42EAC2CF70191907F0110
:10533000FFE080E0F91530F127E092E1892E291590
:1053400020F438EF930E23E1822E8091660680626E
:105350000E942601882D0E9483058EEA95E00E9416
:10536000880580916606806261E070E090E00E94AE
:105370003A120E944301992702C0959587959A9405
:10538000E2F7817090E002C0880F991FAA94E2F7BB
:1053900080959095B8228FEFC81AD80A95E0C91663
:1053A000D10411F6BB2009F498C0B3FE16C0809159
:1053B000AC02813009F0D1C1209106013091070182
:1053C0002031A7E23A0734F42C593F4F30930701BC
:1053D0002093060190E00E947D17B2FE16C08091D6
:1053E000AC02813009F0DBC1209106013091070148
:1053F0002139B1E03B0734F02456310930930701DD
:105400002093060190E00E947D17B4FE0AC08091AF
:10541000A4028111E2C185E00E949C1281E0809388
:10542000A402B1FE0CC08091AC028111DCC181E00C
:105430008093AC028091AC0290E00E947D17B0FE98
:1054400028C08091B1028111DCC161E082E00E943C
:10545000010361E083E00E94010361E084E00E94B7
:1054600001031092AB021092AA0284E08093AC0276
:1054700084E090E00E947D1781E08093B1020E9459
:1054800072036093AD027093AE028093AF0290936B
:10549000B0020E944D034B015C0188ECC82ED12C58
:1054A000E12CF12C0E944D03681979098A099B09A6
:1054B000683E734081059105A8F3E1E0CE1AD1085A
:1054C000E108F108F8EE8F0EF3E09F1EA11CB11C5D
:1054D000C114D104E104F10429F760E086E00E94E0
:1054E00001030E947203C090A002D090A102E0903C
:1054F000A202F090A3026C197D098E099F09603EFB
:1055000073498440910590F00E9472036093A00259
:105510007093A1028093A2029093A30261E085E0C0
:105520000E94010360E085E00E94010380E090E0BA
:10553000892B09F4E9C80E945E02882309F4E4C8B3
:105540000E940000E1C86F961FAE1EAE6F97A39633
:105550004CAE5DAE6EAE7FAEA3976D96DFAECEAEB7
:105560006D97E6961FAE1EAEE697A8961FAEA8975B
:10557000C5CAB10181E195E00E9475176FE871E03D
:1055800081E195E00E94D001E696EEADFFADE69791
:1055900040E050E0BA01309721F043895489658991
:1055A00076892AE081E195E00E94C51681E195E0C7
:1055B0000E944E17CE01855A9F4F0E9422181ACA88
:1055C00081E195E00E9452021816190634F4C801D0
:1055D0000E945C18C8010E941A1881E195E00E949F
:1055E0005202892BD1F3C8010E945C18C555DF4FC8
:1055F00088819981CB5AD040009709F478C069819D
:105600007A816115710509F470C0C355DF4F488177
:105610005981CD5AD0402D813E814217530708F45D
:1056200064C00E94862F8D819E81C155DF4F998372
:105630008883CF5AD0401E821D82CE0101960E94DF
:105640001A18C155DF4F88819981CF5AD0400097F1
:1056500041F0C555DF4FE881F981CB5AD0403097F2
:1056600021F410929902E9E9F2E02081CC55DF4F54
:105670002883C45AD040029748F0C555DF4FE881CF
:10568000F981CB5AD040309709F04EC01092990260
:10569000E9E9F2E08081CB55DF4F8883C55AD040DD
:1056A000CE0182569F4F0E94521741E0BE016256C2
:1056B0007F4FCE0101960E94D11AEA8DFB8D309763
:1056C00009F43FC085818823E1F1CE0101960E9453
:1056D0009211892B59F1CE0101960E940C12682F6C
:1056E00081E195E00E949402F0CF0E94F22C898122
:1056F0009A81C555DF4F99838883CB5AD0408B81DF
:105700009C81C355DF4F99838883CD5AD0408D81CA
:105710009E81C155DF4F99838883CF5AD0401A822A
:1057200019821C821B8287CF3196B4CF69EA71E05F
:1057300081E195E00E946317CE0101960E94221834
:10574000FBC966E971E081E195E00E946317F4C945
:10575000F12CE12CE2CAF12C60CB8230A1F49091C3
:1057600005019F3508F036CE40910401292F30E025
:10577000265F3F4F4217130609F00CF42BCE9B5FB8
:105780009093050127CE833009F024CE9091040137
:10579000943608F01FCE9B5F909304011BCE82309D
:1057A00049F490910501992309F42CCE95509093DA
:1057B000050128CE833009F025CE90910401209177
:1057C000050130E02B5F3F4F9217130609F00CF4F0
:1057D00019CE95509093040115CE80E00E949C1242
:1057E0001092A4021ECE813011F482E021CE8230CC
:1057F00011F483E01DCE833009F01CCE1092AC0270
:1058000019CE1092B1021092AC0290E080E00E949A
:105810007D173FCE86EEC81685E0D80619F0C60182
:105820000E94800F47E168E071E0C8010E94D11A30
:10583000C8010E947501E0913806F0913906309751
:1058400021F0858181110C9418218AEB91E00C9450
:10585000F31F882339F3DE0191966D019C2D8D2D68
:10586000C52CD42C2C010C94A1208091050690917C
:105870000606009751F0FC01218132813093060623
:10588000209305060E94F22CF0CF80910F06909194
:105890001006009751F0FC012281338130931006ED
:1058A00020930F060E94F22CF0CF08950F931F93C0
:1058B000CF93DF938230910510F482E090E0E09185
:1058C0006906F0916A0630E020E0B0E0A0E0309791
:1058D00099F42115310509F44AC0281B390B2430ED
:1058E0003105D8F58A819B816115710589F1FB012C
:1058F00093838283FE0111C0408151810281138113
:1059000048175907E0F04817590799F4109761F0C4
:1059100012960C93129713961C933296CF01DF9137
:10592000CF911F910F9108950093690610936A0615
:10593000F4CF2115310551F04217530738F0A90172
:10594000DB019A01BD01DF01F801C1CFEF01F9CF01
:1059500090936A0680936906CDCFFE01E20FF31F94
:10596000819391932250310939832883D7CF209195
:10597000670630916806232B41F42091170130917E
:105980001801309368062093670620911501309125
:1059900016012115310541F42DB73EB7409119018B
:1059A00050911A01241B350BE0916706F0916806AF
:1059B000E217F307A0F42E1B3F0B2817390778F0E6
:1059C000AC014E5F5F4F2417350748F04E0F5F1F45
:1059D0005093680640936706819391939FCFF0E0C0
:1059E000E0E09CCFCF93DF930097E9F0FC01329782
:1059F00013821282A0916906B0916A06ED0130E02F
:105A000020E01097A1F420813181820F931F209113
:105A10006706309168062817390709F061C0F093CE
:105A20006806E0936706DF91CF910895EA01CE17EB
:105A3000DF07E8F54A815B819E0141155105B1F709
:105A4000E901FB83EA8349915991C40FD51FEC17F3
:105A5000FD0761F4808191810296840F951FE90111
:105A600099838883828193819B838A83F0E0E0E03D
:105A700012968D919C9113970097B9F52D913C91B9
:105A80001197CD010296820F931F209167063091E6
:105A900068062817390739F6309751F510926A06CB
:105AA00010926906B0936806A0936706BCCFD383B3
:105AB000C28340815181840F951FC817D90761F4B3
:105AC0004E5F5F4F88819981480F591F51834083F2
:105AD0008A819B81938382832115310509F0B0CFA0
