:100000000C94FB000C9423010C9423010C94230109
:100010000C9423010C9423010C9423010C942301D0
:100020000C9423010C9423010C9423010C942301C0
:100030000C9423010C9423010C9423010C942301B0
:100040000C94B11B0C9423010C947F1B0C94591B32
:100050000C9423010C9423010C9423010C94230190
:100060000C94FB1B0C9423016572726F723A200092
:10007000504155534544005248204D41583A005292
:1000800048204D494E3A00434F32204D41583A00E6
:100090002052483A00430054656D703A007C3C3E63
:1000A0005E2B3D3F2F5B5D3B2C2A225C0000000055
:1000B0000800020100000304070000000000000027
:1000C0000054696D652C20436F322C2054656D708F
:1000D0002C2052482C2046616E4F6E2C2048756DA6
:1000E0004F6E2C20436F324D61782C2052484D6961
:1000F0006E2C2052484D61782C20467265654D6506
:100100006D0054696D652C20436F322C2054656D51
:10011000702C2052482C2046616E4F6E2C20487562
:100120006D4F6E2C20436F324D61782C2052484D1C
:10013000696E2C2052484D61782C20467265654DC1
:10014000656D0031373A34363A3030004A616E20FE
:1001500031352032303231004C6F6767696E67206D
:10016000746F3A20006361726420696E697469611A
:100170006C697A65642E00496E697469616C697A8C
:10018000696E6720534420636172642E2E2E00092D
:100190000900454F46006572726F72206F70656E80
:1001A000696E672066696C6500454F460000000077
:1001B00000250028002B0000000000240027002A52
:1001C0000004040404040404040202020202020300
:1001D000030303030301020408102040800102040A
:1001E0000810200102040810201F1C1F1E1F1E1FC4
:1001F0001F1E1F1E291D11241FBECFEFD8E0DEBF1A
:10020000CDBF12E0A0E0B1E0E4ECFCE502C0059057
:100210000D92AA31B107D9F726E0AAE1B2E001C0F8
:100220001D92A839B207E1F710E0CBEFD0E004C08F
:100230002197FE010E94522DCA3FD107C9F70E94A3
:10024000291E0C94602E0C94000091E090935105AF
:100250008093500510924F0510924E05089590918D
:100260000105809100052FEF3FEF981748F4E92F23
:10027000F0E0E85DFA4F208130E09F5F9093010548
:10028000C901089590910105809100052FEF3FEF7E
:10029000981748F4E92FF0E0E85DFA4F208130E04C
:1002A0009F5F90930105C901089590E0FC01EB5216
:1002B000FE4F24918F539E4FFC018491882399F027
:1002C00090E0880F991FFC01E954FE4FA591B4916D
:1002D000FC01E355FE4F859194918FB7F894EC9112
:1002E000E22BEC938FBF0895CF93DF93FC018281C3
:1002F000938190934F0680934E0684819581A681C9
:10030000B7818093500690935106A0935206B09304
:10031000530680859185A285B3858093540690937A
:100320005506A0935606B0935706DF011C96CF01E1
:100330004996C8E5D6E02D912993A817B907D9F7B2
:10034000818D928D90936606809365068CE496E08D
:10035000DF91CF910895FC019081909528E081E391
:1003600097FF03C0990F982701C0990F2150C1F73B
:100370008181892798E021E387FF03C0880F8227C6
:1003800001C0880F9150C1F7089508950895089508
:10039000DC01ED91FC910190F081E02D0994EF9248
:1003A000FF920F931F93CF93DF938C017B01D0E0DB
:1003B000C0E0F701EC0FFD1F6491662361F0D801E6
:1003C000ED91FC910190F081E02DC8010995892BF8
:1003D00011F02196EECFCE01DF91CF911F910F91B9
:1003E000FF90EF900895AF92BF92CF92DF92EF927D
:1003F000FF920F931F93CF93DF936C017B018B01CF
:10040000040F151FEB015E01AE18BF08C017D1071E
:1004100059F06991D601ED91FC910190F081E02DA8
:10042000C6010995892B79F7C501DF91CF911F91FD
:100430000F91FF90EF90DF90CF90BF90AF90089515
:10044000FC01538D448D252F30E0842F90E0821BDA
:10045000930B541710F0CF96089501970895FC015F
:10046000918D828D981761F0A28DAE0FBF2FB11DB7
:100470005D968C91928D9F5F9F73928F90E008950F
:100480008FEF9FEF0895FC01918D828D981731F0C9
:10049000828DE80FF11D858D90E008958FEF9FEF1D
:1004A0000895FC01918D228D892F90E0805C9F4FF3
:1004B000821B91098F739927089582E595E00E9428
:1004C000510221E0892B09F420E0822F089580E079
:1004D00090E0892B29F00E945D0281110C940000AC
:1004E0000895FC01A48DA80FB92FB11DA35ABF4FC9
:1004F0002C91848D90E001968F739927848FA68923
:10050000B7892C93A089B1898C91837080648C9376
:10051000938D848D981306C00288F389E02D808125
:100520008F7D80830895EF92FF920F931F93CF9357
:10053000DF93EC0181E0888F9B8D8C8D98131AC01E
:10054000E889F989808185FF15C09FB7F894EE8905
:10055000FF896083E889F989808183708064808362
:100560009FBF81E090E0DF91CF911F910F91FF90AD
:10057000EF900895F62E0B8D10E00F5F1F4F0F7355
:100580001127E02E8C8D8E110CC00FB607FCFACF10
:10059000E889F989808185FFF5CFCE010E9471023B
:1005A000F1CFEB8DEC0FFD2FF11DE35AFF4FF082E1
:1005B0009FB7F8940B8FEA89FB8980818062CFCF47
:1005C000CF93DF93EC01888D8823B9F0AA89BB898A
:1005D000E889F9898C9185FD03C0808186FD0DC075
:1005E0000FB607FCF7CF8C9185FFF2CF808185FF96
:1005F000EDCFCE010E947102E9CFDF91CF91089536
:1006000090E0FC01E355FF4F2491FC01EB52FE4FBB
:100610003491FC01EF53FE4FE491EE23C9F0222305
:1006200039F0233001F1A8F4213019F1223029F1F9
:10063000F0E0EE0FFF1FE355FE4FA591B4918FB789
:10064000F894EC91611126C030953E233C938FBF06
:1006500008952730A9F02830C9F0243049F7809157
:1006600080008F7D03C0809180008F778093800011
:10067000DFCF84B58F7784BDDBCF84B58F7DFBCF93
:100680008091B0008F778093B000D2CF8091B0007E
:100690008F7DF9CF3E2BDACF3FB7F8948091890256
:1006A00090918A02A0918B02B0918C0226B5A89BF2
:1006B00005C02F3F19F00196A11DB11D3FBFBA2FF4
:1006C000A92F982F8827BC01CD01620F711D811DB4
:1006D000911D42E0660F771F881F991F4A95D1F739
:1006E00008952FB7F89460918502709186028091E9
:1006F0008702909188022FBF08950F931F930E9445
:10070000710360935A0570935B0580935C05909329
:100710005D0582E595E00E942F0297FF1DC00E94B3
:10072000710300915A0510915B0520915C05309191
:100730005D05601B710B820B930B009156051091A8
:1007400057052091580530915905601771078207A8
:100750009307F8F28FEF9FEF1F910F910895DC013F
:10076000ED91FC910190F081E02D0994FC019081C4
:1007700090539A3008F090E0818180532AE0929F54
:10078000800D1124089520916102260F3327331F15
:1007900021323105ECF420914805FC0190E080E025
:1007A000243069F082E00895A09161022191AC01AA
:1007B0004F5B5D4FA40FB52FB11D2C93019686178B
:1007C00098F380916102680F6093610280E0089560
:1007D00081E008951092480581E0809327051092EA
:1007E000220561E082E10E94000361E083E10E9452
:1007F0000003E9EBF0E080818E7F808380818D7F34
:10080000808388E48093B80085E48093BC000895D9
:10081000109201051092000510924F0510924E059E
:100820000E94EA0385EC91E09093FF048093FE041C
:1008300086EC91E09093FD048093FC040895CF939F
:10084000DF9391E090938E028823B9F0C091B800B5
:10085000D091BA008091BC008A7B8093BC0060E09C
:1008600082E10E94000360E083E10E9400030E9495
:10087000EA03D093BA00C093B800DF91CF910895F6
:10088000CF92DF92EF92FF920F931F93CF93DF935C
:10089000D82FC62F613208F098C00E944C036B011C
:1008A0007C018091480581116BC081E080934805EF
:1008B000809327059FEF90932605109225059C0FA6
:1008C000909324058093230580912305DD0FD82B79
:1008D000D093230580912205813009F078C01092D1
:1008E00022050E944C036B017C01809123058093BB
:1008F000BB0080914A0590914B05A0914C05B091A9
:100900004D05892B8A2B8B2BA1F00E944C03009163
:100910004A0510914B0520914C0530914D056C19FD
:100920007D098E099F09061717072807390708F45C
:1009300048C08091BC0083FDD8CF85EC8093BC007B
:100940000E944C036B017C0180914805813009F4C1
:1009500040C0809125058C1710F4C0912505E2E078
:10096000F5E0A8E2B5E080E08C1355C08C2FDF9154
:10097000CF911F910F91FF90EF90DF90CF9008954E
:1009800080914A0590914B05A0914C05B0914D0581
:10099000892B8A2B8B2B09F484CF0E944C03009166
:1009A0004A0510914B0520914C0530914D056C196D
:1009B0007D098E099F09061717072807390708F0D0
:1009C00070CF809149050E941F04C0E0CFCF85EE13
:1009D000B5CF80914A0590914B05A0914C05B091FF
:1009E0004D05892B8A2B8B2B09F4AECF0E944C032B
:1009F00000914A0510914B0520914C0530914D0511
:100A00006C197D098E099F090617170728073907F2
:100A100008F09ACFD6CF91919D938F5FA5CF08957F
:100A2000E091010580910005E81730F4F0E0E85D01
:100A3000FA4F808190E008958FEF9FEF08958091A5
:100A4000000590910105891B990B0895CF92DF92C3
:100A5000EF92FF920F931F93CF93DF937C01CB0113
:100A60008A0120915105222389F0EB016B01C40E0C
:100A7000D51ECC15DD0569F06991D701ED91FC918A
:100A80000190F081E02DC7010995F3CF642F0E94FA
:100A9000C303C801DF91CF911F910F91FF90EF9099
:100AA000DF90CF900895CF93DF931F92CDB7DEB73D
:100AB0006983209151052223F9F020914E052032BF
:100AC00058F021E030E0FC013383228390E080E0A5
:100AD0000F90DF91CF91089580914F05E82FF0E0BE
:100AE000EF5DFD4F998190838F5F80934F058093D9
:100AF0004E0581E090E0ECCF61E0CE0101960E94CE
:100B0000C303F7CF682F8FEE95E00C945305CF9277
:100B1000DF92EF92FF920F931F93CF93DF93D091C9
:100B20004E0581E0D13208F09CC0C09150050E9472
:100B30004C036B017C018091480581116CC082E0FF
:100B40008093480581E0809327058FEF80932605E9
:100B500010922505D0932405A1E2B2E0E2E0F5E091
:100B600080E0D8138DC01092230580912305CC0F0F
:100B7000C82BC093230580912205813009F084C0E1
:100B8000109222050E944C036B017C018091230589
:100B90008093BB0080914A0590914B05A0914C0534
:100BA000B0914D05892B8A2B8B2BA1F00E944C0311
:100BB00000914A0510914B0520914C0530914D054F
:100BC0006C197D098E099F09061717072807390731
:100BD00008F442C08091BC0083FDD8CF85EC80939F
:100BE000BC000E944C036B017C018091480582305F
:100BF00009F44CC0809126058F3F09F469C08091AB
:100C00002605803209F466C080912605803309F4F8
:100C100063C084E026C080914A0590914B05A09165
:100C20004C05B0914D05892B8A2B8B2B09F483CF72
:100C30000E944C0300914A0510914B0520914C05F0
:100C400030914D056C197D098E099F09061717070C
:100C50002807390708F06FCF809149050E941F04CB
:100C600085E010924F0510924E0510925105DF91CC
:100C7000CF911F910F91FF90EF90DF90CF9008954B
:100C80009D9191938F5F6DCF85EEA9CF80914A059D
:100C900090914B05A0914C05B0914D05892B8A2B65
:100CA0008B2B09F4A2CF0E944C0300914A051091AE
:100CB0004B0520914C0530914D056C197D098E092D
:100CC0009F09061717072807390708F08ECFC4CFEA
:100CD00080E0C7CF82E0C5CF83E0C3CFDF92EF9241
:100CE000FF920F931F93CF93DF9300D0CDB7DEB762
:100CF0008C01F62ED72E19826A83CE0101960E94AE
:100D0000AB01E82E81E60E942501612F70E0809101
:100D10006706909168060E94AF03B801772780911B
:100D20006706909168060E94AF0370E060E08091D2
:100D30006706909168060E94AF036F2D7D2D80910C
:100D40006706909168060E94AF03809167069091B4
:100D50006806DC01ED91FC910190F081E02D6E2D93
:100D6000099580916706909168060E94870591E039
:100D7000811190E0892F0F900F90DF91CF911F91FB
:100D80000F91FF90EF90DF900895CF93DF93D62FD0
:100D9000C72FFC01808180620E94250182E10E94B0
:100DA00082058D2F0E9482058C2F0E9482058FEE76
:100DB00095E0DF91CF910C94870590E080E0089555
:100DC0008FB7F89480911B028FBF089561E0FC01FA
:100DD00084810E94000380911A02811110921A02EC
:100DE00008958EBD00000DB407FEFDCF8EB50895A9
:100DF0008FEF0C94F1060F931F93CF93DF93EC01C9
:100E00000E9471038B010E94F8068F3F69F00E94D7
:100E10007103601B710B6C177D07A8F380E0DF91F5
:100E2000CF911F910F91089581E0F9CF8CBD9DBDA9
:100E30000895CF93DF93EC0180911A02811109C0CC
:100E400081E080931A028091FB059091FC050E943D
:100E5000160760E08C81DF91CF910C9400038F9294
:100E60009F92AF92BF92FF920F931F93CF93DF9306
:100E7000EC01F62E49015A018E81882389F08F8179
:100E800098859C012F5F3F4F38872F838230924097
:100E900018F40E94F806F3CFCE010E94E6061E82E7
:100EA000CE010E9419078CE291E00E94FB068F2D73
:100EB00080640E94F10608E110E0D501C401002E13
:100EC00004C0B695A795979587950A94D2F70E9486
:100ED000F10608501109083F8FEF180771F785E9EF
:100EE000FF2021F028E087E8F2128FEF0E94F10640
:100EF00010E00E94F8068A8787FF04C01F3F11F0A8
:100F00001F5FF7CFDF91CF911F910F91FF90BF909F
:100F1000AF909F908F900895AF92BF92CF92DF9243
:100F2000EF92FF920F931F93CF93DF93EC01690130
:100F3000C801820F931F8130924050F58E81882323
:100F400079F088819981AA81BB8184179507A607CA
:100F5000B70731F48F819885C816D90608F042C0CA
:100F6000488359836A837B838B85833039F089E09A
:100F7000440F551F661F771F8A95D1F79A01AB0161
:100F800061E1CE010E942F07882389F083E08D83E1
:100F9000CE010E94E60680E0DF91CF911F910F9174
:100FA000FF90EF90DF90CF90BF90AF9008950E9498
:100FB00071035B010E94F8068A878F3F69F40E94E3
:100FC00071036A197B096D327140A0F38FE08D8344
:100FD000CE010E94E606DCCF8E3F89F418861F8280
:100FE00081E08E838F8198858C159D0550F40E9439
:100FF000F8068F819885019698878F83F3CF8DE0CF
:10100000E6CF6701E00EF11E0E94F806F60181931B
:101010006F01EE15FF05C1F78F819885080F191F25
:1010200018870F838985882319F001151240A0F0D5
:101030008E81882389F08F8198859C012F5F3F4F97
:1010400038872F838230924018F40E94F806F3CF3D
:10105000CE010E94E6061E8281E09ECFCF92DF92F3
:10106000EF92FF920F93CF93DF93EC01690182E13E
:10107000411551056105710599F08B85833039F073
:1010800089E0440F551F661F771F8A95D1F79A0193
:10109000AB0168E1CE010E942F07882319F084E09C
:1010A0008D832DC08EEF0E94F10676018EEFD81A47
:1010B000F70181917F010E94F106EC14FD04C1F754
:1010C0008FEF0E94F1068FEF0E94F1060E94F80652
:1010D0008A878F71853071F4011116C0CE010E948C
:1010E000E60681E0DF91CF910F91FF90EF90DF90C6
:1010F000CF90089581E18D83CE010E94E606CE0156
:101100000E94E60680E0EECF88E592E00E94FB06B2
:10111000811102C085E1C4CF20E030E0A9016DE07B
:10112000CE010E942F07882311F084E1B9CF0E94DD
:10113000F8068111FACFD2CF0F9340911D02509142
:101140001E0260911F027091200241155105610538
:10115000710599F0082F2AEF32E08091FA049091FE
:10116000FB040E942E08882349F010921D02109261
:101170001E0210921F021092200281E00F9108952A
:101180000F93CF93C82F80911C02811105C0C1E03D
:101190008C2FCF910F910895409100015091010142
:1011A00060910201709103010C2F2AEF32E08091CF
:1011B000FA049091FB040E942E08811102C0C0E045
:1011C000E7CFCC2321F381E00E949C088823B9F368
:1011D00010921C02DDCF8F929F92AF92BF92EF923E
:1011E000FF920F931F93CF934B015C01C42F80910B
:1011F000000190910101A0910201B09103018815B5
:101200009905AA05BB0551F181E00E94C008811132
:101210000BC080E0CF911F910F91FF90EF90BF9096
:10122000AF909F908F9008958AEFE82E82E0F82E7D
:1012300000E012E030E020E0B501A4018091FA0462
:101240009091FB040E948C07882319F3809200017F
:1012500090920101A0920201B092030140911C0200
:101260004C2B40931C0281E0D5CF8F929F92AF927E
:10127000BF92CF92DF92EF92FF92CF932DEF35E0A6
:101280003093FB042093FA04882309F46DC040E0F6
:1012900060E070E0CB010E94EB0881110BC080E0A0
:1012A000CF91FF90EF90DF90CF90BF90AF909F9045
:1012B0008F9008958091B8048F7789F78091C40446
:1012C0009091C504A091C604B091C70484369105DD
:1012D000A105B10520F3C090C004D090C104E090F6
:1012E000C204F090C304C114D104E104F104B9F2C2
:1012F00040E0C701B6010E94EB08882381F280918B
:101300000503909106038115924049F6A0910A03C6
:10131000AA2329F2609108037091090361157105F0
:1013200009F4BDCF20910703222309F4B8CFA0937D
:101330001B0620930D0690E080E030E0E1E0F0E055
:10134000C82FAF01082E02C0440F551F0A94E2F7C0
:101350002417350769F041E0480F0196893091055F
:1013600079F7409316069BCFC12CD12C7601C0CFC4
:1013700080931606209110033091110350E040E055
:101380002115310541F420911E0330911F03409136
:1013900020035091210320930E0630930F064093B3
:1013A00010065093110646015701860E971EA11C88
:1013B000B11C80921C0690921D06A0921E06B0924F
:1013C0001F06E0910B03F0910C03F0932206E093CB
:1013D0002106B0E00E94902CDC01CB01880D991D04
:1013E000AA1DBB1D8093230690932406A093250677
:1013F000B093260625E0EE0FFF1F2A95E1F7E15096
:10140000FE4FEF2FFF27E6958E0F9F1FA11DB11DE9
:101410008093170690931806A0931906B0931A06A6
:1014200080900D0390900E03B12CA12C8114910497
:1014300041F480901A0390901B03A0901C03B0907D
:101440001D03C81AD90AEA0AFB0AC80CD91CEA1CEF
:10145000FB1C04C0F694E794D794C794CA95D2F7BE
:10146000C0921206D0921306E0921406F09215066E
:1014700085EFC8168FE0D806E104F10428F48CE06B
:101480008093200681E00CCF80E125EFC2162FEF7C
:10149000D206E104F104A0F3809126039091270382
:1014A000A0912803B09129038093230690932406EA
:1014B000A0932506B093260680E2E2CF4F925F927A
:1014C0006F927F928F929F92AF92BF92CF92DF9254
:1014D000EF92FF920F931F93CF93DF93EC01423073
:1014E00051056105710590F480E0DF91CF911F9166
:1014F0000F91FF90EF90DF90CF90BF90AF909F90B3
:101500008F907F906F905F904F90089589859A8516
:10151000AB85BC850196A11DB11D84179507A60753
:10152000B70710F3CB88DC88ED88FE888F8980317F
:1015300009F042C0BB27A72F962F852F48015901DC
:101540002A013B01C80ED91EEA1EFB1E8091000134
:1015500090910101A0910201B0910301C816D90632
:10156000EA06FB0699F58F898031C1F5B301A20126
:10157000552766277727440F551F46505D4FFA01C0
:101580009182808280911C02816080931C028A89F2
:10159000823080F08D819E81AF81B8858C0D9D1D3C
:1015A000AE1DBF1D80931D0290931E02A0931F02CB
:1015B000B093200281E099CFDB01CA01E7E0B69544
:1015C000A79597958795EA95D1F7B8CF40E0C701E1
:1015D000B6010E94EB088111C6CF86CFB301A201EC
:1015E0004F77552766277727440F551F440F551F00
:1015F00046505D4FFA0180829182A282B382C2CFAF
:101600008F929F92AF92BF92CF92DF92EF92FF9212
:101610000F931F93CF93DF93FC0181859285A38560
:10162000B4850196A11DB11D84179507A607B707BC
:1016300070F480E0DF91CF911F910F91FF90EF90B8
:10164000DF90CF90BF90AF909F908F900895838848
:101650009488A588B6888789803189F5BB27A72F0C
:10166000962F852FE9016A017B018F01BC01CD0115
:10167000680D791D8A1D9B1D8090000190900101CD
:10168000A0900201B090030186169706A806B9063D
:1016900001F5F8018789803111F5DD24EE24FF245E
:1016A000F601EE0FFF1FE650FD4F80819181B0E003
:1016B000A0E088839983AA83BB8381E0BBCFDB0151
:1016C000CA01C7E0B695A79597958795CA95D1F7B2
:1016D000C9CF40E00E94EB088111DBCFAACFE8948C
:1016E000C7F8DD24EE24FF24F601EE0FFF1FEE0FF6
:1016F000FF1FE650FD4F80819181A281B381BF70B1
:10170000D8CF4F925F926F927F92AF92BF92CF925B
:10171000DF92EF92FF920F931F93CF93DF9300D04E
:1017200000D0CDB7DEB78C0149835A836B837C83AD
:101730005901C12CD12C7601412C82E0582E612C0C
:10174000712C49815A816B817C819E012F5F3F4FB3
:10175000C8010E94000B882339F1F8018585A30197
:10176000920104C0220F331F441F551F8A95D2F7E0
:10177000DA01C901C80ED91EEA1EFB1E49815A8131
:101780006B817C818789803111F188EF9FEFAFEF0A
:10179000BFE0481759076A077B0798F2F501C08236
:1017A000D182E282F38281E00F900F900F900F9030
:1017B000DF91CF911F910F91FF90EF90DF90CF902D
:1017C000BF90AF907F906F905F904F90089588EF9B
:1017D0009FEFA0E0B0E0DDCFCF93DF93FC01258148
:1017E000222321F080E0DF91CF910895EC018091D8
:1017F0002006803159F582E08583178A108E118E7C
:10180000128E8091210690912206B0E0A0E025E0A2
:10181000880F991FAA1FBB1F2A95D1F7838B948B22
:10182000A58BB68B89E096E09C8F8B8F81E08C83B3
:101830001E821F82188619861A861B861C861D86A4
:101840001E861F86188A198A1A8ACDCF803251F6D1
:1018500083E08583409123065091240660912506FC
:1018600070912606478B508F618F728F9F012D5E7E
:101870003F4F89E096E00E94810B8111D3CFB2CF18
:101880008F929F92AF92BF92CF92DF92EF92FF9290
:101890000F931F93CF93DF93EC018D8181110EC0C5
:1018A00080E0DF91CF911F910F91FF90EF90DF903B
:1018B000CF90BF90AF909F908F9008950B891C8917
:1018C0002D893E89041715072607370748F34A0173
:1018D0005B01823031F48A869B86AC86BD8681E0CE
:1018E000E0CF81149104A104B10449F41E821F8247
:1018F000188619861A861B861C861D86F0CF0A85D7
:101900001B852C853D85EB8DFC8D858590E00996AA
:10191000B901A8014150510961097109082E04C09B
:1019200076956795579547950A94D2F775016401A6
:10193000E1E0CE1AD108E108F10804C0F694E7947A
:10194000D794C7948A95D2F7C416D506E606F7064B
:1019500020F0012B022B032B11F58F89988DA98D77
:10196000BA8D8E839F83A887B9878E010A5F1F4F28
:10197000C114D104E104F10409F4ADCF4E815F81BB
:101980006885798598018B8D9C8D0E94000B91E074
:10199000C91AD108E108F1088111EACF81CFC41A30
:1019A000D50AE60AF70AE1CF3F924F925F926F9213
:1019B0007F928F929F92AF92BF92CF92DF92EF92DF
:1019C000FF920F931F93CF93DF93CDB7DEB72C9782
:1019D0000FB6F894DEBF0FBECDBF5C01DC015B9695
:1019E0008D909C905C9716964D905D906D907C903C
:1019F0001997411451046104710409F468C0BFEFE0
:101A00004B1A5B0A6B0A7B0A312CF40181859285A3
:101A1000A385B4859C01AD012F5F3F4F4F4F5F4FB2
:101A200029873A874B875C87730162011D821E827A
:101A30001F821886F40181859285A385B4852D8146
:101A40003E814F815885281739074A075B0708F000
:101A500056C089859A85AB85BC858C159D05AE05DC
:101A6000BF0550F482E0C82ED12CE12CF12C92E07D
:101A7000492E512C612C712C9E012F5F3F4FB701D5
:101A8000A601C4010E94000B8823C9F189819A81B3
:101A9000AB81BC81892B8A2B8B2B09F12601370165
:101AA0009FEF491A590A690A790A2D813E814F81AF
:101AB00058852F5F3F4F4F4F5F4F2D833E834F839E
:101AC00058873FEFC31AD30AE30AF30AB3CFF401EE
:101AD00040805180628073803324339496CFC41445
:101AE000D504E604F70409F70FEF1FEF2FEF3FE0EF
:101AF000B701A601C4010E945E0A811119C080E0ED
:101B00002C960FB6F894DEBF0FBECDBFDF91CF91FC
:101B10001F910F91FF90EF90DF90CF90BF90AF900B
:101B20009F908F907F906F905F904F903F9008951F
:101B3000D50116964D915D916D917C911997411546
:101B400051056105710539F097018601C4010E94B4
:101B50005E0A8823A1F2D5011696CD92DD92ED9210
:101B6000FC921997332051F0D701C6010196A11DAF
:101B7000B11DF40180839183A283B383F50187892A
:101B8000908DA18DB28D892B8A2B8B2B39F484817A
:101B9000C78AD08EE18EF28E80688483F5018481BD
:101BA0008062848381E0ACCF2F923F924F925F920C
:101BB0006F927F928F929F92AF92BF92CF92DF925D
:101BC000EF92FF920F931F93CF93DF93EC015B0192
:101BD0002A018D81811115C08FEF9FEFDF91CF9189
:101BE0001F910F91FF90EF90DF90CF90BF90AF903B
:101BF0009F908F907F906F905F904F903F902F902D
:101C000008958C8180FFE8CF0B891C892D893E893E
:101C10004A855B856C857D85C201B0E0A0E06801E6
:101C20007901C41AD50AE60AF70AC816D906EA06DF
:101C3000FB0618F42801441A550A42011E0126E049
:101C4000220E311C8114910409F4B3C04A855B85CE
:101C50006C857D856A0181E0D8228B8D9C8D8A01FF
:101C60009B01E9E03695279517950795EA95D1F7F9
:101C7000ED81E230E1F5FC01628D738D848D958DEF
:101C8000600F711F821F931F612C22E0722E6C184F
:101C90007D088614970408F434012C8126FD04C0C5
:101CA0006114F2E07F0671F40091000110910101CE
:101CB0002091020130910301061717072807390701
:101CC00009F053C040E00E94EB08882309F484CF58
:101CD000C60186509D4FD5019C01260D371DFC0184
:101CE0002E173F0709F460C041914D93F9CFFC01D5
:101CF00074807A947022C114D10471F471100CC0F4
:101D0000452B462B472B39F58F89988DA98DBA8D98
:101D10008E839F83A887B987EB8DFC8D6E817F8131
:101D2000888599856250710981099109258504C0CA
:101D3000660F771F881F991F2A95D2F7068517858A
:101D400020893189600F711F821F931F670D711DDC
:101D5000811D911D99CF4E815F81688579859101A3
:101D60000E94000B8111D8CF37CF750183019601F6
:101D7000AB01BC018091FA049091FB040E948C0796
:101D8000882309F429CFA60CB71C8A859B85AC85CE
:101D9000BD85860D971DA11DB11D8A879B87AC87C8
:101DA000BD87861897084ECF281B390BA20EB31E8D
:101DB000ECCFC20113CF1F93CF93DF93FC0125819A
:101DC0002223D1F1162FEC01848187FF2AC066857A
:101DD00077858089918941E00E94EB08882361F131
:101DE000EA8980E2E89FF0011124E650FD4F309728
:101DF00019F18D81823040F48B899C89AD89BE892F
:101E0000848F958FA68FB78F8F89988D938F828FB0
:101E10008F89988DA98DBA8DB58BA48B8C818F7786
:101E20008C83111103C08C818F7E8C83812FDF9175
:101E3000CF911F910C94C00880E0DF91CF911F914A
:101E40000895FF920F931F93CF93DF93EC018D8141
:101E5000813041F090E080E0DF91CF911F910F91B0
:101E6000FF9008958C8181FFF5CF82FD1BC000910A
:101E7000FA041091FB04C8010E9419070E94F80699
:101E8000F82EC8010E94E6068FEFF812E3CF8C818E
:101E900085FF1BC060E0CE010E94DB0E8C818F7D30
:101EA0008C83D8CF4B895C896D897E898A859B8597
:101EB000AC85BD8584179507A607B707C1F2CE018B
:101EC0000E94400C8111D3CFC5CF40911D0250918B
:101ED0001E0260911F0270912002452B462B472B5A
:101EE00021F080E00E949C08B5CF80618C832A8518
:101EF0003B85317080E092E0821B930BADCFCF9396
:101F0000DF93EC0161E00E94DB0E882311F01D825B
:101F100081E0DF91CF9108952F923F924F925F928F
:101F20006F927F928F929F92AF92BF92CF92DF92E9
:101F3000EF92FF920F931F93CF93DF9300D000D0C7
:101F40001F92CDB7DEB77C015B01342E5D83DC01CF
:101F500015968C911597813009F0CEC014962C906F
:101F600021FECAC022FCB4C0C32CDD8022947FE0D5
:101F700027222094B22DB1702B2ED7011A964D91A5
:101F80005D916D917C911D97C114D10409F428C114
:101F90005B968D919C915C97FC0174807A948A0188
:101FA0009B0169E036952795179507956A95D1F7B6
:101FB00070228A011170711020C001151105E9F419
:101FC00016964D915D916D917C9119974115510532
:101FD0006105710509F099C057968D919D910D90FD
:101FE000BC91A02D0097A105B10509F0B0C0C701B3
:101FF0000E94D40C882309F47FC080E092E0801B0B
:10200000910B46018C159D0508F44C01D7015B9698
:102010004D915C915C9716968D919D910D90BC9120
:10202000A02D0297A109B109FA01258504C0880FE6
:10203000991FAA1FBB1F2A95D2F74685578560892D
:102040007189840F951FA61FB71F9C01AD01270D35
:10205000311D411D511D29013A01811432E09306C1
:1020600009F07BC08091000190910101A0910201D3
:10207000B091030184159505A605B70559F48FEFB6
:102080009FEFDC018093000190930101A093020176
:10209000B0930301022D9501B301A2018091FA04CE
:1020A0009091FB040E942E08882331F19EEFB91A0B
:1020B000C818D908F70182859385A485B585880D50
:1020C000991DA11DB11D82879387A487B58755CF20
:1020D000F701438954896589768982859385A4852A
:1020E000B585481759076A077B0709F43DCFC70133
:1020F0000E94400C811138CF81E090E0D701139607
:102100009C938E93129780E007C09E012F5F3F4FF4
:102110000E94000B811102C090E079C089819A81F0
:10212000AB81BC81F701238D348DF901278948EFFC
:102130005FEF60E070E0203121F048EF5FEF6FEF7C
:102140007FE084179507A607B70708F050CFF7017F
:1021500086839783A087B18750CF0115110599F524
:10216000D7011A964D915D916D917C911D97539673
:102170008D919D910D90BC91A02D481759076A072C
:102180007B0708F181E00E94C008882309F4B4CFDE
:10219000409200015092010160920201709203018D
:1021A00080911C02816080931C02C80186509D4F63
:1021B000D5019C01280D391DFC012E173F0759F050
:1021C0004D914193FACF41E0C301B2010E94EB0867
:1021D0008111EBCF91CF281B390BA20EB31E68CF14
:1021E000F70183899489A589B68984179507A6077D
:1021F000B70738F48481438B548B658B768B80686A
:102200008483F701848183FD1AC0832D9D810F9003
:102210000F900F900F900F90DF91CF911F910F9122
:10222000FF90EF90DF90CF90BF90AF909F908F90F6
:102230007F906F905F904F903F902F90089561E056
:10224000C7010E94DB0E882309F456CFDECFCF935F
:10225000DF931F92CDB7DEB7698341E050E0BE0146
:102260006F5F7F4F0E948C0F0F90DF91CF91089589
:10227000FC01DB0112968D919C91139793838283CD
:102280008BE491E09183808314968C9114978483DE
:1022900015968C911597858316964D915D916D914C
:1022A0007C91199746835783608771871A964D9161
:1022B0005D916D917C911D974287538764877587E7
:1022C0001E964D915D916D917C91519746875787F0
:1022D000608B718B52968C915297828B53964D9155
:1022E0005D916D917C915697438B548B658B768B6A
:1022F00057964D915D916D917C915A97478B508F78
:10230000618F728F5B968D919C91948F838F0895CE
:10231000FC01818D928D009719F061E00C94DB0E29
:102320000895DC015996ED91FC913097B9F08389BD
:102330009489A589B6894285538564857585841BF2
:10234000950BA60BB70B811520E89207A105B105E7
:1023500038F08FEF9FE7A0E0B0E0089590E080E0D4
:102360000895DC0159968D919C91009739F0DC011C
:10237000ED91FC910480F581E02D099490E080E0DE
:102380000895CF93DF93EC01E98DFA8D309749F4EE
:1023900081E090E09B838A8390E080E0DF91CF91A1
:1023A000089513821282898D9A8D0E948C0FE98D77
:1023B000FA8D22813381232B59F7F0CFCF93DF930E
:1023C0001F92CDB7DEB76983DC01ED91FC910280ED
:1023D000F381E02D41E050E0BE016F5F7F4F099532
:1023E0000F90DF91CF910895CF93DF931F92CDB7D8
:1023F000DEB741E050E0BE016F5F7F4F0E94D40D19
:10240000019731F4898190E00F90DF91CF91089589
:102410008FEF9FEFF9CFFC01818D928D009711F026
:102420000C94F4118FEF9FEF08950F931F93CF93A8
:10243000DF93EC01898D9A8D10E000E0009799F010
:102440000E94F4118C010F3F100769F0898D9A8D5D
:10245000FC014285538564857585415051096109A8
:1024600071090E94400CC801DF91CF911F910F911B
:1024700008950E944004109201058093000508957C
:10248000EF92FF920F931F93CF93DF938C01C62F90
:10249000E42E84E1F82ED2E1683020F0C85095E1B6
:1024A000F92ED3E1F801808180620E9425018F2DF1
:1024B0000E9482058FEE95E00E948705F8018081D9
:1024C000806261E070E090E00E9439120E94420157
:1024D00021E030E001C0220FCA95EAF7F1E0C82FF1
:1024E000C22BEF1619F02095C22FC823F801808166
:1024F00080620E9425018D2F0E9482058C2F0E94F0
:1025000082058FEE95E0DF91CF911F910F91FF90A3
:10251000EF900C948705FC01962F828D8F3F31F050
:10252000603140F4CF014B960C944012642F892FF8
:102530000C9400030895CF93DF93C82FD1E082FB62
:10254000442740F94D2768E083E996E00E94401255
:10255000C1FB442740F94D2767E083E996E00E94DC
:1025600040124C2F4095417066E083E996E0DF9180
:10257000CF910C944012FF920F931F93CF93DF9350
:102580008C01C62FF42ED0E0683010F0C850D1E096
:10259000F801808180620E9425018D2F0E948205B2
:1025A0008FEE95E00E948705F8018081806261E0EE
:1025B00070E090E00E9439120E94420121E030E078
:1025C00001C0220FCA95EAF7C82FC22BFF2019F0CD
:1025D0002095C22FC823F801808180620E942501C6
:1025E0008D2F0E9482058C2F0E9482058FEE95E030
:1025F000DF91CF911F910F91FF900C94870560316F
:1026000010F40C94BB120895CF9381E60E9425012B
:1026100062E070E080916706909168060E94AF03C7
:1026200062E070E080916706909168060E94AF03B7
:1026300080916706909168060E948705882321F0A3
:1026400090E080E0CF91089562E081E60E9440042E
:1026500010920105809300058091670690916806AD
:10266000DC01ED91FC910084F185E02D0995892B29
:1026700039F38091670690916806DC01ED91FC9139
:102680000284F385E02D0995C82F8091670690910B
:102690006806DC01ED91FC910284F385E02D09953B
:1026A00020E03C2FA901482BCA01CCCF2F923F92AA
:1026B0004F925F926F927F928F929F92AF92BF9252
:1026C000CF92DF92EF92FF920F931F93CF93DF93FE
:1026D00000D0CDB7DEB70E9404130197B1F080E0BF
:1026E0000F900F90DF91CF911F910F91FF90EF907E
:1026F000DF90CF90BF90AF909F908F907F906F9022
:102700005F904F903F902F90089581E60E942501A1
:102710008091670690916806DC01ED91FC91019033
:10272000F081E02D63E0099580916706909168063D
:10273000DC01ED91FC910190F081E02D60E00995C4
:1027400080916706909168060E9487058111C7CF26
:1027500062E181E60E944004109201058093000529
:102760008091670690916806DC01ED91FC910084F0
:10277000F185E02D0995892B09F4B1CF212CC12CCD
:10278000D12C7601812C912C5401412C512C3201F9
:1027900010E033E0332E8091670690916806DC01EB
:1027A000ED91FC910284F385E02D0995082F1131FC
:1027B00008F059C0E12FF0E0E052FC4E0C94522D8D
:1027C000F113F1133314F113F113331427142714F5
:1027D00033142714271433142D142D1433142D14EB
:1027E0002D14762C652C542C4424482A812F632DDB
:1027F0000E94102DE1E0F0E0EC0FFD1FE90FF11D4C
:1028000000831F5F123109F0C6CF211068CF4092BC
:10281000690650926A0660926B0670926C0680920E
:102820006D0690926E06A0926F06B0927006C092EE
:102830007106D0927206E0927306F09274061092BE
:102840007506109276061092770681E049CFBA2C71
:10285000A92C982C8824802AC9CFFE2CED2CDC2CA6
:10286000CC24C02AC3CFCE0101960E94AB01081729
:1028700041F222242394C5CFCF93C82F88E60E942B
:1028800025016C2F8FEE95E00E9453058FEE95E0A9
:102890000E94870561E088E60E94400410920105CD
:1028A000809300050E944201CF910895CF93DF935A
:1028B000EC0140E06E810E948B1241E06E81CE01FE
:1028C0000E948B1240E06E81CE010E948B128BE839
:1028D00091E00197F1F7DF91CF910895AF92BF9208
:1028E000CF92DF92EF92FF920F931F93CF93DF93DC
:1028F000EC018A8D8E01095F1F4FC62ED12C8F3FB0
:1029000009F47EC07E018BE1E80EF11C8B8D8062A4
:102910000E94250182E10E9482058FEE95E00E94CF
:1029200087058B8D806262E070E090E00E94391232
:102930000E944201B82E0E94420160E0782FCB0134
:102940008B29F80130E020E001E010E04191B8016E
:10295000042E02C0660F771F0A94E2F76095709507
:1029600086239723B601022E02C0759567950A94B7
:10297000E2F76170772702C0660F771F4A95E2F78A
:10298000862B972B2F5F3F4F24303105F9F62E8190
:10299000680102C0CC0CDD1C2A95E2F7C094D094EB
:1029A000C822D922B601C7010E94C5068E81B8018E
:1029B00002C0660F771F8A95E2F7C62AD72AB601AA
:1029C000C7010E94C5068E81B80102C0660F771F3D
:1029D0008A95E2F7609570956C217D21C7010E9470
:1029E000C5068BE891E00197F1F7DF91CF911F9138
:1029F0000F91FF90EF90DF90CF90BF90AF90089530
:102A0000F12CE12C5E01EBE1AE0EB11CF8018191DD
:102A10008F019A8D9F3F39F141E0682FC5010E94D7
:102A2000FF12A6010E2C02C0559547950A94E2F7B5
:102A30004170F80131976081CE010E948B12FFEF47
:102A4000EF1AFF0A84E0E816F10401F7CE01DF91E6
:102A5000CF911F910F91FF90EF90DF90CF90BF909B
:102A6000AF900C9456140E945501DBCFAF92BF92E9
:102A7000CF92DF92EF92FF920F931F93CF93DF934A
:102A8000EC01F62E6C810E948B126D816F3F21F05C
:102A900040E0CE010E948B120F2D10E08C8984FF44
:102AA0003AC06E0187E0C80ED11CF12CE12C5E010A
:102AB000EBE1AE0EB11CF60181916F019A8D9F3F43
:102AC00039F141E0682FC5010E94FF12A8010E2CC8
:102AD00002C0559547950A94E2F74170F601319787
:102AE0006081CE010E948B12FFEFEF1AFF0A88E08F
:102AF000E816F10401F7CE01DF91CF911F910F91FC
:102B0000FF90EF90DF90CF90BF90AF900C94561451
:102B10000E945501DBCFB80184E0759567958A95D1
:102B2000E1F7CE010E946E146F2DCE01DF91CF919F
:102B30001F910F91FF90EF90DF90CF90BF90AF90DB
:102B40000C946E1440E0682F88E796E00C943615DC
:102B500081E00E94A2158BE39FE10197F1F70895B0
:102B6000CF93DF93CDB7DEB728970FB6F894DEBFCB
:102B70000FBECDBF88E0EBE1F1E0DE0111960190E0
:102B80000D928A95E1F780919006811117C08FEF21
:102B900090E0880F991F21E030E02C0F3D1F820F3D
:102BA000931FFC018081806828960FB6F894DEBFE1
:102BB0000FBECDBFDF91CF910C94A21581E0E8CF7D
:102BC00041E00E94361581E090E00895CF92DF92B7
:102BD000EF92FF921F93CF93DF93EC0180E2689F07
:102BE000F0011124E650FD4F9385917161F0842F1F
:102BF000827449F080E0DF91CF911F91FF90EF90B8
:102C0000DF90CF900895142F6A8B809100019091EE
:102C10000101A0910201B09103018E879F87A88BCB
:102C2000B98BC488D588F12CE12C7601DD24CC2425
:102C3000CF8AD88EE98EFA8E828D938DB0E0A0E097
:102C4000AC01BD014C295D296E297F294F8B588F1E
:102C5000698F7A8F83858871B1F4848D958DA68D67
:102C6000B78D8B8B9C8BAD8BBE8B81E08D831F7062
:102C70001C831E821F82188619861A861B861C8654
:102C80001D8681E0B8CF803109F0B4CF9E012D5E62
:102C90003F4F8B8D9C8D0E94810B882309F4AACF16
:102CA00084E0E4CFFB0101900020E9F73197AF0108
:102CB000461B570BDC01ED91FC910280F381E02D66
:102CC00009948F929F92AF92BF92EF92FF920F93CF
:102CD0001F93CF93DF93CDB7DEB7A1970FB6F894CC
:102CE000DEBF0FBECDBF7C01FA01CB0119A222309D
:102CF00008F42AE08E010F5D1F4F822E912CB12C1B
:102D0000A12CBF01A50194010E94302DF901CA0137
:102D10006A300CF5605DD8016E938D01232B242B56
:102D2000252B79F790E080E0109721F0BD01C701D5
:102D30000E945216A1960FB6F894DEBF0FBECDBF0B
:102D4000DF91CF911F910F91FF90EF90BF90AF90C7
:102D50009F908F900895695CDECF462F50E070E021
:102D600060E02AE00C946116CF92DF92EF92FF921E
:102D70000F931F93CF93DF936B01770FEE08FF083C
:102D8000F7FE1BC0EC016DE20E94C8018C014427D4
:102D90005527BA014C195D096E097F092AE0CE0159
:102DA0000E946116800F911FDF91CF911F910F91AB
:102DB000FF90EF90DF90CF9008952AE0B701A60131
:102DC000DF91CF911F910F91FF90EF90DF90CF9007
:102DD0000C94611661E771E00C945216CF93DF9367
:102DE000BC0182E595E00E945216EC0182E595E077
:102DF0000E94EA168C0F9D1FDF91CF9108950F93CB
:102E00001F93CF93DF93EC010E94CF018C01CE0181
:102E10000E94EA16800F911FDF91CF911F910F91B1
:102E200008956115710511F00C94521690E080E040
:102E300008958230910509F45DC034F4009761F083
:102E4000019709F445C008958330910509F462C0E3
:102E5000049709F46CC008950E94A81564E771E016
:102E600088E796E00E9411176091ED027091EE02E2
:102E700088E796E00E94B4166AE771E088E796E07A
:102E80000E9411170E94B01567E970E088E796E08C
:102E90000E94CF016091EA0288E796E00E94AD1699
:102EA00065E970E088E796E00E94CF0160E970E094
:102EB00088E796E00E94CF016091EC0288E796E0F7
:102EC0000E94AD166EE771E088E796E00C9411174A
:102ED0000E94A81567E870E088E796E00E94CF019D
:102EE0000E94B015609106017091070188E796E095
:102EF0000C94B4160E94A8156FE770E088E796E07E
:102F00000E94CF010E94B0156091050188E796E00C
:102F10000C94AD160E94A81567E770E088E796E06C
:102F20000E94CF010E94B01560910401EFCF0E9472
:102F3000A81560E770E088E796E00C94CF01FC01EB
:102F400080819181009711F00C94D52B0895CF9337
:102F5000DF93EC01898D9A8D009741F00E947F0FDD
:102F6000898D9A8D0E94D52B1A8E198EDF91CF9163
:102F700008950F931F93CF93DF93EC01888199817C
:102F8000009759F02A813B812617370730F081E0FE
:102F9000DF91CF911F910F9108958B016F5F7F4F4C
:102FA0000E946C2D009759F0998388831B830A83B4
:102FB0002C813D81232B59F7FC011082E8CF80E062
:102FC000E7CFEF92FF920F931F93CF93DF9300D041
:102FD000CDB7DEB78C01FC01118210821382128200
:102FE0001582148270E060E00E94B917F801208118
:102FF000318181112FC02115310519F0C9010E94BD
:10300000D52BF8011182108215821482138212824C
:103010000E947D0397FD26C089831A82F801E4800F
:10302000F580FFEFEF1AFF0AB701C8010E94B91738
:10303000882371F3F8012081318184819581BE015B
:103040006F5F7F4F820F931F0E944A2EF801F58217
:10305000E482DECF1582148263E771E0C9010E9429
:103060004A2ED6CFC8010F900F90DF91CF911F91BC
:103070000F91FF90EF90089585ED8093BC008091B3
:103080004A0590914B05A0914C05B0914D050796CE
:10309000A11DB11D23E0B695A795979587952A9513
:1030A000D1F72091BC0024FD03C01092480508957B
:1030B00040914A0550914B0560914C0570914D052A
:1030C000452B462B472B69F30097A105B10541F02D
:1030D00025E32A95F1F700000197A109B109E1CF95
:1030E000809149050C941F043F924F925F926F921A
:1030F0007F928F929F92AF92BF92CF92DF92EF9288
:10310000FF920F931F93CF93DF93CDB7DEB72B972B
:103110000FB6F894DEBF0FBECDBF7C01DC01159663
:103120008C91811115C0FE013196CE010C966F0174
:1031300030E23193E817F907E1F7DA0130E087E090
:103140009D91B92E992329F19E3239F48A3011F4D8
:1031500080E0E4C038E08AE0F3CFEDE9F0E04491AC
:10316000442321F031969413FACFF2CF831780F3E2
:103170004FED490F4E3560F74FE9490F4A3118F4CA
:1031800040EEB42EB90EF601E30FF11DB0823F5FA1
:10319000D7CF89818032E1F2322E8B01FB01838D02
:1031A000948DD7015C969C938E935B9716821782C1
:1031B000108611861286138614861586F80182857C
:1031C0009385A485B5854389548965897689841753
:1031D0009507A607B70708F04DC025E0B695A79557
:1031E000979587952A95D1F7F82FFF70AF2ED801C4
:1031F00015968C91823008F4ABCFC8010E94F4116F
:1032000097FDA6CFF80182859385A485B5854F9655
:10321000A11DB11D82879387A487B587F0E2AF9E79
:10322000B001112466507D4F6115710509F490CFEE
:10323000DB018C91882341F0853E09F062C0BB2000
:1032400029F0BB24B394BACFB1100EC0F701A28A03
:103250008091000190910101A0910201B0910301C0
:1032600086879787A08BB18BDB018C918111E9CF89
:10327000BB24B394832D8271823109F069CFBB20C6
:1032800009F464C0F701668577858089918941E0FA
:103290000E94EB08882309F45BCFD70152968C91EA
:1032A000B0E28B9FC001112486509D4F009709F416
:1032B0004FCFFC013A9626E1DF011D922A95E9F7EE
:1032C0002BE0F601DC0101900D922A95E1F721E255
:1032D00038E2FC01318B208B40E058E0578746876D
:1032E000338B228B318F208F578B468B81E00E944E
:1032F000C008882309F42CCF432DD70152966C9136
:103300000AC04BE050E0C6010E94292E892B09F02B
:1033100055CF432D6A2DC7010E94E6152B960FB697
:10332000F894DEBF0FBECDBFDF91CF911F910F91FB
:10333000FF90EF90DF90CF90BF90AF909F908F90D5
:103340007F906F905F904F903F900895F801858136
:10335000823009F4FDCEC8010E94D40C882309F400
:10336000F7CED8015B96ED91FC915C9716968D9007
:103370009D90AD90BC901997B2E08B1A9108A1086E
:10338000B108858504C0880C991CAA1CBB1C8A95B1
:10339000D2F786859785A089B189880E991EAA1EC5
:1033A000BB1E848124013501480E511C611C711C17
:1033B00084149504A604B70409F1E1E04E1A5108FB
:1033C0006108710881E00E94C008882309F4C0CE1A
:1033D000EAEFF2E011928AEF94E08E179F07D1F79F
:1033E000409200015092010160920201709203012B
:1033F00080911C02816080931C02DACFD8015B9619
:10340000ED91FC91258580E092E0A0E0B0E004C061
:10341000880F991FAA1FBB1F2A95D2F7F80143896D
:10342000548965897689840F951FA61FB71F838BE2
:10343000948BA58BB68BD70152961C928AEF92E0A3
:1034400038CFEF92FF920F931F93CF93DF93EC014E
:103450007B018A011B821A8288EE93E0A0E0B0E033
:103460008C839D83AE83BF8387E591E099838883B6
:103470008DE190E00E94392B9A8F898F009779F027
:103480002DE1F701DC0101900D922A95E1F74CE066
:1034900050E0B801CE010C960E94512E188EDF919B
:1034A000CF911F910F91FF90EF9008952F923F922F
:1034B0004F925F926F927F928F929F92AF92BF9244
:1034C000CF92DF92EF92FF920F931F93CF93DF93F0
:1034D000CDB7DEB7C756D1090FB6F894DEBF0FBE21
:1034E000CDBF5C013B01A6964FAFA69719A218A2CB
:1034F0008BE491E09F8F8E8F1BA21C821B829A838C
:1035000089831E824E018EE1880E911CC4010E94A7
:10351000EC0B63018E010F5F1F4F240118016FE256
:1035200070E0C6010E943F2E009709F459C0F601D1
:1035300020812F3271F4FFEFCF1ADF0A902F812FF5
:103540008201492E582E942D852D2801092F182FE0
:10355000E6CF8C198D3008F08CE0E82EF12CA70115
:10356000B601CE01885A9F4F0E94512EE8E5F0E047
:10357000EC0FFD1FEE0DFF1D1082C8010E947F0F92
:1035800021E0AE01485A5F4FB201C8010E94741891
:10359000811120C01EAE1DAE8BE491E09CAF8BAFBD
:1035A00021961FAE2197A896EEADFFADA8976E0E9F
:1035B0007F1EF3018081811120C0BE01655C7F4FB9
:1035C000C1010E94381140E851E0B101C5010E94DB
:1035D000211A31C0CE0CDF1CC2010E947F0FB3CF75
:1035E000C60186199709A8969FAF8EAFA897B2011A
:1035F000CE01CB960E943811D6CF19A218A28BE427
:1036000091E09F8F8E8F1BA221968FAD2197811104
:103610002DC0F5011382128288EE93E0A0E0B0E0A5
:1036200084839583A683B78387E591E09183808324
:10363000128E118E1486C501C959DF4F0FB6F8944A
:10364000DEBF0FBECDBFDF91CF911F910F91FF90D5
:10365000EF90DF90CF90BF90AF909F908F907F9032
:103660006F905F904F903F902F900895A6962FAD4A
:10367000A697A301BE01655C7F4FC4010E94741828
:10368000882339F2CE01CB960E947F0FA6968FAD8C
:10369000A6978670863039F449A95AA96BA97CA9E6
:1036A000C4010E94400CB401C1010E943811A30161
:1036B0008CCF1F920F920FB60F9211242F933F932E
:1036C0004F935F936F937F938F939F93AF93BF932A
:1036D000EF93FF9382E595E00E947102FF91EF91D5
:1036E000BF91AF919F918F917F916F915F914F911A
:1036F0003F912F910F900FBE0F901F9018951F9222
:103700000F920FB60F9211242F938F939F93EF93E5
:10371000FF93E0916205F09163058081E091680577
:10372000F091690582FD1BC0908180916B058F5FD0
:103730008F7320916C05821741F0E0916B05F0E0EA
:10374000EE5AFA4F958F80936B05FF91EF919F9101
:103750008F912F910F900FBE0F901F901895808121
:10376000F4CF1F920F920FB60F9211242F933F9315
:103770008F939F93AF93BF93809185029091860220
:10378000A0918702B09188023091840223E0230F38
:103790002D3758F50196A11DB11D20938402809309
:1037A000850290938602A0938702B093880280914D
:1037B000890290918A02A0918B02B0918C020196AD
:1037C000A11DB11D8093890290938A02A0938B0260
:1037D000B0938C02BF91AF919F918F913F912F91A8
:1037E0000F900FBE0F901F90189526E8230F02969A
:1037F000A11DB11DD2CF1F920F920FB60F921124AF
:103800002F933F934F935F936F937F938F939F93E8
:10381000AF93BF93EF93FF938091B900887F803679
:1038200009F44AC0F0F5883209F4A7C018F58031D0
:1038300009F49BC0B8F4882309F4F9C0883009F46E
:1038400094C0FF91EF91BF91AF919F918F917F9124
:103850006F915F914F913F912F910F900FBE0F90FD
:103860001F901895883109F488C0803251F78093F1
:10387000260514C0803409F49DC040F48033B9F3A8
:103880008833F9F68093260585ECB0C0803509F4BD
:1038900085C0883509F496C0883499F60E943C1892
:1038A000D0CF883909F48CC038F5883729F050F426
:1038B000883611F0803729F683E08093480510920E
:1038C000830257C0883809F47BC0803919F08038EA
:1038D00009F0B7CF80918302803208F071C0E09187
:1038E000830281E08E0F809383028091BB00F0E021
:1038F000ED59FD4F80833DC0803B39F0E0F4803AC4
:1039000009F479C0883A09F09CCF84E08093480597
:103910001092620210926102E091FE04F091FF04A5
:1039200009958091610281110FC081E0809361024D
:103930001092410209C0803C09F4A6CF883C09F4EA
:10394000A3CF883B09F07DCFE091620281E08E0F2A
:1039500080936202F0E0EF5BFD4F80818093BB00BB
:10396000909162028091610229C080912305809329
:10397000BB0085EC8093BC0064CF909125058091BD
:103980002405981758F5E091250581E08E0F809366
:103990002505F0E0EE5FFA4F8081E9CFE091250543
:1039A00081E08E0F809325058091BB00F0E0EE5FF3
:1039B000FA4F808390912505809124059817C8F2CD
:1039C00085E8D8CFE091250581E08E0F809325050D
:1039D0008091BB00F0E0EE5FFA4F80838091270575
:1039E00081115CCF81E08093220584EA8093BC0042
:1039F0001092480526CF85EC8093BC0010924805B4
:103A000080918302803230F4E0918302F0E0ED593E
:103A1000FD4F10826091830270E0E091FC04F09110
:103A2000FD0483E692E00995109283020ACF10927A
:103A3000260534CFEC0168E670E082E595E00E944F
:103A4000CF01CE010E94EE1661E085E00E940003E6
:103A5000FFCF109255051092540548EE53E060E0F8
:103A600070E0409356055093570560935805709346
:103A7000590587E291E0909353058093520585ECB8
:103A800090E090935F0580935E0584EC90E09093C6
:103A900061058093600580EC90E0909363058093CE
:103AA000620581EC90E0909365058093640582EC5B
:103AB00090E0909367058093660586EC90E0909384
:103AC00069058093680510926B0510926C05109241
:103AD0006D0510926E051092F2051092F10540935B
:103AE000F3055093F4056093F5057093F60589E3AB
:103AF00091E09093F0058093EF0580E58093FB05BE
:103B00001092FC051092020610920306109206060F
:103B10001092080682E090E0A0E0B0E080930906F1
:103B200090930A06A0930B06B0930C061092200601
:103B300010922A06109229068BE491E090932806B1
:103B40008093270610922C0610927B0610927A061C
:103B500089E691E090937906809378061092920618
:103B600010928C068FE080937C068EE080937D0619
:103B70008DE080937E068CE080937F068BE08093BF
:103B800080068AE08093810689E080938206109205
:103B9000870681E08093880692E09093890693E0FF
:103BA00090938A0694E090938B0610926906109287
:103BB0006A0610926B0610926C0610926D061092B7
:103BC0006E0610926F061092700610927106109297
:103BD0007206109273061092740680937506809395
:103BE00076068093770610924F0610924E06409309
:103BF000500650935106609352067093530687E522
:103C000091E090934D0680934C06109266061092B8
:103C100065061092580610924B0610924A061092B2
:103C2000490610924606E9EEF1E081E08C3049F059
:103C30009491823009F49F5F21E0280F31969923F7
:103C400031F08093470681E0809348060895822FE3
:103C5000EDCFCF93DF93CDB7DEB7C15BD1090FB600
:103C6000F894DEBF0FBECDBF789484B5826084BD6A
:103C700084B5816084BD85B5826085BD85B5816070
:103C800085BD80916E00816080936E0010928100EE
:103C900080918100826080938100809181008160A9
:103CA000809381008091800081608093800080916A
:103CB000B10084608093B1008091B00081608093F6
:103CC000B00080917A00846080937A0080917A00BD
:103CD000826080937A0080917A00816080937A007C
:103CE00080917A00806880937A001092C100E09100
:103CF0006205F091630582E08083E0915E05F091BA
:103D00005F051082E0916005F09161058FEC808382
:103D100010926A05E0916605F091670586E0808360
:103D2000E0916405F0916505808180618083E09178
:103D30006405F0916505808188608083E091640569
:103D4000F0916505808180688083E0916405F09141
:103D5000650580818F7D808385E00E94550186E026
:103D60000E94550182E00E94550183E00E945501A6
:103D700084E00E94550161E084E00E94000367E74F
:103D800071E082E595E00E94CF018AE00E94550132
:103D900080912C06882321F087E296E00E947F0F15
:103DA0001092080610920606109203061092020660
:103DB0008AE0809301060E9471038B0180910106C5
:103DC0000E94550161E0809101060E940003FFB648
:103DD000F89480918D02811124C0EBECF1E0849184
:103DE000EFEDF1E09491E82FF0E0EE0FFF1FE954C2
:103DF000FE4FA591B491EC91E92321F461E08AE0B2
:103E00000E9400038AE00E9455018CB580618CBD40
:103E10008CB580648CBD8DE00E9455018BE00E94C2
:103E2000550180918D028F5F80938D02FFBE82E5E8
:103E30008093FB051092FC058091FB059091FC0599
:103E40000E9416078AE0F82E8FEF0E94F106FA947E
:103E5000F110FACF8DEF95E00E94190720E030E0D5
:103E6000A90160E08DEF95E00E942F07F82E809366
:103E7000070621E0821791F00E947103601B710B0D
:103E8000613D774058F381E0809302068DEF95E025
:103E90000E94E60682E891E00E941A1D2AEA31E0BB
:103EA00040E050E068E08DEF95E00E942F0782FF30
:103EB0002BC0F092080680910806812C912CA12C31
:103EC000A0E4BA2E823019F0812C912C540120E00C
:103ED00030E0A90167E38DEF95E00E942F07A5016F
:103EE000940169E28DEF95E00E942F07E82E809300
:103EF00007068823D1F00E947103601B710B613D9E
:103F0000774028F388E0C0CFB4E0EB2E0E94F8069B
:103F100080930706EA94E110F9CF8A3A11F082E023
:103F2000B3CF82E080930806C6CF80910806823026
:103F3000D1F420E030E0A9016AE38DEF95E00E9422
:103F40002F07882311F086E09FCF0E94F806807C1F
:103F5000803C19F483E0809308060E94F8060E94D2
:103F6000F8060E94F8068DEF95E00E94E60680E5CF
:103F70008093FB051092FC0581E00E94350988239F
:103F800009F491C087E296E00E94EC0B882309F4C3
:103F900081CF65E671E082E595E00E94FF16FBE4C3
:103FA000AF2EF1E0BF2E3E019EE3690E711C8E0123
:103FB0000F5F1F4F8E2D6AE00E94102D805D809351
:103FC0000E01905D90930F0122961FAE1EAE2297B8
:103FD000BFAEAEAE24961FAE24971CA21BA2BAA2FF
:103FE000A9A21EA2212C312C562C472CE7E2CE2E62
:103FF000E6E0DE2EC101F101E85FFE4F20812F32A5
:1040000009F40196DC01A85FBE4FFE01E55AFF4F9F
:1040100030E020E04F014D914F3249F0442339F018
:1040200001962F5F3F4F41932C303105A1F7280DAA
:10403000391DF9011082FC01E85FFE4F20812F320B
:1040400009F401961C01885F9E4FDC01BC91CF549E
:10405000DF4FB883C15BD0401C821B82BA82A98229
:104060001E8221E0A401B601C8010E9474188823B1
:1040700011F40C940E2BC8010E947F0FCF54DF4F18
:10408000E881C15BD040E11115C027E2C21626E0ED
:10409000D20619F0C6010E947F0FE39444E6E412B1
:1040A00089CF0C941F2B80E00E943509882309F4E6
:1040B000F1CE68CF21E0A401B601852D942D0E9498
:1040C0007418982EF7E2CF16F6E0DF0611F40C9480
:1040D0002D2BC6010E947F0F91100C94322B0C9453
:1040E000162B68E571E082E595E00E94CF0188E03B
:1040F00091E00E94EE160E9408040E94080488E6DF
:104100000E9425018FEE95E00E948705882319F013
:1041100083EC91E0C1CE88E60E94250162E08FEE3B
:1041200095E00E9453058FEE95E00E94870561E0BF
:1041300070E088E690E00E9439120E944201807E81
:104140009927803E910509F02FC08EEC91E00E94E6
:10415000EE164BE050E06CE471E0C8010E945E2C6A
:10416000CE010A960E94B603E82EE981E154E331BC
:1041700008F06FC20E2E000CFF0BEF53FF4D0C9496
:10418000522DB62329232923D1232923D4232923BC
:10419000292329231F2329232923BF23CE23CB23EC
:1041A000292329232923C82383E00E943C1490E07B
:1041B000880F892F881F990B892B09F0C6CF80E0C3
:1041C0000E943C14F82E85FF12C088E60E9425014B
:1041D00060E08FEE95E00E9453056F2D6F7D8FEEAE
:1041E00095E00E9453058FEE95E00E94870562E0FE
:1041F00071E08CE496E00E94FF1661EC70E082E5CD
:1042000095E00E94FF16809192068F3F09F4B4C09A
:104210000E940804109293060E940804809193065D
:1042200080620E94250180E00E9482058FEF0E943B
:1042300082058FEE95E00E9487058091930680624B
:104240000E94250181E00E9482058FEF0E94820575
:104250008FEE95E00E94870541E068E083E996E0F3
:104260000E94BB1241E066E083E996E00E94BB1227
:1042700041E067E083E996E00E94BB1287E00E947C
:104280009B1260917D06662329F041E083E996E068
:104290000E94FF1241E060917C0683E996E00E9453
:1042A000FF1241E060917E0683E996E00E94FF12D2
:1042B0004FE7C42E46E0D42E58E7E52E56E0F52E03
:1042C00063E8A62E66E0B62ED6016D916D0141E041
:1042D00083E996E00E94FF12AC14BD04A9F73DE704
:1042E000A32E36E0B32E40E0F701678583E996E020
:1042F0000E94FF12D7011F96DC90BFE0BD15A8F108
:10430000E7E09CE0C92EED1520F4F8EFDF0E2DE07C
:10431000C22E8091930680620E9425018C2D0E94FE
:1043200082058FEE95E00E9487058091930680625A
:1043300061E070E090E00E9439120E944201982EE4
:104340008091930680620E9425018C2D0E94820537
:1043500081E090E001C0880FDA94EAF789290E9491
:1043600082058FEE95E00E9487052FEFE21AF20A90
:10437000AE14BF0409F0B7CF80918C06886080939B
:104380008C0682E080939006109291068BE39DE06C
:104390000197F1F740E060917C0688E796E00E9483
:1043A0008B1240E060917E0688E796E00E948B12B7
:1043B00060917D066F3F29F040E088E796E00E941B
:1043C0008B1280918C0684FDF2C163E088E796E051
:1043D0000E946E148BE4E82E86E4F82EC701019744
:1043E000F1F763E088E796E00E946E14C701019739
:1043F000F1F763E088E796E00E946E1483E592E0AF
:104400000197F1F762E088E796E00E946E148091D0
:104410008C0680620E94A21584E080938D068CE059
:104420000E94A2150E94A81582E080938E0686E065
:104430000E94A21580E00E949B128FEE95E090935F
:1044400068068093670670E060E080E190E00E947B
:104450006E06882309F4C1C162E070E080E096E452
:104460000E946E0670E060E086E093E50E946E06B2
:1044700010928E0288EB9BE0A0E0B0E080934A05AA
:1044800090934B05A0934C05B0934D0581E080932C
:1044900049050E9404130197E1F780917506811187
:1044A0000E94561381E080937506609169067091B1
:1044B0006A0680916B0690916C060E94E12C4B017C
:1044C0007B018091770681110E94561381E08093D1
:1044D000770660916D0670916E0680916F069091DF
:1044E00070060E94E12CD62E8091760681110E94E2
:1044F000561381E080937606609171067091720682
:1045000080917306909174060E94E12CECECF2E02D
:1045100088EB92E040E952E020EE32E06193DC016A
:10452000DD92CD01DA01ED92FD92AD012E173F072C
:10453000A9F76093EC02D092EA029092EE02809288
:10454000ED028091F00290E00E941917A8EE4A2E29
:10455000A3E05A2E612C712CBBE52B2E312C2C0E96
:104560003D1EBCE02B0E311C82E595E00E945102FD
:10457000181619060CF022C28CE496E00E94A717C8
:1045800082E595E00E942F02F82E682F82E595E0E3
:104590000E94C80182E595E00E94EA168DE0ECE0F9
:1045A000F2E0DE01A256BF4F01900D928A95E1F72D
:1045B000C555DF4F19821882CB5AD040C355DF4F03
:1045C00019821882CD5AD040C155DF4F1982188206
:1045D000CF5AD04070E060E0CE0185559F4F0E94D9
:1045E000B917C555DF4F28813981CB5AD040811189
:1045F000F7C02115310519F0C9010E94D52BC55509
:10460000DF4F19821882CB5AD040C155DF4F198233
:104610001882CF5AD040C355DF4F19821882CD5A25
:10462000D04082E595E00E945102892B09F4E4C054
:10463000C8010E94E117C8010E949F17F2CF8A812A
:10464000813639F08B8166E0F62E8E3611F057E018
:10465000F52ECE0105960E94B603C82E48E050E024
:1046600063E471E0C8010E945E2CC8010E94B60399
:10467000B82ECE0104960E94B603A82ECE0107964E
:104680000E94B603982E88E60E94250163E08FEE13
:1046900095E00E9453057AE0D72E892D6D2D0E945A
:1046A000102D682F660F680F660F690D8FEE95E06D
:1046B0000E9453058A2D6D2D0E94102D682F660FC4
:1046C000680F660F6A0D8FEE95E00E9453058B2DE3
:1046D0006D2D0E94102D682F660F680F660F6B0DF1
:1046E0008FEE95E00E9453058C2D6D2D0E94102DAC
:1046F000682F660F680F660F6C0D8FEE95E00E94B5
:10470000530560E08FEE95E00E9453058F2D6D2DCF
:104710000E94102D682F660F680F660F6F0D8FEEC9
:1047200095E00E9453058E2D6D2D0E94102D682F4F
:10473000660F680F660F6E0D8FEE95E00E945305B1
:104740008FEE95E00E94870588E60E94250162E0D1
:104750008FEE95E00E94530560E08FEE95E00E9499
:1047600053058FEE95E00E94870529CD8B8144E0AB
:10477000F42E823709F46DCF38E0F32E6ACF8B81A7
:1047800023E0F22E823709F464CF95E0F92E61CF51
:1047900089E0F82E5ECFBAE0FB2E5BCFABE0FA2EBD
:1047A00058CFFCE0FF2E55CFE2E0FE2E52CF8062C4
:1047B0000E94A2158BE496E40197F1F780918C0694
:1047C00080620E94A21583E592E00197F1F7809143
:1047D0008C0680620E94A2151ACE8AEF91E05CCB13
:1047E000C155DF4F19821882CF5AD04063E771E07C
:1047F000C9010E944A2E15CFEFE6FE1609F4EAC55C
:10480000F2E7FF12CDC041E060E871E0CE018A58C6
:104810009F4F0E94561AC157DF4FE881F981CF5848
:10482000D040309709F4ADC08581882309F4A9C030
:10483000823040F016821782108611861286138607
:1048400014861586E7E5CE2EE1E0DE2EFBE4AF2EE2
:10485000F1E0BF2EC157DF4FE880F980CF58D0403C
:10486000D70115968C911597823008F476C51A9663
:104870008D919D910D90BC91A02D8F719927AA27A4
:10488000BB27892B8A2B8B2B09F067C540E250E0B0
:10489000BE016F5F7F4FC7010E94D40D803209F0C7
:1048A0005CC58981882309F458C5853E79F38E3229
:1048B00069F38C8583FDEACF22961FAE1EAE229748
:1048C000BFAEAEAE24961FAE2497BE016F5F7F4F82
:1048D000E0E080E04EE2DB019D91BD019032A1F06D
:1048E000883049F421E930E02C0F3D1F2E0F311D97
:1048F000D9014C93EF5F21E930E02C0F3D1F2E0FC3
:10490000311DD9019C93EF5F8F5F8B3021F781E9D7
:1049100090E08C0F9D1F8E0F911DFC011082C157DE
:10492000DF4F68817981CF58D04021E0AE014F56EA
:104930005F4FCE01CE960E947418882309F40DC5EE
:10494000BE01625C7F4FCE0181960E943811AE019C
:104950004F565F4FBE016F5D7F4FCE01855A9F4F0F
:104960000E94211AE696EEADFFADE697309719F05A
:104970008581811108C562E971E082E595E00E94B8
:10498000FF16CE018A589F4F0E94A71782E595E037
:104990000E945102892B21F082E595E00E942F02AE
:1049A00047E168E071E0C8010E94561AC8010E9400
:1049B0007401CE0185559F4F0E949F170E9471037D
:1049C000C090F602D090F702E090F802F090F90261
:1049D0006C197D098E099F0968397A438105910513
:1049E00008F4B5C288E60E94250163E08FEE95E0E9
:1049F0000E9453058FEE95E00E94870567E070E006
:104A000088E690E00E9439120E9442018F77282F99
:104A100030E0B4E035952795BA95E1F7922F990FDC
:104A2000990FF22EF91AFF0CF80E0E9442019C0118
:104A300094E0359527959A95E1F72F703327922FBB
:104A4000990F990FE22EE91AEE0CE80E0E9442012E
:104A50009C0144E0359527954A95E1F72F7033275F
:104A6000922F990F990FD22ED91ADD0CD80E0E94D1
:104A700042019C0154E0359527955A95E1F72F7036
:104A80003327922F990F990FC22EC91ACC0CC80E3A
:104A90000E9442010E9442019C0164E035952795E5
:104AA0006A95E1F72F703327922F990F990FB22E45
:104AB000B91ABB0CB80E0E9442019C0174E03595F6
:104AC00027957A95E1F72F703327922F990F990F39
:104AD000291B220F820F80934606B0924706C09290
:104AE0004806D0924906E0924A06F0924B060E9490
:104AF0000413019709F0C2C061E086E00E94000340
:104B00008091750681110E94561381E0809375068D
:104B10006091690670916A0680916B0690916C06AF
:104B20000E94E12C4B018091770681110E9456135F
:104B300081E08093770660916D0670916E0680919A
:104B40006F06909170060E94E12CCF54DF4F68836E
:104B5000C15BD0408091760681110E94561381E09E
:104B600080937606E090E002F12CF701E453FD4FCC
:104B70006F01609171067091720680917306909139
:104B800074060E94E12CD6016C93F701E854FD4FA6
:104B9000CF54DF4FB881C15BD040B083F701EE0F37
:104BA000FF1FE057FD4F91828082C701019664E1AB
:104BB00070E00E941C2D8093E0029C012C5E3F4F10
:104BC0005C01E0E1AE0EB11C7901F0E0E0E0A4E1AF
:104BD000CA2ED12CC701B6010E941C2DDC01A453A2
:104BE000BD4F8C91E80FF11D41E0E41AF108AE14BD
:104BF000BF0481F7F595E795F595E795E093EC020D
:104C0000F901D12CC12C64E1A62EB12CCF01B50144
:104C10000E941C2DDC01A854BD4F8C91C80ED11CE4
:104C20003197EE16FF0691F7D594C794D594C794A3
:104C3000C092EA02F12CE12C44E1C42ED12CC9012E
:104C4000B6010E941C2DDC01AA0FBB1FA057BD4F4F
:104C50008D919C91E80EF91E21503109E217F3075E
:104C600071F7F7FE03C083E0E80EF11CF594E794BA
:104C7000F594E794F092EE02E092ED028091F50255
:104C8000882301F10E947103C090F102D090F202DA
:104C9000E090F302F090F4026C197D098E099F09EF
:104CA000603E73498440910508F47AC01092F50281
:104CB0001092F00290E080E00E9419178091F502B6
:104CC00081116EC08091EF02811118C02091ED0218
:104CD0003091EE02809106019091070182179307AF
:104CE00034F09091EC0280910501981738F481E03E
:104CF0008093EF0260E082E00E9400038091EF0267
:104D0000882329F1809106019091070180579E4FD9
:104D100097FD0196959587952091ED023091EE02D1
:104D200028173907A4F42091EC0280910501909195
:104D30000401890F9927991F9595879528171906BA
:104D400034F01092EF0261E082E00E940003809153
:104D5000EB0281110DC09091EC0280910501981732
:104D600038F481E08093EB0260E083E00E9400036E
:104D70008091EB028823A1F02091EC028091050143
:104D800090910401890F9927991F95958795281768
:104D9000190634F01092EB0261E083E00E940003F8
:104DA00062E282E595E00E94C8014091460650E02B
:104DB0004053584F70E060E02AE082E595E00E94A1
:104DC000611660E871E082E595E00E94111760913C
:104DD000470682E595E00E94AD1660E871E082E545
:104DE00095E00E9411176091480682E595E00E94C7
:104DF000AD166AE072E082E595E00E9411176091BD
:104E0000490682E595E00E94AD1667E072E082E512
:104E100095E00E94111760914A0682E595E00E9494
:104E2000AD1667E072E082E595E00E94111760918F
:104E30004B0682E595E00E94AD1662E282E595E0C0
:104E40000E94C80169E072E082E595E00E941117B6
:104E50006091ED027091EE0282E595E00E94B41639
:104E600069E072E082E595E00E9411176091EA0224
:104E700082E595E00E94AD1669E072E082E595E07A
:104E80000E9411176091EC0282E595E00E94AD1638
:104E900069E072E082E595E00E9411176091EF02EF
:104EA00070E082E595E00E94B41669E072E082E568
:104EB00095E00E9411176091EB0270E082E595E0A9
:104EC0000E94B41669E072E082E595E00E94111735
:104ED000609106017091070182E595E00E94B41689
:104EE00069E072E082E595E00E941117609105018A
:104EF00082E595E00E94AD1669E072E082E595E0FA
:104F00000E9411176091040182E595E00E94AD16A0
:104F100069E072E082E595E00E94111780919406A5
:104F200090919506B801681B790B82E595E00E9487
:104F3000B41682E595E00E94EA160E947103609320
:104F4000F6027093F7028093F8029093F9020E94A0
:104F50007103C090E602D090E702E090E802F09082
:104F6000E9026C197D098E099F09603E73498440EE
:104F7000910508F4DBC00E9471036093E602709310
:104F8000E7028093E8029093E90262E28CE496E003
:104F90000E94C8014091460650E04053584F70E0CF
:104FA00060E02AE08CE496E00E94611660E871E01F
:104FB0008CE496E00E941117609147068CE496E01D
:104FC0000E94AD1660E871E08CE496E00E94111733
:104FD000609148068CE496E00E94AD166AE072E0AB
:104FE0008CE496E00E941117609149068CE496E0EB
:104FF0000E94AD1667E072E08CE496E00E94111703
:1050000060914A068CE496E00E94AD1667E072E07B
:105010008CE496E00E94111760914B068CE496E0B8
:105020000E94AD1662E28CE496E00E94C80169E03D
:1050300072E08CE496E00E9411176091ED0270918D
:10504000EE028CE496E00E94B41669E072E08CE413
:1050500096E00E9411176091EA028CE496E00E94AB
:10506000AD1669E072E08CE496E00E941117609141
:10507000EC028CE496E00E94AD1669E072E08CE4EC
:1050800096E00E9411176091EF0270E08CE496E0C8
:105090000E94B41669E072E08CE496E00E94111759
:1050A0006091EB0270E08CE496E00E94B41669E037
:1050B00072E08CE496E00E941117609106017091F5
:1050C00007018CE496E00E94B41669E072E08CE47B
:1050D00096E00E941117609105018CE496E00E9411
:1050E000AD1669E072E08CE496E00E9411176091C1
:1050F00004018CE496E00E94AD1669E072E08CE455
:1051000096E00E9411178091940690919506B8013F
:10511000681B790B8CE496E00E94B4168CE496E050
:105120000E94EA1660E086E00E94000337E8E32E62
:1051300036E0F32ED12CC12C4FE1B42EAC2CF7016C
:1051400091907F01FFE080E0F91530F127E092E1D6
:10515000892E291520F448EF940E23E1822E8091A8
:10516000930680620E942501882D0E9482058FEEA1
:1051700095E00E94870580919306806261E070E06F
:1051800090E00E9439120E944201992702C0959531
:1051900087959A94E2F7817090E002C0880F991F7A
:1051A000AA94E2F780959095B8228FEFC81AD80A92
:1051B00095E0C916D10411F6BB2009F498C0B3FEDE
:1051C00016C08091F002813009F0CBC12091060118
:1051D000309107012031A7E23A0734F42C593F4FB0
:1051E000309307012093060190E00E941917B2FE48
:1051F00016C08091F002813009F0D5C120910601DE
:10520000309107012139B1E03B0734F024563109D0
:10521000309307012093060190E00E941917B4FE15
:105220000AC08091E5028111DCC185E00E949B12D9
:1052300081E08093E502B1FE0CC08091F002811103
:10524000D6C181E08093F0028091F00290E00E944C
:105250001917B0FE28C08091F5028111D6C161E016
:1052600082E00E94000361E083E00E94000361E0AD
:1052700084E00E9400031092EF021092EB0284E09F
:105280008093F00284E090E00E94191781E08093FF
:10529000F5020E9471036093F1027093F202809311
:1052A000F3029093F4020E944C034B015C0188ECE2
:1052B000C82ED12CE12CF12C0E944C0368197909DD
:1052C0008A099B09683E734081059105A8F3E1E0D6
:1052D000CE1AD108E108F108F8EE8F0EF3E09F1E18
:1052E000A11CB11CC114D104E104F10429F760E050
:1052F00086E00E9400030E947103C090E102D090FA
:10530000E202E090E302F090E4026C197D098E095C
:105310009F09603E73498440910590F00E9471039B
:105320006093E1027093E2028093E3029093E402BF
:1053300061E085E00E94000360E085E00E940003D8
:1053400080E090E0892B09F40FC90E945D02882358
:1053500009F40AC90E94000007C96F961FAE1EAE6D
:105360006F97A3964CAE5DAE6EAE7FAEA3976D9673
:10537000DFAECEAE6D97E6961FAE1EAEE697A89650
:105380001FAEA897EFCAB10182E595E00E94111700
:105390006FE871E082E595E00E94CF01E696EEAD00
:1053A000FFADE69740E050E0BA01309721F0438925
:1053B0005489658976892AE082E595E00E94611624
:1053C00082E595E00E94EA16CE01855A9F4F0E9421
:1053D000A71740CA82E595E00E94510218161906E7
:1053E00034F4C8010E94E117C8010E949F1782E5AA
:1053F00095E00E945102892BD1F3C8010E94E11768
:10540000C555DF4F88819981CB5AD040009709F468
:1054100077C069817A816115710509F46FC0C35540
:10542000DF4F48815981CD5AD0402D813E814217AE
:10543000530708F463C00E944A2E8D819E81C15596
:10544000DF4F99838883CF5AD0401E821D82C801C6
:105450000E949F17C155DF4F88819981CF5AD04054
:10546000009741F0C555DF4FE881F981CB5AD04014
:10547000309721F410928F02EFE8F2E02081CC55B2
:10548000DF4F2883C45AD040029748F0C555DF4FFC
:10549000E881F981CB5AD040309709F04EC0109284
:1054A0008F02EFE8F2E08081CB55DF4F8883C55A49
:1054B000D040CE0182569F4F0E94EE1641E0BE01C1
:1054C00062567F4FCE0101960E94561AEA8DFB8DDF
:1054D000309709F43FC085818823E1F1CE01019620
:1054E0000E949111892B59F1CE0101960E940B1255
:1054F000682F82E595E00E949302F0CF0E94D52BA1
:1055000089819A81C555DF4F99838883CB5AD040D2
:105510008B819C81C355DF4F99838883CD5AD040BE
:105520008D819E81C155DF4F99838883CF5AD040AA
:105530001A8219821C821B8288CF3196B4CF69EA05
:1055400071E082E595E00E94FF16CE0101960E946F
:10555000A71726CA66E971E082E595E00E94FF166A
:105560001FCA8230A1F4909105019F3508F03CCE0E
:1055700040910401292F30E0265F3F4F4217130668
:1055800009F00CF431CE9B5F909305012DCE833052
:1055900009F02ACE90910401943608F025CE9B5F45
:1055A0009093040121CE823049F490910501992312
:1055B00009F432CE9550909305012ECE833009F038
:1055C0002BCE909104012091050130E02B5F3F4FDD
:1055D0009217130609F00CF41FCE95509093040116
:1055E0001BCE80E00E949B121092E50224CE8130F7
:1055F00011F482E027CE823011F483E023CE833091
:1056000009F022CE1092F0021FCE1092F5021092F5
:10561000F00290E080E00E94191745CE87E2C8169C
:1056200086E0D80619F0C6010E947F0F47E168E0C6
:1056300071E0C8010E94561AC8010E947401E091ED
:105640006506F0916606309721F0858181110C94F2
:1056500071208FEA91E00C944C1F882339F3DE010E
:1056600091966D019C2D8D2DC52CD42C2C010C9464
:10567000FA1F0F931F93CF93DF938230910510F49D
:1056800082E090E0E0919606F091970630E020E00D
:10569000B0E0A0E0309799F42115310509F44AC033
:1056A000281B390B24303105D8F58A819B8161157F
:1056B000710589F1FB0193838283FE0111C0408152
:1056C00051810281138148175907E0F048175907A3
:1056D00099F4109761F012960C93129713961C93FD
:1056E0003296CF01DF91CF911F910F9108950093D2
:1056F000960610939706F4CF2115310551F0421705
:10570000530738F0A901DB019A01BD01DF01F8015F
:10571000C1CFEF01F9CF9093970680939606CDCF36
:10572000FE01E20FF31F81939193225031093983D7
:105730002883D7CF2091940630919506232B41F4EE
:10574000209117013091180130939506209394060B
:1057500020911501309116012115310541F42DB725
:105760003EB74091190150911A01241B350BE0916D
:105770009406F0919506E217F307A0F42E1B3F0B59
:105780002817390778F0AC014E5F5F4F24173507B3
:1057900048F04E0F5F1F50939506409394068193F7
:1057A00091939FCFF0E0E0E09CCFCF93DF93009701
:1057B000E9F0FC01329713821282A0919606B09113
:1057C0009706ED0130E020E01097A1F420813181AF
:1057D000820F931F20919406309195062817390760
:1057E00009F061C0F0939506E0939406DF91CF91A4
:1057F0000895EA01CE17DF07E8F54A815B819E0133
:1058000041155105B1F7E901FB83EA8349915991AB
:10581000C40FD51FEC17FD0761F4808191810296BA
:10582000840F951FE90199838883828193819B83EB
:105830008A83F0E0E0E012968D919C911397009797
:10584000B9F52D913C911197CD010296820F931FCE
:1058500020919406309195062817390739F630972C
:1058600051F51092970610929606B0939506A09364
:105870009406BCCFD383C28340815181840F951F8E
:10588000C817D90761F44E5F5F4F88819981480F2F
:10589000591F518340838A819B8193838283211581
:1058A000310509F0B0CFF0939706E09396069ECFAE
:1058B000FD01DC01C0CF13821282D7CFFB01DC01D6
:1058C00002C005900D9241505040D8F7089557FD01
:1058D0009058440F551F59F05F3F71F04795880F5E
:1058E00097FB991F61F09F3F79F0879508951216F5
:1058F00013061406551FF2CF4695F1DF08C01616A1
:1059000017061806991FF1CF869571056105089451
:105910000895E894BB2766277727CB0197F9089568
:105920000E94D22CA59F900DB49F900DA49F800D36
:10593000911D112408952F923F924F925F926F9282
:105940007F928F929F92AF92BF92CF92DF92EF920F
:10595000FF920F931F93CF93DF93CDB7DEB7CA1B90
:10596000DB0B0FB6F894DEBF0FBECDBF09942A88BB
:10597000398848885F846E847D848C849B84AA8463
:10598000B984C884DF80EE80FD800C811B81AA81F0
:10599000B981CE0FD11D0FB6F894DEBF0FBECDBFBB
:1059A000ED010895A29FB001B39FC001A39F700DA8
:1059B000811D1124911DB29F700D811D1124911D17
:1059C00008950E946F2C88F09F5798F0B92F99275F
:1059D000B751B0F0E1F0660F771F881F991F1AF0DA
:1059E000BA95C9F714C0B13091F00E94892CB1E08A
:1059F00008950C94892C672F782F8827B85F39F089
:105A0000B93FCCF3869577956795B395D9F73EF472
:105A100090958095709561957F4F8F4F9F4F08951A
:105A2000991B79E004C0991F961708F0961B881FF0
:105A30007A95C9F78095089597FB072E16F4009480
:105A400007D077FD09D00E94582D07FC05D03EF401
:105A5000909581959F4F0895709561957F4F08951A
:105A6000A1E21A2EAA1BBB1BFD010DC0AA1FBB1F62
:105A7000EE1FFF1FA217B307E407F50720F0A21BD4
:105A8000B30BE40BF50B661F771F881F991F1A9441
:105A900069F760957095809590959B01AC01BD016B
:105AA000CF010895EE0FFF1F0590F491E02D0994AA
:105AB000AA1BBB1B51E107C0AA1FBB1FA617B70734
:105AC00010F0A61BB70B881F991F5A95A9F7809550
:105AD0009095BC01CD010895B0E0A0E0E2E7FDE2C1
