:100000000C940B010C9433010C9433010C943301C8
:100010000C9433010C9433010C9433010C94330190
:100020000C9433010C9433010C9433010C94330180
:100030000C9433010C9433010C9433010C94330170
:100040000C94051C0C9433010C94D31B0C94AD1B25
:100050000C9433010C9433010C9433010C94330150
:100060000C944F1C0C9433016572726F723A20002D
:100070005041555345440054454D50204D41583A48
:100080000054454D50204D494E3A005248204D41B4
:10009000583A005248204D494E3A00434F32204DC5
:1000A00041583A002052483A00460054656D703A73
:1000B000007C3C3E5E2B3D3F2F5B5D3B2C2A225C4F
:1000C0000000000008000201000003040700000017
:1000D000000000000054696D652C20436F322C2015
:1000E00054656D702843292C2054656D702846296D
:1000F0002C2052482C2046616E4F6E2C2048756D86
:100100004F6E2C20436F324D61782C2052484D6940
:100110006E2C2052484D61782C20467265654D65E5
:100120006D0054696D652C20436F322C2054656D31
:10013000702C2052482C2046616E4F6E2C20487542
:100140006D4F6E2C20436F324D61782C2052484DFC
:10015000696E2C2052484D61782C20467265654DA1
:10016000656D0031333A32323A34370046656220E9
:1001700020312032303231004C6F6767696E672062
:10018000746F3A20006361726420696E69746961FA
:100190006C697A65642E00496E697469616C697A6C
:1001A000696E6720534420636172642E2E2E00090D
:1001B0000900454F46006572726F72206F70656E60
:1001C000696E672066696C6500454F460000000057
:1001D00000250028002B0000000000240027002A32
:1001E00000040404040404040402020202020203E0
:1001F00003030303030102040810204080010204EA
:100200000810200102040810201F1C1F1E1F1E1FA3
:100210001F1E1F1E7D1D11241FBECFEFD8E0DEBFA5
:10022000CDBF12E0A0E0B1E0E0EBFFE502C0059039
:100230000D92A631B107D9F726E0A6E1B2E001C0E0
:100240001D92A939B207E1F711E0CBE0D1E004C07B
:100250002197FE010E94DC2ECA30D107C9F70E9407
:100260007D1E0C94D62F0C94000091E090935205C3
:10027000809351051092500510924F05089590916A
:100280000205809101052FEF3FEF981748F4E92F01
:10029000F0E0E75DFA4F208130E09F5F9093020528
:1002A000C901089590910205809101052FEF3FEF5C
:1002B000981748F4E92FF0E0E75DFA4F208130E02D
:1002C0009F5F90930205C901089590E0FC01EB50F7
:1002D000FE4F24918F519E4FFC018491882399F009
:1002E00090E0880F991FFC01E952FE4FA591B4914F
:1002F000FC01E353FE4F859194918FB7F894EC91F4
:10030000E22BEC938FBF0895CF93DF93FC018281A2
:1003100093819093500680934F0684819581A681A6
:10032000B7818093510690935206A0935306B093E1
:10033000540680859185A285B38580935506909358
:100340005606A0935706B0935806DF011C96CF01BE
:100350004996C9E5D6E02D912993A817B907D9F791
:10036000818D928D90936706809366068DE496E06A
:10037000DF91CF910895FC019081909528E081E371
:1003800097FF03C0990F982701C0990F2150C1F71B
:100390008181892798E021E387FF03C0880F8227A6
:1003A00001C0880F9150C1F70895089508950895E8
:1003B000DC01ED91FC910190F081E02D0994EF9228
:1003C000FF920F931F93CF93DF938C017B01D0E0BB
:1003D000C0E0F701EC0FFD1F6491662361F0D801C6
:1003E000ED91FC910190F081E02DC8010995892BD8
:1003F00011F02196EECFCE01DF91CF911F910F9199
:10040000FF90EF900895AF92BF92CF92DF92EF925C
:10041000FF920F931F93CF93DF936C017B018B01AE
:10042000040F151FEB015E01AE18BF08C017D107FE
:1004300059F06991D601ED91FC910190F081E02D88
:10044000C6010995892B79F7C501DF91CF911F91DD
:100450000F91FF90EF90DF90CF90BF90AF900895F5
:10046000FC01538D448D252F30E0842F90E0821BBA
:10047000930B541710F0CF96089501970895FC013F
:10048000918D828D981761F0A28DAE0FBF2FB11D97
:100490005D968C91928D9F5F9F73928F90E00895EF
:1004A0008FEF9FEF0895FC01918D828D981731F0A9
:1004B000828DE80FF11D858D90E008958FEF9FEFFD
:1004C0000895FC01918D228D892F90E0805C9F4FD3
:1004D000821B91098F739927089583E595E00E9407
:1004E000610221E0892B09F420E0822F089580E049
:1004F00090E0892B29F00E946D0281110C9400007C
:100500000895FC01A48DA80FB92FB11DA35ABF4FA8
:100510002C91848D90E001968F739927848FA68902
:10052000B7892C93A089B1898C91837080648C9356
:10053000938D848D981306C00288F389E02D808105
:100540008F7D80830895EF92FF920F931F93CF9337
:10055000DF93EC0181E0888F9B8D8C8D98131AC0FE
:10056000E889F989808185FF15C09FB7F894EE89E5
:10057000FF896083E889F989808183708064808342
:100580009FBF81E090E0DF91CF911F910F91FF908D
:10059000EF900895F62E0B8D10E00F5F1F4F0F7335
:1005A0001127E02E8C8D8E110CC00FB607FCFACFF0
:1005B000E889F989808185FFF5CFCE010E9481020B
:1005C000F1CFEB8DEC0FFD2FF11DE35AFF4FF082C1
:1005D0009FB7F8940B8FEA89FB8980818062CFCF27
:1005E000CF93DF93EC01888D8823B9F0AA89BB896A
:1005F000E889F9898C9185FD03C0808186FD0DC055
:100600000FB607FCF7CF8C9185FFF2CF808185FF75
:10061000EDCFCE010E948102E9CFDF91CF91089505
:1006200090E0FC01EF53FF4F2491FC01EB50FE4F93
:100630003491FC01EF51FE4FE491EE23C9F02223E7
:1006400039F0233001F1A8F4213019F1223029F1D9
:10065000F0E0EE0FFF1FE353FE4FA591B4918FB76B
:10066000F894EC91611126C030953E233C938FBFE6
:1006700008952730A9F02830C9F0243049F7809137
:1006800080008F7D03C0809180008F7780938000F1
:10069000DFCF84B58F7784BDDBCF84B58F7DFBCF73
:1006A0008091B0008F778093B000D2CF8091B0005E
:1006B0008F7DF9CF3E2BDACF3FB7F894809185023A
:1006C00090918602A0918702B091880226B5A89BDE
:1006D00005C02F3F19F00196A11DB11D3FBFBA2FD4
:1006E000A92F982F8827BC01CD01620F711D811D94
:1006F000911D42E0660F771F881F991F4A95D1F719
:1007000008952FB7F89460918102709182028091D0
:100710008302909184022FBF08950F931F930E942C
:10072000810360935B0570935C0580935D059093F6
:100730005E0583E595E00E943F0297FF1DC00E9481
:10074000810300915B0510915C0520915D0530915E
:100750005E05601B710B820B930B00915705109186
:1007600058052091590530915A0560177107820785
:100770009307F8F28FEF9FEF1F910F910895DC011F
:10078000ED91FC910190F081E02D0994FC019081A4
:1007900090539A3008F090E0818180532AE0929F34
:1007A000800D1124089520915D02260F3327331FF9
:1007B00021323105ECF420914905FC0190E080E004
:1007C000243069F082E00895A0915D022191AC018E
:1007D000435C5D4FA40FB52FB11D2C930196861776
:1007E00098F380915D02680F60935D0280E0089548
:1007F00081E008951092490581E0809328051092C8
:10080000230561E082E10E94100361E083E10E9420
:100810001003E9EBF0E080818E7F808380818D7F03
:10082000808388E48093B80085E48093BC000895B9
:1008300010920205109201051092500510924F057A
:100840000E94FA0385ED91E0909300058093FF04E8
:1008500086ED91E09093FE048093FD040895CF937C
:10086000DF9391E090938A028823B9F0C091B80099
:10087000D091BA008091BC008A7B8093BC0060E07C
:1008800082E10E94100360E083E10E9410030E9455
:10089000FA03D093BA00C093B800DF91CF910895C6
:1008A000CF92DF92EF92FF920F931F93CF93DF933C
:1008B000D82FC62F613208F098C00E945C036B01EC
:1008C0007C018091490581116BC081E080934905CD
:1008D000809328059FEF90932705109226059C0F83
:1008E000909325058093240580912405DD0FD82B56
:1008F000D093240580912305813009F078C01092AF
:1009000023050E945C036B017C0180912405809388
:10091000BB0080914B0590914C05A0914D05B09185
:100920004E05892B8A2B8B2BA1F00E945C03009132
:100930004B0510914C0520914D0530914E056C19D9
:100940007D098E099F09061717072807390708F43C
:1009500048C08091BC0083FDD8CF85EC8093BC005B
:100960000E945C036B017C0180914905813009F490
:1009700040C0809126058C1710F4C0912605E3E055
:10098000F5E0A9E2B5E080E08C1355C08C2FDF9133
:10099000CF911F910F91FF90EF90DF90CF9008952E
:1009A00080914B0590914C05A0914D05B0914E055D
:1009B000892B8A2B8B2B09F484CF0E945C03009136
:1009C0004B0510914C0520914D0530914E056C1949
:1009D0007D098E099F09061717072807390708F0B0
:1009E00070CF80914A050E942F04C0E0CFCF85EEE2
:1009F000B5CF80914B0590914C05A0914D05B091DC
:100A00004E05892B8A2B8B2B09F4AECF0E945C03F9
:100A100000914B0510914C0520914D0530914E05EC
:100A20006C197D098E099F090617170728073907D2
:100A300008F09ACFD6CF91919D938F5FA5CF08955F
:100A4000E091020580910105E81730F4F0E0E75DE0
:100A5000FA4F808190E008958FEF9FEF0895809185
:100A6000010590910205891B990B0895CF92DF92A1
:100A7000EF92FF920F931F93CF93DF937C01CB01F3
:100A80008A0120915205222389F0EB016B01C40EEB
:100A9000D51ECC15DD0569F06991D701ED91FC916A
:100AA0000190F081E02DC7010995F3CF642F0E94DA
:100AB000D303C801DF91CF911F910F91FF90EF9069
:100AC000DF90CF900895CF93DF931F92CDB7DEB71D
:100AD0006983209152052223F9F020914F0520329D
:100AE00058F021E030E0FC013383228390E080E085
:100AF0000F90DF91CF91089580915005E82FF0E09D
:100B0000E35EFD4F998190838F5F809350058093C2
:100B10004F0581E090E0ECCF61E0CE0101960E94AC
:100B2000D303F7CF682F80EF95E00C946305CF9245
:100B3000DF92EF92FF920F931F93CF93DF93D091A9
:100B40004F0581E0D13208F09CC0C09151050E9450
:100B50005C036B017C018091490581116CC082E0CE
:100B60008093490581E0809328058FEF80932705C6
:100B700010922605D0932505ADE1B2E0E3E0F5E063
:100B800080E0D8138DC01092240580912405CC0FED
:100B9000C82BC093240580912305813009F084C0BF
:100BA000109223050E945C036B017C018091240557
:100BB0008093BB0080914B0590914C05A0914D0511
:100BC000B0914E05892B8A2B8B2BA1F00E945C03E0
:100BD00000914B0510914C0520914D0530914E052B
:100BE0006C197D098E099F09061717072807390711
:100BF00008F442C08091BC0083FDD8CF85EC80937F
:100C0000BC000E945C036B017C018091490582302D
:100C100009F44CC0809127058F3F09F469C0809189
:100C20002705803209F466C080912705803309F4D6
:100C300063C084E026C080914B0590914C05A09143
:100C40004D05B0914E05892B8A2B8B2B09F483CF50
:100C50000E945C0300914B0510914C0520914D05BD
:100C600030914E056C197D098E099F0906171707EB
:100C70002807390708F06FCF80914A050E942F049A
:100C800085E01092500510924F0510925205DF91A9
:100C9000CF911F910F91FF90EF90DF90CF9008952B
:100CA0009D9191938F5F6DCF85EEA9CF80914B057C
:100CB00090914C05A0914D05B0914E05892B8A2B42
:100CC0008B2B09F4A2CF0E945C0300914B0510917D
:100CD0004C0520914D0530914E056C197D098E090A
:100CE0009F09061717072807390708F08ECFC4CFCA
:100CF00080E0C7CF82E0C5CF83E0C3CFDF92EF9221
:100D0000FF920F931F93CF93DF9300D0CDB7DEB741
:100D10008C01F62ED72E19826A83CE0101960E948D
:100D2000BB01E82E81E60E943501612F70E08091C1
:100D30006806909169060E94BF03B80177278091E9
:100D40006806909169060E94BF0370E060E08091A0
:100D50006806909169060E94BF036F2D7D2D8091DA
:100D60006806909169060E94BF0380916806909181
:100D70006906DC01ED91FC910190F081E02D6E2D72
:100D8000099580916806909169060E94970591E007
:100D9000811190E0892F0F900F90DF91CF911F91DB
:100DA0000F91FF90EF90DF900895CF93DF93D62FB0
:100DB000C72FFC01808180620E94350182E10E9480
:100DC00092058D2F0E9492058C2F0E94920580EF34
:100DD00095E0DF91CF910C94970590E080E0089525
:100DE0008FB7F894809117028FBF089561E0FC01DE
:100DF00084810E94100380911602811110921602C4
:100E000008958EBD00000DB407FEFDCF8EB5089588
:100E10008FEF0C9401070F931F93CF93DF93EC0197
:100E20000E9481038B010E9408078F3F69F00E9496
:100E30008103601B710B6C177D07A8F380E0DF91C5
:100E4000CF911F910F91089581E0F9CF8CBD9DBD89
:100E50000895CF93DF93EC0180911602811109C0B0
:100E600081E0809316028091FC059091FD050E941F
:100E7000260760E08C81DF91CF910C9410038F9254
:100E80009F92AF92BF92FF920F931F93CF93DF93E6
:100E9000EC01F62E49015A018E81882389F08F8159
:100EA00098859C012F5F3F4F38872F838230924077
:100EB00018F40E940807F3CFCE010E94F6061E82A6
:100EC000CE010E9429078CE291E00E940B078F2D32
:100ED00080640E94010708E110E0D501C401002EE2
:100EE00004C0B695A795979587950A94D2F70E9466
:100EF000010708501109083F8FEF180771F785E9BE
:100F0000FF2021F028E087E8F2128FEF0E9401070E
:100F100010E00E9408078A8787FF04C01F3F11F076
:100F20001F5FF7CFDF91CF911F910F91FF90BF907F
:100F3000AF909F908F900895AF92BF92CF92DF9223
:100F4000EF92FF920F931F93CF93DF93EC01690110
:100F5000C801820F931F8130924050F58E81882303
:100F600079F088819981AA81BB8184179507A607AA
:100F7000B70731F48F819885C816D90608F042C0AA
:100F8000488359836A837B838B85833039F089E07A
:100F9000440F551F661F771F8A95D1F79A01AB0141
:100FA00061E1CE010E943F07882389F083E08D83B1
:100FB000CE010E94F60680E0DF91CF911F910F9144
:100FC000FF90EF90DF90CF90BF90AF9008950E9478
:100FD00081035B010E9408078A878F3F69F40E94A2
:100FE00081036A197B096D327140A0F38FE08D8314
:100FF000CE010E94F606DCCF8E3F89F418861F8250
:1010000081E08E838F8198858C159D0550F40E9418
:1010100008078F819885019698878F83F3CF8DE09D
:10102000E6CF6701E00EF11E0E940807F6018193EA
:101030006F01EE15FF05C1F78F819885080F191F05
:1010400018870F838985882319F001151240A0F0B5
:101050008E81882389F08F8198859C012F5F3F4F77
:1010600038872F838230924018F40E940807F3CF0C
:10107000CE010E94F6061E8281E09ECFCF92DF92C3
:10108000EF92FF920F93CF93DF93EC01690182E11E
:10109000411551056105710599F08B85833039F053
:1010A00089E0440F551F661F771F8A95D1F79A0173
:1010B000AB0168E1CE010E943F07882319F084E06C
:1010C0008D832DC08EEF0E94010776018EEFD81A16
:1010D000F70181917F010E940107EC14FD04C1F723
:1010E0008FEF0E9401078FEF0E9401070E940807FF
:1010F0008A878F71853071F4011116C0CE010E946C
:10110000F60681E0DF91CF910F91FF90EF90DF9095
:10111000CF90089581E18D83CE010E94F606CE0125
:101120000E94F60680E0EECF88E592E00E940B0771
:10113000811102C085E1C4CF20E030E0A9016DE05B
:10114000CE010E943F07882311F084E1B9CF0E94AD
:1011500008078111FACFD2CF0F9340911902509115
:101160001A0260911B0270911C0241155105610524
:10117000710599F0082F2BEF32E08091FB049091DC
:10118000FC040E943E08882349F010921902109234
:101190001A0210921B0210921C0281E00F91089516
:1011A0000F93CF93C82F80911802811105C0C1E021
:1011B0008C2FCF910F910895409100015091010122
:1011C00060910201709103010C2F2BEF32E08091AE
:1011D000FB049091FC040E943E08811102C0C0E013
:1011E000E7CFCC2321F381E00E94AC088823B9F338
:1011F00010921802DDCF8F929F92AF92BF92EF9222
:10120000FF920F931F93CF934B015C01C42F8091EA
:10121000000190910101A0910201B0910301881594
:101220009905AA05BB0551F181E00E94D008811102
:101230000BC080E0CF911F910F91FF90EF90BF9076
:10124000AF909F908F9008958BEFE82E82E0F82E5C
:1012500000E012E030E020E0B501A4018091FB0441
:101260009091FC040E949C07882319F3809200014E
:1012700090920101A0920201B092030140911802E4
:101280004C2B4093180281E0D5CF8F929F92AF9262
:10129000BF92CF92DF92EF92FF92CF932EEF35E085
:1012A0003093FC042093FB04882309F46DC040E0D4
:1012B00060E070E0CB010E94FB0881110BC080E070
:1012C000CF91FF90EF90DF90CF90BF90AF909F9025
:1012D0008F9008958091B9048F7789F78091C50424
:1012E0009091C604A091C704B091C80484369105BA
:1012F000A105B10520F3C090C104D090C204E090D4
:10130000C304F090C404C114D104E104F104B9F29F
:1013100040E0C701B6010E94FB08882381F280915A
:101320000603909107038115924049F6A0910B03A3
:10133000AA2329F26091090370910A0361157105CE
:1013400009F4BDCF20910803222309F4B8CFA0935C
:101350001C0620930E0690E080E030E0E1E0F0E033
:10136000C82FAF01082E02C0440F551F0A94E2F7A0
:101370002417350769F041E0480F0196893091053F
:1013800079F7409317069BCFC12CD12C7601C0CFA3
:1013900080931706209111033091120350E040E032
:1013A0002115310541F420911F0330912003409114
:1013B00021035091220320930F063093100640938F
:1013C00011065093120646015701860E971EA11C66
:1013D000B11C80921D0690921E06A0921F06B0922C
:1013E0002006E0910C03F0910D03F0932306E093A7
:1013F0002206B0E00E94E72DDC01CB01880D991D8B
:10140000AA1DBB1D8093240690932506A093260653
:10141000B093270625E0EE0FFF1F2A95E1F7E15074
:10142000FE4FEF2FFF27E6958E0F9F1FA11DB11DC9
:101430008093180690931906A0931A06B0931B0682
:1014400080900E0390900F03B12CA12C8114910475
:1014500041F480901B0390901C03A0901D03B0905A
:101460001E03C81AD90AEA0AFB0AC80CD91CEA1CCE
:10147000FB1C04C0F694E794D794C794CA95D2F79E
:10148000C0921306D0921406E0921506F09216064A
:1014900085EFC8168FE0D806E104F10428F48CE04B
:1014A0008093210681E00CCF80E125EFC2162FEF5B
:1014B000D206E104F104A0F3809127039091280360
:1014C000A0912903B0912A038093240690932506C6
:1014D000A0932606B093270680E2E2CF4F925F9258
:1014E0006F927F928F929F92AF92BF92CF92DF9234
:1014F000EF92FF920F931F93CF93DF93EC01423053
:1015000051056105710590F480E0DF91CF911F9145
:101510000F91FF90EF90DF90CF90BF90AF909F9092
:101520008F907F906F905F904F90089589859A85F6
:10153000AB85BC850196A11DB11D84179507A60733
:10154000B70710F3CB88DC88ED88FE888F8980315F
:1015500009F042C0BB27A72F962F852F48015901BC
:101560002A013B01C80ED91EEA1EFB1E8091000114
:1015700090910101A0910201B0910301C816D90612
:10158000EA06FB0699F58F898031C1F5B301A20106
:10159000552766277727440F551F45505D4FFA01A1
:1015A00091828082809118028160809318028A89DA
:1015B000823080F08D819E81AF81B8858C0D9D1D1C
:1015C000AE1DBF1D8093190290931A02A0931B02B7
:1015D000B0931C0281E099CFDB01CA01E7E0B69528
:1015E000A79597958795EA95D1F7B8CF40E0C701C1
:1015F000B6010E94FB088111C6CF86CFB301A201BC
:101600004F77552766277727440F551F440F551FDF
:1016100045505D4FFA0180829182A282B382C2CF8F
:101620008F929F92AF92BF92CF92DF92EF92FF92F2
:101630000F931F93CF93DF93FC0181859285A38540
:10164000B4850196A11DB11D84179507A607B7079C
:1016500070F480E0DF91CF911F910F91FF90EF9098
:10166000DF90CF90BF90AF909F908F900895838828
:101670009488A588B6888789803189F5BB27A72FEC
:10168000962F852FE9016A017B018F01BC01CD01F5
:10169000680D791D8A1D9B1D8090000190900101AD
:1016A000A0900201B090030186169706A806B9061D
:1016B00001F5F8018789803111F5DD24EE24FF243E
:1016C000F601EE0FFF1FE550FD4F80819181B0E0E4
:1016D000A0E088839983AA83BB8381E0BBCFDB0131
:1016E000CA01C7E0B695A79597958795CA95D1F792
:1016F000C9CF40E00E94FB088111DBCFAACFE8945C
:10170000C7F8DD24EE24FF24F601EE0FFF1FEE0FD5
:10171000FF1FE550FD4F80819181A281B381BF7091
:10172000D8CF4F925F926F927F92AF92BF92CF923B
:10173000DF92EF92FF920F931F93CF93DF9300D02E
:1017400000D0CDB7DEB78C0149835A836B837C838D
:101750005901C12CD12C7601412C82E0582E612CEC
:10176000712C49815A816B817C819E012F5F3F4F93
:10177000C8010E94100B882339F1F8018585A30167
:10178000920104C0220F331F441F551F8A95D2F7C0
:10179000DA01C901C80ED91EEA1EFB1E49815A8111
:1017A0006B817C818789803111F188EF9FEFAFEFEA
:1017B000BFE0481759076A077B0798F2F501C08216
:1017C000D182E282F38281E00F900F900F900F9010
:1017D000DF91CF911F910F91FF90EF90DF90CF900D
:1017E000BF90AF907F906F905F904F90089588EF7B
:1017F0009FEFA0E0B0E0DDCFCF93DF93FC01258128
:10180000222321F080E0DF91CF910895EC018091B7
:101810002106803159F582E08583178A108E118E5A
:10182000128E8091220690912306B0E0A0E025E080
:10183000880F991FAA1FBB1F2A95D1F7838B948B02
:10184000A58BB68B8AE096E09C8F8B8F81E08C8392
:101850001E821F82188619861A861B861C861D8684
:101860001E861F86188A198A1A8ACDCF803251F6B1
:1018700083E08583409124065091250660912606D9
:1018800070912706478B508F618F728F9F012D5E5D
:101890003F4F8AE096E00E94910B8111D3CFB2CFE7
:1018A0008F929F92AF92BF92CF92DF92EF92FF9270
:1018B0000F931F93CF93DF93EC018D8181110EC0A5
:1018C00080E0DF91CF911F910F91FF90EF90DF901B
:1018D000CF90BF90AF909F908F9008950B891C89F7
:1018E0002D893E89041715072607370748F34A0153
:1018F0005B01823031F48A869B86AC86BD8681E0AE
:10190000E0CF81149104A104B10449F41E821F8226
:10191000188619861A861B861C861D86F0CF0A85B6
:101920001B852C853D85EB8DFC8D858590E009968A
:10193000B901A8014150510961097109082E04C07B
:1019400076956795579547950A94D2F77501640186
:10195000E1E0CE1AD108E108F10804C0F694E7945A
:10196000D794C7948A95D2F7C416D506E606F7062B
:1019700020F0012B022B032B11F58F89988DA98D57
:10198000BA8D8E839F83A887B9878E010A5F1F4F08
:10199000C114D104E104F10409F4ADCF4E815F819B
:1019A0006885798598018B8D9C8D0E94100B91E044
:1019B000C91AD108E108F1088111EACF81CFC41A10
:1019C000D50AE60AF70AE1CF3F924F925F926F92F3
:1019D0007F928F929F92AF92BF92CF92DF92EF92BF
:1019E000FF920F931F93CF93DF93CDB7DEB72C9762
:1019F0000FB6F894DEBF0FBECDBF5C01DC015B9675
:101A00008D909C905C9716964D905D906D907C901B
:101A10001997411451046104710409F468C0BFEFBF
:101A20004B1A5B0A6B0A7B0A312CF4018185928583
:101A3000A385B4859C01AD012F5F3F4F4F4F5F4F92
:101A400029873A874B875C87730162011D821E825A
:101A50001F821886F40181859285A385B4852D8126
:101A60003E814F815885281739074A075B0708F0E0
:101A700056C089859A85AB85BC858C159D05AE05BC
:101A8000BF0550F482E0C82ED12CE12CF12C92E05D
:101A9000492E512C612C712C9E012F5F3F4FB701B5
:101AA000A601C4010E94100B8823C9F189819A8183
:101AB000AB81BC81892B8A2B8B2B09F12601370145
:101AC0009FEF491A590A690A790A2D813E814F818F
:101AD00058852F5F3F4F4F4F5F4F2D833E834F837E
:101AE00058873FEFC31AD30AE30AF30AB3CFF401CE
:101AF00040805180628073803324339496CFC41425
:101B0000D504E604F70409F70FEF1FEF2FEF3FE0CE
:101B1000B701A601C4010E946E0A811119C080E0BC
:101B20002C960FB6F894DEBF0FBECDBFDF91CF91DC
:101B30001F910F91FF90EF90DF90CF90BF90AF90EB
:101B40009F908F907F906F905F904F903F900895FF
:101B5000D50116964D915D916D917C911997411526
:101B600051056105710539F097018601C4010E9494
:101B70006E0A8823A1F2D5011696CD92DD92ED92E0
:101B8000FC921997332051F0D701C6010196A11D8F
:101B9000B11DF40180839183A283B383F50187890A
:101BA000908DA18DB28D892B8A2B8B2B39F484815A
:101BB000C78AD08EE18EF28E80688483F50184819D
:101BC0008062848381E0ACCF2F923F924F925F92EC
:101BD0006F927F928F929F92AF92BF92CF92DF923D
:101BE000EF92FF920F931F93CF93DF93EC015B0172
:101BF0002A018D81811115C08FEF9FEFDF91CF9169
:101C00001F910F91FF90EF90DF90CF90BF90AF901A
:101C10009F908F907F906F905F904F903F902F900C
:101C200008958C8180FFE8CF0B891C892D893E891E
:101C30004A855B856C857D85C201B0E0A0E06801C6
:101C40007901C41AD50AE60AF70AC816D906EA06BF
:101C5000FB0618F42801441A550A42011E0126E029
:101C6000220E311C8114910409F4B3C04A855B85AE
:101C70006C857D856A0181E0D8228B8D9C8D8A01DF
:101C80009B01E9E03695279517950795EA95D1F7D9
:101C9000ED81E230E1F5FC01628D738D848D958DCF
:101CA000600F711F821F931F612C22E0722E6C182F
:101CB0007D088614970408F434012C8126FD04C0A5
:101CC0006114F2E07F0671F40091000110910101AE
:101CD00020910201309103010617170728073907E1
:101CE00009F053C040E00E94FB08882309F484CF28
:101CF000C60185509D4FD5019C01260D371DFC0165
:101D00002E173F0709F460C041914D93F9CFFC01B4
:101D100074807A947022C114D10471F471100CC0D3
:101D2000452B462B472B39F58F89988DA98DBA8D78
:101D30008E839F83A887B987EB8DFC8D6E817F8111
:101D4000888599856250710981099109258504C0AA
:101D5000660F771F881F991F2A95D2F7068517856A
:101D600020893189600F711F821F931F670D711DBC
:101D7000811D911D99CF4E815F8168857985910183
:101D80000E94100B8111D8CF37CF750183019601C6
:101D9000AB01BC018091FB049091FC040E949C0764
:101DA000882309F429CFA60CB71C8A859B85AC85AE
:101DB000BD85860D971DA11DB11D8A879B87AC87A8
:101DC000BD87861897084ECF281B390BA20EB31E6D
:101DD000ECCFC20113CF1F93CF93DF93FC0125817A
:101DE0002223D1F1162FEC01848187FF2AC066855A
:101DF00077858089918941E00E94FB08882361F101
:101E0000EA8980E2E89FF0011124E550FD4F309708
:101E100019F18D81823040F48B899C89AD89BE890E
:101E2000848F958FA68FB78F8F89988D938F828F90
:101E30008F89988DA98DBA8DB58BA48B8C818F7766
:101E40008C83111103C08C818F7E8C83812FDF9155
:101E5000CF911F910C94D00880E0DF91CF911F911A
:101E60000895FF920F931F93CF93DF93EC018D8121
:101E7000813041F090E080E0DF91CF911F910F9190
:101E8000FF9008958C8181FFF5CF82FD1BC00091EA
:101E9000FB041091FC04C8010E9429070E94080756
:101EA000F82EC8010E94F6068FEFF812E3CF8C815E
:101EB00085FF1BC060E0CE010E94EB0E8C818F7D00
:101EC0008C83D8CF4B895C896D897E898A859B8577
:101ED000AC85BD8584179507A607B707C1F2CE016B
:101EE0000E94500C8111D3CFC5CF4091190250915F
:101EF0001A0260911B0270911C02452B462B472B46
:101F000021F080E00E94AC08B5CF80618C832A85E7
:101F10003B85317080E092E0821B930BADCFCF9375
:101F2000DF93EC0161E00E94EB0E882311F01D822B
:101F300081E0DF91CF9108952F923F924F925F926F
:101F40006F927F928F929F92AF92BF92CF92DF92C9
:101F5000EF92FF920F931F93CF93DF9300D000D0A7
:101F60001F92CDB7DEB77C015B01342E5D83DC01AF
:101F700015968C911597813009F0CEC014962C904F
:101F800021FECAC022FCB4C0C32CDD8022947FE0B5
:101F900027222094B22DB1702B2ED7011A964D9185
:101FA0005D916D917C911D97C114D10409F428C1F4
:101FB0005B968D919C915C97FC0174807A948A0168
:101FC0009B0169E036952795179507956A95D1F796
:101FD00070228A011170711020C001151105E9F4F9
:101FE00016964D915D916D917C9119974115510512
:101FF0006105710509F099C057968D919D910D90DD
:10200000BC91A02D0097A105B10509F0B0C0C70192
:102010000E94E40C882309F47FC080E092E0801BDA
:10202000910B46018C159D0508F44C01D7015B9678
:102030004D915C915C9716968D919D910D90BC9100
:10204000A02D0297A109B109FA01258504C0880FC6
:10205000991FAA1FBB1F2A95D2F74685578560890D
:102060007189840F951FA61FB71F9C01AD01270D15
:10207000311D411D511D29013A01811432E09306A1
:1020800009F07BC08091000190910101A0910201B3
:10209000B091030184159505A605B70559F48FEF96
:1020A0009FEFDC018093000190930101A093020156
:1020B000B0930301022D9501B301A2018091FB04AD
:1020C0009091FC040E943E08882331F19EEFB91ADA
:1020D000C818D908F70182859385A485B585880D30
:1020E000991DA11DB11D82879387A487B58755CF00
:1020F000F701438954896589768982859385A4850A
:10210000B585481759076A077B0709F43DCFC70112
:102110000E94500C811138CF81E090E0D7011396D6
:102120009C938E93129780E007C09E012F5F3F4FD4
:102130000E94100B811102C090E079C089819A81C0
:10214000AB81BC81F701238D348DF901278948EFDC
:102150005FEF60E070E0203121F048EF5FEF6FEF5C
:102160007FE084179507A607B70708F050CFF7015F
:1021700086839783A087B18750CF0115110599F504
:10218000D7011A964D915D916D917C911D97539653
:102190008D919D910D90BC91A02D481759076A070C
:1021A0007B0708F181E00E94D008882309F4B4CFAE
:1021B000409200015092010160920201709203016D
:1021C00080911802816080931802C80185509D4F4C
:1021D000D5019C01280D391DFC012E173F0759F030
:1021E0004D914193FACF41E0C301B2010E94FB0837
:1021F0008111EBCF91CF281B390BA20EB31E68CFF4
:10220000F70183899489A589B68984179507A6075C
:10221000B70738F48481438B548B658B768B806849
:102220008483F701848183FD1AC0832D9D810F90E3
:102230000F900F900F900F90DF91CF911F910F9102
:10224000FF90EF90DF90CF90BF90AF909F908F90D6
:102250007F906F905F904F903F902F90089561E036
:10226000C7010E94EB0E882309F456CFDECFCF932F
:10227000DF931F92CDB7DEB7698341E050E0BE0126
:102280006F5F7F4F0E949C0F0F90DF91CF91089559
:10229000FC01DB0112968D919C91139793838283AD
:1022A00087E491E09183808314968C9114978483C2
:1022B00015968C911597858316964D915D916D912C
:1022C0007C91199746835783608771871A964D9141
:1022D0005D916D917C911D974287538764877587C7
:1022E0001E964D915D916D917C91519746875787D0
:1022F000608B718B52968C915297828B53964D9135
:102300005D916D917C915697438B548B658B768B49
:1023100057964D915D916D917C915A97478B508F57
:10232000618F728F5B968D919C91948F838F0895AE
:10233000FC01818D928D009719F061E00C94EB0EF9
:102340000895DC015996ED91FC913097B9F083899D
:102350009489A589B6894285538564857585841BD2
:10236000950BA60BB70B811520E89207A105B105C7
:1023700038F08FEF9FE7A0E0B0E0089590E080E0B4
:102380000895DC0159968D919C91009739F0DC01FC
:10239000ED91FC910480F581E02D099490E080E0BE
:1023A0000895CF93DF93EC01E98DFA8D309749F4CE
:1023B00081E090E09B838A8390E080E0DF91CF9181
:1023C000089513821282898D9A8D0E949C0FE98D47
:1023D000FA8D22813381232B59F7F0CFCF93DF93EE
:1023E0001F92CDB7DEB76983DC01ED91FC910280CD
:1023F000F381E02D41E050E0BE016F5F7F4F099512
:102400000F90DF91CF910895CF93DF931F92CDB7B7
:10241000DEB741E050E0BE016F5F7F4F0E94E40DE8
:10242000019731F4898190E00F90DF91CF91089569
:102430008FEF9FEFF9CFFC01818D928D009711F006
:102440000C9404128FEF9FEF08950F931F93CF9377
:10245000DF93EC01898D9A8D10E000E0009799F0F0
:102460000E9404128C010F3F100769F0898D9A8D2C
:10247000FC01428553856485758541505109610988
:1024800071090E94500CC801DF91CF911F910F91EB
:1024900008950E945004109202058093010508954A
:1024A000EF92FF920F931F93CF93DF938C01C62F70
:1024B000E42E84E1F82ED2E1683020F0C85095E196
:1024C000F92ED3E1F801808180620E9435018F2DC1
:1024D0000E94920580EF95E00E949705F8018081A7
:1024E000806261E070E090E00E9449120E94520117
:1024F00021E030E001C0220FCA95EAF7F1E0C82FD1
:10250000C22BEF1619F02095C22FC823F801808145
:1025100080620E9435018D2F0E9492058C2F0E94AF
:10252000920580EF95E0DF91CF911F910F91FF9081
:10253000EF900C949705FC01962F828D8F3F31F020
:10254000603140F4CF014B960C945012642F892FC8
:102550000C9410030895CF93DF93C82FD1E082FB32
:10256000442740F94D2768E084E996E00E94501224
:10257000C1FB442740F94D2767E084E996E00E94BB
:1025800050124C2F4095417066E084E996E0DF914F
:10259000CF910C945012FF920F931F93CF93DF9320
:1025A0008C01C62FF42ED0E0683010F0C850D1E076
:1025B000F801808180620E9435018D2F0E94920572
:1025C00080EF95E00E949705F8018081806261E0CC
:1025D00070E090E00E9449120E94520121E030E038
:1025E00001C0220FCA95EAF7C82FC22BFF2019F0AD
:1025F0002095C22FC823F801808180620E94350196
:102600008D2F0E9492058C2F0E94920580EF95E0FD
:10261000DF91CF911F910F91FF900C94970560313E
:1026200010F40C94CB120895CF9381E60E943501EB
:1026300062E070E080916806909169060E94BF0395
:1026400062E070E080916806909169060E94BF0385
:1026500080916806909169060E949705882321F071
:1026600090E080E0CF91089562E081E60E945004FE
:102670001092020580930105809168069091690689
:10268000DC01ED91FC910084F185E02D0995892B09
:1026900039F38091680690916906DC01ED91FC9117
:1026A0000284F385E02D0995C82F809168069091EA
:1026B0006906DC01ED91FC910284F385E02D09951A
:1026C00020E03C2FA901482BCA01CCCF2F923F928A
:1026D0004F925F926F927F928F929F92AF92BF9232
:1026E000CF92DF92EF92FF920F931F93CF93DF93DE
:1026F00000D0CDB7DEB70E9414130197B1F080E08F
:102700000F900F90DF91CF911F910F91FF90EF905D
:10271000DF90CF90BF90AF909F908F907F906F9001
:102720005F904F903F902F90089581E60E94350171
:102730008091680690916906DC01ED91FC91019011
:10274000F081E02D63E0099580916806909169061B
:10275000DC01ED91FC910190F081E02D60E00995A4
:1027600080916806909169060E9497058111C7CFF4
:1027700062E181E60E9450041092020580930105F7
:102780008091680690916906DC01ED91FC910084CE
:10279000F185E02D0995892B09F4B1CF212CC12CAD
:1027A000D12C7601812C912C5401412C512C3201D9
:1027B00010E033E0332E8091680690916906DC01C9
:1027C000ED91FC910284F385E02D0995082F1131DC
:1027D00008F059C0E12FF0E0E051FC4E0C94DC2EE3
:1027E0000114011443140114011443143714371451
:1027F00043143714371443143D143D1443143D144B
:102800003D14762C652C542C4424482A812F632DAA
:102810000E94672EE1E0F0E0EC0FFD1FE90FF11DD3
:1028200000831F5F123109F0C6CF211068CF40929C
:102830006A0650926B0660926C0670926D068092EA
:102840006E0690926F06A0927006B0927106C092CA
:102850007206D0927306E0927406F092750610929A
:102860007606109277061092780681E049CFBA2C4E
:10287000A92C982C8824802AC9CFFE2CED2CDC2C86
:10288000CC24C02AC3CFCE0101960E94BB010817F9
:1028900041F222242394C5CFCF93C82F88E60E940B
:1028A00035016C2F80EF95E00E94630580EF95E085
:1028B0000E94970561E088E60E945004109202058C
:1028C000809301050E945201CF910895CF93DF9329
:1028D000EC0140E06E810E949B1241E06E81CE01CE
:1028E0000E949B1240E06E81CE010E949B128BE8F9
:1028F00091E00197F1F7DF91CF910895AF92BF92E8
:10290000CF92DF92EF92FF920F931F93CF93DF93BB
:10291000EC018A8D8E01095F1F4FC62ED12C8F3F8F
:1029200009F47EC07E018BE1E80EF11C8B8D806284
:102930000E94350182E10E94920580EF95E00E949D
:1029400097058B8D806262E070E090E00E944912F2
:102950000E945201B82E0E94520160E0782FCB01F4
:102960008B29F80130E020E001E010E04191B8014E
:10297000042E02C0660F771F0A94E2F760957095E7
:1029800086239723B601022E02C0759567950A9497
:10299000E2F76170772702C0660F771F4A95E2F76A
:1029A000862B972B2F5F3F4F24303105F9F62E8170
:1029B000680102C0CC0CDD1C2A95E2F7C094D094CB
:1029C000C822D922B601C7010E94D5068E81B8015E
:1029D00002C0660F771F8A95E2F7C62AD72AB6018A
:1029E000C7010E94D5068E81B80102C0660F771F0D
:1029F0008A95E2F7609570956C217D21C7010E9450
:102A0000D5068BE891E00197F1F7DF91CF911F9107
:102A10000F91FF90EF90DF90CF90BF90AF9008950F
:102A2000F12CE12C5E01EBE1AE0EB11CF8018191BD
:102A30008F019A8D9F3F39F141E0682FC5010E94B7
:102A40000F13A6010E2C02C0559547950A94E2F784
:102A50004170F80131976081CE010E949B12FFEF17
:102A6000EF1AFF0A84E0E816F10401F7CE01DF91C6
:102A7000CF911F910F91FF90EF90DF90CF90BF907B
:102A8000AF900C9466140E946501DBCFAF92BF92A9
:102A9000CF92DF92EF92FF920F931F93CF93DF932A
:102AA000EC01F62E6C810E949B126D816F3F21F02C
:102AB00040E0CE010E949B120F2D10E08C8984FF14
:102AC0003AC06E0187E0C80ED11CF12CE12C5E01EA
:102AD000EBE1AE0EB11CF60181916F019A8D9F3F23
:102AE00039F141E0682FC5010E940F13A8010E2C97
:102AF00002C0559547950A94E2F74170F601319767
:102B00006081CE010E949B12FFEFEF1AFF0A88E05E
:102B1000E816F10401F7CE01DF91CF911F910F91DB
:102B2000FF90EF90DF90CF90BF90AF900C94661421
:102B30000E946501DBCFB80184E0759567958A95A1
:102B4000E1F7CE010E947E146F2DCE01DF91CF916F
:102B50001F910F91FF90EF90DF90CF90BF90AF90BB
:102B60000C947E1440E0682F89E796E00C9446159B
:102B700081E00E94B2158BE39FE10197F1F7089580
:102B8000CF93DF93CDB7DEB728970FB6F894DEBFAB
:102B90000FBECDBF88E0E7E1F1E0DE0111960190C4
:102BA0000D928A95E1F780919106811117C08FEF00
:102BB00090E0880F991F21E030E02C0F3D1F820F1D
:102BC000931FFC018081806828960FB6F894DEBFC1
:102BD0000FBECDBFDF91CF910C94B21581E0E8CF4D
:102BE00041E00E94461581E090E00895CF92DF9287
:102BF000EF92FF921F93CF93DF93EC0180E2689FE7
:102C0000F0011124E550FD4F9385917161F0842FFF
:102C1000827449F080E0DF91CF911F91FF90EF9097
:102C2000DF90CF900895142F6A8B809100019091CE
:102C30000101A0910201B09103018E879F87A88BAB
:102C4000B98BC488D588F12CE12C7601DD24CC2405
:102C5000CF8AD88EE98EFA8E828D938DB0E0A0E077
:102C6000AC01BD014C295D296E297F294F8B588FFE
:102C7000698F7A8F83858871B1F4848D958DA68D47
:102C8000B78D8B8B9C8BAD8BBE8B81E08D831F7042
:102C90001C831E821F82188619861A861B861C8634
:102CA0001D8681E0B8CF803109F0B4CF9E012D5E42
:102CB0003F4F8B8D9C8D0E94910B882309F4AACFE6
:102CC00084E0E4CFFB0101900020E9F73197AF01E8
:102CD000461B570BDC01ED91FC910280F381E02D46
:102CE00009948F929F92AF92BF92EF92FF920F93AF
:102CF0001F93CF93DF93CDB7DEB7A1970FB6F894AC
:102D0000DEBF0FBECDBF7C01FA01CB0119A222307C
:102D100008F42AE08E010F5D1F4F822E912CB12CFA
:102D2000A12CBF01A50194010E949B2EF901CA01AB
:102D30006A300CF5605DD8016E938D01232B242B36
:102D4000252B79F790E080E0109721F0BD01C701B5
:102D50000E946216A1960FB6F894DEBF0FBECDBFDB
:102D6000DF91CF911F910F91FF90EF90BF90AF90A7
:102D70009F908F900895695CDECF462F50E070E001
:102D800060E02AE00C947116CF92DF92EF92FF92EE
:102D90000F931F93CF93DF936B01770FEE08FF081C
:102DA000F7FE1BC0EC016DE20E94D8018C014427A4
:102DB0005527BA014C195D096E097F092AE0CE0139
:102DC0000E947116800F911FDF91CF911F910F917B
:102DD000FF90EF90DF90CF9008952AE0B701A60111
:102DE000DF91CF911F910F91FF90EF90DF90CF90E7
:102DF0000C9471166DE671E00C946216CF93DF931C
:102E0000BC0183E595E00E946216EC0183E595E044
:102E10000E94FA168C0F9D1FDF91CF9108950F939A
:102E20001F93CF93DF93EC010E94DF018C01CE0151
:102E30000E94FA16800F911FDF91CF911F910F9181
:102E400008956115710511F00C94621690E080E010
:102E500008958730910508F0AFC0FC01EE5CF84E94
:102E60000C94DC2E39177F179317A317B017C717C9
:102E7000D4170E94B81560E771E089E796E00E94D8
:102E800021176091ED027091EE0289E796E00E94B1
:102E9000C41666E771E089E796E00E9421170E9458
:102EA000C0156BEA70E089E796E00E94DF0180912F
:102EB000EA0229E0829FC001112465E070E00E94CF
:102EC000872E605E7F4F89E796E00E94BD1669EA13
:102ED00070E089E796E00E94DF0164EA70E089E72C
:102EE00096E00E94DF016091EC0289E796E00E9483
:102EF000BD166AE771E089E796E00C9421170E94FD
:102F0000B8156BE970E089E796E00E94DF010E9446
:102F1000C0156091EF0284E6689FB001112489E733
:102F200096E00C94C4160E94B81563E970E089E736
:102F300096E00E94DF010E94C0156091EB0289E7D4
:102F400096E00C94BD160E94B8156BE870E089E716
:102F500096E00E94DF010E94C0156091E702EFCF6A
:102F60000E94B81561E870E089E796E00E94DF01F1
:102F70000E94C0158091E80229E0829FC0011124BF
:102F800065E070E00E94872E605E7F4FD8CF0E9480
:102F9000B81567E770E089E796E00E94DF010E94BC
:102FA000C0158091E902E8CF0E94B81560E770E093
:102FB00089E796E00C94DF010895FC0180819181FE
:102FC000009711F00C94162D0895CF93DF93EC0128
:102FD000898D9A8D009741F00E948F0F898D9A8D6F
:102FE0000E94162D1A8E198EDF91CF9108950F939E
:102FF0001F93CF93DF93EC0188819981009759F05B
:103000002A813B812617370730F081E0DF91CF918D
:103010001F910F9108958B016F5F7F4F0E94E22EE9
:10302000009759F0998388831B830A832C813D8103
:10303000232B59F7FC011082E8CF80E0E7CFEF9215
:10304000FF920F931F93CF93DF9300D0CDB7DEB7DE
:103050008C01FC011182108213821282158214826B
:1030600070E060E00E94F717F80120813181811142
:103070002FC02115310519F0C9010E94162DF80144
:103080001182108215821482138212820E948D0393
:1030900097FD26C089831A82F801E480F580FFEF4E
:1030A000EF1AFF0AB701C8010E94F717882371F3CE
:1030B000F8012081318184819581BE016F5F7F4F4E
:1030C000820F931F0E94C02FF801F582E482DECFA9
:1030D000158214826FE671E0C9010E94C02FD6CF1D
:1030E000C8010F900F90DF91CF911F910F91FF902A
:1030F000EF90089585ED8093BC0080914B059091F1
:103100004C05A0914D05B0914E050796A11DB11D2E
:1031100023E0B695A795979587952A95D1F72091A5
:10312000BC0024FD03C010924905089540914B0551
:1031300050914C0560914D0570914E05452B462BE5
:10314000472B69F30097A105B10541F025E32A95C6
:10315000F1F700000197A109B109E1CF80914A057B
:103160000C942F043F924F925F926F927F928F92B6
:103170009F92AF92BF92CF92DF92EF92FF920F9306
:103180001F93CF93DF93CDB7DEB72B970FB6F8948D
:10319000DEBF0FBECDBF7C01DC0115968C91811185
:1031A00015C0FE013196CE010C966F0130E23193CD
:1031B000E817F907E1F7DA0130E087E09D91B92ED1
:1031C000992329F19E3239F48A3011F480E0E4C069
:1031D00038E08AE0F3CFE1EBF0E04491442321F0C2
:1031E00031969413FACFF2CF831780F34FED490F46
:1031F0004E3560F74FE9490F4A3118F440EEB42ECE
:10320000B90EF601E30FF11DB0823F5FD7CF898180
:103210008032E1F2322E8B01FB01838D948DD70138
:103220005C969C938E935B9716821782108611860C
:103230001286138614861586F80182859385A485E7
:10324000B585438954896589768984179507A607CA
:10325000B70708F04DC025E0B695A79597958795D7
:103260002A95D1F7F82FFF70AF2ED80115968C91C3
:10327000823008F4ABCFC8010E94041297FDA6CF9C
:10328000F80182859385A485B5854F96A11DB11D52
:1032900082879387A487B587F0E2AF9EB00111249F
:1032A00065507D4F6115710509F490CFDB018C915C
:1032B000882341F0853E09F062C0BB2029F0BB2481
:1032C000B394BACFB1100EC0F701A28A8091000169
:1032D00090910101A0910201B09103018687978727
:1032E000A08BB18BDB018C918111E9CFBB24B3940E
:1032F000832D8271823109F069CFBB2009F464C04B
:10330000F701668577858089918941E00E94FB08F5
:10331000882309F45BCFD70152968C91B0E28B9F42
:10332000C001112485509D4F009709F44FCFFC0137
:103330003A9626E1DF011D922A95E9F72BE0F60186
:10334000DC0101900D922A95E1F721E238E2FC01BF
:10335000318B208B40E058E057874687338B228B98
:10336000318F208F578B468B81E00E94D0088823B5
:1033700009F42CCF432DD70152966C910AC04BE033
:1033800050E0C6010E949F2F892B09F055CF432D95
:103390006A2DC7010E94F6152B960FB6F894DEBF72
:1033A0000FBECDBFDF91CF911F910F91FF90EF9096
:1033B000DF90CF90BF90AF909F908F907F906F9055
:1033C0005F904F903F900895F8018581823009F415
:1033D000FDCEC8010E94E40C882309F4F7CED80181
:1033E0005B96ED91FC915C9716968D909D90AD90BB
:1033F000BC901997B2E08B1A9108A108B108858595
:1034000004C0880C991CAA1CBB1C8A95D2F786851F
:103410009785A089B189880E991EAA1EBB1E84813A
:1034200024013501480E511C611C711C8414950443
:10343000A604B70409F1E1E04E1A510861087108C9
:1034400081E00E94D008882309F4C0CEEBEFF2E0BF
:1034500011928BEF94E08E179F07D1F740920001F5
:103460005092010160920201709203018091180252
:10347000816080931802DACFD8015B96ED91FC91C0
:10348000258580E092E0A0E0B0E004C0880F991F9D
:10349000AA1FBB1F2A95D2F7F80143895489658971
:1034A0007689840F951FA61FB71F838B948BA58BDE
:1034B000B68BD70152961C928BEF92E038CFEF92E9
:1034C000FF920F931F93CF93DF93EC017B018A014F
:1034D0001B821A8288EE93E0A0E0B0E08C839D838B
:1034E000AE83BF8383E591E0998388838DE190E08B
:1034F0000E947A2C9A8F898F009779F02DE1F7013D
:10350000DC0101900D922A95E1F74CE050E0B80102
:10351000CE010C960E94C72F188EDF91CF911F917C
:103520000F91FF90EF9008952F923F924F925F92EC
:103530006F927F928F929F92AF92BF92CF92DF92C3
:10354000EF92FF920F931F93CF93DF93CDB7DEB728
:10355000C756D1090FB6F894DEBF0FBECDBF5C01D0
:103560003B01A6964FAFA69719A218A287E491E057
:103570009F8F8E8F1BA21C821B829A8389831E823F
:103580004E018EE1880E911CC4010E94FC0B630168
:103590008E010F5F1F4F240118016FE270E0C6011A
:1035A0000E94B52F009709F459C0F60120812F32EF
:1035B00071F4FFEFCF1ADF0A902F812F8201492E7D
:1035C000582E942D852D2801092F182FE6CF8C1900
:1035D0008D3008F08CE0E82EF12CA701B601CE0169
:1035E000885A9F4F0E94C72FE8E5F0E0EC0FFD1FBF
:1035F000EE0DFF1D1082C8010E948F0F21E0AE0169
:10360000485A5F4FB201C8010E94B218811120C010
:103610001EAE1DAE87E491E09CAF8BAF21961FAE2E
:103620002197A896EEADFFADA8976E0E7F1EF30111
:103630008081811120C0BE01655C7F4FC1010E9465
:1036400048114CE751E0B101C5010E945F1A31C039
:10365000CE0CDF1CC2010E948F0FB3CFC6018619AA
:103660009709A8969FAF8EAFA897B201CE01CB96CF
:103670000E944811D6CF19A218A287E491E09F8F2B
:103680008E8F1BA221968FAD219781112DC0F50140
:103690001382128288EE93E0A0E0B0E084839583E9
:1036A000A683B78383E591E091838083128E118E88
:1036B0001486C501C959DF4F0FB6F894DEBF0FBE9F
:1036C000CDBFDF91CF911F910F91FF90EF90DF90D1
:1036D000CF90BF90AF909F908F907F906F905F90B2
:1036E0004F903F902F900895A6962FADA697A301D7
:1036F000BE01655C7F4FC4010E94B218882339F275
:10370000CE01CB960E948F0FA6968FADA69786709E
:10371000863039F449A95AA96BA97CA9C4010E9431
:10372000500CB401C1010E944811A3018CCF1F931A
:10373000CF93DF93EC01162F0E94D12D181739F08B
:10374000612FCE01DF91CF911F910C94D92DDF9184
:10375000CF911F9108950C94D12D1F920F920FB607
:103760000F9211242F933F934F935F936F937F9307
:103770008F939F93AF93BF93EF93FF9383E595E070
:103780000E948102FF91EF91BF91AF919F918F9124
:103790007F916F915F914F913F912F910F900FBE4D
:1037A0000F901F9018951F920F920FB60F92112431
:1037B0002F938F939F93EF93FF93E0916305F09185
:1037C00064058081E0916905F0916A0582FD1BC066
:1037D000908180916C058F5F8F7320916D058217AA
:1037E00041F0E0916C05F0E0ED5AFA4F958F80932F
:1037F0006C05FF91EF919F918F912F910F900FBECC
:103800000F901F9018958081F4CF1F920F920FB6E2
:103810000F9211242F933F938F939F93AF93BF9356
:103820008091810290918202A0918302B0918402E2
:103830003091800223E0230F2D3758F50196A11D0A
:10384000B11D209380028093810290938202A09305
:103850008302B09384028091850290918602A091A8
:103860008702B09188020196A11DB11D8093850247
:1038700090938602A0938702B0938802BF91AF9184
:103880009F918F913F912F910F900FBE0F901F909E
:10389000189526E8230F0296A11DB11DD2CF1F92C5
:1038A0000F920FB60F9211242F933F934F935F9374
:1038B0006F937F938F939F93AF93BF93EF93FF93F8
:1038C0008091B900887F803609F44AC0F0F58832CB
:1038D00009F4A7C018F5803109F49BC0B8F4882317
:1038E00009F4F9C0883009F494C0FF91EF91BF91B9
:1038F000AF919F918F917F916F915F914F913F9188
:103900002F910F900FBE0F901F901895883109F4DA
:1039100088C0803251F78093270514C0803409F4A1
:103920009DC040F48033B9F38833F9F680932705BE
:1039300085ECB0C0803509F485C0883509F496C09F
:10394000883499F60E947A18D0CF883909F48CC04F
:1039500038F5883729F050F4883611F0803729F689
:1039600083E08093490510927F0257C0883809F49C
:103970007BC0803919F0803809F0B7CF80917F0281
:10398000803208F071C0E0917F0281E08E0F809359
:103990007F028091BB00F0E0E15AFD4F80833DC083
:1039A000803B39F0E0F4803A09F479C0883A09F0B4
:1039B0009CCF84E08093490510925E0210925D02D4
:1039C000E091FF04F0910005099580915D0281115D
:1039D0000FC081E080935D0210923D0209C0803CDF
:1039E00009F4A6CF883C09F4A3CF883B09F07DCF2A
:1039F000E0915E0281E08E0F80935E02F0E0E35C76
:103A0000FD4F80818093BB0090915E0280915D02AA
:103A100029C0809124058093BB0085EC8093BC0075
:103A200064CF9091260580912505981758F5E0916F
:103A3000260581E08E0F80932605F0E0ED5FFA4FBA
:103A40008081E9CFE091260581E08E0F80932605E5
:103A50008091BB00F0E0ED5FFA4F808390912605E6
:103A6000809125059817C8F285E8D8CFE091260502
:103A700081E08E0F809326058091BB00F0E0ED5F22
:103A8000FA4F80838091280581115CCF81E080937B
:103A9000230584EA8093BC001092490526CF85EC6B
:103AA0008093BC001092490580917F02803230F4EF
:103AB000E0917F02F0E0E15AFD4F108260917F02B9
:103AC00070E0E091FD04F091FE048FE592E009952D
:103AD00010927F020ACF1092270534CFEC0168E6DE
:103AE00070E083E595E00E94DF01CE010E94FE16A2
:103AF00061E085E00E941003FFCF109256051092FE
:103B0000550548EE53E060E070E040935705509350
:103B100058056093590570935A0583E291E090939C
:103B200054058093530585EC90E090936005809355
:103B30005F0584EC90E0909362058093610580ECD2
:103B400090E0909364058093630581EC90E09093FE
:103B500066058093650582EC90E0909368058093FC
:103B6000670586EC90E090936A0580936905109252
:103B70006C0510926D0510926E0510926F051092F3
:103B8000F3051092F2054093F4055093F505609308
:103B9000F6057093F70585E391E09093F105809326
:103BA000F00580E58093FC051092FD051092030658
:103BB00010920406109207061092090682E090E027
:103BC000A0E0B0E080930A0690930B06A0930C0649
:103BD000B0930D061092210610922B0610922A0621
:103BE00087E491E0909329068093280610922D0691
:103BF00010927C0610927B0685E691E090937A06FF
:103C0000809379061092930610928D068FE0809330
:103C10007D068EE080937E068DE080937F068CE0AB
:103C2000809380068BE0809381068AE080938206F1
:103C300089E0809383061092880681E0809389064C
:103C400092E090938A0693E090938B0694E0909391
:103C50008C0610926A0610926B0610926C061092F7
:103C60006D0610926E0610926F06109270061092FA
:103C700071061092720610927306109274061092DA
:103C80007506809376068093770680937806109267
:103C9000500610924F06409351065093520660937F
:103CA00053067093540683E591E090934E068093FB
:103CB0004D061092670610926606109259061092F1
:103CC0004C0610924B0610924A0610924706E9E005
:103CD000F2E081E08C3049F09491823009F49F5FEA
:103CE00021E0280F3196992331F08093480681E036
:103CF000809349060895822FEDCFCF93DF93CDB700
:103D0000DEB7C35BD1090FB6F894DEBF0FBECDBFDF
:103D1000789484B5826084BD84B5816084BD85B5A6
:103D2000826085BD85B5816085BD80916E008160B2
:103D300080936E0010928100809181008260809358
:103D4000810080918100816080938100809180005A
:103D50008160809380008091B10084608093B10085
:103D60008091B00081608093B00080917A0084607F
:103D700080937A0080917A00826080937A008091AB
:103D80007A00816080937A0080917A0080688093C5
:103D90007A001092C100E0916305F091640582E021
:103DA0008083E0915F05F09160051082E0916105EC
:103DB000F09162058FEC808310926B05E0916705AE
:103DC000F091680586E08083E0916505F0916605D5
:103DD000808180618083E0916505F0916605808136
:103DE00088608083E0916505F09166058081806838
:103DF0008083E0916505F091660580818F7D8083E9
:103E000061E082E10E94100361E083E10E941003FF
:103E100085E00E94650186E00E94650183E00E94C2
:103E2000650184E00E94650190E080E00E94AB1B88
:103E30008093EF0283E090E00E94AB1B8093EB0243
:103E400084E090E00E94AB1B8093E70281E090E069
:103E50000E94AB1B8093E80282E090E00E94AB1BC3
:103E60008093E90267E971E083E595E00E94DF0154
:103E70008AE00E94650180912D06882321F088E266
:103E800096E00E948F0F109209061092070610927A
:103E90000406109203068AE0809302060E948103C2
:103EA0008B01809102060E94650161E0809102060B
:103EB0000E941003FFB6F89480918902811124C0FA
:103EC000EBEEF1E08491EFEFF1E09491E82FF0E078
:103ED000EE0FFF1FE952FE4FA591B491EC91E9233B
:103EE00021F461E08AE00E9410038AE00E946501EB
:103EF0008CB580618CBD8CB580648CBD8DE00E94DA
:103F000065018BE00E946501809189028F5F80933B
:103F10008902FFBE82E58093FC051092FD05809129
:103F2000FC059091FD050E9426072AE0F22E8FEFF6
:103F30000E940107FA94F110FACF8EEF95E00E94EB
:103F4000290720E030E0A90160E08EEF95E00E94B3
:103F50003F07F82E8093080621E0821791F00E9417
:103F60008103601B710B613D774058F381E08093C2
:103F700003068EEF95E00E94F6068EE791E00E9420
:103F80006E1D2AEA31E040E050E068E08EEF95E0F7
:103F90000E943F0782FF2BC0F0920906809109061C
:103FA000812C912C5401823029F4812C912CA12C4C
:103FB00080E4B82E20E030E0A90167E38EEF95E0C1
:103FC0000E943F07A501940169E28EEF95E00E94EF
:103FD0003F07E82E809308068823D1F00E948103D2
:103FE000601B710B613D774028F388E0C0CF94E0FF
:103FF000E92E0E94080780930806EA94E110F9CFA1
:104000008A3A11F082E0B3CF82E080930906C6CFEE
:10401000809109068230D1F420E030E0A9016AE302
:104020008EEF95E00E943F07882311F086E09FCF36
:104030000E940807807C803C19F483E08093090685
:104040000E9408070E9408070E9408078EEF95E06B
:104050000E94F60680E58093FC051092FD0581E044
:104060000E944509882309F491C088E296E00E94E5
:10407000FC0B882309F481CF65E871E083E595E0C6
:104080000E940F1717E4A12E11E0B12E3E019EE30E
:10409000690E711C8E010F5F1F4F8E2D6AE00E940A
:1040A000672E805D80930A01905D90930B012296AC
:1040B0001FAE1EAE2297BFAEAEAE24961FAE2497A3
:1040C0001CA21BA2BAA2A9A21EA2212C312C562CE2
:1040D000472CB8E2CB2EB6E0DB2EC101F101EC5F3C
:1040E000FE4F20812F3209F40196DC01AC5FBE4FF8
:1040F000FE01E55AFF4F30E020E04F014D914F3275
:1041000049F0442339F001962F5F3F4F41932C3003
:104110003105A1F7280D391DF9011082FC01EC5F72
:10412000FE4F20812F3209F401961C018C5F9E4FB7
:10413000DC01BC91CF54DF4FB883C15BD0401C82FF
:104140001B82BA82A9821E8221E0A401B601C801A5
:104150000E94B218882311F40C94392CC8010E94D3
:104160008F0FCF54DF4FE881C15BD040E11115C004
:1041700028E2C21626E0D20619F0C6010E948F0F6F
:10418000E39444E6E41289CF0C944A2C80E00E9428
:104190004509882309F4F1CE68CF21E0A401B601D6
:1041A000852D942D0E94B218982EF8E2CF16F6E0D5
:1041B000DF0611F40C94582CC6010E948F0F911049
:1041C0000C945D2C0C94412C68E771E083E595E03C
:1041D0000E94DF0184E091E00E94FE160E94180414
:1041E0000E94180488E60E94350180EF95E00E9445
:1041F0009705882319F08FEB91E0C1CE88E60E94E5
:10420000350162E080EF95E00E94630580EF95E064
:104210000E94970561E070E088E690E00E944912F4
:104220000E945201807E9927803E910509F02FC09F
:104230008AEC91E00E94FE164BE050E06CE671E0E3
:10424000C8010E949F2DCE010A960E94C603E82E47
:10425000E981E154E33108F06FC20E2E000CFF0B30
:10426000EC5CFE4D0C94DC2E29249C239C234424DE
:104270009C2347249C239C239C2392239C239C23A4
:10428000322441243E249C239C239C233B2483E012
:104290000E944C1490E0880F892F881F990B892B5E
:1042A00009F0C6CF80E00E944C14F82E85FF12C0A2
:1042B00088E60E94350160E080EF95E00E9463058A
:1042C0006F2D6F7D80EF95E00E94630580EF95E094
:1042D0000E94970562E271E08DE496E00E940F175C
:1042E00065ED70E083E595E00E940F1780919306DD
:1042F0008F3F09F4B4C00E941804109294060E94E3
:1043000018048091940680620E94350180E00E942A
:1043100092058FEF0E94920580EF95E00E9497052D
:104320008091940680620E94350181E00E9492058E
:104330008FEF0E94920580EF95E00E94970541E083
:1043400068E084E996E00E94CB1241E066E084E9EF
:1043500096E00E94CB1241E067E084E996E00E947B
:10436000CB1287E00E94AB1260917E06662329F093
:1043700041E084E996E00E940F1341E060917D06E0
:1043800084E996E00E940F1341E060917F0684E982
:1043900096E00E940F1370E8C72E76E0D72EE9E76B
:1043A000EE2EE6E0FE2EF4E8AF2EF6E0BF2ED601AC
:1043B0006D916D0141E084E996E00E940F13AC1409
:1043C000BD04A9F76EE7A62E66E0B62E40E0F70121
:1043D000678584E996E00E940F13D7011F96DC9051
:1043E000BFE0BD15A8F1E7E04CE0C42EED1520F4C8
:1043F000F8EFDF0E5DE0C52E8091940680620E948A
:1044000035018C2D0E94920580EF95E00E94970562
:1044100080919406806261E070E090E00E94491211
:104420000E945201982E8091940680620E9435016C
:104430008C2D0E94920581E090E001C0880FDA94F3
:10444000EAF789290E94920580EF95E00E9497057E
:104450002FEFE21AF20AAE14BF0409F0B7CF809131
:104460008D06886080938D0682E08093910610927D
:1044700092068BE39DE00197F1F740E060917D06A5
:1044800089E796E00E949B1240E060917F0689E7F1
:1044900096E00E949B1260917E066F3F29F040E0FB
:1044A00089E796E00E949B1280918D0684FDF2C1FF
:1044B00063E089E796E00E947E143BE4E32E36E455
:1044C000F32EC7010197F1F763E089E796E00E94B8
:1044D0007E14C7010197F1F763E089E796E00E9437
:1044E0007E1483E592E00197F1F762E089E796E0B8
:1044F0000E947E1480918D0680620E94B21584E035
:1045000080938E068CE00E94B2150E94B81582E05E
:1045100080938F0686E00E94B21580E00E94AB1265
:1045200080EF95E0909369068093680670E060E004
:1045300080E190E00E947E06882309F4C1C162E018
:1045400070E080E096E40E947E0670E060E086E025
:1045500093E50E947E0610928A0288EB9BE0A0E021
:10456000B0E080934B0590934C05A0934D05B0931C
:104570004E0581E080934A050E9414130197E1F7EC
:104580008091760681110E94661381E08093760601
:1045900060916A0670916B0680916C0690916D0631
:1045A0000E94382E4B017B018091780681110E9478
:1045B000661381E08093780660916E0670916F06B5
:1045C00080917006909171060E94382ED62E8091AF
:1045D000770681110E94661381E0809377066091CF
:1045E00072067091730680917406909175060E9410
:1045F000382E26EA32E04AEB52E086EA92E0E2E91F
:10460000F2E06193DC01DD92CD01DA01ED92FD92E1
:10461000AD012E173F07A9F76093EC02D092EA0292
:104620009092EE028092ED028091F60290E00E945C
:10463000291798EE492E93E0592E612C712C2BE509
:10464000222E312C2C0E3D1EBCE02B0E311C83E59E
:1046500095E00E946102181619060CF022C28DE442
:1046600096E00E94E51783E595E00E943F02F82E50
:10467000682F83E595E00E94D80183E595E00E94CC
:10468000FA168DE0E8E0F2E0DE01A256BF4F01909D
:104690000D928A95E1F7C555DF4F19821882CB5AE2
:1046A000D040C355DF4F19821882CD5AD040C15532
:1046B000DF4F19821882CF5AD04070E060E0CE01FF
:1046C00085559F4F0E94F717C555DF4F28813981C7
:1046D000CB5AD0408111F7C02115310519F0C9011D
:1046E0000E94162DC555DF4F19821882CB5AD04033
:1046F000C155DF4F19821882CF5AD040C355DF4FC2
:1047000019821882CD5AD04083E595E00E9461025B
:10471000892B09F4E4C0C8010E941F18C8010E9437
:10472000DD17F2CF8A81813639F08B81F6E0FF2EDA
:104730008E3611F0E7E0FE2ECE0105960E94C603EC
:10474000C82E48E050E063E671E0C8010E949F2D4A
:10475000C8010E94C603B82ECE0104960E94C6036B
:10476000A82ECE0107960E94C603982E88E60E94C6
:10477000350163E080EF95E00E946305AAE0DA2E40
:10478000892D6D2D0E94672E682F660F680F660FAA
:10479000690D80EF95E00E9463058A2D6D2D0E94C2
:1047A000672E682F660F680F660F6A0D80EF95E021
:1047B0000E9463058B2D6D2D0E94672E682F660F5A
:1047C000680F660F6B0D80EF95E00E9463058C2DDE
:1047D0006D2D0E94672E682F660F680F660F6C0D97
:1047E00080EF95E00E94630560E080EF95E00E9415
:1047F00063058F2D6D2D0E94672E682F660F680F41
:10480000660F6F0D80EF95E00E9463058E2D6D2D74
:104810000E94672E682F660F680F660F6E0D80EF7F
:1048200095E00E94630580EF95E00E94970588E679
:104830000E94350162E080EF95E00E94630560E030
:1048400080EF95E00E94630580EF95E00E94970558
:1048500029CD8B8174E0F72E823709F46DCF68E0A3
:10486000F62E6ACF8B8153E0F52E823709F464CFA0
:1048700045E0F42E61CF39E0F32E5ECF2AE0F22E30
:104880005BCF9BE0F92E58CF8CE0F82E55CFB2E0ED
:10489000FB2E52CF80620E94B2158BE496E4019702
:1048A000F1F780918D0680620E94B21583E592E057
:1048B0000197F1F780918D0680620E94B2151ACEA1
:1048C00086EF91E05CCBC155DF4F19821882CF5A39
:1048D000D0406FE671E0C9010E94C02F15CFEFE60E
:1048E000FE1609F459C6F2E7FF12CDC041E06CE7AD
:1048F00071E0CE018A589F4F0E94941AC157DF4F32
:10490000E881F981CF58D040309709F4ADC0858156
:10491000882309F4A9C0823040F0168217821086DD
:1049200011861286138614861586B3E5CB2EB1E068
:10493000DB2E87E4A82E81E0B82EC157DF4FE88038
:10494000F980CF58D040D70115968C9115978230B9
:1049500008F4E5C51A968D919D910D90BC91A02DFE
:104960008F719927AA27BB27892B8A2B8B2B09F0BC
:10497000D6C540E250E0BE016F5F7F4FC7010E9485
:10498000E40D803209F0CBC58981882309F4C7C5BD
:10499000853E79F38E3269F38C8583FDEACF2296CA
:1049A0001FAE1EAE2297BFAEAEAE24961FAE2497AA
:1049B000BE016F5F7F4FE0E080E04EE2DB019D9142
:1049C000BD019032A1F0883049F421E930E02C0F8C
:1049D0003D1F2E0F311DD9014C93EF5F21E930E0CF
:1049E0002C0F3D1F2E0F311DD9019C93EF5F8F5F60
:1049F0008B3021F781E990E08C0F9D1F8E0F911D68
:104A0000FC011082C157DF4F68817981CF58D040B7
:104A100021E0AE014F565F4FCE01CE960E94B218F4
:104A2000882309F47CC5BE01625C7F4FCE0181966C
:104A30000E944811AE014F565F4FBE016F5D7F4F20
:104A4000CE01855A9F4F0E945F1AE696EEADFFADEC
:104A5000E697309719F08581811177C562EB71E097
:104A600083E595E00E940F17CE018A589F4F0E9460
:104A7000E51783E595E00E946102892B21F083E52B
:104A800095E00E943F0247E164E071E0C8010E94A6
:104A9000941AC8010E948401CE0185559F4F0E943F
:104AA000DD170E948103C090F702D090F802E090D9
:104AB000F902F090FA026C197D098E099F09683994
:104AC0007A438105910508F4C4C288E60E94350145
:104AD00063E080EF95E00E94630580EF95E00E941F
:104AE000970567E070E088E690E00E9449120E9416
:104AF00052018F77282F30E054E0359527955A954D
:104B0000E1F7922F990F990FF22EF91AFF0CF80E78
:104B10000E9452019C0164E0359527956A95E1F762
:104B20002F703327922F990F990FE22EE91AEE0C6E
:104B3000E80E0E9452019C0174E0359527957A9504
:104B4000E1F72F703327922F990F990FD22ED91A90
:104B5000DD0CD80E0E9452019C01E4E035952795AA
:104B6000EA95E1F72F703327922F990F990FC22EF4
:104B7000C91ACC0CC80E0E9452010E9452019C011D
:104B8000F4E035952795FA95E1F72F703327922FAA
:104B9000990F990FB22EB91ABB0CB80E0E94520190
:104BA0009C01A4E035952795AA95E1F72F7033274E
:104BB000922F990F990F291B220F820F809347067E
:104BC000B0924806C0924906D0924A06E0924B063F
:104BD000F0924C060E941413019709F0C7C061E0DF
:104BE00086E00E9410038091760681110E94661370
:104BF00081E08093760660916A0670916B068091E1
:104C00006C0690916D060E94382E4B0180917806BB
:104C100081110E94661381E08093780660916E0690
:104C200070916F0680917006909171060E94382EE7
:104C3000CF54DF4F6883C15BD040809177068111EC
:104C40000E94661381E080937706E0908C02F12C3D
:104C5000F701EE56FD4F6F01609172067091730679
:104C600080917406909175060E94382ED6016C933F
:104C7000F701EA55FD4FCF54DF4FB881C15BD040FB
:104C8000B083F701EE0FFF1FE654FD4F9182808243
:104C9000C701019664E170E00E94872E80938C0228
:104CA0009C012C5E3F4F5C01E0E1AE0EB11C79012E
:104CB000F0E0E0E044E1C42ED12CC701B6010E942F
:104CC000872EDC01AE56BD4F8C91E80FF11D41E0FF
:104CD000E41AF108AE14BF0481F7F595E795F59550
:104CE000E795E093EC02F901D12CC12C84E1A82EC8
:104CF000B12CCF01B5010E94872EDC01AA55BD4F12
:104D00008C91C80ED11C3197EE16FF0691F7D59401
:104D1000C794D594C794C092EA02F12CE12CA4E187
:104D2000CA2ED12CC901B6010E94872EDC01AA0F20
:104D3000BB1FA654BD4F8D919C91E80EF91E2150CA
:104D40003109E217F30771F7F7FE03C083E0E80EBD
:104D5000F11CF594E794F594E794F092EE02E0925A
:104D6000ED028091F60290E00E9429178091F502F1
:104D7000882301F10E948103C090F102D090F202D9
:104D8000E090F302F090F4026C197D098E099F09FE
:104D9000603E73498440910508F46CC01092F5029E
:104DA0001092F60290E080E00E9429178091F502AF
:104DB000811160C08091F002811124C08091EF02C6
:104DC000B4E68B9FC00111242091ED023091EE02D8
:104DD0008217930784F09091EC028091EB02981770
:104DE00050F08091EA029091E902981720F090919A
:104DF000E802891738F481E08093F00260E083E0F4
:104E00000E9410038091F002882399F08091ED02B6
:104E10009091EE02843F914064F49091EC02809175
:104E2000E702981730F01092F00261E083E00E94F0
:104E300010038091E60281110DC09091EC028091E7
:104E4000EB02981738F481E08093E60260E084E09A
:104E50000E9410038091E602882361F09091EC0299
:104E60008091E702981730F01092E60261E084E04A
:104E70000E94100362E283E595E00E94D801409110
:104E8000470650E04053584F70E060E02AE083E569
:104E900095E00E9471166CE771E083E595E00E9451
:104EA00021176091480683E595E00E94BD166CE7E6
:104EB00071E083E595E00E9421176091490683E542
:104EC00095E00E94BD1666E072E083E595E00E94E1
:104ED000211760914A0683E595E00E94BD1663E0C4
:104EE00072E083E595E00E94211760914B0683E50F
:104EF00095E00E94BD1663E072E083E595E00E94B4
:104F0000211760914C0683E595E00E94BD1662E290
:104F100083E595E00E94D80165E072E083E595E0C5
:104F20000E9421176091ED027091EE0283E595E0F9
:104F30000E94C41665E072E083E595E00E942117A7
:104F40006091EA0283E595E00E94BD1665E072E09B
:104F500083E595E00E9421178091EA02F9E08F9F96
:104F6000C001112465E070E00E94872E605E7F4FD3
:104F700083E595E00E94BD1665E072E083E595E06B
:104F80000E9421176091EC0283E595E00E94BD1616
:104F900065E072E083E595E00E9421176091F002E0
:104FA00070E083E595E00E94C41665E072E083E559
:104FB00095E00E9421176091E60270E083E595E09C
:104FC0000E94C41665E072E083E595E00E94211717
:104FD0006091EF0224E6629FB001112483E595E021
:104FE0000E94C41665E072E083E595E00E942117F7
:104FF0006091EB0283E595E00E94BD1665E072E0EA
:1050000083E595E00E9421176091E70283E595E032
:105010000E94BD1665E072E083E595E00E942117CD
:105020008091950690919606B801681B790B83E5EF
:1050300095E00E94C41683E595E00E94FA160E944E
:1050400081036093F7027093F8028093F9029093C2
:10505000FA020E948103C090E202D090E302E09045
:10506000E402F090E5026C197D098E099F09603E0B
:1050700073498440910508F43FC10E948103609305
:10508000E2027093E3028093E4029093E50242EE21
:1050900052E082E992E0CE54DF4F99838883C25B6D
:1050A000D04026EA32E0EAEBF2E0F12CE12CD12C00
:1050B000C12C60E070E0CB01A190B1904501BB0C28
:1050C000AA08BB08680D791D8A1D9B1DD901BD90DA
:1050D0009D01CB0CD11CCE54DF4FA881B981C25B9E
:1050E000D040BD90CE54DF4FB983A883C25BD0407F
:1050F000EB0CF11C4E175F07F9F624E130E040E0BD
:1051000050E00E94BD2E49015A0124E130E0C60161
:10511000B9010E94732ED62EC701B9010E94732EC9
:105120007B0162E28DE496E00E94D801409147063F
:1051300050E04053584F70E060E02AE08DE496E084
:105140000E9471166CE771E08DE496E00E942117D1
:10515000609148068DE496E00E94BD166CE771E010
:105160008DE496E00E942117609149068DE496E057
:105170000E94BD1666E072E08DE496E00E94211761
:1051800060914A068DE496E00E94BD1663E072E0ED
:105190008DE496E00E94211760914B068DE496E025
:1051A0000E94BD1663E072E08DE496E00E94211734
:1051B00060914C068DE496E00E94BD1662E28DE49B
:1051C00096E00E94D80165E072E08DE496E00E94CE
:1051D00021172AE0B501A401B7FE0DC06DE28DE4F0
:1051E00096E00E94D80144275527BA014819590969
:1051F0006A097B092AE08DE496E00E94711665E059
:1052000072E08DE496E00E942117B9E0DB9EC001B8
:10521000112465E070E00E94872E605E7F4F8DE470
:1052200096E00E94BD1665E072E08DE496E00E9473
:105230002117A70170E060E02AE08DE496E00E946B
:10524000711665E072E08DE496E00E94211760918E
:10525000F00270E08DE496E00E94C41665E072E012
:105260008DE496E00E9421176091E60270E08DE4E3
:1052700096E00E94C41665E072E08DE496E00E941C
:1052800021176091EF02E4E66E9FB00111248DE4D6
:1052900096E00E94C41665E072E08DE496E00E94FC
:1052A00021176091EB028DE496E00E94BD1665E047
:1052B00072E08DE496E00E9421176091E7028DE490
:1052C00096E00E94BD1665E072E08DE496E00E94D3
:1052D00021178091950690919606B801681B790B6D
:1052E0008DE496E00E94C4168DE496E00E94FA16C2
:1052F00060E086E00E94100338E8E32E36E0F32EEB
:10530000D12CC12C4FE1B42EAC2CD7019D907D0146
:10531000BFE080E0B91530F1E7E092E1892EE915B0
:1053200020F4F8EF9F0E23E1822E80919406806294
:105330000E943501882D0E94920580EF95E00E9421
:10534000970580919406806261E070E090E00E9491
:1053500049120E945201992702C0959587959A9407
:10536000E2F7817090E002C0880F991FAA94E2F7DB
:1053700080959095B8222FEFC21AD20A45E0C41644
:10538000D10411F6BB2009F48AC0B3FE0FC080918E
:10539000F602813009F0C7C19091EF02943618F4FB
:1053A0009F5F9093EF0290E00E942917B2FE0FC01A
:1053B0008091F602813009F0F0C19091EF029530B2
:1053C00018F091509093EF0290E00E942917B4FEDC
:1053D0000AC080919102811109C285E00E94AB123E
:1053E00081E080939102B1FE0CC08091F6028111A0
:1053F00003C281E08093F6028091F60290E00E9461
:105400002917B0FE28C08091F502811129C261E000
:1054100083E00E94100361E084E00E94100361E0D9
:1054200082E00E9410031092F0021092E60286E0E1
:105430008093F60286E090E00E94291781E0809335
:10544000F5020E9481036093F1027093F20280934F
:10545000F3029093F4020E945C034B015C0188EC20
:10546000C82ED12CE12CF12C0E945C03681979091B
:105470008A099B09683E734081059105A8F381E084
:10548000C81AD108E108F10898EE890E93E0991E38
:10549000A11CB11CC114D104E104F10429F760E09E
:1054A00086E00E9410030E948103C0908D02D0907C
:1054B0008E02E0908F02F09090026C197D098E09A7
:1054C0009F09603E734984409105E0F00E9481038A
:1054D00060938D0270938E0280938F02909390025E
:1054E00061E085E00E9410038DE496E00E9498112F
:1054F00060E085E00E9410031092F60290E080E0E8
:105500000E94291780E090E0892B09F4A0C80E942E
:105510006D02882309F49BC80E94000098C86F960A
:105520001FAE1EAE6F97A3964CAE5DAE6EAE7FAE55
:10553000A3976D96DFAECEAE6D97E6961FAE1EAE0C
:10554000E697A8961FAEA89780CAB10183E595E0BB
:105550000E9421176FEA71E083E595E00E94DF0168
:10556000E696EEADFFADE69740E050E0BA01309729
:1055700021F043895489658976892AE083E595E09D
:105580000E94711683E595E00E94FA16CE01855AB5
:105590009F4F0E94E517D1C983E595E00E94610203
:1055A0001816190634F4C8010E941F18C8010E9479
:1055B000DD1783E595E00E946102892BD1F3C801D4
:1055C0000E941F18C555DF4F88819981CB5AD04062
:1055D000009709F477C069817A816115710509F432
:1055E0006FC0C355DF4F48815981CD5AD0402D81BE
:1055F0003E814217530708F463C00E94C02F8D817B
:105600009E81C155DF4F99838883CF5AD0401E8237
:105610001D82C8010E94DD17C155DF4F8881998125
:10562000CF5AD040009741F0C555DF4FE881F9814E
:10563000CB5AD040309721F410928B02EBE8F2E085
:105640002081CC55DF4F2883C45AD040029748F0C0
:10565000C555DF4FE881F981CB5AD040309709F02A
:105660004EC010928B02EBE8F2E08081CB55DF4F09
:105670008883C55AD040CE0182569F4F0E94FE16A5
:1056800041E0BE0162567F4FCE0101960E94941AFE
:10569000EA8DFB8D309709F43FC085818823E1F1C5
:1056A000CE0101960E94A111892B59F1CE010196DC
:1056B0000E941B12682F83E595E00E94A302F0CFA1
:1056C0000E94162D89819A81C555DF4F9983888361
:1056D000CB5AD0408B819C81C355DF4F99838883FF
:1056E000CD5AD0408D819E81C155DF4F99838883EB
:1056F000CF5AD0401A8219821C821B8288CF3196E1
:10570000B4CF69EC71E083E595E00E940F17CE01FC
:1057100001960E94E517B7C966EB71E083E595E055
:105720000E940F17B0C98230A1F49091EB029F350F
:1057300008F039CE4091E702292F30E0265F3F4F35
:105740004217130609F00CF42ECE9B5F9093EB02E8
:105750002ACE833049F49091E702943608F023CEA4
:105760009B5F9093E7021FCE843071F49091E80222
:105770002091E9022550330B921713060CF013CE3B
:105780009F5F9093E8020FCE853009F00CCE909188
:10579000E9029F5F9093E90206CE823049F490912E
:1057A000EB02992309F410CE95509093EB020CCEA6
:1057B000833009F089C09091E7022091EB0230E03C
:1057C0002B5F3F4F9217130609F00CF4FDCD955057
:1057D0009093E702F9CD9091EB02992309F4F4CD6F
:1057E0009091E80291509093E802EECD80E00E9403
:1057F000AB1210929102F7CD813041F46091EF022B
:1058000090E080E00E94971B82E0F4CD823041F46A
:105810006091EB0283E090E00E94971B83E0EACD69
:10582000833041F46091E70284E090E00E94971B8E
:1058300084E0E0CD843041F46091E80281E090E0C2
:105840000E94971B85E0D6CD853009F0D5CD6091BB
:10585000E90282E090E00E94971B1092F602CCCD04
:105860001092F5021092F60290E080E00E94291753
:10587000F2CDE8E2CE16E6E0DE0619F0C6010E949F
:105880008F0F47E164E071E0C8010E94941AC801DB
:105890000E948401E0916606F0916706309721F03E
:1058A000858181110C94E4208BEA91E00C94BF1F58
:1058B000882339F3DE0191966D019C2D8D2DC52C29
:1058C000D42C2C010C946D20843009F484CF8530C5
:1058D00009F07ACD9091E9022091EB0230E02B5F44
:1058E0003F4F9217130609F00CF46ECD9091E7022A
:1058F00091506ECF0F931F93CF93DF93823091051A
:1059000010F482E090E0E0919706F091980630E084
:1059100020E0B0E0A0E0309799F42115310509F4BA
:105920004AC0281B390B24303105D8F58A819B8168
:105930006115710589F1FB0193838283FE0111C01A
:10594000408151810281138148175907E0F04817BF
:10595000590799F4109761F012960C9312971396C9
:105960001C933296CF01DF91CF911F910F91089533
:105970000093970610939806F4CF2115310551F046
:105980004217530738F0A901DB019A01BD01DF017D
:10599000F801C1CFEF01F9CF909398068093970655
:1059A000CDCFFE01E20FF31F819391932250310975
:1059B00039832883D7CF2091950630919606232BE3
:1059C00041F42091130130911401309396062093F5
:1059D000950620911101309112012115310541F4F4
:1059E0002DB73EB74091150150911601241B350B80
:1059F000E0919506F0919606E217F307A0F42E1BAE
:105A00003F0B2817390778F0AC014E5F5F4F241722
:105A1000350748F04E0F5F1F50939606409395064A
:105A2000819391939FCFF0E0E0E09CCFCF93DF9301
:105A30000097E9F0FC01329713821282A091970639
:105A4000B0919806ED0130E020E01097A1F420819C
:105A50003181820F931F2091950630919606281769
:105A6000390709F061C0F0939606E0939506DF913F
:105A7000CF910895EA01CE17DF07E8F54A815B81EF
:105A80009E0141155105B1F7E901FB83EA83499174
:105A90005991C40FD51FEC17FD0761F480819181E6
:105AA0000296840F951FE9019983888382819381EF
:105AB0009B838A83F0E0E0E012968D919C9113978E
:105AC0000097B9F52D913C911197CD010296820F67
:105AD000931F20919506309196062817390739F6BD
