:100000000C9418010C9440010C9440010C94400194
:100010000C9440010C9440010C9440010C9440015C
:100020000C9440010C9440010C9440010C9440014C
:100030000C9440010C9440010C9440010C9440013C
:100040000C94211C0C9440010C94EF1B0C94C91BC4
:100050000C9440010C9440010C9440010C9440011C
:100060000C946B1C0C9440016572726F723A200004
:100070005248204D41583A005248204D494E3A00CE
:10008000434F32204D41583A0048656C6C6F206DEB
:10009000757368726F6F6D7321007C3C3E5E2B3D03
:1000A0003F2F5B5D3B2C2A225C0000000008000211
:1000B0000100000304070000000000000000486584
:1000C0006C6C6F2C206D757368726F6F6D7321008F
:1000D00054696D652C20436F322C2054656D702C53
:1000E0002052482C2046616E4F6E2C2048756D4F73
:1000F0006E2C20436F324D61782C2052484D696E32
:100100002C2052484D61782C20467265654D656DF6
:100110000054696D652C20436F322C2054656D703E
:100120002C2052482C2046616E4F6E2C2048756D55
:100130004F6E2C20436F324D61782C2052484D6910
:100140006E2C2052484D61782C20467265654D65B5
:100150006D0031333A31323A3331004A616E20203A
:10016000372032303231004C6F6767696E67207418
:100170006F3A20006361726420696E697469616C12
:10018000697A65642E00496E697469616C697A697F
:100190006E6720534420636172642E2E2E0009097D
:1001A00000454F460048656C6C6F2C206D75736878
:1001B000726F6F6D7321002052483A0043005465FE
:1001C0006D703A0070706D00434F323A20006572D6
:1001D000726F72206F70656E696E672066696C65FC
:1001E00000454F460000000000250028002B0000BD
:1001F000000000240027002A00040404040404046E
:1002000004020202020202030303030303010204C5
:100210000810204080010204081020010204081088
:10022000201F1C1F1E1F1E1F1F1E1F1E991D1B2C63
:1002300011241FBECFEFD8E0DEBFCDBF12E0A0E09B
:10024000B1E0EEE1FFE502C005900D92A031B107EB
:10025000D9F726E0A0E1B2E001C01D92A635B207B1
:10026000E1F711E0C7E1D1E004C02197FE010E944F
:10027000742EC631D107C9F70E94C51E0C94822F77
:100280000C94000091E09093FB048093FA04109288
:10029000F9041092F80408959091AB048091AA0497
:1002A0002FEF3FEF981748F4E92FF0E0EE52FB4FA5
:1002B000208130E09F5F9093AB04C9010895909135
:1002C000AB048091AA042FEF3FEF981748F4E92F71
:1002D000F0E0EE52FB4F208130E09F5F9093AB0443
:1002E000C901089590E0FC01E35FFD4F2491875020
:1002F0009E4FFC018491882399F090E0880F991F0C
:10030000FC01E151FE4FA591B491FC01EB51FE4F70
:10031000859194918FB7F894EC91E22BEC938FBF79
:100320000895CF93DF93FC018281938190930D0612
:1003300080930C0684819581A681B78180930E06F7
:1003400090930F06A0931006B093110680859185B7
:10035000A285B3858093120690931306A09314068A
:10036000B0931506DF011C96CF014996C6E1D6E091
:100370002D912993A817B907D9F7818D928D909364
:100380002406809323068AE096E0DF91CF910895BA
:10039000FC019081909528E081E397FF03C0990FBD
:1003A000982701C0990F2150C1F78181892798E0D2
:1003B00021E387FF03C0880F822701C0880F915077
:1003C000C1F70895089508950895DC01ED91FC9119
:1003D0000190F081E02D0994EF92FF920F931F930B
:1003E000CF93DF938C017B01D0E0C0E0F701EC0FED
:1003F000FD1F6491662361F0D801ED91FC9101909D
:10040000F081E02DC8010995892B11F02196EECFDE
:10041000CE01DF91CF911F910F91FF90EF90089542
:10042000AF92BF92CF92DF92EF92FF920F931F9302
:10043000CF93DF936C017B018B01040F151FEB0140
:100440005E01AE18BF08C017D10759F06991D601F7
:10045000ED91FC910190F081E02DC6010995892B69
:1004600079F7C501DF91CF911F910F91FF90EF9028
:10047000DF90CF90BF90AF900895FC01538D448DD5
:10048000252F30E0842F90E0821B930B541710F03F
:10049000CF96089501970895FC01918D828D98174C
:1004A00061F0A28DAE0FBF2FB11D5D968C91928D24
:1004B0009F5F9F73928F90E008958FEF9FEF089555
:1004C000FC01918D828D981731F0828DE80FF11D1E
:1004D000858D90E008958FEF9FEF0895FC01918D39
:1004E000228D892F90E0805C9F4F821B91098F7332
:1004F000992708958CEF94E00E946E0221E0892BE9
:1005000009F420E0822F089580E090E0892B29F003
:100510000E947A0281110C9400000895FC01A48DC0
:10052000A80FB92FB11DA35ABF4F2C91848D90E015
:1005300001968F739927848FA689B7892C93A089F8
:10054000B1898C91837080648C93938D848D981382
:1005500006C00288F389E02D80818F7D8083089515
:10056000EF92FF920F931F93CF93DF93EC0181E003
:10057000888F9B8D8C8D98131AC0E889F9898081AA
:1005800085FF15C09FB7F894EE89FF896083E889DD
:10059000F98980818370806480839FBF81E090E0CF
:1005A000DF91CF911F910F91FF90EF900895F62E5C
:1005B0000B8D10E00F5F1F4F0F731127E02E8C8DF6
:1005C0008E110CC00FB607FCFACFE889F98980813B
:1005D00085FFF5CFCE010E948E02F1CFEB8DEC0F9F
:1005E000FD2FF11DE35AFF4FF0829FB7F8940B8F58
:1005F000EA89FB8980818062CFCFCF93DF93EC01C2
:10060000888D8823B9F0AA89BB89E889F9898C91FA
:1006100085FD03C0808186FD0DC00FB607FCF7CFB6
:100620008C9185FFF2CF808185FFEDCFCE010E94B6
:100630008E02E9CFDF91CF91089590E0FC01E6555D
:10064000FF4F2491FC01E35FFD4F3491FC01E75023
:10065000FE4FE491EE23C9F0222339F0233001F15B
:10066000A8F4213019F1223029F1F0E0EE0FFF1F3C
:10067000EB51FE4FA591B4918FB7F894EC916111B5
:1006800026C030953E233C938FBF08952730A9F0B4
:100690002830C9F0243049F7809180008F7D03C055
:1006A000809180008F7780938000DFCF84B58F7733
:1006B00084BDDBCF84B58F7DFBCF8091B0008F7779
:1006C0008093B000D2CF8091B0008F7DF9CF3E2BC8
:1006D000DACF3FB7F8948091800290918102A09187
:1006E0008202B091830226B5A89B05C02F3F19F066
:1006F0000196A11DB11D3FBFBA2FA92F982F8827A2
:10070000BC01CD01620F711D811D911D42E0660F7C
:10071000771F881F991F4A95D1F708958F929F924E
:10072000AF92BF92CF92DF92EF92FF924B015C01AA
:100730000E9469036B017C010E9469036C197D09A9
:100740008E099F09683E734081059105A8F321E059
:10075000821A9108A108B10888EEC80E83E0D81E5D
:10076000E11CF11C81149104A104B10429F7FF904C
:10077000EF90DF90CF90BF90AF909F908F900895B3
:100780002FB7F89460917C0270917D0280917E0277
:1007900090917F022FBF08950F931F930E94C00373
:1007A00060930405709305058093060590930705F3
:1007B0008CEF94E00E944C0297FF1DC00E94C00382
:1007C000009104051091050520910605309107055B
:1007D000601B710B820B930B0091000510910105BA
:1007E0002091020530910305601771078207930776
:1007F000F8F28FEF9FEF1F910F910895DC01ED91BB
:10080000FC910190F081E02D0994FC0190819053BE
:100810009A3008F090E0818180532AE0929F800D09
:100820001124089520915802260F3327331F2132B7
:100830003105ECF42091F204FC0190E080E02430DA
:1008400069F082E00895A09158022191AC01485CC2
:100850005D4FA40FB52FB11D2C930196861798F309
:1008600080915802680F6093580280E0089581E0FB
:1008700008951092F20481E08093D1041092CC0488
:1008800061E082E10E941D0361E083E10E941D039B
:10089000E9EBF0E080818E7F808380818D7F808393
:1008A00088E48093B80085E48093BC00089510929A
:1008B000AB041092AA041092F9041092F8040E945A
:1008C000390482EE91E09093A9048093A80483EE0A
:1008D00091E09093A7048093A6040895CF93DF93AB
:1008E00091E0909337028823B9F0C091B800D0917D
:1008F000BA008091BC008A7B8093BC0060E082E1FA
:100900000E941D0360E083E10E941D030E943904E0
:10091000D093BA00C093B800DF91CF910895CF92E1
:10092000DF92EF92FF920F931F93CF93DF93D82F15
:10093000C62F613208F098C00E9469036B017C01E8
:100940008091F20481116BC081E08093F204809366
:10095000D1049FEF9093D0041092CF049C0F9093FA
:10096000CE048093CD048091CD04DD0FD82BD0939D
:10097000CD048091CC04813009F078C01092CC0471
:100980000E9469036B017C018091CD048093BB00C0
:100990008091F4049091F504A091F604B091F704CD
:1009A000892B8A2B8B2BA1F00E9469030091F40400
:1009B0001091F5042091F6043091F7046C197D092B
:1009C0008E099F09061717072807390708F448C03A
:1009D0008091BC0083FDD8CF85EC8093BC000E9441
:1009E00069036B017C018091F204813009F440C0FD
:1009F0008091CF048C1710F4C091CF04ECEAF4E09E
:100A0000A2EDB4E080E08C1355C08C2FDF91CF9124
:100A10001F910F91FF90EF90DF90CF9008958091FC
:100A2000F4049091F504A091F604B091F704892B99
:100A30008A2B8B2B09F484CF0E9469030091F40464
:100A40001091F5042091F6043091F7046C197D099A
:100A50008E099F09061717072807390708F070CF76
:100A60008091F3040E946E04C0E0CFCF85EEB5CF35
:100A70008091F4049091F504A091F604B091F704EC
:100A8000892B8A2B8B2B09F4AECF0E94690300912E
:100A9000F4041091F5042091F6043091F7046C19D8
:100AA0007D098E099F09061717072807390708F0DF
:100AB0009ACFD6CF91919D938F5FA5CF0895E09166
:100AC000AB048091AA04E81730F4F0E0EE52FB4F3B
:100AD000808190E008958FEF9FEF08958091AA04A0
:100AE0009091AB04891B990B0895CF92DF92EF92FE
:100AF000FF920F931F93CF93DF937C01CB018A0169
:100B00002091FB04222389F0EB016B01C40ED51E5A
:100B1000CC15DD0569F06991D701ED91FC9101904B
:100B2000F081E02DC7010995F3CF642F0E941204D4
:100B3000C801DF91CF911F910F91FF90EF90DF904F
:100B4000CF900895CF93DF931F92CDB7DEB769831F
:100B50002091FB042223F9F02091F804203258F070
:100B600021E030E0FC013383228390E080E00F90AD
:100B7000DF91CF9108958091F904E82FF0E0E95ECC
:100B8000FD4F998190838F5F8093F9048093F804DF
:100B900081E090E0ECCF61E0CE0101960E9412046A
:100BA000F7CF682F89E995E00C94A205CF92DF92E8
:100BB000EF92FF920F931F93CF93DF93D091F8049E
:100BC00081E0D13208F09CC0C091FA040E94690310
:100BD0006B017C018091F20481116CC082E08093F2
:100BE000F20481E08093D1048FEF8093D0041092BF
:100BF000CF04D093CE04A7E1B2E0ECEAF4E080E0C9
:100C0000D8138DC01092CD048091CD04CC0FC82B89
:100C1000C093CD048091CC04813009F084C010923F
:100C2000CC040E9469036B017C018091CD04809308
:100C3000BB008091F4049091F504A091F604B0916A
:100C4000F704892B8A2B8B2BA1F00E94690300915A
:100C5000F4041091F5042091F6043091F7046C1916
:100C60007D098E099F09061717072807390708F419
:100C700042C08091BC0083FDD8CF85EC8093BC003E
:100C80000E9469036B017C018091F204823009F4B7
:100C90004CC08091D0048F3F09F469C08091D0048A
:100CA000803209F466C08091D004803309F463C0B7
:100CB00084E026C08091F4049091F504A091F6049C
:100CC000B091F704892B8A2B8B2B09F483CF0E94D8
:100CD00069030091F4041091F5042091F604309119
:100CE000F7046C197D098E099F0906171707280755
:100CF000390708F06FCF8091F3040E946E0485E0FD
:100D00001092F9041092F8041092FB04DF91CF9135
:100D10001F910F91FF90EF90DF90CF9008959D91DC
:100D200091938F5F6DCF85EEA9CF8091F404909160
:100D3000F504A091F604B091F704892B8A2B8B2B34
:100D400009F4A2CF0E9469030091F4041091F50404
:100D50002091F6043091F7046C197D098E099F09E2
:100D6000061717072807390708F08ECFC4CF80E091
:100D7000C7CF82E0C5CF83E0C3CFDF92EF92FF926F
:100D80000F931F93CF93DF9300D0CDB7DEB78C01C5
:100D9000F62ED72E19826A83CE0101960E94C801D1
:100DA000E82E81E60E944201612F70E080912506C5
:100DB000909126060E94FE03B801772780912506B0
:100DC000909126060E94FE0370E060E08091250667
:100DD000909126060E94FE036F2D7D2D80912506A1
:100DE000909126060E94FE0380912506909126068A
:100DF000DC01ED91FC910190F081E02D6E2D0995C3
:100E000080912506909126060E94D60591E08111D9
:100E100090E0892F0F900F90DF91CF911F910F914C
:100E2000FF90EF90DF900895CF93DF93D62FC72FD9
:100E3000FC01808180620E94420182E10E94D10512
:100E40008D2F0E94D1058C2F0E94D10589E995E054
:100E5000DF91CF910C94D60590E080E008958FB794
:100E6000F894809111028FBF089561E0FC018481A4
:100E70000E941D03809110028111109210020895AA
:100E80008EBD00000DB407FEFDCF8EB508958FEF27
:100E90000C9440070F931F93CF93DF93EC010E94B4
:100EA000C0038B010E9447078F3F69F00E94C00377
:100EB000601B710B6C177D07A8F380E0DF91CF9169
:100EC0001F910F91089581E0F9CF8CBD9DBD0895CC
:100ED000CF93DF93EC0180911002811109C081E072
:100EE000809310028091A5059091A6050E94650748
:100EF00060E08C81DF91CF910C941D038F929F92C3
:100F0000AF92BF92FF920F931F93CF93DF93EC01A9
:100F1000F62E49015A018E81882389F08F819885A8
:100F20009C012F5F3F4F38872F838230924018F407
:100F30000E944707F3CFCE010E9435071E82CE01E3
:100F40000E9468078CE291E00E944A078F2D80641E
:100F50000E94400708E110E0D501C401002E04C042
:100F6000B695A795979587950A94D2F70E94400762
:100F700008501109083F8FEF180771F785E9FF2026
:100F800021F028E087E8F2128FEF0E94400710E07E
:100F90000E9447078A8787FF04C01F3F11F01F5F29
:100FA000F7CFDF91CF911F910F91FF90BF90AF903E
:100FB0009F908F900895AF92BF92CF92DF92EF9261
:100FC000FF920F931F93CF93DF93EC016901C80148
:100FD000820F931F8130924050F58E81882379F0E3
:100FE00088819981AA81BB8184179507A607B707D5
:100FF00031F48F819885C816D90608F042C048831D
:1010000059836A837B838B85833039F089E0440F71
:10101000551F661F771F8A95D1F79A01AB0161E1D1
:10102000CE010E947E07882389F083E08D83CE0164
:101030000E94350780E0DF91CF911F910F91FF90C3
:10104000EF90DF90CF90BF90AF9008950E94C003C3
:101050005B010E9447078A878F3F69F40E94C003A3
:101060006A197B096D327140A0F38FE08D83CE0148
:101070000E943507DCCF8E3F89F418861F8281E0FD
:101080008E838F8198858C159D0550F40E944707AB
:101090008F819885019698878F83F3CF8DE0E6CF77
:1010A0006701E00EF11E0E944707F60181936F0170
:1010B000EE15FF05C1F78F819885080F191F188756
:1010C0000F838985882319F001151240A0F08E81C5
:1010D000882389F08F8198859C012F5F3F4F388747
:1010E0002F838230924018F40E944707F3CFCE013D
:1010F0000E9435071E8281E09ECFCF92DF92EF9251
:10110000FF920F93CF93DF93EC01690182E14115C8
:1011100051056105710599F08B85833039F089E0BF
:10112000440F551F661F771F8A95D1F79A01AB01AF
:1011300068E1CE010E947E07882319F084E08D8348
:101140002DC08EEF0E94400776018EEFD81AF7016E
:1011500081917F010E944007EC14FD04C1F78FEFDD
:101160000E9440078FEF0E9440070E9447078A872E
:101170008F71853071F4011116C0CE010E943507C0
:1011800081E0DF91CF910F91FF90EF90DF90CF90B2
:10119000089581E18D83CE010E943507CE010E9422
:1011A000350780E0EECF88E592E00E944A07811182
:1011B00002C085E1C4CF20E030E0A9016DE0CE019E
:1011C0000E947E07882311F084E1B9CF0E9447076F
:1011D0008111FACFD2CF0F93409113025091140294
:1011E0006091150270911602411551056105710556
:1011F00099F0082F24EA32E08091A4049091A5048C
:101200000E947D08882349F0109213021092140264
:10121000109215021092160281E00F9108950F931B
:10122000CF93C82F80911202811105C0C1E08C2F8D
:10123000CF910F910895409100015091010160916B
:101240000201709103010C2F24EA32E08091A40482
:101250009091A5040E947D08811102C0C0E0E7CFF3
:10126000CC2321F381E00E94EB088823B9F310928C
:101270001202DDCF8F929F92AF92BF92EF92FF92B8
:101280000F931F93CF934B015C01C42F80910001FA
:1012900090910101A0910201B09103018815990577
:1012A000AA05BB0551F181E00E940F0981110BC015
:1012B00080E0CF911F910F91FF90EF90BF90AF9082
:1012C0009F908F90089584EAE82E82E0F82E00E047
:1012D00012E030E020E0B501A4018091A4049091D7
:1012E000A5040E94DB07882319F3809200019092E5
:1012F0000101A0920201B0920301409112024C2B15
:101300004093120281E0D5CF8F929F92AF92BF920D
:10131000CF92DF92EF92FF92CF9327EA35E030939E
:10132000A5042093A404882309F46DC040E060E084
:1013300070E0CB010E943A0981110BC080E0CF918F
:10134000FF90EF90DF90CF90BF90AF909F908F90E5
:101350000895809162048F7789F780916E0490914F
:101360006F04A0917004B091710484369105A105B9
:10137000B10520F3C0906A04D0906B04E0906C0437
:10138000F0906D04C114D104E104F104B9F240E01D
:10139000C701B6010E943A09882381F28091AF0209
:1013A0009091B0028115924049F6A091B402AA230F
:1013B00029F26091B2027091B3026115710509F4CE
:1013C000BDCF2091B102222309F4B8CFA093C50567
:1013D0002093B70590E080E030E0E1E0F0E0C82F36
:1013E000AF01082E02C0440F551F0A94E2F72417DC
:1013F000350769F041E0480F01968930910579F78A
:101400004093C0059BCFC12CD12C7601C0CF8093D7
:10141000C0052091BA023091BB0250E040E0211596
:10142000310541F42091C8023091C9024091CA02AD
:101430005091CB022093B8053093B9054093BA057B
:101440005093BB0546015701860E971EA11CB11C87
:101450008092C6059092C705A092C805B092C905B2
:10146000E091B502F091B602F093CC05E093CB0584
:10147000B0E00E94932DDC01CB01880D991DAA1DBF
:10148000BB1D8093CD059093CE05A093CF05B0935F
:10149000D00525E0EE0FFF1F2A95E1F7E150FE4F42
:1014A000EF2FFF27E6958E0F9F1FA11DB11D809383
:1014B000C1059093C205A093C305B093C405809065
:1014C000B7029090B802B12CA12C8114910441F480
:1014D0008090C4029090C502A090C602B090C7024E
:1014E000C81AD90AEA0AFB0AC80CD91CEA1CFB1C58
:1014F00004C0F694E794D794C794CA95D2F7C092E3
:10150000BC05D092BD05E092BE05F092BF0585EF07
:10151000C8168FE0D806E104F10428F48CE080932B
:10152000CA0581E00CCF80E125EFC2162FEFD2066D
:10153000E104F104A0F38091D0029091D102A09136
:10154000D202B091D3028093CD059093CE05A093A3
:10155000CF05B093D00580E2E2CF4F925F926F92B9
:101560007F928F929F92AF92BF92CF92DF92EF9233
:10157000FF920F931F93CF93DF93EC0142305105FD
:101580006105710590F480E0DF91CF911F910F917B
:10159000FF90EF90DF90CF90BF90AF909F908F9093
:1015A0007F906F905F904F90089589859A85AB8565
:1015B000BC850196A11DB11D84179507A607B70725
:1015C00010F3CB88DC88ED88FE888F89803109F0A4
:1015D00042C0BB27A72F962F852F480159012A010A
:1015E0003B01C80ED91EEA1EFB1E8091000190919E
:1015F0000101A0910201B0910301C816D906EA06C3
:10160000FB0699F58F898031C1F5B301A2015527F9
:1016100066277727440F551F4C555D4FFA0191827D
:101620008082809112028160809312028A898230C6
:1016300080F08D819E81AF81B8858C0D9D1DAE1D82
:10164000BF1D8093130290931402A0931502B093D0
:10165000160281E099CFDB01CA01E7E0B695A795B4
:1016600097958795EA95D1F7B8CF40E0C701B601C5
:101670000E943A098111C6CF86CFB301A2014F77EC
:10168000552766277727440F551F440F551F4C5584
:101690005D4FFA0180829182A282B382C2CF8F9283
:1016A0009F92AF92BF92CF92DF92EF92FF920F93F1
:1016B0001F93CF93DF93FC0181859285A385B48529
:1016C0000196A11DB11D84179507A607B70770F4F1
:1016D00080E0DF91CF911F910F91FF90EF90DF900D
:1016E000CF90BF90AF909F908F90089583889488FB
:1016F000A588B6888789803189F5BB27A72F962FC3
:10170000852FE9016A017B018F01BC01CD01680DC4
:10171000791D8A1D9B1D8090000190900101A09071
:101720000201B090030186169706A806B90601F5D6
:10173000F8018789803111F5DD24EE24FF24F601BC
:10174000EE0FFF1FEC55FD4F80819181B0E0A0E0CE
:1017500088839983AA83BB8381E0BBCFDB01CA0165
:10176000C7E0B695A79597958795CA95D1F7C9CF44
:1017700040E00E943A098111DBCFAACFE894C7F874
:10178000DD24EE24FF24F601EE0FFF1FEE0FFF1FF6
:10179000EC55FD4F80819181A281B381BF70D8CF7C
:1017A0004F925F926F927F92AF92BF92CF92DF92F1
:1017B000EF92FF920F931F93CF93DF9300D000D04F
:1017C000CDB7DEB78C0149835A836B837C83590183
:1017D000C12CD12C7601412C82E0582E612C712C29
:1017E00049815A816B817C819E012F5F3F4FC801E7
:1017F0000E944F0B882339F1F8018585A3019201DE
:1018000004C0220F331F441F551F8A95D2F7DA01F7
:10181000C901C80ED91EEA1EFB1E49815A816B817F
:101820007C818789803111F188EF9FEFAFEFBFE0B6
:10183000481759076A077B0798F2F501C082D182E1
:10184000E282F38281E00F900F900F900F90DF9172
:10185000CF911F910F91FF90EF90DF90CF90BF90AD
:10186000AF907F906F905F904F90089588EF9FEFBB
:10187000A0E0B0E0DDCFCF93DF93FC0125812223F0
:1018800021F080E0DF91CF910895EC018091CA05AD
:10189000803159F582E08583178A108E118E128E61
:1018A0008091CB059091CC05B0E0A0E025E0880FB9
:1018B000991FAA1FBB1F2A95D1F7838B948BA58BE9
:1018C000B68B83EB95E09C8F8B8F81E08C831E829F
:1018D0001F82188619861A861B861C861D861E8600
:1018E0001F86188A198A1A8ACDCF803251F683E072
:1018F00085834091CD055091CE056091CF057091C3
:10190000D005478B508F618F728F9F012D5E3F4FA7
:1019100083EB95E00E94D00B8111D3CFB2CF8F9291
:101920009F92AF92BF92CF92DF92EF92FF920F936E
:101930001F93CF93DF93EC018D8181110EC080E066
:10194000DF91CF911F910F91FF90EF90DF90CF909B
:10195000BF90AF909F908F9008950B891C892D891F
:101960003E89041715072607370748F34A015B012C
:10197000823031F48A869B86AC86BD8681E0E0CFDA
:1019800081149104A104B10449F41E821F821886B7
:1019900019861A861B861C861D86F0CF0A851B8534
:1019A0002C853D85EB8DFC8D858590E00996B901F0
:1019B000A8014150510961097109082E04C07695AA
:1019C0006795579547950A94D2F775016401E1E050
:1019D000CE1AD108E108F10804C0F694E794D79430
:1019E000C7948A95D2F7C416D506E606F70620F006
:1019F000012B022B032B11F58F89988DA98DBA8DA0
:101A00008E839F83A887B9878E010A5F1F4FC114F9
:101A1000D104E104F10409F4ADCF4E815F81688502
:101A2000798598018B8D9C8D0E944F0B91E0C91A8E
:101A3000D108E108F1088111EACF81CFC41AD50A93
:101A4000E60AF70AE1CF3F924F925F926F927F9240
:101A50008F929F92AF92BF92CF92DF92EF92FF92BE
:101A60000F931F93CF93DF93CDB7DEB72C970FB6AD
:101A7000F894DEBF0FBECDBF5C01DC015B968D909C
:101A80009C905C9716964D905D906D907C90199708
:101A9000411451046104710409F468C0BFEF4B1A8A
:101AA0005B0A6B0A7B0A312CF40181859285A38540
:101AB000B4859C01AD012F5F3F4F4F4F5F4F29878A
:101AC0003A874B875C87730162011D821E821F82E9
:101AD0001886F40181859285A385B4852D813E8188
:101AE0004F815885281739074A075B0708F056C009
:101AF00089859A85AB85BC858C159D05AE05BF058E
:101B000050F482E0C82ED12CE12CF12C92E0492E29
:101B1000512C612C712C9E012F5F3F4FB701A60104
:101B2000C4010E944F0B8823C9F189819A81AB813E
:101B3000BC81892B8A2B8B2B09F1260137019FEF62
:101B4000491A590A690A790A2D813E814F815885BF
:101B50002F5F3F4F4F4F5F4F2D833E834F835887FB
:101B60003FEFC31AD30AE30AF30AB3CFF40140806C
:101B70005180628073803324339496CFC414D5048B
:101B8000E604F70409F70FEF1FEF2FEF3FE0B7016F
:101B9000A601C4010E94AD0A811119C080E02C96F3
:101BA0000FB6F894DEBF0FBECDBFDF91CF911F916E
:101BB0000F91FF90EF90DF90CF90BF90AF909F90EC
:101BC0008F907F906F905F904F903F900895D501D8
:101BD00016964D915D916D917C9119974115510526
:101BE0006105710539F097018601C4010E94AD0AB3
:101BF0008823A1F2D5011696CD92DD92ED92FC924A
:101C00001997332051F0D701C6010196A11DB11DCE
:101C1000F40180839183A283B383F5018789908D3A
:101C2000A18DB28D892B8A2B8B2B39F48481C78AA5
:101C3000D08EE18EF28E80688483F501848180628B
:101C4000848381E0ACCF2F923F924F925F926F924C
:101C50007F928F929F92AF92BF92CF92DF92EF923C
:101C6000FF920F931F93CF93DF93EC015B012A0147
:101C70008D81811115C08FEF9FEFDF91CF911F9163
:101C80000F91FF90EF90DF90CF90BF90AF909F901B
:101C90008F907F906F905F904F903F902F9008951E
:101CA0008C8180FFE8CF0B891C892D893E894A856C
:101CB0005B856C857D85C201B0E0A0E0680179019B
:101CC000C41AD50AE60AF70AC816D906EA06FB06B8
:101CD00018F42801441A550A42011E0126E0220E7A
:101CE000311C8114910409F4B3C04A855B856C856D
:101CF0007D856A0181E0D8228B8D9C8D8A019B01B4
:101D0000E9E03695279517950795EA95D1F7ED8186
:101D1000E230E1F5FC01628D738D848D958D600F4D
:101D2000711F821F931F612C22E0722E6C187D0898
:101D30008614970408F434012C8126FD04C0611434
:101D4000F2E07F0671F400910001109101012091F1
:101D5000020130910301061717072807390709F018
:101D600053C040E00E943A09882309F484CFC60199
:101D70008C559D4FD5019C01260D371DFC012E175A
:101D80003F0709F460C041914D93F9CFFC01748085
:101D90007A947022C114D10471F471100CC0452BD7
:101DA000462B472B39F58F89988DA98DBA8D8E8357
:101DB0009F83A887B987EB8DFC8D6E817F81888595
:101DC00099856250710981099109258504C0660FC2
:101DD000771F881F991F2A95D2F7068517852089B6
:101DE0003189600F711F821F931F670D711D811D47
:101DF000911D99CF4E815F816885798591010E94FF
:101E00004F0B8111D8CF37CF750183019601AB01FC
:101E1000BC018091A4049091A5040E94DB07882353
:101E200009F429CFA60CB71C8A859B85AC85BD8596
:101E3000860D971DA11DB11D8A879B87AC87BD8725
:101E4000861897084ECF281B390BA20EB31EECCF75
:101E5000C20113CF1F93CF93DF93FC01258122236F
:101E6000D1F1162FEC01848187FF2AC06685778522
:101E70008089918941E00E943A09882361F1EA89C9
:101E800080E2E89FF0011124EC55FD4F309719F1E5
:101E90008D81823040F48B899C89AD89BE89848F85
:101EA000958FA68FB78F8F89988D938F828F8F890B
:101EB000988DA98DBA8DB58BA48B8C818F778C83EF
:101EC000111103C08C818F7E8C83812FDF91CF9184
:101ED0001F910C940F0980E0DF91CF911F9108951D
:101EE000FF920F931F93CF93DF93EC018D8181308D
:101EF00041F090E080E0DF91CF911F910F91FF9032
:101F000008958C8181FFF5CF82FD1BC00091A40450
:101F10001091A504C8010E9468070E944707F82E87
:101F2000C8010E9435078FEFF812E3CF8C8185FF3F
:101F30001BC060E0CE010E942A0F8C818F7D8C83B4
:101F4000D8CF4B895C896D897E898A859B85AC85D4
:101F5000BD8584179507A607B707C1F2CE010E9479
:101F60008F0C8111D3CFC5CF409113025091140231
:101F70006091150270911602452B462B472B21F0DC
:101F800080E00E94EB08B5CF80618C832A853B8579
:101F9000317080E092E0821B930BADCFCF93DF9343
:101FA000EC0161E00E942A0F882311F01D8281E07C
:101FB000DF91CF9108952F923F924F925F926F924F
:101FC0007F928F929F92AF92BF92CF92DF92EF92C9
:101FD000FF920F931F93CF93DF9300D000D01F92F7
:101FE000CDB7DEB77C015B01342E5D83DC01159635
:101FF0008C911597813009F0CEC014962C9021FE5B
:10200000CAC022FCB4C0C32CDD8022947FE027220A
:102010002094B22DB1702B2ED7011A964D915D915F
:102020006D917C911D97C114D10409F428C15B9670
:102030008D919C915C97FC0174807A948A019B013C
:1020400069E036952795179507956A95D1F770221F
:102050008A011170711020C001151105E9F416965E
:102060004D915D916D917C911997411551056105D7
:10207000710509F099C057968D919D910D90BC9175
:10208000A02D0097A105B10509F0B0C0C7010E94BD
:10209000230D882309F47FC080E092E0801B910B20
:1020A00046018C159D0508F44C01D7015B964D91B6
:1020B0005C915C9716968D919D910D90BC91A02D91
:1020C0000297A109B109FA01258504C0880F991F5B
:1020D000AA1FBB1F2A95D2F746855785608971894B
:1020E000840F951FA61FB71F9C01AD01270D311D41
:1020F000411D511D29013A01811432E0930609F076
:102100007BC08091000190910101A0910201B091EA
:10211000030184159505A605B70559F48FEF9FEFC8
:10212000DC018093000190930101A0930201B09320
:102130000301022D9501B301A2018091A4049091A5
:10214000A5040E947D08882331F19EEFB91AC818B2
:10215000D908F70182859385A485B585880D991DD9
:10216000A11DB11D82879387A487B58755CFF7013D
:10217000438954896589768982859385A485B58547
:10218000481759076A077B0709F43DCFC7010E942A
:102190008F0C811138CF81E090E0D70113969C938A
:1021A0008E93129780E007C09E012F5F3F4F0E94E1
:1021B0004F0B811102C090E079C089819A81AB8177
:1021C000BC81F701238D348DF901278948EF5FEF3A
:1021D00060E070E0203121F048EF5FEF6FEF7FE0CB
:1021E00084179507A607B70708F050CFF701868335
:1021F0009783A087B18750CF0115110599F5D701B5
:102200001A964D915D916D917C911D9753968D918C
:102210009D910D90BC91A02D481759076A077B0727
:1022200008F181E00E940F09882309F4B4CF40929D
:1022300000015092010160920201709203018091AD
:102240001202816080931202C8018C559D4FD50106
:102250009C01280D391DFC012E173F0759F04D91A7
:102260004193FACF41E0C301B2010E943A098111C2
:10227000EBCF91CF281B390BA20EB31E68CFF7010D
:1022800083899489A589B68984179507A607B70716
:1022900038F48481438B548B658B768B8068848380
:1022A000F701848183FD1AC0832D9D810F900F90CB
:1022B0000F900F900F90DF91CF911F910F91FF9092
:1022C000EF90DF90CF90BF90AF909F908F907F90D6
:1022D0006F905F904F903F902F90089561E0C701FD
:1022E0000E942A0F882309F456CFDECFCF93DF93C5
:1022F0001F92CDB7DEB7698341E050E0BE016F5F4A
:102300007F4F0E94DB0F0F90DF91CF910895FC016A
:10231000DB0112968D919C911397938382838BE4BA
:1023200091E09183808314968C9114978483159601
:102330008C911597858316964D915D916D917C9149
:10234000199746835783608771871A964D915D91DF
:102350006D917C911D9742875387648775871E9680
:102360004D915D916D917C91519746875787608B18
:10237000718B52968C915297828B53964D915D91B1
:102380006D917C915697438B548B658B768B5796CA
:102390004D915D916D917C915A97478B508F618FD4
:1023A000728F5B968D919C91948F838F0895FC0121
:1023B000818D928D009719F061E00C942A0F089599
:1023C000DC015996ED91FC913097B9F0838994899D
:1023D000A589B6894285538564857585841B950BCF
:1023E000A60BB70B811520E89207A105B10538F0BF
:1023F0008FEF9FE7A0E0B0E0089590E080E00895BF
:10240000DC0159968D919C91009739F0DC01ED919A
:10241000FC910480F581E02D099490E080E008951E
:10242000CF93DF93EC01E98DFA8D309749F481E089
:1024300090E09B838A8390E080E0DF91CF910895C4
:1024400013821282898D9A8D0E94DB0FE98DFA8D9D
:1024500022813381232B59F7F0CFCF93DF931F9243
:10246000CDB7DEB76983DC01ED91FC910280F38189
:10247000E02D41E050E0BE016F5F7F4F09950F9066
:10248000DF91CF910895CF93DF931F92CDB7DEB741
:1024900041E050E0BE016F5F7F4F0E94230E019725
:1024A00031F4898190E00F90DF91CF9108958FEF03
:1024B0009FEFF9CFFC01818D928D009711F00C9464
:1024C00043128FEF9FEF08950F931F93CF93DF93E6
:1024D000EC01898D9A8D10E000E0009799F00E9440
:1024E00043128C010F3F100769F0898D9A8DFC0112
:1024F000428553856485758541505109610971098B
:102500000E948F0CC801DF91CF911F910F91089508
:102510000E948F041092AB048093AA040895EF9256
:10252000FF920F931F93CF93DF938C01C62FE42E5E
:1025300084E1F82ED2E1683020F0C85095E1F92E00
:10254000D3E1F801808180620E9442018F2D0E94B8
:10255000D10589E995E00E94D605F8018081806265
:1025600061E070E090E00E9488120E945F0121E02B
:1025700030E001C0220FCA95EAF7F1E0C82FC22B64
:10258000EF1619F02095C22FC823F80180818062D0
:102590000E9442018D2F0E94D1058C2F0E94D105EF
:1025A00089E995E0DF91CF911F910F91FF90EF9016
:1025B0000C94D605FC01962F828D8F3F31F060314F
:1025C00040F4CF014B960C948F12642F892F0C94FA
:1025D0001D030895CF93DF93C82FD1E082FB4427DA
:1025E00040F94D2768E081E596E00E948F12C1FB1B
:1025F000442740F94D2767E081E596E00E948F125D
:102600004C2F4095417066E081E596E0DF91CF91D7
:102610000C948F12FF920F931F93CF93DF938C0133
:10262000C62FF42ED0E0683010F0C850D1E0F80189
:10263000808180620E9442018D2F0E94D10589E92C
:1026400095E00E94D605F8018081806261E070E02B
:1026500090E00E9488120E945F0121E030E001C0FA
:10266000220FCA95EAF7C82FC22BFF2019F0209538
:10267000C22FC823F801808180620E9442018D2F01
:102680000E94D1058C2F0E94D10589E995E0DF9148
:10269000CF911F910F91FF900C94D605603110F4EB
:1026A0000C940A130895CF9381E60E94420162E0E0
:1026B00070E080912506909126060E94FE0362E05C
:1026C00070E080912506909126060E94FE0380917D
:1026D0002506909126060E94D605882321F090E0D9
:1026E00080E0CF91089562E081E60E948F0410920D
:1026F000AB048093AA048091250690912606DC0104
:10270000ED91FC910084F185E02D0995892B39F339
:102710008091250690912606DC01ED91FC910284C2
:10272000F385E02D0995C82F809125069091260606
:10273000DC01ED91FC910284F385E02D099520E008
:102740003C2FA901482BCA01CCCF2F923F924F9228
:102750005F926F927F928F929F92AF92BF92CF9231
:10276000DF92EF92FF920F931F93CF93DF9300D0EE
:10277000CDB7DEB70E9453130197B1F080E00F9000
:102780000F90DF91CF911F910F91FF90EF90DF900D
:10279000CF90BF90AF909F908F907F906F905F9001
:1027A0004F903F902F90089581E60E9442018091C2
:1027B000250690912606DC01ED91FC910190F081B7
:1027C000E02D63E009958091250690912606DC01B5
:1027D000ED91FC910190F081E02D60E009958091F0
:1027E0002506909126060E94D6058111C7CF62E189
:1027F00081E60E948F041092AB048093AA0480911A
:10280000250690912606DC01ED91FC910084F1856E
:10281000E02D0995892B09F4B1CF212CC12CD12CA5
:102820007601812C912C5401412C512C320110E065
:1028300033E0332E8091250690912606DC01ED9140
:10284000FC910284F385E02D0995082F113108F0E1
:1028500059C0E12FF0E0E15DFB4E0C94742E401462
:102860004014821440144014821476147614821496
:102870007614761482147C147C1482147C147C14D8
:10288000762C652C542C4424482A812F632D0E94D9
:10289000132EE1E0F0E0EC0FFD1FE90FF11D0083C6
:1028A0001F5F123109F0C6CF211068CF4092270672
:1028B000509228066092290670922A0680922B0672
:1028C00090922C06A0922D06B0922E06C0922F0652
:1028D000D0923006E0923106F09232061092330622
:1028E000109234061092350681E049CFBA2CA92CFB
:1028F000982C8824802AC9CFFE2CED2CDC2CCC24EB
:10290000C02AC3CFCE0101960E94C801081741F228
:1029100022242394C5CFCF93C82F88E60E9442017A
:102920006C2F89E995E00E94A20589E995E00E9453
:10293000D60561E088E60E948F041092AB04809374
:10294000AA040E945F01CF910895CF93DF93EC0119
:1029500040E06E810E94DA1241E06E81CE010E9459
:10296000DA1240E06E81CE010E94DA128BE891E02B
:102970000197F1F7DF91CF910895AF92BF92CF9277
:10298000DF92EF92FF920F931F93CF93DF93EC01AF
:102990008A8D8E01095F1F4FC62ED12C8F3F09F4FF
:1029A0007EC07E018BE1E80EF11C8B8D80620E945F
:1029B000420182E10E94D10589E995E00E94D60595
:1029C0008B8D806262E070E090E00E9488120E942D
:1029D0005F01B82E0E945F0160E0782FCB018B2948
:1029E000F80130E020E001E010E04191B801042E50
:1029F00002C0660F771F0A94E2F7609570958623F0
:102A00009723B601022E02C0759567950A94E2F7E6
:102A10006170772702C0660F771F4A95E2F7862B11
:102A2000972B2F5F3F4F24303105F9F62E81680137
:102A300002C0CC0CDD1C2A95E2F7C094D094C822C9
:102A4000D922B601C7010E9414078E81B80102C0C5
:102A5000660F771F8A95E2F7C62AD72AB601C70103
:102A60000E9414078E81B80102C0660F771F8A95F5
:102A7000E2F7609570956C217D21C7010E941407D3
:102A80008BE891E00197F1F7DF91CF911F910F91C2
:102A9000FF90EF90DF90CF90BF90AF900895F12C12
:102AA000E12C5E01EBE1AE0EB11CF80181918F01CA
:102AB0009A8D9F3F39F141E0682FC5010E944E1366
:102AC000A6010E2C02C0559547950A94E2F7417075
:102AD000F80131976081CE010E94DA12FFEFEF1A00
:102AE000FF0A84E0E816F10401F7CE01DF91CF91EF
:102AF0001F910F91FF90EF90DF90CF90BF90AF901C
:102B00000C94A5140E947201DBCFAF92BF92CF92BA
:102B1000DF92EF92FF920F931F93CF93DF93EC011D
:102B2000F62E6C810E94DA126D816F3F21F040E039
:102B3000CE010E94DA120F2D10E08C8984FF3AC07A
:102B40006E0187E0C80ED11CF12CE12C5E01EBE197
:102B5000AE0EB11CF60181916F019A8D9F3F39F144
:102B600041E0682FC5010E944E13A8010E2C02C03F
:102B7000559547950A94E2F74170F60131976081C7
:102B8000CE010E94DA12FFEFEF1AFF0A88E0E81682
:102B9000F10401F7CE01DF91CF911F910F91FF90CA
:102BA000EF90DF90CF90BF90AF900C94A5140E944F
:102BB0007201DBCFB80184E0759567958A95E1F7DE
:102BC000CE010E94BD146F2DCE01DF91CF911F91D8
:102BD0000F91FF90EF90DF90CF90BF90AF900C944B
:102BE000BD1440E0682F86E396E00C948515CF93E2
:102BF000DF93CDB7DEB728970FB6F894DEBF0FBED0
:102C0000CDBF88E0EBE1F1E0DE01119601900D927D
:102C10008A95E1F780914E06811117C08FEF90E001
:102C2000880F991F21E030E02C0F3D1F820F931F6A
:102C3000FC018081806828960FB6F894DEBF0FBE35
:102C4000CDBFDF91CF910C94F11581E0E8CF81E009
:102C50000E94F1158BE39FE10197F1F7089541E0A0
:102C60000E94851581E090E00895CF92DF92EF9267
:102C7000FF921F93CF93DF93EC0180E2689FF001F6
:102C80001124EC55FD4F9385917161F0842F82746E
:102C900049F080E0DF91CF911F91FF90EF90DF909E
:102CA000CF900895142F6A8B8091000190910101BB
:102CB000A0910201B09103018E879F87A88BB98BE9
:102CC000C488D588F12CE12C7601DD24CC24CF8A70
:102CD000D88EE98EFA8E828D938DB0E0A0E0AC01A3
:102CE000BD014C295D296E297F294F8B588F698F33
:102CF0007A8F83858871B1F4848D958DA68DB78D7B
:102D00008B8B9C8BAD8BBE8B81E08D831F701C8366
:102D10001E821F82188619861A861B861C861D86AF
:102D200081E0B8CF803109F0B4CF9E012D5E3F4FD6
:102D30008B8D9C8D0E94D00B882309F4AACF84E050
:102D4000E4CFCF93DF93EC0184E090E00E943C2C31
:102D5000FC0113821282009729F1D183C083209154
:102D60000206309103062F5F3F4F4091FA055091C4
:102D7000FB05452B81F49093FB058093FA05909316
:102D8000FD058093FC05309303062093020681E045
:102D9000DF91CF910895E091FC05F091FD059383BB
:102DA0008283EDCF80E0F4CFCF93C82F83E090E013
:102DB0000E943C2CFC0112821182009719F1C08301
:102DC0002091F8053091F9052F5F3F4F4091F005B4
:102DD0005091F105452B79F49093F1058093F0051E
:102DE0009093F3058093F2053093F9052093F8054D
:102DF00081E0CF910895E091F205F091F30592837F
:102E00008183EECF80E0F5CFFB0101900020E9F750
:102E10003197AF01461B570BDC01ED91FC9102800D
:102E2000F381E02D09948F929F92AF92BF92EF921F
:102E3000FF920F931F93CF93DF93CDB7DEB7A19788
:102E40000FB6F894DEBF0FBECDBF7C01FA01CB01F7
:102E500019A2223008F42AE08E010F5D1F4F822E46
:102E6000912CB12CA12CBF01A50194010E94332EFD
:102E7000F901CA016A300CF5605DD8016E938D01CD
:102E8000232B242B252B79F790E080E0109721F05D
:102E9000BD01C7010E940417A1960FB6F894DEBFCA
:102EA0000FBECDBFDF91CF911F910F91FF90EF909B
:102EB000BF90AF909F908F900895695CDECF462FB2
:102EC00050E070E060E02AE00C941317CF92DF929C
:102ED000EF92FF920F931F93CF93DF936B01770FC6
:102EE000EE08FF08F7FE1BC0EC016DE20E94E50151
:102EF0008C0144275527BA014C195D096E097F09D9
:102F00002AE0CE010E941317800F911FDF91CF910D
:102F10001F910F91FF90EF90DF90CF9008952AE0DE
:102F2000B701A601DF91CF911F910F91FF90EF9014
:102F3000DF90CF900C9413178130910591F01CF421
:102F4000892B39F0089582309105E9F0039759F102
:102F500008950E94271669E870E086E396E00C94D5
:102F6000EC010E94271660E870E086E396E00E947C
:102F7000EC010E94F715609106017091070186E34C
:102F800096E00C9466170E94271668E770E086E3C7
:102F900096E00E94EC010E94F7156091050186E31E
:102FA00096E00C945F170E94271660E770E086E3B6
:102FB00096E00E94EC010E94F71560910401EFCFAA
:102FC00061E771E00C940417CF93DF93BC018CEFA1
:102FD00094E00E940417EC018CEF94E00E94E0174B
:102FE0008C0F9D1FDF91CF9108950F931F93CF9367
:102FF000DF93EC010E94EC018C01CE010E94E017EE
:10300000800F911FDF91CF911F910F91089561154E
:10301000710511F00C94041790E080E00895FC0114
:1030200080819181009711F00C94D82C0895CF9352
:10303000DF93EC01898D9A8D009741F00E94CE0FAD
:10304000898D9A8D0E94D82C1A8E198EDF91CF917E
:1030500008950F931F93CF93DF93EC01888199819B
:10306000009759F02A813B812617370730F081E01D
:10307000DF91CF911F910F9108958B016F5F7F4F6B
:103080000E948E2E009759F0998388831B830A83B0
:103090002C813D81232B59F7FC011082E8CF80E081
:1030A000E7CFEF92FF920F931F93CF93DF9300D060
:1030B000CDB7DEB78C01FC0111821082138212821F
:1030C0001582148270E060E00E942918F8012081C6
:1030D000318181112FC02115310519F0C9010E94DC
:1030E000D82CF80111821082158214821382128268
:1030F0000E94CC0397FD26C089831A82F801E480E0
:10310000F580FFEFEF1AFF0AB701C8010E942918E6
:10311000882371F3F8012081318184819581BE017A
:103120006F5F7F4F820F931F0E946C2FF801F58213
:10313000E482DECF1582148263E771E0C9010E9448
:103140006C2FD6CFC8010F900F90DF91CF911F91B8
:103150000F91FF90EF90089585ED8093BC008091D2
:10316000F4049091F504A091F604B091F704079649
:10317000A11DB11D23E0B695A795979587952A9532
:10318000D1F72091BC0024FD03C01092F2040895F1
:103190004091F4045091F5046091F6047091F704A5
:1031A000452B462B472B69F30097A105B10541F04C
:1031B00025E32A95F1F700000197A109B109E1CFB4
:1031C0008091F3040C946E043F924F925F926F9241
:1031D0007F928F929F92AF92BF92CF92DF92EF92A7
:1031E000FF920F931F93CF93DF93CDB7DEB72B974B
:1031F0000FB6F894DEBF0FBECDBF7C01DC01159683
:103200008C91811115C0FE013196CE010C966F0193
:1032100030E23193E817F907E1F7DA0130E087E0AF
:103220009D91B92E992329F19E3239F48A3011F4F7
:1032300080E0E4C038E08AE0F3CFEAE9F0E04491CE
:10324000442321F031969413FACFF2CF831780F301
:103250004FED490F4E3560F74FE9490F4A3118F4E9
:1032600040EEB42EB90EF601E30FF11DB0823F5FC0
:10327000D7CF89818032E1F2322E8B01FB01838D21
:10328000948DD7015C969C938E935B9716821782E0
:10329000108611861286138614861586F80182859B
:1032A0009385A485B5854389548965897689841772
:1032B0009507A607B70708F04DC025E0B695A79576
:1032C000979587952A95D1F7F82FFF70AF2ED801E3
:1032D00015968C91823008F4ABCFC8010E9443123E
:1032E00097FDA6CFF80182859385A485B5854F9675
:1032F000A11DB11D82879387A487B587F0E2AF9E99
:10330000B00111246C557D4F6115710509F490CF02
:10331000DB018C91882341F0853E09F062C0BB201F
:1033200029F0BB24B394BACFB1100EC0F701A28A22
:103330008091000190910101A0910201B0910301DF
:1033400086879787A08BB18BDB018C918111E9CFA8
:10335000BB24B394832D8271823109F069CFBB20E5
:1033600009F464C0F701668577858089918941E019
:103370000E943A09882309F45BCFD70152968C91B9
:10338000B0E28B9FC00111248C559D4F009709F42A
:103390004FCFFC013A9626E1DF011D922A95E9F70D
:1033A0002BE0F601DC0101900D922A95E1F721E274
:1033B00038E2FC01318B208B40E058E0578746878C
:1033C000338B228B318F208F578B468B81E00E946D
:1033D0000F09882309F42CCF432DD70152966C9105
:1033E0000AC04BE050E0C6010E944B2F892B09F028
:1033F00055CF432D6A2DC7010E9435162B960FB667
:10340000F894DEBF0FBECDBFDF91CF911F910F911A
:10341000FF90EF90DF90CF90BF90AF909F908F90F4
:103420007F906F905F904F903F900895F801858155
:10343000823009F4FDCEC8010E94230D882309F4CF
:10344000F7CED8015B96ED91FC915C9716968D9026
:103450009D90AD90BC901997B2E08B1A9108A1088D
:10346000B108858504C0880C991CAA1CBB1C8A95D0
:10347000D2F786859785A089B189880E991EAA1EE4
:10348000BB1E848124013501480E511C611C711C36
:1034900084149504A604B70409F1E1E04E1A51081A
:1034A0006108710881E00E940F09882309F4C0CEE9
:1034B000E4EAF2E0119284EA94E08E179F07D1F7D4
:1034C000409200015092010160920201709203014A
:1034D00080911202816080931202DACFD8015B964C
:1034E000ED91FC91258580E092E0A0E0B0E004C081
:1034F000880F991FAA1FBB1F2A95D2F7F80143898D
:10350000548965897689840F951FA61FB71F838B01
:10351000948BA58BB68BD70152961C9284EA92E0CD
:1035200038CFEF92FF920F931F93CF93DF93EC016D
:103530007B018A011B821A8288EE93E0A0E0B0E052
:103540008C839D83AE83BF8387E591E099838883D5
:103550008DE190E00E943C2C9A8F898F009779F042
:103560002DE1F701DC0101900D922A95E1F74CE085
:1035700050E0B801CE010C960E94732F188EDF9197
:10358000CF911F910F91FF90EF9008952F923F924E
:103590004F925F926F927F928F929F92AF92BF9263
:1035A000CF92DF92EF92FF920F931F93CF93DF930F
:1035B000CDB7DEB7C756D1090FB6F894DEBF0FBE40
:1035C000CDBF5C013B01A6964FAFA69719A218A2EA
:1035D0008BE491E09F8F8E8F1BA21C821B829A83AB
:1035E00089831E824E018EE1880E911CC4010E94C7
:1035F0003B0C63018E010F5F1F4F240118016FE226
:1036000070E0C6010E94612F009709F459C0F601CD
:1036100020812F3271F4FFEFCF1ADF0A902F812F14
:103620008201492E582E942D852D2801092F182FFF
:10363000E6CF8C198D3008F08CE0E82EF12CA70134
:10364000B601CE01885A9F4F0E94732FE8E5F0E043
:10365000EC0FFD1FEE0DFF1D1082C8010E94CE0F62
:1036600021E0AE01485A5F4FB201C8010E94E41840
:10367000811120C01EAE1DAE8BE491E09CAF8BAFDC
:1036800021961FAE2197A896EEADFFADA8976E0EBE
:103690007F1EF3018081811120C0BE01655C7F4FD8
:1036A000C1010E94871144E751E0B101C5010E94A8
:1036B000911A31C0CE0CDF1CC2010E94CE0FB3CFD5
:1036C000C60186199709A8969FAF8EAFA897B20139
:1036D000CE01CB960E948711D6CF19A218A28BE4F7
:1036E00091E09F8F8E8F1BA221968FAD2197811124
:1036F0002DC0F5011382128288EE93E0A0E0B0E0C5
:1037000084839583A683B78387E591E09183808343
:10371000128E118E1486C501C959DF4F0FB6F89469
:10372000DEBF0FBECDBFDF91CF911F910F91FF90F4
:10373000EF90DF90CF90BF90AF909F908F907F9051
:103740006F905F904F903F902F900895A6962FAD69
:10375000A697A301BE01655C7F4FC4010E94E418D7
:10376000882339F2CE01CB960E94CE0FA6968FAD5C
:10377000A6978670863039F449A95AA96BA97CA905
:10378000C4010E948F0CB401C1010E948711A301E2
:103790008CCF1F920F920FB60F9211242F933F934D
:1037A0004F935F936F937F938F939F93AF93BF9349
:1037B000EF93FF938CEF94E00E948E02FF91EF91C4
:1037C000BF91AF919F918F917F916F915F914F9139
:1037D0003F912F910F900FBE0F901F9018951F9241
:1037E0000F920FB60F9211242F938F939F93EF9305
:1037F000FF93E0910C05F0910D058081E091120599
:10380000F091130582FD1BC09081809115058F5F9B
:103810008F7320911605821741F0E0911505F0E0B5
:10382000E450FB4F958F80931505FF91EF919F9189
:103830008F912F910F900FBE0F901F901895808140
:10384000F4CF1F920F920FB60F9211242F933F9334
:103850008F939F93AF93BF9380917C0290917D0251
:10386000A0917E02B0917F0230917B0223E0230F72
:103870002D3758F50196A11DB11D20937B02809331
:103880007C0290937D02A0937E02B0937F02809190
:10389000800290918102A0918202B09183020196F0
:1038A000A11DB11D8093800290938102A09382029A
:1038B000B0938302BF91AF919F918F913F912F91D0
:1038C0000F900FBE0F901F90189526E8230F0296B9
:1038D000A11DB11DD2CF1F920F920FB60F921124CE
:1038E0002F933F934F935F936F937F938F939F9308
:1038F000AF93BF93EF93FF938091B900887F803699
:1039000009F44AC0F0F5883209F4A7C018F58031EF
:1039100009F49BC0B8F4882309F4F9C0883009F48D
:1039200094C0FF91EF91BF91AF919F918F917F9143
:103930006F915F914F913F912F910F900FBE0F901C
:103940001F901895883109F488C0803251F7809310
:10395000D00414C0803409F49DC040F48033B9F31E
:103960008833F9F68093D00485ECB0C0803509F433
:1039700085C0883509F496C0883499F60E94AC1841
:10398000D0CF883909F48CC038F5883729F050F445
:10399000883611F0803729F683E08093F204109284
:1039A0007A0257C0883809F47BC0803919F0803812
:1039B00009F0B7CF80917A02803208F071C0E091AF
:1039C0007A0281E08E0F80937A028091BB00F0E052
:1039D000E65AFD4F80833DC0803B39F0E0F4803AE9
:1039E00009F479C0883A09F09CCF84E08093F2040E
:1039F0001092590210925802E091A804F091A90483
:103A000009958091580281110FC081E0809358027E
:103A10001092380209C0803C09F4A6CF883C09F412
:103A2000A3CF883B09F07DCFE091590281E08E0F52
:103A300080935902F0E0E85CFD4F80818093BB00E9
:103A4000909159028091580229C08091CD048093B1
:103A5000BB0085EC8093BC0064CF9091CF04809133
:103A6000CE04981758F5E091CF0481E08E0F809333
:103A7000CF04F0E0E455FB4F8081E9CFE091CF0423
:103A800081E08E0F8093CF048091BB00F0E0E4557D
:103A9000FB4F80839091CF048091CE049817C8F299
:103AA00085E8D8CFE091CF0481E08E0F8093CF04DA
:103AB0008091BB00F0E0E455FB4F80838091D104FE
:103AC00081115CCF81E08093CC0484EA8093BC00B8
:103AD0001092F20426CF85EC8093BC001092F20481
:103AE00080917A02803230F4E0917A02F0E0E65A76
:103AF000FD4F108260917A0270E0E091A604F0918F
:103B0000A7048AE592E0099510927A020ACF1092F2
:103B1000D00434CFEC0168E670E08CEF94E00E94B2
:103B2000EC01CE010E94E41761E085E00E941D03D4
:103B3000FFCF1092FF041092FE0448EE53E060E0C5
:103B400070E0409300055093010560930205709367
:103B5000030587E291E09093FD048093FC0485ECDB
:103B600090E0909309058093080584EC90E0909391
:103B70000B0580930A0580EC90E090930D058093EF
:103B80000C0581EC90E090930F0580930E0582EC7C
:103B900090E0909311058093100586EC90E090934F
:103BA00013058093120510921505109216051092B8
:103BB00017051092180510929C0510929B054093D2
:103BC0009D0550939E0560939F057093A00589E322
:103BD00091E090939A058093990580E58093A505DF
:103BE0001092A6051092AC051092AD051092B0058A
:103BF0001092B20582E090E0A0E0B0E08093B305BF
:103C00009093B405A093B505B093B6051092CA057C
:103C10001092D4051092D3058BE491E09093D205D5
:103C20008093D1051092D60510923906109238066D
:103C300089E691E0909337068093360610925006FD
:103C400010924A068FE080933A068EE080933B06FE
:103C50008DE080933C068CE080933D068BE0809362
:103C60003E068AE080933F0689E0809340061092EA
:103C7000450681E08093460692E09093470693E0E4
:103C80009093480694E0909349061092270610926C
:103C900028061092290610922A0610922B061092DE
:103CA0002C0610922D0610922E0610922F061092BE
:103CB00030061092310610923206809333068093BC
:103CC00034068093350610920D0610920C06409330
:103CD0000E0650930F06609310067093110687E549
:103CE00091E090930B0680930A061092240610929E
:103CF00023061092160610920906109208061092DA
:103D0000070610920406E1E2F2E081E08C3049F00F
:103D10009491823009F49F5F21E0280F3196992316
:103D200091F18093050681E0809306061092FB05D1
:103D30001092FA051092FD051092FC0510920306F0
:103D4000109202062FEF3FEF3093010620930006FA
:103D50008CE090E09093FF058093FE051092F105B2
:103D60001092F0051092F3051092F2051092F905E9
:103D70001092F8053093F7052093F6059093F5051A
:103D80008093F4050895822FC1CFCF93DF93CDB7F1
:103D9000DEB7C15BD1090FB6F894DEBF0FBECDBF51
:103DA000789484B5826084BD84B5816084BD85B516
:103DB000826085BD85B5816085BD80916E00816022
:103DC00080936E00109281008091810082608093C8
:103DD00081008091810081608093810080918000CA
:103DE0008160809380008091B10084608093B100F5
:103DF0008091B00081608093B00080917A008460EF
:103E000080937A0080917A00826080937A0080911A
:103E10007A00816080937A0080917A008068809334
:103E20007A001092C100E0910C05F0910D0582E03E
:103E30008083E0910805F09109051082E0910A0560
:103E4000F0910B058FEC808310921405E091100522
:103E5000F091110586E08083E0910E05F0910F0549
:103E6000808180618083E0910E05F0910F05808153
:103E700088608083E0910E05F0910F058081806855
:103E80008083E0910E05F0910F0580818F7D808306
:103E900085E00E94720186E00E94720182E00E9429
:103EA000720183E00E94720184E00E94720161E06D
:103EB00084E00E941D0366E871E08CEF94E00E94AC
:103EC000EC018AE00E9472018091D605882321F0DE
:103ED00081ED95E00E94CE0F1092B2051092B005D0
:103EE0001092AD051092AC058AE08093AB050E945C
:103EF000C0038B018091AB050E94720161E080914B
:103F0000AB050E941D03FFB6F894809184028111D5
:103F100024C0E3E0F2E08491E7E1F2E09491E82F3D
:103F2000F0E0EE0FFF1FE151FE4FA591B491EC912F
:103F3000E92321F461E08AE00E941D038AE00E94E7
:103F400072018CB580618CBD8CB580648CBD8DE0B8
:103F50000E9472018BE00E947201809184028F5F47
:103F600080938402FFBE82E58093A5051092A6058A
:103F70008091A5059091A6050E9465077AE0F72E2D
:103F80008FEF0E944007FA94F110FACF87EA95E08C
:103F90000E94680720E030E0A90160E087EA95E030
:103FA0000E947E07F82E8093B10521E0821791F0E0
:103FB0000E94C003601B710B613D774058F381E0A4
:103FC0008093AC0587EA95E00E94350786E791E08B
:103FD0000E948A1D2AEA31E040E050E068E087EA6A
:103FE00095E00E947E0782FF2BC0F092B20580917F
:103FF000B205812C912CA12C50E4B52E823019F001
:10400000812C912C540120E030E0A90167E387EA7C
:1040100095E00E947E07A501940169E287EA95E098
:104020000E947E07E82E8093B1058823D1F00E947C
:10403000C003601B710B613D774028F388E0C0CF5F
:1040400064E0E62E0E9447078093B105EA94E110F0
:10405000F9CF8A3A11F082E0B3CF82E08093B205C3
:10406000C6CF8091B2058230D1F420E030E0A901C2
:104070006AE387EA95E00E947E07882311F086E0D4
:104080009FCF0E944707807C803C19F483E0809397
:10409000B2050E9447070E9447070E94470787EA28
:1040A00095E00E94350780E58093A5051092A6054E
:1040B00081E00E948409882309F491C081ED95E094
:1040C0000E943B0C882309F481CF64E771E08CEFF8
:1040D00094E00E94F5174BE4A42E41E0B42E3E017B
:1040E0009EE3690E711C8E010F5F1F4F8E2D6AE0DB
:1040F0000E94132E805D80930E01905D90930F01BE
:1041000022961FAE1EAE2297BFAEAEAE24961FAE55
:1041100024971CA21BA2BAA2A9A21EA2212C312C58
:10412000562C472C31EDC32E35E0D32EC101F101C1
:10413000E85FFE4F20812F3209F40196DC01A85F71
:10414000BE4FFE01E55AFF4F30E020E04F014D9198
:104150004F3249F0442339F001962F5F3F4F41938E
:104160002C303105A1F7280D391DF9011082FC0111
:10417000E85FFE4F20812F3209F401961C01885F11
:104180009E4FDC01BC91CF54DF4FB883C15BD04060
:104190001C821B82BA82A9821E8221E0A401B60180
:1041A000C8010E94E418882311F40C94F02BC80174
:1041B0000E94CE0FCF54DF4FE881C15BD040E111A8
:1041C00015C021EDC21625E0D20619F0C6010E94E5
:1041D000CE0FE39434E6E31289CF0C94012C80E0F7
:1041E0000E948409882309F4F1CE68CF21E0A4015C
:1041F000B601852D942D0E94E418982EF1EDCF166E
:10420000F5E0DF0611F40C940F2CC6010E94CE0FCE
:1042100091100C94142C0C94F82B67E671E08CEF41
:1042200094E00E94EC0188E091E00E94E4170E9473
:1042300057040E94570488E60E94420189E995E0EC
:104240000E94D605882319F087EB91E0C1CE88E65D
:104250000E94420162E089E995E00E94A20589E995
:1042600095E00E94D60561E070E088E690E00E944B
:1042700088120E945F01807E9927803E910509F097
:104280002FC082EC91E00E94E4174BE050E06BE518
:1042900071E0C8010E94612DCE010A960E940504BA
:1042A000E82EE981E154E33108F087C20E2E000CBC
:1042B000FF0BE35AFE4D0C94742E6A24DD23DD239C
:1042C0008524DD238824DD23DD23DD23D323DD23A3
:1042D000DD23732482247F24DD23DD23DD237C245E
:1042E00083E00E948B1490E0880F892F881F990B20
:1042F000892B09F0C6CF80E00E948B14F82E85FF31
:1043000012C088E60E94420160E089E995E00E94BF
:10431000A2056F2D6F7D89E995E00E94A20589E9CC
:1043200095E00E94D60561E171E08AE096E00E9486
:10433000F51760ED70E08CEF94E00E94F517809126
:1043400050068F3F09F4B3C00E94570410925106E3
:104350000E9457048091510680620E94420180E0D1
:104360000E94D1058FEF0E94D10589E995E00E9456
:10437000D6058091510680620E94420181E00E9430
:10438000D1058FEF0E94D10589E995E00E94D605FD
:1043900041E068E081E596E00E940A1341E066E0B2
:1043A00081E596E00E940A1341E067E081E596E02E
:1043B0000E940A1387E00E94EA1260913B0666237E
:1043C00029F041E081E596E00E944E1341E06091C2
:1043D0003A0681E596E00E944E1341E060913C066A
:1043E00081E596E00E944E13BDE3CB2EB6E0DB2EB6
:1043F00086E3E82E86E0F82E91E4A92E96E0B92E09
:10440000D6016D916D0141E081E596E00E944E1369
:10441000AC14BD04A9F7ABE3AA2EA6E0BA2E40E087
:10442000F701678581E596E00E944E13D7011F963C
:10443000DC90BFE0BD15A0F1E7E0ED1508F06BC220
:10444000F8EFDF0EFDE0CF2E8091510680620E94D2
:1044500042018C2D0E94D10589E995E00E94D60584
:1044600080915106806261E070E090E00E948812C5
:104470000E945F01982E8091510680620E94420145
:104480008C2D0E94D10581E090E001C0880FDA9464
:10449000EAF789290E94D10589E995E00E94D605AD
:1044A0002FEFE21AF20AAE14BF0409F0B8CF8091E0
:1044B0004A06886080934A0682E080934E061092F6
:1044C0004F068BE39DE00197F1F740E060913A06DB
:1044D00086E396E00E94DA1240E060913C0686E3B3
:1044E00096E00E94DA1260913B066F3F29F040E0AF
:1044F00086E396E00E94DA1280914A0684FD0EC29D
:1045000063E086E396E00E94BD147BE4E72E76E448
:10451000F72EC7010197F1F763E086E396E00E946A
:10452000BD14C7010197F1F763E086E396E00E94AE
:10453000BD1483E592E00197F1F762E086E396E02F
:104540000E94BD1480914A0680620E94F11584E0A9
:1045500080934B068CE00E94F1150E94271682E0A2
:1045600080934C0686E00E94F1156EEB70E086E3C6
:1045700096E00E94EC0180E00E94EA1289E995E051
:10458000909326068093250670E060E080E190E03D
:104590000E94BD06882309F4D7C162E070E080E084
:1045A00096E40E94BD0661E070E086E093E50E941B
:1045B000BD060E9453130197E1F7809134068111E3
:1045C0000E94A51381E08093340660912F067091BC
:1045D000300680913106909132060E94E42D762EAD
:1045E0008091330681110E94A51381E080933306E8
:1045F00060912706709128068091290690912A06DD
:104600000E94E42D4B016B016CE0E62EF12C209111
:10461000F8053091F9058091F4059091F50528177A
:10462000390719F0872D0E94D41620910206309187
:1046300003068091FE059091FF052817390719F0B0
:10464000C6010E94A11631E0E31AF10801F72CE03F
:10465000729EC001112490938B0280938A02289D40
:10466000C001299D900D1124092E000CAA0BBB0B33
:104670008093860290938702A0938802B093890268
:1046800070929D0290929F0280929E0280913506C8
:1046900081110E94A51381E08093350660912B065D
:1046A00070912C0680912D0690912E060E94E42D8B
:1046B00060939A0248EE442E43E0542E612C712CF4
:1046C0005BE5252E312C2C0E3D1E8CE0280E311C76
:1046D0008CEF94E00E946E02181619060CF021C2AD
:1046E0008AE096E00E9417188CEF94E00E944C023A
:1046F000F82E682F8CEF94E00E94E5018CEF94E097
:104700000E94E0178DE0E2E0F2E0DE01A256BF4F2A
:1047100001900D928A95E1F7C555DF4F19821882F5
:10472000CB5AD040C355DF4F19821882CD5AD040A2
:10473000C155DF4F19821882CF5AD04070E060E037
:10474000CE0185559F4F0E942918C555DF4F2881FE
:104750003981CB5AD0408111FAC02115310519F0A9
:10476000C9010E94D82CC555DF4F19821882CB5A37
:10477000D040C155DF4F19821882CF5AD040C3555F
:10478000DF4F19821882CD5AD0408CEF94E00E94FE
:104790006E02892B09F4E7C0C8010E945118C801B4
:1047A0000E940F18F2CF8A81813639F08B8196E012
:1047B000F92E8E3611F087E0F82ECE0105960E9474
:1047C0000504C82E48E050E062E571E0C8010E948F
:1047D000612DC8010E940504B82ECE0104960E94E6
:1047E0000504A82ECE0107960E940504982E88E69F
:1047F0000E94420163E089E995E00E94A2052AE057
:10480000D22E892D6D2D0E94132E682F660F680FF2
:10481000660F690D89E995E00E94A2058A2D6D2D2C
:104820000E94132E682F660F680F660F6A0D89E9C4
:1048300095E00E94A2058B2D6D2D0E94132E682FEE
:10484000660F680F660F6B0D89E995E00E94A2055F
:104850008C2D6D2D0E94132E682F660F680F660F2A
:104860006C0D89E995E00E94A20560E089E995E078
:104870000E94A2058F2D6D2D0E94132E682F660FAA
:10488000680F660F6F0D89E995E00E94A2058E2DD5
:104890006D2D0E94132E682F660F680F660F6E0D28
:1048A00089E995E00E94A20589E995E00E94D60574
:1048B00088E60E94420162E089E995E00E94A20533
:1048C00060E089E995E00E94A20589E995E00E94EF
:1048D000D60511CD8B81B4E0FB2E823709F46DCF64
:1048E000A8E0FA2E6ACF8B81F3E0FF2E823709F41D
:1048F00064CFE5E0FE2E61CF79E0F72E5ECF6AE06F
:10490000F62E5BCF5BE0F52E58CF4CE0F42E55CF62
:1049100032E0F32E52CFECE0CE2E96CD80620E9494
:10492000F1158BE496E40197F1F780914A068062D5
:104930000E94F11583E592E00197F1F780914A0614
:1049400080620E94F115FECD8EEE91E041CBC15503
:10495000DF4F19821882CF5AD04063E771E0C90156
:104960000E946C2F12CF9FE6F91609F418C6A2E731
:10497000FA12C9C041E064E771E0CE018A589F4F46
:104980000E94C61AC157DF4FE881F981CF58D04045
:10499000309709F4A9C08581882309F4A5C0823025
:1049A00040F01682178210861186128613861486AE
:1049B000158627E5C22E21E0D22E3BE4A32E31E05E
:1049C000B32EC157DF4FE880F980CF58D040F701B0
:1049D0008581823008F4A6C582859385A485B58536
:1049E0008F719927AA27BB27892B8A2B8B2B09F03C
:1049F00099C540E250E0BE016F5F7F4FC7010E9442
:104A0000230E803209F08EC58981882309F48AC576
:104A1000853E79F38E3269F38C8583FDEACF229649
:104A20001FAE1EAE2297BFAEAEAE24961FAE249729
:104A3000BE016F5F7F4FE0E080E04EE2DB019D91C1
:104A4000BD019032A1F0883049F421E930E02C0F0B
:104A50003D1F2E0F311DD9014C93EF5F21E930E04E
:104A60002C0F3D1F2E0F311DD9019C93EF5F8F5FDF
:104A70008B3021F721E930E02C0F3D1F2E0F311D27
:104A8000F9011082C157DF4F68817981CF58D0403A
:104A900021E0AE014F565F4FCE01CE960E94E41842
:104AA000882309F43FC5BE01625C7F4FCE01819629
:104AB0000E948711AE014F565F4FBE016F5D7F4F61
:104AC000CE01855A9F4F0E94911AE696EEADFFAD3A
:104AD000E697309719F0858181113AC561EA71E056
:104AE0008CEF94E00E94F517CE018A589F4F0E94E8
:104AF00017188CEF94E00E946E02892B21F08CEF46
:104B000094E00E944C0247E168E071E0C8010E9415
:104B1000C61AC8010E949101CE0185559F4F0E947F
:104B20000F180E94C003C090A002D090A102E09094
:104B3000A202F090A3026C197D098E099F096838C2
:104B400073418105910508F4BBC288E60E944201C9
:104B500063E089E995E00E94A20589E995E00E9459
:104B6000D60567E070E088E690E00E9488120E9417
:104B70005F018F77282F30E074E0359527957A957F
:104B8000E1F7922F990F990FF22EF91AFF0CF80EF8
:104B90000E945F019C01E4E035952795EA95E1F7D5
:104BA0002F703327922F990F990FE22EE91AEE0CEE
:104BB000E80E0E945F019C01F4E035952795FA9577
:104BC000E1F72F703327922F990F990FD22ED91A10
:104BD000DD0CD80E0E945F019C01A4E0359527955D
:104BE000AA95E1F72F703327922F990F990FC22EB4
:104BF000C91ACC0CC80E0E945F010E945F019C0183
:104C0000B4E035952795BA95E1F72F703327922FA9
:104C1000990F990FB22EB91ABB0CB80E0E945F0102
:104C20009C0194E0359527959A95E1F72F703327ED
:104C3000922F990F990F291B220F820F8093040640
:104C4000B0920506C0920606D0920706E0920806CA
:104C5000F09209060E945313019709F0ECC061E03D
:104C600086E00E941D038091330681110E94A513E6
:104C700081E0809333066091270670912806809129
:104C8000290690912A060E94E42D4B01809102068C
:104C900090910306892B09F44AC58091FA059091F9
:104CA000FB05009709F443C5DC0112962D913C9158
:104CB00013973093FB052093FA05ED90FC900E942A
:104CC000D82C8091FA059091FB05892B21F4109244
:104CD000FD051092FC058091020690910306019754
:104CE0009093030680930206C701FF0CAA0BBB0B2F
:104CF000C0908602D0908702E0908802F0908902EE
:104D0000C81AD90AEA0AFB0AC0928602D092870220
:104D1000E0928802F0928902209102063091030607
:104D20008091FE059091FF052817390719F0C401FD
:104D30000E94A116092C000CAA08BB08C501B401E9
:104D40006C0D7D1D8E1D9F1D6093860270938702E2
:104D500080938802909389022CE030E040E050E09C
:104D60000E94552E30939F0220939E02809134061C
:104D700081110E94A51381E08093340660912F0673
:104D80007091300680913106909132060E94E42D98
:104D9000D62E8091F8059091F905892B09F4CAC4A3
:104DA0008091F0059091F105009709F4C3C4FC01CE
:104DB000218132813093F1052093F005F0800E942B
:104DC000D82C8091F0059091F105892B21F4109257
:104DD000F3051092F2058091F8059091F90501977D
:104DE0009093F9058093F80580918A0290918B0247
:104DF0009C012F193109790130938B0220938A028B
:104E00002091F8053091F9058091F4059091F50510
:104E10002817390719F08D2D0E94D416C7018D0D62
:104E2000911D90938B0280938A026CE070E00E9447
:104E30001F2E60939D0280919C02811118C02091C9
:104E40009E0230919F028091060190910701821786
:104E5000930734F090919D0280910501981738F4E2
:104E600081E080939C0260E082E00E941D038091BB
:104E70009C02882329F180910601909107018057B7
:104E80009E4F97FD01969595879520919E023091B2
:104E90009F0228173907A4F420919D0280910501F3
:104EA00090910401890F9927991F95958795281747
:104EB000190634F010929C0261E082E00E941D030A
:104EC00080919B0281110DC090919D0280910501FE
:104ED000981738F481E080939B0260E083E00E94A1
:104EE0001D0380919B028823A1F020919D02809157
:104EF000050190910401890F9927991F9595879530
:104F00002817190634F010929B0261E083E00E949A
:104F10001D0362E28CEF94E00E94E50140910406DB
:104F200050E04053584F70E060E02AE08CEF94E08E
:104F30000E94131764E771E08CEF94E00E94071859
:104F4000609105068CEF94E00E945F1764E771E0C2
:104F50008CEF94E00E940718609106068CEF94E0B5
:104F60000E945F176EEF71E08CEF94E00E940718CB
:104F7000609107068CEF94E00E945F176BEF71E081
:104F80008CEF94E00E940718609108068CEF94E083
:104F90000E945F176BEF71E08CEF94E00E9407189E
:104FA000609109068CEF94E00E945F1762E28CEF3B
:104FB00094E00E94E5016DEF71E08CEF94E00E94B7
:104FC000071860919E0270919F028CEF94E00E94FE
:104FD00066176DEF71E08CEF94E00E940718609106
:104FE0009A028CEF94E00E945F176DEF71E08CEFF6
:104FF00094E00E94071860919D028CEF94E00E945B
:105000005F176DEF71E08CEF94E00E9407186091DC
:105010009C0270E08CEF94E00E9466176DEF71E0E7
:105020008CEF94E00E94071860919B0270E08CEF77
:1050300094E00E9466176DEF71E08CEF94E00E949F
:10504000071860910601709107018CEF94E00E94AF
:1050500066176DEF71E08CEF94E00E940718609185
:1050600005018CEF94E00E945F176DEF71E08CEF0B
:1050700094E00E940718609104018CEF94E00E9474
:105080005F176DEF71E08CEF94E00E94071880913C
:10509000520690915306B801681B790B8CEF94E08F
:1050A0000E9466178CEF94E00E94E0170E94C003F4
:1050B0006093A0027093A1028093A2029093A30236
:1050C0000E94C003C0909602D0909702E090980290
:1050D000F09099026C197D098E099F0960367A4E0D
:1050E0008105910508F4DBC00E94C003609396021D
:1050F00070939702809398029093990262E28AE0FB
:1051000096E00E94E5014091040650E04053584F5C
:1051100070E060E02AE08AE096E00E94131764E7FE
:1051200071E08AE096E00E940718609105068AE027
:1051300096E00E945F1764E771E08AE096E00E94C3
:105140000718609106068AE096E00E945F176EEFEE
:1051500071E08AE096E00E940718609107068AE0F5
:1051600096E00E945F176BEF71E08AE096E00E9484
:105170000718609108068AE096E00E945F176BEFBF
:1051800071E08AE096E00E940718609109068AE0C3
:1051900096E00E945F1762E28AE096E00E94E501D5
:1051A0006DEF71E08AE096E00E94071860919E0220
:1051B00070919F028AE096E00E9466176DEF71E0A1
:1051C0008AE096E00E94071860919A028AE096E0D1
:1051D0000E945F176DEF71E08AE096E00E94071869
:1051E00060919D028AE096E00E945F176DEF71E08A
:1051F0008AE096E00E94071860919C0270E08AE0C5
:1052000096E00E9466176DEF71E08AE096E00E94DA
:10521000071860919B0270E08AE096E00E94661792
:105220006DEF71E08AE096E00E9407186091060138
:10523000709107018AE096E00E9466176DEF71E0B9
:105240008AE096E00E940718609105018AE096E0E6
:105250000E945F176DEF71E08AE096E00E940718E8
:10526000609104018AE096E00E945F176DEF71E0A3
:105270008AE096E00E9407188091520690915306AA
:10528000B801681B790B8AE096E00E9466178AE0F5
:1052900096E00E94E01760E086E00E941D03809186
:1052A00095028823C1F00E94C003C0909102D09063
:1052B0009202E0909302F09094026C197D098E099D
:1052C0009F0969397A438105910528F0109295026A
:1052D00080E00E94EA1225E4E22E26E0F22ED12C94
:1052E000C12C3FE1B32EAC2CF70191907F01FFE080
:1052F00080E0F91530F127E082E1882E291520F4AD
:1053000038EF930E93E1892E8091510680620E94BE
:105310004201882D0E94D10589E995E00E94D605B9
:1053200080915106806261E070E090E00E948812F6
:105330000E945F01992702C0959587959A94E2F79C
:10534000817090E002C0880F991FAA94E2F78095BF
:105350009095B8228FEFC81AD80A95E0C916D104E3
:1053600011F6BB2009F4A8C0B3FE16C080919002CC
:10537000813009F0E1C1209106013091070120310F
:10538000A7E23A0734F42C593F4F3093070120939A
:10539000060190E00E949C17B2FE16C08091900218
:1053A000813009F0EBC120910601309107012139CC
:1053B000B1E03B0734F024563109309307012093C4
:1053C000060190E00E949C17B4FE14C080919502E3
:1053D0008111F2C185E00E94EA1281E0809395027A
:1053E0000E94C00360939102709392028093930293
:1053F00090939402B1FE0CC0809190028111E2C1A1
:1054000081E0809390028091900290E00E949C172E
:10541000B0FE4CC00E94271668EC71E086E396E06F
:105420000E94EC0160919E0270919F0286E396E0DB
:105430000E94661764EC71E086E396E00E94EC013E
:105440000E94F7156EEB71E086E396E00E94EC0196
:1054500060919A0286E396E00E945F176CEB71E020
:1054600086E396E00E94EC0167EB71E086E396E04C
:105470000E94EC0160919D0286E396E00E945F1716
:1054800060E072E086E396E00E94071868EB7BE03C
:1054900080E090E00E948E03109290020E942716F6
:1054A00065EA71E086E396E00E94EC0168EC70E04A
:1054B00080E090E00E948E0360E086E00E941D0381
:1054C0000E94C003C0908C02D0908D02E0908E02AA
:1054D000F0908F026C197D098E099F09603E734917
:1054E0008440910590F00E94C00360938C027093F9
:1054F0008D0280938E0290938F0261E085E00E947E
:105500001D0360E085E00E941D0380E090E0892B90
:1055100009F4DEC80E947A02882309F4D9C80E94DF
:105520000000D6C86F961FAE1EAE6F97A3964CAE06
:105530005DAE6EAE7FAEA3976D96DFAECEAE6D97CD
:10554000E6961FAE1EAEE697A8961FAEA897BDCAF8
:10555000B1018CEF94E00E9407186EE971E08CEFC6
:1055600094E00E94EC01E696EEADFFADE69740E0D8
:1055700050E0BA01309721F04389548965897689D2
:105580002AE08CEF94E00E9413178CEF94E00E94C5
:10559000E017CE01855A9F4F0E94171812CA8CEF50
:1055A00094E00E946E021816190634F4C8010E9495
:1055B0005118C8010E940F188CEF94E00E946E02EF
:1055C000892BD1F3C8010E945118C555DF4F88813E
:1055D0009981CB5AD040009709F478C069817A81CB
:1055E0006115710509F470C0C355DF4F48815981B9
:1055F000CD5AD0402D813E814217530708F464C034
:105600000E946C2F8D819E81C155DF4F99838883C5
:10561000CF5AD0401E821D82CE0101960E940F18E3
:10562000C155DF4F88819981CF5AD040009741F012
:10563000C555DF4FE881F981CB5AD040309721F42E
:1056400010928502E5E8F2E02081CC55DF4F2883F7
:10565000C45AD040029748F0C555DF4FE881F98120
:10566000CB5AD040309709F04EC010928502E5E841
:10567000F2E08081CB55DF4F8883C55AD040CE0100
:1056800082569F4F0E94E41741E0BE0162567F4F51
:10569000CE0101960E94C61AEA8DFB8D309709F45F
:1056A0003FC085818823E1F1CE0101960E94E0117F
:1056B000892B59F1CE0101960E945A12682F8CEF66
:1056C00094E00E94B002F0CF0E94D82C89819A8188
:1056D000C555DF4F99838883CB5AD0408B819C81FD
:1056E000C355DF4F99838883CD5AD0408D819E81E9
:1056F000C155DF4F99838883CF5AD0401A821982CF
:105700001C821B8287CF3196B4CF61EE71E08CEFA3
:1057100094E00E94F517CE0101960E941718F3C974
:105720006EEC71E08CEF94E00E94F517ECC9F12C5F
:10573000E12CDACAF12C58CB8230A1F4909105010A
:105740009F3508F026CE40910401292F30E0265FD6
:105750003F4F4217130609F00CF41BCE9B5F90934A
:10576000050117CE833009F014CE909104019436D0
:1057700008F00FCE9B5F909304010BCE823049F46A
:1057800090910501992309F41CCE95509093050141
:1057900018CE833009F015CE9091040120910501B7
:1057A00030E02B5F3F4F9217130609F00CF409CE3F
:1057B00095509093040105CE80E00E94EA12109269
:1057C000950218CE813011F482E01BCE823011F4A4
:1057D00083E017CE833009F016CE1092900213CEDC
:1057E000F1EDCF16F5E0DF0619F0C6010E94CE0FED
:1057F00047E168E071E0C8010E94C61AC8010E9432
:105800009101E0912306F0912406309721F08581E3
:1058100081110C940D2183EA91E00C94E81F8823F8
:1058200039F3DE0191966D019C2D8D2DC52CD42C64
:105830002C010C9496208091F0059091F105009731
:1058400051F0FC01218132813093F1052093F00564
:105850000E94D82CF0CF8091FA059091FB0500971B
:1058600051F0FC01228133813093FB052093FA052E
:105870000E94D82CF0CF08950F931F93CF93DF93FE
:105880008230910510F482E090E0E0915406F091AE
:10589000550630E020E0B0E0A0E0309799F4211503
:1058A000310509F44AC0281B390B24303105D8F5DD
:1058B0008A819B816115710589F1FB019383828344
:1058C000FE0111C04081518102811381481759079F
:1058D000E0F04817590799F4109761F012960C936D
:1058E000129713961C933296CF01DF91CF911F919F
:1058F0000F9108950093540610935506F4CF211587
:10590000310551F04217530738F0A901DB019A0124
:10591000BD01DF01F801C1CFEF01F9CF909355062A
:1059200080935406CDCFFE01E20FF31F8193919334
:105930002250310939832883D7CF209152063091E4
:105940005306232B41F42091170130911801309315
:10595000530620935206209115013091160121150E
:10596000310541F42DB73EB74091190150911A010C
:10597000241B350BE0915206F0915306E217F30712
:10598000A0F42E1B3F0B2817390778F0AC014E5FAF
:105990005F4F2417350748F04E0F5F1F5093530693
:1059A00040935206819391939FCFF0E0E0E09CCF2B
:1059B000CF93DF930097E9F0FC01329713821282B4
:1059C000A0915406B0915506ED0130E020E010970B
:1059D000A1F420813181820F931F209152063091D2
:1059E00053062817390709F061C0F0935306E09376
:1059F0005206DF91CF910895EA01CE17DF07E8F54F
:105A00004A815B819E0141155105B1F7E901FB8394
:105A1000EA8349915991C40FD51FEC17FD0761F432
:105A2000808191810296840F951FE9019983888373
:105A3000828193819B838A83F0E0E0E012968D91CE
:105A40009C9113970097B9F52D913C911197CD0139
:105A50000296820F931F2091520630915306281709
:105A6000390739F6309751F51092550610925406C1
:105A7000B0935306A0935206BCCFD383C283408118
:105A80005181840F951FC817D90761F44E5F5F4F8E
:105A900088819981480F591F518340838A819B8156
:105AA000938382832115310509F0B0CFF093550619
:105AB000E09354069ECFFD01DC01C0CF1382128219
:105AC000D7CFFB01DC0102C005900D924150504040
:105AD000D8F7089557FD9058440F551F59F05F3F70
