:100000000C94FC000C9424010C9424010C94240105
:100010000C9424010C9424010C9424010C942401CC
:100020000C9424010C9424010C9424010C942401BC
:100030000C9424010C9424010C9424010C942401AC
:100040000C94151C0C9424010C94E31B0C94BD1B04
:100050000C9424010C9424010C9424010C9424018C
:100060000C945F1C0C9424016572726F723A20002C
:10007000504155534544005248204D41583A005292
:1000800048204D494E3A00434F32204D41583A00E6
:100090002052483A00430054656D703A007C3C3E63
:1000A0005E2B3D3F2F5B5D3B2C2A225C0000000055
:1000B0000800020100000304070000000000000027
:1000C0000054696D652C20436F322C2054656D708F
:1000D0002C2052482C2046616E4F6E2C2048756DA6
:1000E0004F6E2C20436F324D61782C2052484D6961
:1000F0006E2C2052484D61782C20467265654D6506
:100100006D0054696D652C20436F322C2054656D51
:10011000702C2052482C2046616E4F6E2C20487562
:100120006D4F6E2C20436F324D61782C2052484D1C
:10013000696E2C2052484D61782C20467265654DC1
:10014000656D0031363A32323A3137004A616E20FD
:1001500031352032303231004C6F6767696E67206D
:10016000746F3A20006361726420696E697469611A
:100170006C697A65642E00496E697469616C697A8C
:10018000696E6720534420636172642E2E2E00092D
:100190000900454F46006572726F72206F70656E80
:1001A000696E672066696C6500454F460000000077
:1001B00000250028002B0000000000240027002A52
:1001C0000004040404040404040202020202020300
:1001D000030303030301020408102040800102040A
:1001E0000810200102040810201F1C1F1E1F1E1FC4
:1001F0001F1E1F1E8D1D1E2C11241FBECFEFD8E009
:10020000DEBFCDBF12E0A0E0B1E0E4E2FFE502C056
:1002100005900D92AA31B107D9F726E0AAE1B2E024
:1002200001C01D92A136B207E1F710E0CBEFD0E09C
:1002300004C02197FE010E94772ECA3FD107C9F75B
:100240000E94B91E0C94852F0C94000091E09093AD
:100250000605809305051092040510920305089584
:100260009091B6048091B5042FEF3FEF981748F4B2
:10027000E92FF0E0E352FB4F208130E09F5F909345
:10028000B604C90108959091B6048091B5042FEF8A
:100290003FEF981748F4E92FF0E0E352FB4F20813D
:1002A00030E09F5F9093B604C901089590E0FC018F
:1002B000EB52FE4F24918F539E4FFC018491882373
:1002C00099F090E0880F991FFC01E954FE4FA59129
:1002D000B491FC01E355FE4F859194918FB7F8944A
:1002E000EC91E22BEC938FBF0895CF93DF93FC0149
:1002F000828193819093180680931706848195815B
:10030000A681B7818093190690931A06A0931B06C5
:10031000B0931C0680859185A285B38580931D06C8
:1003200090931E06A0931F06B0932006DF011C9633
:10033000CF014996C1E2D6E02D912993A817B907BC
:10034000D9F7818D928D90932F0680932E0685E1AB
:1003500096E0DF91CF910895FC019081909528E07F
:1003600081E397FF03C0990F982701C0990F21508F
:10037000C1F78181892798E021E387FF03C0880FB7
:10038000822701C0880F9150C1F7089508950895FC
:100390000895DC01ED91FC910190F081E02D09942C
:1003A000EF92FF920F931F93CF93DF938C017B010A
:1003B000D0E0C0E0F701EC0FFD1F6491662361F00F
:1003C000D801ED91FC910190F081E02DC8010995D3
:1003D000892B11F02196EECFCE01DF91CF911F91A5
:1003E0000F91FF90EF900895AF92BF92CF92DF925E
:1003F000EF92FF920F931F93CF93DF936C017B01DA
:100400008B01040F151FEB015E01AE18BF08C0176A
:10041000D10759F06991D601ED91FC910190F081DD
:10042000E02DC6010995892B79F7C501DF91CF91A0
:100430001F910F91FF90EF90DF90CF90BF90AF9002
:100440000895FC01538D448D252F30E0842F90E0DA
:10045000821B930B541710F0CF96089501970895BF
:10046000FC01918D828D981761F0A28DAE0FBF2F88
:10047000B11D5D968C91928D9F5F9F73928F90E0DE
:1004800008958FEF9FEF0895FC01918D828D98174D
:1004900031F0828DE80FF11D858D90E008958FEF8A
:1004A0009FEF0895FC01918D228D892F90E0805C53
:1004B0009F4F821B91098F739927089587E095E0DC
:1004C0000E94520221E0892B09F420E0822F089536
:1004D00080E090E0892B29F00E945E0281110C944B
:1004E00000000895FC01A48DA80FB92FB11DA35AD7
:1004F000BF4F2C91848D90E001968F739927848F44
:10050000A689B7892C93A089B1898C918370806466
:100510008C93938D848D981306C00288F389E02D07
:1005200080818F7D80830895EF92FF920F931F93B8
:10053000CF93DF93EC0181E0888F9B8D8C8D981396
:100540001AC0E889F989808185FF15C09FB7F894A2
:10055000EE89FF896083E889F989808183708064EE
:1005600080839FBF81E090E0DF91CF911F910F9139
:10057000FF90EF900895F62E0B8D10E00F5F1F4F48
:100580000F731127E02E8C8D8E110CC00FB607FC57
:10059000FACFE889F989808185FFF5CFCE010E94E5
:1005A0007202F1CFEB8DEC0FFD2FF11DE35AFF4FDF
:1005B000F0829FB7F8940B8FEA89FB898081806273
:1005C000CFCFCF93DF93EC01888D8823B9F0AA8930
:1005D000BB89E889F9898C9185FD03C0808186FDFE
:1005E0000DC00FB607FCF7CF8C9185FFF2CF80814D
:1005F00085FFEDCFCE010E947202E9CFDF91CF914E
:10060000089590E0FC01E355FF4F2491FC01EB526B
:10061000FE4F3491FC01EF53FE4FE491EE23C9F0FD
:10062000222339F0233001F1A8F4213019F12230CE
:1006300029F1F0E0EE0FFF1FE355FE4FA591B491B5
:100640008FB7F894EC91611126C030953E233C930E
:100650008FBF08952730A9F02830C9F0243049F71A
:10066000809180008F7D03C0809180008F77809380
:100670008000DFCF84B58F7784BDDBCF84B58F7DDD
:10068000FBCF8091B0008F778093B000D2CF809164
:10069000B0008F7DF9CF3E2BDACF3FB7F894809131
:1006A000890290918A02A0918B02B0918C0226B5AA
:1006B000A89B05C02F3F19F00196A11DB11D3FBF9A
:1006C000BA2FA92F982F8827BC01CD01620F711D69
:1006D000811D911D42E0660F771F881F991F4A9563
:1006E000D1F708952FB7F894609185027091860232
:1006F00080918702909188022FBF08950F931F93D6
:100700000E94720360930F0570931005809311058A
:100710009093120587E095E00E94300297FF1DC07C
:100720000E94720300910F05109110052091110590
:1007300030911205601B710B820B930B00910B051E
:1007400010910C0520910D0530910E056017710771
:1007500082079307F8F28FEF9FEF1F910F91089593
:10076000DC01ED91FC910190F081E02D0994FC01F8
:10077000908190539A3008F090E0818180532AE074
:10078000929F800D1124089520916102260F332736
:10079000331F21323105ECF42091FD04FC0190E07F
:1007A00080E0243069F082E00895A09161022191F7
:1007B000AC014F5B5D4FA40FB52FB11D2C9301967B
:1007C000861798F380916102680F6093610280E060
:1007D000089581E008951092FD0481E08093DC0487
:1007E0001092D70461E082E10E94010361E083E19D
:1007F0000E940103E9EBF0E080818E7F808380819D
:100800008D7F808388E48093B80085E48093BC006A
:1008100008951092B6041092B50410920405109237
:1008200003050E94EB0386EC91E09093B40480935F
:10083000B30487EC91E09093B2048093B1040895DF
:10084000CF93DF9391E090938E028823B9F0C0910B
:10085000B800D091BA008091BC008A7B8093BC0024
:1008600060E082E10E94010360E083E10E940103F5
:100870000E94EB03D093BA00C093B800DF91CF91F0
:100880000895CF92DF92EF92FF920F931F93CF9331
:10089000DF93D82FC62F613208F098C00E944D0315
:1008A0006B017C018091FD0481116BC081E080931C
:1008B000FD048093DC049FEF9093DB041092DA0434
:1008C0009C0F9093D9048093D8048091D804DD0FB5
:1008D000D82BD093D8048091D704813009F078C008
:1008E0001092D7040E944D036B017C018091D804C3
:1008F0008093BB008091FF0490910005A0910105B9
:10090000B0910205892B8A2B8B2BA1F00E944D03FD
:100910000091FF041091000520910105309102051E
:100920006C197D098E099F090617170728073907D3
:1009300008F448C08091BC0083FDD8CF85EC80933B
:10094000BC000E944D036B017C018091FD0481304D
:1009500009F440C08091DA048C1710F4C091DA04D5
:10096000E7EBF4E0ADEDB4E080E08C1355C08C2FE4
:10097000DF91CF911F910F91FF90EF90DF90CF907B
:1009800008958091FF0490910005A0910105B09118
:100990000205892B8A2B8B2B09F484CF0E944D03EF
:1009A0000091FF041091000520910105309102058E
:1009B0006C197D098E099F09061717072807390743
:1009C00008F070CF8091FE040E942004C0E0CFCFD9
:1009D00085EEB5CF8091FF0490910005A0910105AF
:1009E000B0910205892B8A2B8B2B09F4AECF0E9484
:1009F0004D030091FF0410910005209101053091F5
:100A000002056C197D098E099F090617170728072B
:100A1000390708F09ACFD6CF91919D938F5FA5CFDC
:100A20000895E091B6048091B504E81730F4F0E041
:100A3000E352FB4F808190E008958FEF9FEF089580
:100A40008091B5049091B604891B990B0895CF92BB
:100A5000DF92EF92FF920F931F93CF93DF937C016E
:100A6000CB018A0120910605222389F0EB016B015D
:100A7000C40ED51ECC15DD0569F06991D701ED9145
:100A8000FC910190F081E02DC7010995F3CF642F0F
:100A90000E94C403C801DF91CF911F910F91FF9075
:100AA000EF90DF90CF900895CF93DF931F92CDB753
:100AB000DEB76983209106052223F9F02091030512
:100AC000203258F021E030E0FC013383228390E0B3
:100AD00080E00F90DF91CF91089580910405E82F79
:100AE000F0E0EF5DFD4F998190838F5F8093040567
:100AF0008093030581E090E0ECCF61E0CE010196A8
:100B00000E94C403F7CF682F84EA95E00C94540543
:100B1000CF92DF92EF92FF920F931F93CF93DF93C9
:100B2000D091030581E0D13208F09CC0C091050549
:100B30000E944D036B017C018091FD0481116CC00A
:100B400082E08093FD0481E08093DC048FEF80934A
:100B5000DB041092DA04D093D904A1E2B2E0E7EB0F
:100B6000F4E080E0D8138DC01092D8048091D804AE
:100B7000CC0FC82BC093D8048091D704813009F0E2
:100B800084C01092D7040E944D036B017C018091B8
:100B9000D8048093BB008091FF0490910005A09140
:100BA0000105B0910205892B8A2B8B2BA1F00E94A5
:100BB0004D030091FF041091000520910105309133
:100BC00002056C197D098E099F090617170728076A
:100BD000390708F442C08091BC0083FDD8CF85EC72
:100BE0008093BC000E944D036B017C018091FD0449
:100BF000823009F44CC08091DB048F3F09F469C056
:100C00008091DB04803209F466C08091DB0480337C
:100C100009F463C084E026C08091FF049091000530
:100C2000A0910105B0910205892B8A2B8B2B09F429
:100C300083CF0E944D030091FF0410910005209185
:100C40000105309102056C197D098E099F0906176F
:100C500017072807390708F06FCF8091FE040E941C
:100C6000200485E0109204051092030510920605F9
:100C7000DF91CF911F910F91FF90EF90DF90CF9078
:100C800008959D9191938F5F6DCF85EEA9CF80914F
:100C9000FF0490910005A0910105B0910205892BF8
:100CA0008A2B8B2B09F4A2CF0E944D030091FF04E5
:100CB0001091000520910105309102056C197D0904
:100CC0008E099F09061717072807390708F08ECFE6
:100CD000C4CF80E0C7CF82E0C5CF83E0C3CFDF922F
:100CE000EF92FF920F931F93CF93DF9300D0CDB776
:100CF000DEB78C01F62ED72E19826A83CE010196BB
:100D00000E94AC01E82E81E60E942601612F70E06E
:100D100080913006909131060E94B003B801772788
:100D200080913006909131060E94B00370E060E03F
:100D300080913006909131060E94B0036F2D7D2D79
:100D400080913006909131060E94B0038091300668
:100D500090913106DC01ED91FC910190F081E02D44
:100D60006E2D099580913006909131060E9488057C
:100D700091E0811190E0892F0F900F90DF91CF913A
:100D80001F910F91FF90EF90DF900895CF93DF9325
:100D9000D62FC72FFC01808180620E94260182E14C
:100DA0000E9483058D2F0E9483058C2F0E9483054E
:100DB00084EA95E0DF91CF910C94880590E080E083
:100DC00008958FB7F89480911B028FBF089561E05A
:100DD000FC0184810E94010380911A02811110920A
:100DE0001A0208958EBD00000DB407FEFDCF8EB52A
:100DF00008958FEF0C94F2060F931F93CF93DF9318
:100E0000EC010E9472038B010E94F9068F3F69F08A
:100E10000E947203601B710B6C177D07A8F380E0C2
:100E2000DF91CF911F910F91089581E0F9CF8CBD93
:100E30009DBD0895CF93DF93EC0180911A0281113B
:100E400009C081E080931A028091B0059091B105AC
:100E50000E94170760E08C81DF91CF910C94010311
:100E60008F929F92AF92BF92FF920F931F93CF9357
:100E7000DF93EC01F62E49015A018E81882389F017
:100E80008F8198859C012F5F3F4F38872F83823059
:100E9000924018F40E94F906F3CFCE010E94E706B3
:100EA0001E82CE010E941A078CE291E00E94FC068D
:100EB0008F2D80640E94F20608E110E0D501C40184
:100EC000002E04C0B695A795979587950A94D2F7FA
:100ED0000E94F20608501109083F8FEF180771F7BA
:100EE00085E9FF2021F028E087E8F2128FEF0E94C9
:100EF000F20610E00E94F9068A8787FF04C01F3FB0
:100F000011F01F5FF7CFDF91CF911F910F91FF90ED
:100F1000BF90AF909F908F900895AF92BF92CF9265
:100F2000DF92EF92FF920F931F93CF93DF93EC0129
:100F30006901C801820F931F8130924050F58E8164
:100F4000882379F088819981AA81BB8184179507CC
:100F5000A607B70731F48F819885C816D90608F01F
:100F600042C0488359836A837B838B85833039F001
:100F700089E0440F551F661F771F8A95D1F79A01A4
:100F8000AB0161E1CE010E943007882389F083E044
:100F90008D83CE010E94E70680E0DF91CF911F9103
:100FA0000F91FF90EF90DF90CF90BF90AF9008959A
:100FB0000E9472035B010E94F9068A878F3F69F4E1
:100FC0000E9472036A197B096D327140A0F38FE0B1
:100FD0008D83CE010E94E706DCCF8E3F89F4188610
:100FE0001F8281E08E838F8198858C159D0550F43A
:100FF0000E94F9068F819885019698878F83F3CF99
:101000008DE0E6CF6701E00EF11E0E94F906F601C1
:1010100081936F01EE15FF05C1F78F819885080F49
:10102000191F18870F838985882319F0011512402D
:10103000A0F08E81882389F08F8198859C012F5F95
:101040003F4F38872F838230924018F40E94F90670
:10105000F3CFCE010E94E7061E8281E09ECFCF92A1
:10106000DF92EF92FF920F93CF93DF93EC01690130
:1010700082E1411551056105710599F08B85833039
:1010800039F089E0440F551F661F771F8A95D1F705
:101090009A01AB0168E1CE010E943007882319F064
:1010A00084E08D832DC08EEF0E94F20676018EEFD4
:1010B000D81AF70181917F010E94F206EC14FD0419
:1010C000C1F78FEF0E94F2068FEF0E94F2060E9496
:1010D000F9068A878F71853071F4011116C0CE012F
:1010E0000E94E70681E0DF91CF910F91FF90EF9092
:1010F000DF90CF90089581E18D83CE010E94E706B5
:10110000CE010E94E70680E0EECF88E592E00E94E3
:10111000FC06811102C085E1C4CF20E030E0A901C6
:101120006DE0CE010E943007882311F084E1B9CF31
:101130000E94F9068111FACFD2CF0F9340911D0280
:1011400050911E0260911F027091200241155105BD
:101150006105710599F0082F2FEA32E08091AF0404
:101160009091B0040E942F08882349F010921D022C
:1011700010921E0210921F021092200281E00F9125
:1011800008950F93CF93C82F80911C02811105C041
:10119000C1E08C2FCF910F910895409100015091A3
:1011A000010160910201709103010C2F2FEA32E0DE
:1011B0008091AF049091B0040E942F08811102C069
:1011C000C0E0E7CFCC2321F381E00E949D08882373
:1011D000B9F310921C02DDCF8F929F92AF92BF9213
:1011E000EF92FF920F931F93CF934B015C01C42F9B
:1011F0008091000190910101A0910201B091030141
:1012000088159905AA05BB0551F181E00E94C10826
:1012100081110BC080E0CF911F910F91FF90EF9053
:10122000BF90AF909F908F9008958FEAE82E82E054
:10123000F82E00E012E030E020E0B501A40180913A
:10124000AF049091B0040E948D07882319F3809217
:10125000000190920101A0920201B092030140911D
:101260001C024C2B40931C0281E0D5CF8F929F92A1
:10127000AF92BF92CF92DF92EF92FF92CF9322EB89
:1012800035E03093B0042093AF04882309F46DC097
:1012900040E060E070E0CB010E94EC0881110BC0DF
:1012A00080E0CF91FF90EF90DF90CF90BF90AF9014
:1012B0009F908F90089580916D048F7789F780912A
:1012C000790490917A04A0917B04B0917C048436D7
:1012D0009105A105B10520F3C0907504D090760466
:1012E000E0907704F0907804C114D104E104F10493
:1012F000B9F240E0C701B6010E94EC08882381F2F0
:101300008091BA029091BB028115924049F6A0915A
:10131000BF02AA2329F26091BD027091BE0261153D
:10132000710509F4BDCF2091BC02222309F4B8CF86
:10133000A093D0052093C20590E080E030E0E1E08A
:10134000F0E0C82FAF01082E02C0440F551F0A94C9
:10135000E2F72417350769F041E0480F019689301C
:10136000910579F74093CB059BCFC12CD12C760109
:10137000C0CF8093CB052091C5023091C60250E0CA
:1013800040E02115310541F42091D3023091D4027F
:101390004091D5025091D6022093C3053093C405E5
:1013A0004093C5055093C60546015701860E971E0A
:1013B000A11CB11C8092D1059092D205A092D305B8
:1013C000B092D405E091C002F091C102F093D7052C
:1013D000E093D605B0E00E94962DDC01CB01880D8C
:1013E000991DAA1DBB1D8093D8059093D905A09384
:1013F000DA05B093DB0525E0EE0FFF1F2A95E1F734
:10140000E150FE4FEF2FFF27E6958E0F9F1FA11D86
:10141000B11D8093CC059093CD05A093CE05B093DC
:10142000CF058090C2029090C302B12CA12C8114F0
:10143000910441F48090CF029090D002A090D1020C
:10144000B090D202C81AD90AEA0AFB0AC80CD91C01
:10145000EA1CFB1C04C0F694E794D794C794CA9581
:10146000D2F7C092C705D092C805E092C905F092A4
:10147000CA0585EFC8168FE0D806E104F10428F408
:101480008CE08093D50581E00CCF80E125EFC2167A
:101490002FEFD206E104F104A0F38091DB029091DA
:1014A000DC02A091DD02B091DE028093D80590931A
:1014B000D905A093DA05B093DB0580E2E2CF4F9225
:1014C0005F926F927F928F929F92AF92BF92CF92D4
:1014D000DF92EF92FF920F931F93CF93DF93EC0174
:1014E000423051056105710590F480E0DF91CF91A4
:1014F0001F910F91FF90EF90DF90CF90BF90AF9032
:101500009F908F907F906F905F904F900895898506
:101510009A85AB85BC850196A11DB11D84179507E1
:10152000A607B70710F3CB88DC88ED88FE888F8983
:10153000803109F042C0BB27A72F962F852F480185
:1015400059012A013B01C80ED91EEA1EFB1E8091DB
:10155000000190910101A0910201B0910301C81610
:10156000D906EA06FB0699F58F898031C1F5B301EA
:10157000A201552766277727440F551F41555D4F18
:10158000FA019182808280911C02816080931C020A
:101590008A89823080F08D819E81AF81B8858C0DE3
:1015A0009D1DAE1DBF1D80931D0290931E02A09332
:1015B0001F02B093200281E099CFDB01CA01E7E06E
:1015C000B695A79597958795EA95D1F7B8CF40E05E
:1015D000C701B6010E94EC088111C6CF86CFB301C6
:1015E000A2014F77552766277727440F551F440FD1
:1015F000551F41555D4FFA0180829182A282B382CC
:10160000C2CF8F929F92AF92BF92CF92DF92EF9212
:10161000FF920F931F93CF93DF93FC0181859285F7
:10162000A385B4850196A11DB11D84179507A60752
:10163000B70770F480E0DF91CF911F910F91FF9079
:10164000EF90DF90CF90BF90AF909F908F900895D4
:1016500083889488A588B6888789803189F5BB27D7
:10166000A72F962F852FE9016A017B018F01BC010D
:10167000CD01680D791D8A1D9B1D80900001909001
:101680000101A0900201B090030186169706A806FA
:10169000B90601F5F8018789803111F5DD24EE24C2
:1016A000FF24F601EE0FFF1FE155FD4F8081918170
:1016B000B0E0A0E088839983AA83BB8381E0BBCF9D
:1016C000DB01CA01C7E0B695A79597958795CA959E
:1016D000D1F7C9CF40E00E94EC088111DBCFAACF3F
:1016E000E894C7F8DD24EE24FF24F601EE0FFF1F77
:1016F000EE0FFF1FE155FD4F80819181A281B381E3
:10170000BF70D8CF4F925F926F927F92AF92BF928D
:10171000CF92DF92EF92FF920F931F93CF93DF93BD
:1017200000D000D0CDB7DEB78C0149835A836B83DC
:101730007C835901C12CD12C7601412C82E0582E9A
:10174000612C712C49815A816B817C819E012F5FB4
:101750003F4FC8010E94010B882339F1F8018585AC
:10176000A301920104C0220F331F441F551F8A9505
:10177000D2F7DA01C901C80ED91EEA1EFB1E498143
:101780005A816B817C818789803111F188EF9FEFCD
:10179000AFEFBFE0481759076A077B0798F2F501DA
:1017A000C082D182E282F38281E00F900F900F908D
:1017B0000F90DF91CF911F910F91FF90EF90DF90ED
:1017C000CF90BF90AF907F906F905F904F900895B3
:1017D00088EF9FEFA0E0B0E0DDCFCF93DF93FC0177
:1017E0002581222321F080E0DF91CF910895EC0143
:1017F0008091D505803159F582E08583178A108E56
:10180000118E128E8091D6059091D705B0E0A0E0A0
:1018100025E0880F991FAA1FBB1F2A95D1F7838B3C
:10182000948BA58BB68B8EEB95E09C8F8B8F81E094
:101830008C831E821F82188619861A861B861C8638
:101840001D861E861F86188A198A1A8ACDCF803275
:1018500051F683E085834091D8055091D905609178
:10186000DA057091DB05478B508F618F728F9F0176
:101870002D5E3F4F8EEB95E00E94820B8111D3CFFE
:10188000B2CF8F929F92AF92BF92CF92DF92EF92A0
:10189000FF920F931F93CF93DF93EC018D81811102
:1018A0000EC080E0DF91CF911F910F91FF90EF90DC
:1018B000DF90CF90BF90AF909F908F9008950B894D
:1018C0001C892D893E89041715072607370748F319
:1018D0004A015B01823031F48A869B86AC86BD86E4
:1018E00081E0E0CF81149104A104B10449F41E8287
:1018F0001F82188619861A861B861C861D86F0CFC5
:101900000A851B852C853D85EB8DFC8D858590E0BA
:101910000996B901A8014150510961097109082EC0
:1019200004C076956795579547950A94D2F7750147
:101930006401E1E0CE1AD108E108F10804C0F69490
:10194000E794D794C7948A95D2F7C416D506E606CD
:10195000F70620F0012B022B032B11F58F89988DB0
:10196000A98DBA8D8E839F83A887B9878E010A5F60
:101970001F4FC114D104E104F10409F4ADCF4E812D
:101980005F816885798598018B8D9C8D0E94010B04
:1019900091E0C91AD108E108F1088111EACF81CF9D
:1019A000C41AD50AE60AF70AE1CF3F924F925F9236
:1019B0006F927F928F929F92AF92BF92CF92DF925F
:1019C000EF92FF920F931F93CF93DF93CDB7DEB7C4
:1019D0002C970FB6F894DEBF0FBECDBF5C01DC01C3
:1019E0005B968D909C905C9716964D905D906D9057
:1019F0007C901997411451046104710409F468C082
:101A0000BFEF4B1A5B0A6B0A7B0A312CF40181850C
:101A10009285A385B4859C01AD012F5F3F4F4F4F49
:101A20005F4F29873A874B875C87730162011D826C
:101A30001E821F821886F40181859285A385B48554
:101A40002D813E814F815885281739074A075B074A
:101A500008F056C089859A85AB85BC858C159D0597
:101A6000AE05BF0550F482E0C82ED12CE12CF12C3C
:101A700092E0492E512C612C712C9E012F5F3F4F1B
:101A8000B701A601C4010E94010B8823C9F1898115
:101A90009A81AB81BC81892B8A2B8B2B09F1260182
:101AA00037019FEF491A590A690A790A2D813E8147
:101AB0004F8158852F5F3F4F4F4F5F4F2D833E83A0
:101AC0004F8358873FEFC31AD30AE30AF30AB3CF11
:101AD000F40140805180628073803324339496CF28
:101AE000C414D504E604F70409F70FEF1FEF2FEF36
:101AF0003FE0B701A601C4010E945F0A811119C02D
:101B000080E02C960FB6F894DEBF0FBECDBFDF91FC
:101B1000CF911F910F91FF90EF90DF90CF90BF90EA
:101B2000AF909F908F907F906F905F904F903F907D
:101B30000895D50116964D915D916D917C911997FF
:101B4000411551056105710539F097018601C40100
:101B50000E945F0A8823A1F2D5011696CD92DD92EC
:101B6000ED92FC921997332051F0D701C6010196EE
:101B7000A11DB11DF40180839183A283B383F5017C
:101B80008789908DA18DB28D892B8A2B8B2B39F46F
:101B90008481C78AD08EE18EF28E80688483F501BD
:101BA00084818062848381E0ACCF2F923F924F92F8
:101BB0005F926F927F928F929F92AF92BF92CF92DD
:101BC000DF92EF92FF920F931F93CF93DF93EC017D
:101BD0005B012A018D81811115C08FEF9FEFDF918D
:101BE000CF911F910F91FF90EF90DF90CF90BF901A
:101BF000AF909F908F907F906F905F904F903F90AD
:101C00002F9008958C8180FFE8CF0B891C892D8946
:101C10003E894A855B856C857D85C201B0E0A0E088
:101C200068017901C41AD50AE60AF70AC816D90666
:101C3000EA06FB0618F42801441A550A42011E015F
:101C400026E0220E311C8114910409F4B3C04A85A8
:101C50005B856C857D856A0181E0D8228B8D9C8DAA
:101C60008A019B01E9E03695279517950795EA9536
:101C7000D1F7ED81E230E1F5FC01628D738D848D49
:101C8000958D600F711F821F931F612C22E0722EB1
:101C90006C187D088614970408F434012C8126FD05
:101CA00004C06114F2E07F0671F40091000110910C
:101CB000010120910201309103010617170728073F
:101CC000390709F053C040E00E94EC08882309F46A
:101CD00084CFC60181559D4FD5019C01260D371D2E
:101CE000FC012E173F0709F460C041914D93F9CFD5
:101CF000FC0174807A947022C114D10471F47110C3
:101D00000CC0452B462B472B39F58F89988DA98D13
:101D1000BA8D8E839F83A887B987EB8DFC8D6E81EA
:101D20007F8188859985625071098109910925858E
:101D300004C0660F771F881F991F2A95D2F7068562
:101D4000178520893189600F711F821F931F670DCE
:101D5000711D811D911D99CF4E815F8168857985A7
:101D600091010E94010B8111D8CF37CF75018301FA
:101D70009601AB01BC018091AF049091B0040E9428
:101D80008D07882309F429CFA60CB71C8A859B856B
:101D9000AC85BD85860D971DA11DB11D8A879B87CA
:101DA000AC87BD87861897084ECF281B390BA20E2B
:101DB000B31EECCFC20113CF1F93CF93DF93FC016F
:101DC00025812223D1F1162FEC01848187FF2AC0BF
:101DD000668577858089918941E00E94EC08882397
:101DE00061F1EA8980E2E89FF0011124E155FD4F9D
:101DF000309719F18D81823040F48B899C89AD89AF
:101E0000BE89848F958FA68FB78F8F89988D938F7A
:101E1000828F8F89988DA98DBA8DB58BA48B8C817B
:101E20008F778C83111103C08C818F7E8C83812FDF
:101E3000DF91CF911F910C94C10880E0DF91CF9189
:101E40001F910895FF920F931F93CF93DF93EC019F
:101E50008D81813041F090E080E0DF91CF911F9142
:101E60000F91FF9008958C8181FFF5CF82FD1BC0FB
:101E70000091AF041091B004C8010E941A070E949B
:101E8000F906F82EC8010E94E7068FEFF812E3CF9B
:101E90008C8185FF1BC060E0CE010E94DC0E8C812E
:101EA0008F7D8C83D8CF4B895C896D897E898A85AB
:101EB0009B85AC85BD8584179507A607B707C1F23A
:101EC000CE010E94410C8111D3CFC5CF40911D029C
:101ED00050911E0260911F0270912002452B462BEB
:101EE000472B21F080E00E949D08B5CF80618C8354
:101EF0002A853B85317080E092E0821B930BADCF49
:101F0000CF93DF93EC0161E00E94DC0E882311F097
:101F10001D8281E0DF91CF9108952F923F924F92E1
:101F20005F926F927F928F929F92AF92BF92CF9269
:101F3000DF92EF92FF920F931F93CF93DF9300D026
:101F400000D01F92CDB7DEB77C015B01342E5D83DC
:101F5000DC0115968C911597813009F0CEC014964E
:101F60002C9021FECAC022FCB4C0C32CDD80229478
:101F70007FE027222094B22DB1702B2ED7011A9624
:101F80004D915D916D917C911D97C114D10409F41F
:101F900028C15B968D919C915C97FC0174807A942A
:101FA0008A019B0169E036952795179507956A95F3
:101FB000D1F770228A011170711020C0011511052E
:101FC000E9F416964D915D916D917C9119974115AB
:101FD00051056105710509F099C057968D919D9144
:101FE0000D90BC91A02D0097A105B10509F0B0C0DE
:101FF000C7010E94D50C882309F47FC080E092E0DD
:10200000801B910B46018C159D0508F44C01D701EE
:102010005B964D915C915C9716968D919D910D907C
:10202000BC91A02D0297A109B109FA01258504C030
:10203000880F991FAA1FBB1F2A95D2F7468557857F
:1020400060897189840F951FA61FB71F9C01AD0180
:10205000270D311D411D511D29013A01811432E026
:10206000930609F07BC08091000190910101A0913D
:102070000201B091030184159505A605B70559F431
:102080008FEF9FEFDC018093000190930101A093FB
:102090000201B0930301022D9501B301A2018091C9
:1020A000AF049091B0040E942F08882331F19EEF75
:1020B000B91AC818D908F70182859385A485B58512
:1020C000880D991DA11DB11D82879387A487B587AF
:1020D00055CFF7014389548965897689828593852F
:1020E000A485B585481759076A077B0709F43DCFD2
:1020F000C7010E94410C811138CF81E090E0D701E7
:1021000013969C938E93129780E007C09E012F5FD9
:102110003F4F0E94010B811102C090E079C089817C
:102120009A81AB81BC81F701238D348DF901278918
:1021300048EF5FEF60E070E0203121F048EF5FEFA3
:102140006FEF7FE084179507A607B70708F050CF19
:10215000F70186839783A087B18750CF01151105BA
:1021600099F5D7011A964D915D916D917C911D97CE
:1021700053968D919D910D90BC91A02D48175907B4
:102180006A077B0708F181E00E94C108882309F4EF
:10219000B4CF40920001509201016092020170920E
:1021A000030180911C02816080931C02C80181554B
:1021B0009D4FD5019C01280D391DFC012E173F07AD
:1021C00059F04D914193FACF41E0C301B2010E9411
:1021D000EC088111EBCF91CF281B390BA20EB31E57
:1021E00068CFF70183899489A589B68984179507F3
:1021F000A607B70738F48481438B548B658B768BA5
:1022000080688483F701848183FD1AC0832D9D81BA
:102210000F900F900F900F900F90DF91CF911F9123
:102220000F91FF90EF90DF90CF90BF90AF909F9075
:102230008F907F906F905F904F903F902F90089578
:1022400061E0C7010E94DC0E882309F456CFDECF7F
:10225000CF93DF931F92CDB7DEB7698341E050E0A3
:10226000BE016F5F7F4F0E948D0F0F90DF91CF9166
:102270000895FC01DB0112968D919C911397938335
:1022800082838BE491E09183808314968C911497E0
:10229000848315968C911597858316964D915D9143
:1022A0006D917C91199746835783608771871A9641
:1022B0004D915D916D917C911D9742875387648705
:1022C00075871E964D915D916D917C9151974687D2
:1022D0005787608B718B52968C915297828B539655
:1022E0004D915D916D917C915697438B548B658B8D
:1022F000768B57964D915D916D917C915A97478B56
:10230000508F618F728F5B968D919C91948F838F8C
:102310000895FC01818D928D009719F061E00C9475
:10232000DC0E0895DC015996ED91FC913097B9F0DF
:1023300083899489A589B689428553856485758585
:10234000841B950BA60BB70B811520E89207A105FE
:10235000B10538F08FEF9FE7A0E0B0E0089590E07E
:1023600080E00895DC0159968D919C91009739F099
:10237000DC01ED91FC910480F581E02D099490E061
:1023800080E00895CF93DF93EC01E98DFA8D3097CB
:1023900049F481E090E09B838A8390E080E0DF91C4
:1023A000CF91089513821282898D9A8D0E948D0F8C
:1023B000E98DFA8D22813381232B59F7F0CFCF930A
:1023C000DF931F92CDB7DEB76983DC01ED91FC91FD
:1023D0000280F381E02D41E050E0BE016F5F7F4F4E
:1023E00009950F90DF91CF910895CF93DF931F92BE
:1023F000CDB7DEB741E050E0BE016F5F7F4F0E9476
:10240000D50D019731F4898190E00F90DF91CF9144
:1024100008958FEF9FEFF9CFFC01818D928D00978A
:1024200011F00C94F5118FEF9FEF08950F931F9308
:10243000CF93DF93EC01898D9A8D10E000E0009737
:1024400099F00E94F5118C010F3F100769F0898DFA
:102450009A8DFC01428553856485758541505109EB
:10246000610971090E94410CC801DF91CF911F9150
:102470000F9108950E9441041092B6048093B50410
:102480000895EF92FF920F931F93CF93DF938C01E8
:10249000C62FE42E84E1F82ED2E1683020F0C85037
:1024A00095E1F92ED3E1F801808180620E94260136
:1024B0008F2D0E94830584EA95E00E948805F8012B
:1024C0008081806261E070E090E00E943A120E9498
:1024D000430121E030E001C0220FCA95EAF7F1E0A4
:1024E000C82FC22BEF1619F02095C22FC823F80170
:1024F000808180620E9426018D2F0E9483058C2F8F
:102500000E94830584EA95E0DF91CF911F910F919E
:10251000FF90EF900C948805FC01962F828D8F3FE1
:1025200031F0603140F4CF014B960C944112642F8E
:10253000892F0C9401030895CF93DF93C82FD1E026
:1025400082FB442740F94D2768E08CE596E00E9425
:102550004112C1FB442740F94D2767E08CE596E026
:102560000E9441124C2F4095417066E08CE596E048
:10257000DF91CF910C944112FF920F931F93CF9351
:10258000DF938C01C62FF42ED0E0683010F0C850D5
:10259000D1E0F801808180620E9426018D2F0E9487
:1025A000830584EA95E00E948805F80180818062B5
:1025B00061E070E090E00E943A120E94430121E045
:1025C00030E001C0220FCA95EAF7C82FC22BFF20C6
:1025D00019F02095C22FC823F801808180620E94E3
:1025E00026018D2F0E9483058C2F0E94830584EA8B
:1025F00095E0DF91CF911F910F91FF900C9488058A
:10260000603110F40C94BC120895CF9381E60E94BF
:10261000260162E070E080913006909131060E94C0
:10262000B00362E070E080913006909131060E9424
:10263000B00380913006909131060E94880588236E
:1026400021F090E080E0CF91089562E081E60E9461
:1026500041041092B6048093B504809130069091A5
:102660003106DC01ED91FC910084F185E02D0995A6
:10267000892B39F38091300690913106DC01ED9180
:10268000FC910284F385E02D0995C82F80913006D6
:1026900090913106DC01ED91FC910284F385E02DEF
:1026A000099520E03C2FA901482BCA01CCCF2F92DD
:1026B0003F924F925F926F927F928F929F92AF92D2
:1026C000BF92CF92DF92EF92FF920F931F93CF931F
:1026D000DF9300D0CDB7DEB70E9405130197B1F0AC
:1026E00080E00F900F90DF91CF911F910F91FF909D
:1026F000EF90DF90CF90BF90AF909F908F907F90A2
:102700006F905F904F903F902F90089581E60E94C8
:1027100026018091300690913106DC01ED91FC910B
:102720000190F081E02D63E0099580913006909151
:102730003106DC01ED91FC910190F081E02D60E02B
:10274000099580913006909131060E94880581118B
:10275000C7CF62E181E60E9441041092B6048093E3
:10276000B5048091300690913106DC01ED91FC9129
:102770000084F185E02D0995892B09F4B1CF212C36
:10278000C12CD12C7601812C912C5401412C512C3F
:10279000320110E033E0332E809130069091310603
:1027A000DC01ED91FC910284F385E02D0995082F61
:1027B000113108F059C0E12FF0E0EF51FC4E0C94BC
:1027C000772EF213F2133414F213F2133414281484
:1027D000281434142814281434142E142E143414E9
:1027E0002E142E14762C652C542C4424482A812F28
:1027F000632D0E94162EE1E0F0E0EC0FFD1FE90FC3
:10280000F11D00831F5F123109F0C6CF211068CF80
:10281000409232065092330660923406709235062A
:102820008092360690923706A0923806B09239060A
:10283000C0923A06D0923B06E0923C06F0923D06EA
:1028400010923E0610923F061092400681E049CF5A
:10285000BA2CA92C982C8824802AC9CFFE2CED2CC8
:10286000DC2CCC24C02AC3CFCE0101960E94AC013F
:10287000081741F222242394C5CFCF93C82F88E6AE
:102880000E9426016C2F84EA95E00E94540584EA98
:1028900095E00E94880561E088E60E94410410925C
:1028A000B6048093B5040E944301CF910895CF935D
:1028B000DF93EC0140E06E810E948C1241E06E815A
:1028C000CE010E948C1240E06E81CE010E948C12DB
:1028D0008BE891E00197F1F7DF91CF910895AF92E6
:1028E000BF92CF92DF92EF92FF920F931F93CF93FD
:1028F000DF93EC018A8D8E01095F1F4FC62ED12C0C
:102900008F3F09F47EC07E018BE1E80EF11C8B8DB8
:1029100080620E94260182E10E94830584EA95E09C
:102920000E9488058B8D806262E070E090E00E94DA
:102930003A120E944301B82E0E94430160E0782FB2
:10294000CB018B29F80130E020E001E010E041915B
:10295000B801042E02C0660F771F0A94E2F7609553
:10296000709586239723B601022E02C07595679550
:102970000A94E2F76170772702C0660F771F4A95C5
:10298000E2F7862B972B2F5F3F4F24303105F9F666
:102990002E81680102C0CC0CDD1C2A95E2F7C094A0
:1029A000D094C822D922B601C7010E94C6068E81E2
:1029B000B80102C0660F771F8A95E2F7C62AD72AA8
:1029C000B601C7010E94C6068E81B80102C0660F1B
:1029D000771F8A95E2F7609570956C217D21C7017C
:1029E0000E94C6068BE891E00197F1F7DF91CF9145
:1029F0001F910F91FF90EF90DF90CF90BF90AF901D
:102A00000895F12CE12C5E01EBE1AE0EB11CF80152
:102A100081918F019A8D9F3F39F141E0682FC50167
:102A20000E940013A6010E2C02C0559547950A94EA
:102A3000E2F74170F80131976081CE010E948C125B
:102A4000FFEFEF1AFF0A84E0E816F10401F7CE0168
:102A5000DF91CF911F910F91FF90EF90DF90CF907A
:102A6000BF90AF900C9457140E945601DBCFAF92E9
:102A7000BF92CF92DF92EF92FF920F931F93CF936B
:102A8000DF93EC01F62E6C810E948C126D816F3FFA
:102A900021F040E0CE010E948C120F2D10E08C89B5
:102AA00084FF3AC06E0187E0C80ED11CF12CE12CE6
:102AB0005E01EBE1AE0EB11CF60181916F019A8DC2
:102AC0009F3F39F141E0682FC5010E940013A80122
:102AD0000E2C02C0559547950A94E2F74170F60115
:102AE00031976081CE010E948C12FFEFEF1AFF0A2E
:102AF00088E0E816F10401F7CE01DF91CF911F9134
:102B00000F91FF90EF90DF90CF90BF90AF900C941B
:102B100057140E945601DBCFB80184E07595679584
:102B20008A95E1F7CE010E946F146F2DCE01DF91DF
:102B3000CF911F910F91FF90EF90DF90CF90BF90BA
:102B4000AF900C946F1440E0682F81E496E00C94F1
:102B5000371581E00E94A3158BE39FE10197F1F700
:102B60000895CF93DF93CDB7DEB728970FB6F894CB
:102B7000DEBF0FBECDBF88E0EBE1F1E0DE011196D4
:102B800001900D928A95E1F780915906811117C045
:102B90008FEF90E0880F991F21E030E02C0F3D1F50
:102BA000820F931FFC018081806828960FB6F894ED
:102BB000DEBF0FBECDBFDF91CF910C94A31581E096
:102BC000E8CF41E00E94371581E090E00895CF9270
:102BD000DF92EF92FF921F93CF93DF93EC0180E29D
:102BE000689FF0011124E155FD4F9385917161F0CB
:102BF000842F827449F080E0DF91CF911F91FF9084
:102C0000EF90DF90CF900895142F6A8B8091000190
:102C100090910101A0910201B09103018E879F87DD
:102C2000A88BB98BC488D588F12CE12C7601DD24E2
:102C3000CC24CF8AD88EE98EFA8E828D938DB0E027
:102C4000A0E0AC01BD014C295D296E297F294F8B85
:102C5000588F698F7A8F83858871B1F4848D958DB3
:102C6000A68DB78D8B8B9C8BAD8BBE8B81E08D83BE
:102C70001F701C831E821F82188619861A861B8667
:102C80001C861D8681E0B8CF803109F0B4CF9E014B
:102C90002D5E3F4F8B8D9C8D0E94820B882309F403
:102CA000AACF84E0E4CFCF93DF93EC0184E090E0FF
:102CB0000E943F2CFC0113821282009729F1D183DC
:102CC000C08320910D0630910E062F5F3F4F40913B
:102CD000050650910606452B81F4909306068093D5
:102CE0000506909308068093070630930E062093FE
:102CF0000D0681E0DF91CF910895E0910706F091F4
:102D0000080693838283EDCF80E0F4CFCF93C82F62
:102D100083E090E00E943F2CFC0112821182009718
:102D200019F1C08320910306309104062F5F3F4FB5
:102D30004091FB055091FC05452B79F49093FC05DF
:102D40008093FB059093FE058093FD053093040668
:102D50002093030681E0CF910895E091FD05F09165
:102D6000FE0592838183EECF80E0F5CFFB010190D9
:102D70000020E9F73197AF01461B570BDC01ED91BD
:102D8000FC910280F381E02D09948F929F92AF9283
:102D9000BF92EF92FF920F931F93CF93DF93CDB724
:102DA000DEB7A1970FB6F894DEBF0FBECDBF7C0192
:102DB000FA01CB0119A2223008F42AE08E010F5D3E
:102DC0001F4F822E912CB12CA12CBF01A501940183
:102DD0000E94362EF901CA016A300CF5605DD801F7
:102DE0006E938D01232B242B252B79F790E080E027
:102DF000109721F0BD01C7010E94B616A1960FB62B
:102E0000F894DEBF0FBECDBFDF91CF911F910F9120
:102E1000FF90EF90BF90AF909F908F900895695C66
:102E2000DECF462F50E070E060E02AE00C94C5163B
:102E3000CF92DF92EF92FF920F931F93CF93DF9386
:102E40006B01770FEE08FF08F7FE1BC0EC016DE287
:102E50000E94C9018C0144275527BA014C195D090C
:102E60006E097F092AE0CE010E94C516800F911FCE
:102E7000DF91CF911F910F91FF90EF90DF90CF9056
:102E800008952AE0B701A601DF91CF911F910F911C
:102E9000FF90EF90DF90CF900C94C51661E771E042
:102EA0000C94B616CF93DF93BC0187E095E00E94A7
:102EB000B616EC0187E095E00E944E178C0F9D1F1F
:102EC000DF91CF9108950F931F93CF93DF93EC0180
:102ED0000E94D0018C01CE010E944E17800F911FDD
:102EE000DF91CF911F910F9108956115710511F038
:102EF0000C94B61690E080E008958230910509F4B4
:102F00005DC034F4009761F0019709F445C008955D
:102F10008330910509F462C0049709F46CC00895E8
:102F20000E94A91564E771E081E496E00E9475179C
:102F30006091A9027091AA0281E496E00E9418179C
:102F40006AE771E081E496E00E9475170E94B1156E
:102F500067E970E081E496E00E94D00160919F02F1
:102F600081E496E00E94111765E970E081E496E043
:102F70000E94D00160E970E081E496E00E94D001F7
:102F80006091A80281E496E00E9411176EE771E05B
:102F900081E496E00C9475170E94A91567E870E02B
:102FA00081E496E00E94D0010E94B1156091060173
:102FB0007091070181E496E00C9418170E94A915FE
:102FC0006FE770E081E496E00E94D0010E94B115A5
:102FD0006091050181E496E00C9411170E94A915F7
:102FE00067E770E081E496E00E94D0010E94B1158D
:102FF00060910401EFCF0E94A91560E770E081E4C1
:1030000096E00C94D001FC0180819181009711F031
:103010000C94DB2C0895CF93DF93EC01898D9A8D6E
:10302000009741F00E94800F898D9A8D0E94DB2CC1
:103030001A8E198EDF91CF9108950F931F93CF931E
:10304000DF93EC0188819981009759F02A813B81B7
:103050002617370730F081E0DF91CF911F910F9154
:1030600008958B016F5F7F4F0E94912E009759F05A
:10307000998388831B830A832C813D81232B59F7F5
:10308000FC011082E8CF80E0E7CFEF92FF920F9330
:103090001F93CF93DF9300D0CDB7DEB78C01FC0137
:1030A00011821082138212821582148270E060E015
:1030B0000E941D18F8012081318181112FC0211536
:1030C000310519F0C9010E94DB2CF8011182108230
:1030D00015821482138212820E947E0397FD26C0FD
:1030E00089831A82F801E480F580FFEFEF1AFF0A66
:1030F000B701C8010E941D18882371F3F8012081CF
:10310000318184819581BE016F5F7F4F820F931F54
:103110000E946F2FF801F582E482DECF15821482BF
:1031200063E771E0C9010E946F2FD6CFC8010F90ED
:103130000F90DF91CF911F910F91FF90EF90089525
:1031400085ED8093BC008091FF0490910005A091D3
:103150000105B09102050796A11DB11D23E0B695AA
:10316000A795979587952A95D1F72091BC0024FDC6
:1031700003C01092FD0408954091FF045091000592
:103180006091010570910205452B462B472B69F391
:103190000097A105B10541F025E32A95F1F700005C
:1031A0000197A109B109E1CF8091FE040C9420049C
:1031B0003F924F925F926F927F928F929F92AF92C7
:1031C000BF92CF92DF92EF92FF920F931F93CF9314
:1031D000DF93CDB7DEB72B970FB6F894DEBF0FBEE7
:1031E000CDBF7C01DC0115968C91811115C0FE01CB
:1031F0003196CE010C966F0130E23193E817F90752
:10320000E1F7DA0130E087E09D91B92E992329F1A9
:103210009E3239F48A3011F480E0E4C038E08AE06C
:10322000F3CFEDE9F0E04491442321F0319694137B
:10323000FACFF2CF831780F34FED490F4E3560F789
:103240004FE9490F4A3118F440EEB42EB90EF60199
:10325000E30FF11DB0823F5FD7CF89818032E1F269
:10326000322E8B01FB01838D948DD7015C969C934C
:103270008E935B97168217821086118612861386AC
:1032800014861586F80182859385A485B5854389C2
:1032900054896589768984179507A607B70708F0CA
:1032A0004DC025E0B695A795979587952A95D1F7B6
:1032B000F82FFF70AF2ED80115968C91823008F44C
:1032C000ABCFC8010E94F51197FDA6CFF80182850A
:1032D0009385A485B5854F96A11DB11D82879387DF
:1032E000A487B587F0E2AF9EB001112461557D4FF0
:1032F0006115710509F490CFDB018C91882341F0B1
:10330000853E09F062C0BB2029F0BB24B394BACF3C
:10331000B1100EC0F701A28A8091000190910101C5
:10332000A0910201B091030186879787A08BB18B92
:10333000DB018C918111E9CFBB24B394832D827181
:10334000823109F069CFBB2009F464C0F7016685BA
:1033500077858089918941E00E94EC08882309F4EF
:103360005BCFD70152968C91B0E28B9FC0011124A4
:1033700081559D4F009709F44FCFFC013A9626E105
:10338000DF011D922A95E9F72BE0F601DC0101909F
:103390000D922A95E1F721E238E2FC01318B208B76
:1033A00040E058E057874687338B228B318F208F40
:1033B000578B468B81E00E94C108882309F42CCFEB
:1033C000432DD70152966C910AC04BE050E0C601E4
:1033D0000E944E2F892B09F055CF432D6A2DC7012E
:1033E0000E94E7152B960FB6F894DEBF0FBECDBF37
:1033F000DF91CF911F910F91FF90EF90DF90CF90D1
:10340000BF90AF909F908F907F906F905F904F9004
:103410003F900895F8018581823009F4FDCEC801FE
:103420000E94D50C882309F4F7CED8015B96ED9164
:10343000FC915C9716968D909D90AD90BC901997DD
:10344000B2E08B1A9108A108B108858504C0880CE8
:10345000991CAA1CBB1C8A95D2F786859785A089E2
:10346000B189880E991EAA1EBB1E848124013501D4
:10347000480E511C611C711C84149504A604B704E9
:1034800009F1E1E04E1A51086108710881E00E94DB
:10349000C108882309F4C0CEEFEAF2E011928FEA66
:1034A00094E08E179F07D1F74092000150920101DE
:1034B000609202017092030180911C0281608093EE
:1034C0001C02DACFD8015B96ED91FC91258580E056
:1034D00092E0A0E0B0E004C0880F991FAA1FBB1FB4
:1034E0002A95D2F7F8014389548965897689840F32
:1034F000951FA61FB71F838B948BA58BB68BD70107
:1035000052961C928FEA92E038CFEF92FF920F937F
:103510001F93CF93DF93EC017B018A011B821A82F8
:1035200088EE93E0A0E0B0E08C839D83AE83BF8300
:1035300087E591E0998388838DE190E00E943F2C9C
:103540009A8F898F009779F02DE1F701DC010190C6
:103550000D922A95E1F74CE050E0B801CE010C96AF
:103560000E94762F188EDF91CF911F910F91FF90BF
:10357000EF9008952F923F924F925F926F927F92B9
:103580008F929F92AF92BF92CF92DF92EF92FF9273
:103590000F931F93CF93DF93CDB7DEB7C756D109F3
:1035A0000FB6F894DEBF0FBECDBF5C013B01A696FF
:1035B0004FAFA69719A218A28BE491E09F8F8E8F30
:1035C0001BA21C821B829A8389831E824E018EE17C
:1035D000880E911CC4010E94ED0B63018E010F5FE8
:1035E0001F4F240118016FE270E0C6010E94642F92
:1035F000009709F459C0F60120812F3271F4FFEFD2
:10360000CF1ADF0A902F812F8201492E582E942D38
:10361000852D2801092F182FE6CF8C198D3008F041
:103620008CE0E82EF12CA701B601CE01885A9F4FFD
:103630000E94762FE8E5F0E0EC0FFD1FEE0DFF1D78
:103640001082C8010E94800F21E0AE01485A5F4FEE
:10365000B201C8010E94D818811120C01EAE1DAE53
:103660008BE491E09CAF8BAF21961FAE2197A8967B
:10367000EEADFFADA8976E0E7F1EF3018081811124
:1036800020C0BE01655C7F4FC1010E94391140E836
:1036900051E0B101C5010E94851A31C0CE0CDF1C7A
:1036A000C2010E94800FB3CFC60186199709A89660
:1036B0009FAF8EAFA897B201CE01CB960E94391171
:1036C000D6CF19A218A28BE491E09F8F8E8F1BA2F8
:1036D00021968FAD219781112DC0F50113821282A1
:1036E00088EE93E0A0E0B0E084839583A683B7835F
:1036F00087E591E091838083128E118E1486C50137
:10370000C959DF4F0FB6F894DEBF0FBECDBFDF91B2
:10371000CF911F910F91FF90EF90DF90CF90BF90CE
:10372000AF909F908F907F906F905F904F903F9061
:103730002F900895A6962FADA697A301BE01655CB4
:103740007F4FC4010E94D818882339F2CE01CB964E
:103750000E94800FA6968FADA6978670863039F4AA
:1037600049A95AA96BA97CA9C4010E94410CB401C2
:10377000C1010E943911A3018CCF1F920F920FB685
:103780000F9211242F933F934F935F936F937F93E7
:103790008F939F93AF93BF93EF93FF9387E095E051
:1037A0000E947202FF91EF91BF91AF919F918F9113
:1037B0007F916F915F914F913F912F910F900FBE2D
:1037C0000F901F9018951F920F920FB60F92112411
:1037D0002F938F939F93EF93FF93E0911705F091B1
:1037E00018058081E0911D05F0911E0582FD1BC02A
:1037F0009081809120058F5F8F7320912105821722
:1038000041F0E0912005F0E0E95FFA4F958F809359
:103810002005FF91EF919F918F912F910F900FBEF7
:103820000F901F9018958081F4CF1F920F920FB6C2
:103830000F9211242F933F938F939F93AF93BF9336
:103840008091850290918602A0918702B0918802B2
:103850003091840223E0230F2D3758F50196A11DE6
:10386000B11D209384028093850290938602A093D9
:103870008702B09388028091890290918A02A09178
:103880008B02B0918C020196A11DB11D809389021B
:1038900090938A02A0938B02B0938C02BF91AF9158
:1038A0009F918F913F912F910F900FBE0F901F907E
:1038B000189526E8230F0296A11DB11DD2CF1F92A5
:1038C0000F920FB60F9211242F933F934F935F9354
:1038D0006F937F938F939F93AF93BF93EF93FF93D8
:1038E0008091B900887F803609F44AC0F0F58832AB
:1038F00009F4A7C018F5803109F49BC0B8F48823F7
:1039000009F4F9C0883009F494C0FF91EF91BF9198
:10391000AF919F918F917F916F915F914F913F9167
:103920002F910F900FBE0F901F901895883109F4BA
:1039300088C0803251F78093DB0414C0803409F4CE
:103940009DC040F48033B9F38833F9F68093DB04EB
:1039500085ECB0C0803509F485C0883509F496C07F
:10396000883499F60E94A018D0CF883909F48CC009
:1039700038F5883729F050F4883611F0803729F669
:1039800083E08093FD041092830257C0883809F4C5
:103990007BC0803919F0803809F0B7CF809183025D
:1039A000803208F071C0E091830281E08E0F809335
:1039B00083028091BB00F0E0ED59FD4F80833DC054
:1039C000803B39F0E0F4803A09F479C0883A09F094
:1039D0009CCF84E08093FD041092620210926102F9
:1039E000E091B304F091B4040995809161028111D2
:1039F0000FC081E0809361021092410209C0803CB7
:103A000009F4A6CF883C09F4A3CF883B09F07DCF09
:103A1000E091620281E08E0F80936202F0E0EF5B42
:103A2000FD4F80818093BB00909162028091610282
:103A300029C08091D8048093BB0085EC8093BC00A2
:103A400064CF9091DA048091D904981758F5E091E9
:103A5000DA0481E08E0F8093DA04F0E0E954FB4F42
:103A60008081E9CFE091DA0481E08E0F8093DA045F
:103A70008091BB00F0E0E954FB4F80839091DA0421
:103A80008091D9049817C8F285E8D8CFE091DA047C
:103A900081E08E0F8093DA048091BB00F0E0E9545E
:103AA000FB4F80838091DC0481115CCF81E08093A7
:103AB000D70484EA8093BC001092FD0426CF85ECE5
:103AC0008093BC001092FD0480918302803230F418
:103AD000E0918302F0E0ED59FD4F10826091830286
:103AE00070E0E091B104F091B20483E692E00995B0
:103AF000109283020ACF1092DB0434CFEC0168E607
:103B000070E087E095E00E94D001CE010E9452173C
:103B100061E085E00E940103FFCF10920A05109238
:103B2000090548EE53E060E070E040930B055093C8
:103B30000C0560930D0570930E0587E291E090935C
:103B400008058093070585EC90E090931405809319
:103B5000130584EC90E0909316058093150580EC96
:103B600090E0909318058093170581EC90E0909376
:103B70001A058093190582EC90E090931C058093C0
:103B80001B0586EC90E090931E0580931D05109216
:103B90002005109221051092220510922305109203
:103BA000A7051092A6054093A8055093A905609318
:103BB000AA057093AB0589E391E09093A5058093E6
:103BC000A40580E58093B0051092B1051092B70569
:103BD0001092B8051092BB051092BD0582E090E0EE
:103BE000A0E0B0E08093BE059093BF05A093C00510
:103BF000B093C1051092D5051092DF051092DE0535
:103C00008BE491E09093DD058093DC051092E10553
:103C1000109244061092430689E691E09093420682
:103C20008093410610925B06109255068FE08093B8
:103C300045068EE0809346068DE0809347068CE033
:103C4000809348068BE0809349068AE080934A0679
:103C500089E080934B061092500681E080935106D4
:103C600092E09093520693E09093530694E09093E1
:103C700054061092320610923306109234061092B7
:103C800035061092360610923706109238061092BA
:103C9000390610923A0610923B0610923C0610929A
:103CA0003D0680933E0680933F0680934006109227
:103CB0001806109217064093190650931A0660933F
:103CC0001B0670931C0687E591E09093160680937F
:103CD000150610922F0610922E06109221061092B1
:103CE0001406109213061092120610920F06E9EEB7
:103CF000F1E081E08C3049F09491823009F49F5FCB
:103D000021E0280F3196992391F18093100681E0EC
:103D1000809311061092060610920506109208066E
:103D20001092070610920E0610920D062FEF3FEF2D
:103D300030930C0620930B068CE090E090930A06DB
:103D4000809309061092FC051092FB051092FE0567
:103D50001092FD051092040610920306309302069D
:103D600020930106909300068093FF050895822F0B
:103D7000C1CFCF93DF93CDB7DEB7C15BD1090FB60B
:103D8000F894DEBF0FBECDBF789484B5826084BD49
:103D900084B5816084BD85B5826085BD85B581604F
:103DA00085BD80916E00816080936E0010928100CD
:103DB0008091810082608093810080918100816088
:103DC0008093810080918000816080938000809149
:103DD000B10084608093B1008091B00081608093D5
:103DE000B00080917A00846080937A0080917A009C
:103DF000826080937A0080917A00816080937A005B
:103E000080917A00806880937A001092C100E091DE
:103E10001705F091180582E08083E0911305F09179
:103E200014051082E0911505F09116058FEC808342
:103E300010921F05E0911B05F0911C0586E0808320
:103E4000E0911905F0911A05808180618083E091ED
:103E50001905F0911A05808188608083E091190529
:103E6000F0911A05808180688083E0911905F091B6
:103E70001A0580818F7D808385E00E94560186E04F
:103E80000E94560182E00E94560183E00E94560182
:103E900084E00E94560161E084E00E94010367E72C
:103EA00071E087E095E00E94D0018AE00E9456010F
:103EB0008091E105882321F08CED95E00E94800F30
:103EC0001092BD051092BB051092B8051092B7056F
:103ED0008AE08093B6050E9472038B018091B6053B
:103EE0000E94560161E08091B6050E940103FFB671
:103EF000F89480918D02811124C0EBECF1E0849163
:103F0000EFEDF1E09491E82FF0E0EE0FFF1FE954A0
:103F1000FE4FA591B491EC91E92321F461E08AE090
:103F20000E9401038AE00E9456018CB580618CBD1D
:103F30008CB580648CBD8DE00E9456018BE00E94A0
:103F4000560180918D028F5F80938D02FFBE82E5C6
:103F50008093B0051092B1058091B0059091B105A4
:103F60000E941707AAE0FA2E8FEF0E94F206FA9439
:103F7000F110FACF82EB95E00E941A0720E030E0C2
:103F8000A90160E082EB95E00E943007F82E809353
:103F9000BC0521E0821791F00E947203601B710B37
:103FA000613D774058F381E08093B70582EB95E05F
:103FB0000E94E70682E891E00E947E1D2AEA31E035
:103FC00040E050E068E082EB95E00E94300782FF1D
:103FD0002BC0F092BD058091BD05812C912CA12CA8
:103FE000E0E4BE2E823019F0812C912C540120E0A7
:103FF00030E0A90167E382EB95E00E943007A5015C
:10400000940169E282EB95E00E943007E82E8093EC
:10401000BC058823D1F00E947203601B710B613DC7
:10402000774028F388E0C0CFF4E0EF2E0E94F90635
:104030008093BC05EA94E110F9CF8A3A11F082E04E
:10404000B3CF82E08093BD05C6CF8091BD0582309D
:10405000D1F420E030E0A9016AE382EB95E00E9410
:104060003007882311F086E09FCF0E94F906807CFC
:10407000803C19F483E08093BD050E94F9060E94FC
:10408000F9060E94F90682EB95E00E94E70680E5BA
:104090008093B0051092B10581E00E943609882313
:1040A00009F491C08CED95E00E94ED0B882309F492
:1040B00081CF65E671E087E095E00E9463177BE4BD
:1040C000A72E71E0B72E3E019EE3690E711C8E0192
:1040D0000F5F1F4F8E2D6AE00E94162E805D809329
:1040E0000E01905D90930F0122961FAE1EAE229797
:1040F000BFAEAEAE24961FAE24971CA21BA2BAA2DE
:10410000A9A21EA2212C312C562C472C6CEDC62EB8
:1041100065E0D62EC101F101E85FFE4F20812F320C
:1041200009F40196DC01A85FBE4FFE01E55AFF4F7E
:1041300030E020E04F014D914F3249F0442339F0F7
:1041400001962F5F3F4F41932C303105A1F7280D89
:10415000391DF9011082FC01E85FFE4F20812F32EA
:1041600009F401961C01885F9E4FDC01BC91CF547D
:10417000DF4FB883C15BD0401C821B82BA82A98208
:104180001E8221E0A401B601C8010E94D81888232C
:1041900011F40C94F32BC8010E94800FCF54DF4F11
:1041A000E881C15BD040E11115C02CEDC21625E0BD
:1041B000D20619F0C6010E94800FE39434E6E312A0
:1041C00089CF0C94042C80E00E943609882309F4DE
:1041D000F1CE68CF21E0A401B601852D942D0E9477
:1041E000D818982EFCEDCF16F5E0DF0611F40C94EC
:1041F000122CC6010E94800F91100C94172C0C9465
:10420000FB2B68E571E087E095E00E94D00188E033
:1042100091E00E9452170E9409040E94090488E656
:104220000E94260184EA95E00E948805882319F0FF
:1042300083EC91E0C1CE88E60E94260162E084EA28
:1042400095E00E94540584EA95E00E94880561E0AB
:1042500070E088E690E00E943A120E944301807E5E
:104260009927803E910509F02FC08EEC91E00E94C5
:1042700052174BE050E06CE471E0C8010E94642DDD
:10428000CE010A960E94B703E82EE981E154E3319A
:1042900008F098C20E2E000CFF0BEF5AFE4D0C9446
:1042A000772E6F24E223E2238A24E2238D24E22363
:1042B000E223E223D823E223E22378248724842400
:1042C000E223E223E223812483E00E943D1490E074
:1042D000880F892F881F990B892B09F0C6CF80E0A2
:1042E0000E943D14F82E85FF12C088E60E94260128
:1042F00060E084EA95E00E9454056F2D6F7D84EAAA
:1043000095E00E94540584EA95E00E94880562E0E9
:1043100071E085E196E00E94631761EC70E087E050
:1043200095E00E94631780915B068F3F09F4B4C04B
:104330000E94090410925C060E94090480915C06A8
:1043400080620E94260180E00E9483058FEF0E9418
:10435000830584EA95E00E94880580915C0680626E
:104360000E94260181E00E9483058FEF0E94830551
:1043700084EA95E00E94880541E068E08CE596E0DB
:104380000E94BC1241E066E08CE596E00E94BC12FF
:1043900041E067E08CE596E00E94BC1287E00E9455
:1043A0009C1260914606662329F041E08CE596E078
:1043B0000E94001341E0609145068CE596E00E9462
:1043C000001341E0609147068CE596E00E940013DF
:1043D00028E4C22E26E0D22E31E4E32E36E0F32E7E
:1043E0004CE4A42E46E0B42ED6016D916D0141E05F
:1043F0008CE596E00E940013AC14BD04A9F796E486
:10440000A92E96E0B92E40E0F70167858CE596E08D
:104410000E940013D7011F96DC90BFE0BD15A8F1E4
:10442000E7E0BCE0CB2EED1520F4F8EFDF0E8DE0D9
:10443000C82E80915C0680620E9426018C2D0E940D
:10444000830584EA95E00E94880580915C0680627D
:1044500061E070E090E00E943A120E944301982EC1
:1044600080915C0680620E9426018C2D0E9483054B
:1044700081E090E001C0880FDA94EAF789290E9470
:10448000830584EA95E00E9488052FEFE21AF20A7C
:10449000AE14BF0409F0B7CF8091550688608093B1
:1044A000550682E08093590610925A068BE39DE0F0
:1044B0000197F1F740E06091450681E496E00E94A3
:1044C0008C1240E06091470681E496E00E948C12D5
:1044D000609146066F3F29F040E081E496E00E943B
:1044E0008C128091550684FD1BC263E081E496E046
:1044F0000E946F14ABE4EA2EA6E4FA2EC7010197DE
:10450000F1F763E081E496E00E946F14C701019720
:10451000F1F763E081E496E00E946F1483E592E096
:104520000197F1F762E081E496E00E946F148091B8
:10453000550680620E94A31584E0809356068CE0A5
:104540000E94A3150E94A91582E08093570686E079
:104550000E94A31580E00E949C1284EA95E090934B
:1045600031068093300670E060E080E190E00E94C8
:104570006F06882309F4EAC162E070E080E096E407
:104580000E946F0670E060E086E093E50E946F068F
:1045900010928E0288EB9BE0A0E0B0E08093FF04D5
:1045A00090930005A0930105B093020581E08093EC
:1045B000FE040E9405130197E1F780913F068111E7
:1045C0000E94571381E080933F0660913A067091F4
:1045D0003B0680913C0690913D060E94E72D762E89
:1045E00080913E0681110E94571381E080933E0620
:1045F00060913206709133068091340690913506B1
:104600000E94E72D4B016B01FCE0EF2EF12C209175
:104610000306309104068091FF059091000628174B
:10462000390719F0872D0E94861620910D063091CA
:104630000E068091090690910A062817390719F08D
:10464000C6010E94531631E0E31AF10801F72CE08D
:10465000729EC00111249093950280939402289D2C
:10466000C001299D900D1124092E000CAA0BBB0B33
:104670008093900290939102A0939202B093930240
:104680007092A8029092AA028092A902809140069C
:1046900081110E94571381E0809340066091360695
:1046A0007091370680913806909139060E94E72D67
:1046B00060939F028091A20290E00E947D1778EEA5
:1046C000472E73E0572E612C712CEBE52E2E312CEA
:1046D0002C0E3D1E8CE0280E311C87E095E00E94D8
:1046E0005202181619060CF01EC285E196E00E94CF
:1046F0000B1887E095E00E943002F82E682F87E0C3
:1047000095E00E94C90187E095E00E944E178DE078
:10471000ECE0F2E0DE01A256BF4F01900D928A95C7
:10472000E1F7C555DF4F19821882CB5AD040C355E7
:10473000DF4F19821882CD5AD040C155DF4F198200
:104740001882CF5AD04070E060E0CE0185559F4F6F
:104750000E941D18C555DF4F28813981CB5AD040A2
:104760008111F7C02115310519F0C9010E94DB2C18
:10477000C555DF4F19821882CB5AD040C155DF4F43
:1047800019821882CF5AD040C355DF4F1982188240
:10479000CD5AD04087E095E00E945202892B09F45F
:1047A000E4C0C8010E944518C8010E940318F2CF56
:1047B0008A81813639F08B8146E0F42E8E3611F0F5
:1047C00037E0F32ECE0105960E94B703C82E48E0CD
:1047D00050E063E471E0C8010E94642DC8010E94AA
:1047E000B703B82ECE0104960E94B703A82ECE01BF
:1047F00007960E94B703982E88E60E94260163E080
:1048000084EA95E00E9454055AE0D52E892D6D2D3D
:104810000E94162E682F660F680F660F690D84EAD6
:1048200095E00E9454058A2D6D2D0E94162E682F4A
:10483000660F680F660F6A0D84EA95E00E945405C2
:104840008B2D6D2D0E94162E682F660F680F660F38
:104850006B0D84EA95E00E9454058C2D6D2D0E940D
:10486000162E682F660F680F660F6C0D84EA95E0B0
:104870000E94540560E084EA95E00E9454058F2D63
:104880006D2D0E94162E682F660F680F660F6F0D34
:1048900084EA95E00E9454058E2D6D2D0E94162EFF
:1048A000682F660F680F660F6E0D84EA95E00E9410
:1048B000540584EA95E00E94880588E60E94260156
:1048C00062E084EA95E00E94540560E084EA95E0A5
:1048D0000E94540584EA95E00E94880500CD8B81F2
:1048E00024E0F22E823709F46DCF98E0F92E6ACFDA
:1048F0008B81B5E0FB2E823709F064CF83E0F82E80
:1049000061CFA9E0FA2E5ECFFAE0FF2E5BCFEBE09D
:10491000FE2E58CF7CE0F72E55CF62E0F62E52CF18
:1049200080620E94A3158BE496E40197F1F78091D1
:10493000550680620E94A31583E592E00197F1F786
:104940008091550680620E94A315F1CD8AEF91E017
:1049500033CBC155DF4F19821882CF5AD04063E75D
:1049600071E0C9010E946F2F15CF9FE6F91609F477
:1049700010C6A2E7FA12C9C041E060E871E0CE01BA
:104980008A589F4F0E94BA1AC157DF4FE881F981B8
:10499000CF58D040309709F4A9C08581882309F405
:1049A000A5C0823040F016821782108611861286CA
:1049B00013861486158657E5C52E51E0D52E6BE477
:1049C000A62E61E0B62EC157DF4FE880F980CF58A0
:1049D000D040F7018581823008F49EC58285938599
:1049E000A485B5858F719927AA27BB27892B8A2B88
:1049F0008B2B09F091C540E250E0BE016F5F7F4F05
:104A0000C7010E94D50D803209F086C589818823AF
:104A100009F482C5853E79F38E3269F38C8583FD76
:104A2000EACF22961FAE1EAE2297BFAEAEAE249640
:104A30001FAE2497BE016F5F7F4FE0E080E04EE243
:104A4000DB019D91BD019032A1F0883049F421E94C
:104A500030E02C0F3D1F2E0F311DD9014C93EF5F1D
:104A600021E930E02C0F3D1F2E0F311DD9019C9301
:104A7000EF5F8F5F8B3021F721E930E02C0F3D1F76
:104A80002E0F311DF9011082C157DF4F68817981E6
:104A9000CF58D04021E0AE014F565F4FCE01CE96A9
:104AA0000E94D818882309F437C5BE01625C7F4F85
:104AB000CE0181960E943911AE014F565F4FBE0163
:104AC0006F5D7F4FCE01855A9F4F0E94851AE696F3
:104AD000EEADFFADE697309719F08581811132C5B3
:104AE00062E971E087E095E00E946317CE018A5881
:104AF0009F4F0E940B1887E095E00E945202892B7D
:104B000021F087E095E00E94300247E168E071E023
:104B1000C8010E94BA1AC8010E947501CE018555CC
:104B20009F4F0E9403180E947203C090AB02D09066
:104B3000AC02E090AD02F090AE026C197D098E09D6
:104B40009F0968397A438105910508F4DFC288E638
:104B50000E94260163E084EA95E00E94540584EAFD
:104B600095E00E94880567E070E088E690E00E948A
:104B70003A120E9443018F77282F30E0E4E0359508
:104B80002795EA95E1F7922F990F990FF22EF91ACE
:104B9000FF0CF80E0E9443019C01F4E03595279527
:104BA000FA95E1F72F703327922F990F990FE22E84
:104BB000E91AEE0CE80E0E9443019C01A4E0359531
:104BC0002795AA95E1F72F703327922F990F990F08
:104BD000D22ED91ADD0CD80E0E9443019C01B4E0FC
:104BE00035952795BA95E1F72F703327922F990FB6
:104BF000990FC22EC91ACC0CC80E0E9443010E9404
:104C000043019C0194E0359527959A95E1F72F7023
:104C10003327922F990F990FB22EB91ABB0CB80EE9
:104C20000E9443019C0144E0359527954A95E1F7A0
:104C30002F703327922F990F990F291B220F820F64
:104C400080930F06B0921006C0921106D092120601
:104C5000E0921306F09214060E940513019709F0E2
:104C6000ECC061E086E00E94010380913E06811164
:104C70000E94571381E080933E0660913206709146
:104C8000330680913406909135060E94E72D4B0142
:104C900080910D0690910E06892B09F442C58091F2
:104CA000050690910606009709F43BC5DC011296B3
:104CB0002D913C9113973093060620930506ED90B5
:104CC000FC900E94DB2C8091050690910606892BB2
:104CD00021F4109208061092070680910D0690911B
:104CE0000E06019790930E0680930D06C701FF0CE8
:104CF000AA0BBB0BC0909002D0909102E090920260
:104D0000F0909302C81AD90AEA0AFB0AC0929002EC
:104D1000D0929102E0929202F092930220910D06BD
:104D200030910E068091090690910A0628173907DE
:104D300019F0C4010E945316092C000CAA08BB08E4
:104D4000C501B4016C0D7D1D8E1D9F1D60939002E9
:104D50007093910280939202909393022CE030E042
:104D600040E050E00E94582E3093AA022093A902FE
:104D700080913F0681110E94571381E080933F0686
:104D800060913A0670913B0680913C0690913D06F9
:104D90000E94E72DD62E8091030690910406892B60
:104DA00009F4C2C48091FB059091FC05009709F4B9
:104DB000BBC4FC01218132813093FC052093FB05AB
:104DC000F0800E94DB2C8091FB059091FC05892BE3
:104DD00021F41092FE051092FD058091030690913A
:104DE0000406019790930406809303068091940231
:104DF000909195029C012F19310979013093950208
:104E00002093940220910306309104068091FF05BF
:104E1000909100062817390719F08D2D0E948616EB
:104E2000C7018D0D911D90939502809394026CE0C3
:104E300070E00E94222E6093A8028091A70288232E
:104E400001F10E947203C090A302D090A402E090EE
:104E5000A502F090A6026C197D098E099F09603E9B
:104E600073498440910508F47AC01092A702109209
:104E7000A20290E080E00E947D178091A70281113C
:104E80006EC08091A102811118C02091A9023091B9
:104E9000AA0280910601909107018217930734F0CE
:104EA0009091A80280910501981738F481E08093D1
:104EB000A10260E082E00E9401038091A1028823A8
:104EC00029F1809106019091070180579E4F97FD2F
:104ED0000196959587952091A9023091AA022817ED
:104EE0003907A4F42091A802809105019091040152
:104EF000890F9927991F959587952817190634F0DA
:104F00001092A10261E082E00E9401038091A00260
:104F100081110DC09091A80280910501981738F475
:104F200081E08093A00260E083E00E940103809111
:104F3000A0028823A1F02091A80280910501909100
:104F40000401890F9927991F9595879528171906A8
:104F500034F01092A00261E083E00E94010362E25B
:104F600087E095E00E94C90140910F0650E0405350
:104F7000584F70E060E02AE087E095E00E94C51697
:104F800060E871E087E095E00E9475176091100677
:104F900087E095E00E94111760E871E087E095E0F6
:104FA0000E9475176091110687E095E00E94111725
:104FB0006AE072E087E095E00E9475176091120642
:104FC00087E095E00E94111767E072E087E095E0C6
:104FD0000E9475176091130687E095E00E941117F3
:104FE00067E072E087E095E00E9475176091140613
:104FF00087E095E00E94111762E287E095E00E9449
:10500000C90169E072E087E095E00E947517609140
:10501000A9027091AA0287E095E00E94181769E042
:1050200072E087E095E00E94751760919F0287E02B
:1050300095E00E94111769E072E087E095E00E9418
:1050400075176091A80287E095E00E94111769E04A
:1050500072E087E095E00E9475176091A10270E010
:1050600087E095E00E94181769E072E087E095E01C
:105070000E9475176091A00270E087E095E00E94A1
:10508000181769E072E087E095E00E94751760915B
:1050900006017091070187E095E00E94181769E00A
:1050A00072E087E095E00E9475176091050187E046
:1050B00095E00E94111769E072E087E095E00E9498
:1050C00075176091040187E095E00E94111769E06F
:1050D00072E087E095E00E94751780915D069091DF
:1050E0005E06B801681B790B87E095E00E941817EF
:1050F00087E095E00E944E170E9472036093AB0216
:105100007093AC028093AD029093AE020E94720342
:10511000C0909B02D0909C02E0909D02F0909E0275
:105120006C197D098E099F09603E73498440910581
:1051300008F4DBC00E94720360939B0270939C0290
:1051400080939D0290939E0262E285E196E00E9428
:10515000C90140910F0650E04053584F70E060E0A5
:105160002AE085E196E00E94C51660E871E085E1DD
:1051700096E00E9475176091100685E196E00E9406
:10518000111760E871E085E196E00E947517609163
:10519000110685E196E00E9411176AE072E085E150
:1051A00096E00E9475176091120685E196E00E94D4
:1051B000111767E072E085E196E00E947517609133
:1051C000130685E196E00E94111767E072E085E121
:1051D00096E00E9475176091140685E196E00E94A2
:1051E000111762E285E196E00E94C90169E072E070
:1051F00085E196E00E9475176091A9027091AA025C
:1052000085E196E00E94181769E072E085E196E07A
:105210000E94751760919F0285E196E00E94111728
:1052200069E072E085E196E00E9475176091A8023E
:1052300085E196E00E94111769E072E085E196E051
:105240000E9475176091A10270E085E196E00E94CE
:10525000181769E072E085E196E00E947517609189
:10526000A00270E085E196E00E94181769E072E004
:1052700085E196E00E947517609106017091070123
:1052800085E196E00E94181769E072E085E196E0FA
:105290000E9475176091050185E196E00E94111743
:1052A00069E072E085E196E00E9475176091040163
:1052B00085E196E00E94111769E072E085E196E0D1
:1052C0000E94751780915D0690915E06B801681B7B
:1052D000790B85E196E00E94181785E196E00E941F
:1052E0004E1760E086E00E94010330E5E32E36E0D1
:1052F000F32ED12CC12C4FE1B42EAC2CF7019190A0
:105300007F01FFE080E0F91530F127E092E1892E7E
:10531000291520F438EF930E23E1822E80915C064C
:1053200080620E942601882D0E94830584EA95E010
:105330000E94880580915C06806261E070E090E0E8
:105340000E943A120E944301992702C095958795C1
:105350009A94E2F7817090E002C0880F991FAA9496
:10536000E2F780959095B8228FEFC81AD80A95E099
:10537000C916D10411F6BB2009F498C0B3FE16C0BB
:105380008091A202813009F0D1C1209106013091B3
:1053900007012031A7E23A0734F42C593F4F3093EC
:1053A00007012093060190E00E947D17B2FE16C00F
:1053B0008091A202813009F0DBC120910601309179
:1053C00007012139B1E03B0734F02456310930930D
:1053D00007012093060190E00E947D17B4FE0AC0E9
:1053E00080919A028111E2C185E00E949C1281E0C5
:1053F00080939A02B1FE0CC08091A2028111DCC19F
:1054000081E08093A2028091A20290E00E947D1729
:10541000B0FE28C08091A7028111DCC161E082E06A
:105420000E94010361E083E00E94010361E084E0E7
:105430000E9401031092A1021092A00284E08093C6
:10544000A20284E090E00E947D1781E08093A70291
:105450000E9472036093A3027093A4028093A5023A
:105460009093A6020E944D034B015C0188ECC82E6C
:10547000D12CE12CF12C0E944D03681979098A097D
:105480009B09683E734081059105A8F3E1E0CE1ABF
:10549000D108E108F108F8EE8F0EF3E09F1EA11C81
:1054A000B11CC114D104E104F10429F760E086E0E5
:1054B0000E9401030E947203C0909602D09097024E
:1054C000E0909802F09099026C197D098E099F096D
:1054D000603E73498440910590F00E94720360938E
:1054E000960270939702809398029093990261E0DC
:1054F00085E00E94010360E085E00E94010380E0F6
:1055000090E0892B09F4E9C80E945E02882309F41F
:10551000E4C80E940000E1C86F961FAE1EAE6F97F0
:10552000A3964CAE5DAE6EAE7FAEA3976D96DFAE2A
:10553000CEAE6D97E6961FAE1EAEE697A8961FAE4E
:10554000A897C5CAB10187E095E00E9475176FE87A
:1055500071E087E095E00E94D001E696EEADFFADE8
:10556000E69740E050E0BA01309721F04389548932
:10557000658976892AE087E095E00E94C51687E074
:1055800095E00E944E17CE01855A9F4F0E940B183E
:105590001ACA87E095E00E9452021816190634F4E0
:1055A000C8010E944518C8010E94031887E095E0D1
:1055B0000E945202892BD1F3C8010E944518C5559B
:1055C000DF4F88819981CB5AD040009709F478C089
:1055D00069817A816115710509F470C0C355DF4F87
:1055E00048815981CD5AD0402D813E8142175307C1
:1055F00008F464C00E946F2F8D819E81C155DF4FDA
:1056000099838883CF5AD0401E821D82CE01019695
:105610000E940318C155DF4F88819981CF5AD0402D
:10562000009741F0C555DF4FE881F981CB5AD04052
:10563000309721F410928F02EFE8F2E02081CC55F0
:10564000DF4F2883C45AD040029748F0C555DF4F3A
:10565000E881F981CB5AD040309709F04EC01092C2
:105660008F02EFE8F2E08081CB55DF4F8883C55A87
:10567000D040CE0182569F4F0E94521741E0BE019A
:1056800062567F4FCE0101960E94BA1AEA8DFB8DB9
:10569000309709F43FC085818823E1F1CE0101965E
:1056A0000E949211892B59F1CE0101960E940C1291
:1056B000682F87E095E00E949402F0CF0E94DB2CD7
:1056C00089819A81C555DF4F99838883CB5AD04011
:1056D0008B819C81C355DF4F99838883CD5AD040FD
:1056E0008D819E81C155DF4F99838883CF5AD040E9
:1056F0001A8219821C821B8287CF3196B4CF69EA45
:1057000071E087E095E00E946317CE0101960E9448
:105710000B18FBC966E971E087E095E00E9463170A
:10572000F4C9F12CE12CE2CAF12C60CB8230A1F457
:10573000909105019F3508F036CE40910401292F44
:1057400030E0265F3F4F4217130609F00CF42BCED2
:105750009B5F9093050127CE833009F024CE909172
:105760000401943608F01FCE9B5F909304011BCE7A
:10577000823049F490910501992309F42CCE95507B
:105780009093050128CE833009F025CE9091040135
:105790002091050130E02B5F3F4F9217130609F06F
:1057A0000CF419CE95509093040115CE80E00E9420
:1057B0009C1210929A021ECE813011F482E021CE0A
:1057C000823011F483E01DCE833009F01CCE10929C
:1057D000A20219CE1092A7021092A20290E080E0DD
:1057E0000E947D173FCE8CEDC81685E0D80619F0D3
:1057F000C6010E94800F47E168E071E0C8010E9485
:10580000BA1AC8010E947501E0912E06F0912F0688
:10581000309721F0858181110C9401218FEA91E06C
:105820000C94DC1F882339F3DE0191966D019C2DC9
:105830008D2DC52CD42C2C010C948A208091FB0535
:105840009091FC05009751F0FC0121813281309349
:10585000FC052093FB050E94DB2CF0CF8091050610
:1058600090910606009751F0FC012281338130931C
:105870000606209305060E94DB2CF0CF08950F93B7
:105880001F93CF93DF938230910510F482E090E074
:10589000E0915F06F091600630E020E0B0E0A0E02B
:1058A000309799F42115310509F44AC0281B390BAA
:1058B00024303105D8F58A819B816115710589F104
:1058C000FB0193838283FE0111C0408151810281DB
:1058D000138148175907E0F04817590799F41097B2
:1058E00061F012960C93129713961C933296CF0187
:1058F000DF91CF911F910F91089500935F06109350
:105900006006F4CF2115310551F04217530738F0E6
:10591000A901DB019A01BD01DF01F801C1CFEF014F
:10592000F9CF9093600680935F06CDCFFE01E20F22
:10593000F31F819391932250310939832883D7CF64
:1059400020915D0630915E06232B41F420911701D2
:105950003091180130935E0620935D062091150169
:10596000309116012115310541F42DB73EB7409114
:10597000190150911A01241B350BE0915D06F0913D
:105980005E06E217F307A0F42E1B3F0B281739071A
:1059900078F0AC014E5F5F4F2417350748F04E0F8B
:1059A0005F1F50935E0640935D06819391939FCF56
:1059B000F0E0E0E09CCFCF93DF930097E9F0FC01AB
:1059C000329713821282A0915F06B0916006ED01BA
:1059D00030E020E01097A1F420813181820F931FE5
:1059E00020915D0630915E062817390709F061C0E5
:1059F000F0935E06E0935D06DF91CF910895EA0192
:105A0000CE17DF07E8F54A815B819E0141155105FC
:105A1000B1F7E901FB83EA8349915991C40FD51F7E
:105A2000EC17FD0761F4808191810296840F951F28
:105A3000E90199838883828193819B838A83F0E043
:105A4000E0E012968D919C9113970097B9F52D91F6
:105A50003C911197CD010296820F931F20915D0614
:105A600030915E062817390739F6309751F51092B4
:105A7000600610925F06B0935E06A0935D06BCCFF1
:105A8000D383C28340815181840F951FC817D907E2
:105A900061F44E5F5F4F88819981480F591F518390
:105AA00040838A819B81938382832115310509F08C
:105AB000B0CFF0936006E0935F069ECFFD01DC015E
:105AC000C0CF13821282D7CFFB01DC0102C0059048
:105AD0000D9241505040D8F7089557FD9058440F0B
